:020000000C945E
:100002000D120C9400000C9400000C9400000C944F
:1000120000000C9400000C9400000C9400000C945E
:1000220000000C9400000C9400000C9400000C944E
:1000320000000C9400000C9400000C9400000C943E
:1000420000000C9400000C9400000C9400000C942E
:1000520000000C9400000C9400000C9400000C941E
:1000620000000C9400000C9400000C9400000C940E
:1000720000000C9400000C9400000C9400000C94FE
:1000820000000C9400000C940000050720600000A2
:1000920000000000005F00000007000700147F144A
:1000A2007F14242A7F2A12231308646236495522B8
:1000B200500005030000001C2241000041221C00E8
:1000C200082A1C2A0808083E0808005030000008C8
:1000D20008080808003030000020100804023E51D1
:1000E20049453E00427F4000426151494621414517
:1000F2004B311814127F1027454545393C4A49496E
:100102003001710905033649494936064949291E14
:100112000036360000005636000000081422411452
:100122001414141441221408000201510906324920
:1001320079413E7E1111117E7F494949363E414146
:1001420041227F4141221C7F494949417F090901DE
:10015200013E414151327F0808087F00417F410042
:100162002040413F017F081422417F404040407FB0
:100172000204027F7F0408107F3E4141413E7F0915
:100182000909063E4151215E7F091929464649491E
:10019200493101017F01013F4040403F1F20402083
:1001A2001F7F2018207F631408146303047804035C
:1001B200615149454300007F41410204081020413A
:1001C200417F00000402010204404040404000011F
:1001D20002040020545454787F484444383844443C
:1001E2004420384444487F3854545418087E090146
:1001F20002081454543C7F0804047800447D4000F3
:100202002040443D00007F10284400417F40007C94
:10021200041804787C0804047838444444387C1474
:10022200141408081414187C7C0804040848545454
:100232005420043F4440203C4040207C1C2040206D
:100242001C3C4030403C44281028440C5050503C48
:100252004464544C44000836410000007F00000012
:100262004136080002010204027F4141417F000041
:10027200000000000000000000000000000000007C
:10028200000000008080000000000000000000006C
:10029200000000000000808000000000000000005C
:1002A200000000000000000000000000000000004C
:1002B200000000000000000000000000000000003C
:1002C200000000000000000000000000000000002C
:1002D200000000000080800000000000000000001C
:1002E200000000000000000000000000000000000C
:1002F200E0E00000060E1ABAE3C1000080C0E0B0E0
:10030200F0F00000FFFF00000000E0E0000000F05D
:10031200F00000000000FFFF000020E0E00000000D
:100322000000C0C008181800F0F00000E0F03060D3
:10033200E08000080CECEC8C000000E0E00080E0C3
:10034200E010F0F00000000000E0F818F0E000001B
:1003520020E0E00000FFFF000080C0E0B070F0800D
:10036200000000E0E00C8EEEEC18F0F0000000005F
:10037200000101010101010101010101010001016D
:1003820001010000000101090D0D0D0D0D2D3D3D76
:10039200090000000000010108080C0F070000001E
:1003A2000000070F0C080C0C070700000909090FD1
:1003B2000701010101010101010101010101010125
:1003C2000101010000000000000101010101080813
:1003D2000C0F0700000001010101000101010101F0
:1003E2000101010101010101010101000000000000
:1003F20000000000000000000000000000000000FB
:1004020000000000000000000000000000000000EA
:1004120000000000000000000000000000000000DA
:1004220000000000000000000000000000000000CA
:1004320000000000000000000000000000000000BA
:1004420000000000000000000000000000000000AA
:10045200000000000000000000000000000000009A
:10046200000000000000000000000000000000008A
:10047200000000000000000000000000000000007A
:10048200000000000000000000000000000000006A
:100492000000000000000000000080800000C0C0DA
:1004A2000018F8E0000000E0E080000008ECEC80BA
:1004B2000000060E3AF3E101000000000000000017
:1004C200000000000000000000000000000000002A
:1004D200000000000000000000000000000000001A
:1004E200000000000000000000000000000000000A
:1004F20000000000000000000000000000000000FA
:1005020000000000000000000000000000000000E9
:1005120000000000000000000000010100000101D5
:100522000101010101050D0D0D0901010101010189
:1005320001010101010100000000000000000000B3
:1005420000000000000000000000000000000000A9
:100552000000000000000000000000000000000099
:100562000000000000000000000000000000000089
:100572000000000000000000000000000000000079
:10087200000000000000000000000000000000C0B6
:10088200C0000000000000808000000000000000A6
:10089200FCFC0000004040C0C0000000000000005E
:1008A200000080800000000000FCFC00000000004E
:1008B2000000000000000000000004FCFC0000003A
:1008C2008080000000000000000000008080808026
:1008D2000000008080808080800000000000000016
:1008E2008080800000000000000000000000000086
:1008F20000000000000000000C0C00000E0E0808B2
:100902000F0F08286868684F0F4040637F1C000083
:100912000F0F00000E0E08080F074040617F3F08CE
:1009220068684F0F00000000000F0F4040617F3FDA
:1009320000000000003E7E604060603F1F00004FEC
:100942004F497B3F0C0808080F0F0E0B0908090FCF
:100952000F08080B0B0C0C060F0D0908080C060FEC
:100962000D0F0F000000000000000000000000005A
:100972000000000000000000000000000000000075
:100982000000000000000000000000000000000065
:100992000000000000000000000000000000000055
:1009A2000000000000000000000000000000000045
:1009B2000000000000000000000000000000000035
:1009C2000000000000000000000000000000000025
:1009D2000000000000000000000000000000000015
:1009E2000000000000000000000000000000000005
:1009F20000000000000000000000000000000000F5
:100A020000000000000000000000000000000000E4
:100A120000000000000000000000000000000000D4
:100A220000000000000000000000000000000000C4
:100A320000000000000000000000000000000000B4
:100A420000000000000000000000000000000000A4
:100A52000000000000000000000000000000000094
:100A62000000000000000000000000000000000084
:100A72000000000000000000000000000000000074
:100A82000000000000000000000000000000000064
:100A92000000000000000000000000000000000054
:100AA2000000000000000000000000000000000044
:100AB2000000000000000000000000000000000034
:100AC2000000000000000000000000000000000024
:100AD2000000000000000000000000000000000014
:100AE2000000000000000000000000000000000004
:100AF20000000000000000000000000000000000F4
:100B0200C0C0000000000000000000008080000063
:100B1200FCFC000000000080808000000010B0A0FB
:100B22000000000000004040C0C0000000000000C3
:100B32000000FCFC000000808000000000000000BB
:100B4200FCFC00000000000000000000004040C06B
:100B5200C0000000000000C0C000000080C0C0C093
:100B6200C0000000000000000000000000000000C3
:100B72000000000000000000000C0C00000E0E0837
:100B8200080F0F084868686F6F6868686F4F000049
:100B9200070F08080C060F0D0B0F0C0808080F0FA3
:100BA20000000000000E0E08080F074040617F3F62
:100BB20000000F0F00004F4F697F3F000000000050
:100BC2000F0F4040617F3F00000000000E0E08083A
:100BD2000F0700000E0E08080F0F08080B0F0C0C71
:100BE20004040000000000000000000000000000FB
:100BF20000000000000080800000000000000000F3
:100C020000000000000000000000000000000000E2
:100C120000000000000000000000000000000000D2
:100C220000000000000000000000000000000000C2
:100C320000000000000000000000000000000000B2
:100C420000000000000000000000000000000000A2
:100C52000000000000000000000000000000000092
:100C62000000000000000000000000000000000082
:100C72000000000000000101000000000000000070
:100C82000000000000000000000000000000000062
:100C92000000000000000000000000000000000052
:100CA2000000000000000000000000000000000042
:100CB2000000000000000000000000000000000032
:100F9200000000000080800000000000000000004F
:100FA200000000000000000000000000000000003F
:100FB200808000000000000000000000000000002F
:100FC200000000000000000000000000000000001F
:100FD200808000000000000000000000808000000F
:100FE20000000000008080000000000000000000FF
:100FF20000000000000080800000808000008080EF
:101002000000C0C00018F8E0000000E0E08000002E
:1010120002F6F40000FFFF000080C0E0B070F08034
:10102200000000F0F0000000000020E0E00000807E
:10103200FF7F203236F4E00000040CECEC040008E0
:10104200ECEC80000080C0E0B0F0F0000000000096
:10105200FFFF000060F39BFAF0000080FF7F20306A
:1010620030F0E0000003FFFC000000000000000080
:101072000000000000000101000001010000010168
:10108200000001010101010101050D0D0D09010120
:101092000101010000000101010100010101010142
:1010A200010D0D090100000008080C0F07010101E4
:1010B200010101010101010101010101010101011E
:1010C2000101010101010001010101000000000014
:1010D20000010101010101010101010101010101FF
:1010E20001010101010101000000000000000000F7
:1010F20000000000000000000000000000000000EE
:1011020000000000000000000000000000000000DD
:1011120000000000000000000000000000000000CD
:1011220000000000000000000000000000000000BD
:101352000000E0E0000000000000000000000000CB
:10136200000000808000000000000000000000007B
:101372000000000000000038784243434343607895
:1013820078404040787840607878447C3C0000089F
:10139200F8F80000707242467E380000000000F04B
:1013A200F002060600FCFC0000787C4CD8F8604095
:1013B20042437B7B63404040787840607878447C4D
:1013C2003C0000000000787E467C78000008F8F8B7
:1013D20000003F7F40406030786C5C7C6040404061
:1013E200787843637B7B467C3C0000000000000071
:1013F20000000000000000000000000000000000EB
:1014020000000000000000000000000000020203D3
:1014120003010000000000000000000000000001C5
:1014220003030203030101000002020203010000A0
:1014320000000000000000000000000000000000AA
:10144200000000000000000000000002020303018F
:10145200000000000000000000000000000000008A
:10146200000000000000000000000000000000007A
:10147200000000000000000000000000000000006A
:10148200000000000000000000000000000000005A
:10149200000000000000E0E000000000000000008A
:1014A200000000000000000000000000000000003A
:1014B20080808000000000008080000000000000AA
:1014C2000000000080808080C0400000000000001A
:1014D20000000000E0E0000000000000000000004A
:1014E20000000000000000000000000000000000FA
:1014F200000000000000000000006060000038787A
:101502004243434343607878404040787840607873
:1015120078447C3C00007F7F0000000000787E461B
:101522007C780000707040467E7840404078784376
:10153200637B7B4278784040407D7D000000000064
:10154200387840404143466E787040406030786C55
:101552007C7C00003F7F4040404078784040407CA7
:101562007C000000000000000000000000000000FD
:101572000000000000000000000000000000000069
:101582000000000000000000000000000000000059
:101592000000000000000000000000000000000049
:1015A2000000000000000000000000000000000039
:1015B2000000000000000000000000000000000029
:1015C2000000000000000000000000000000000019
:1015D200000000000000000203030303030B0F0FCF
:1015E20002000000000000000000000000000000F7
:1015F20000000000000000000000000000000000E9
:1016020000000000000000000000000000000000D8
:1016120000000000000000000000000000000000C8
:1016220000000000000000000000000000000000B8
:1016320000000000000000000000000000000000A8
:101642000000000000000000000000000000000098
:101652000000000000000000000000000000000088
:101662000000000000000000000000000000000078
:101672000000000000000000000000000000000068
:101682000000000000000000000000000000000058
:101692000000000000000000000000000000000048
:1016A2000000000000000000000000000000000038
:1016B2000000000000000000000000000000000028
:1016C2000000000000000000000000000000000018
:1016D2000000000000000000000000000000000008
:1016E20000000000000000000000000000000000F8
:1016F20000000000000000000000000000000000E8
:1017020000000000000000000000000000000000D7
:1017120000000000000000000000000000000000C7
:1017220000000000000000000000000000000000B7
:1017320000000000000000000000000000000000A7
:101742000000000000000000000000000000000097
:101752000000000000000000000000000000000087
:101762000000000000000000000000000000000077
:1017720000000000C0C0101818181800C0C00000F7
:1017820000C0C00000C0C020E0E0000040C0C000B7
:101792000080901030F0C000000000008080103007
:1017A2003000E0E00000C0E060C0C000001018D8C7
:1017B200D818000000C0C00000C0C020E0E0000057
:1017C200000000C0F030E0C0000040C0C00000FFD8
:1017D200FF00000080C060E0E000000000C0C01810
:1017E2001CDCD830E0E00000000000000000000037
:1017F20000000000010302020202020303030202CC
:10180200020303020303030203011010181F0F0057
:101812000003030202030100000000000F1F181062
:1018220018180F0F00001313121E0F0302020203F7
:101832000303020202030302030303020301000083
:1018420000000003030203031010181F0F00000121
:10185200030202030103030203030202020303025F
:101862000303030203010000000000000000000067
:101872000000000000000000000000000000000066
:101882000000000000000000000000000000000056
:101892000000000000000000000000000000000046
:1018A2000000000000000000000000000000000036
:1018B2000000000000000000000000000000000026
:1018C2000000000000000000000000000000000016
:1018D2000000000000000000000000000000000006
:1018E20000000000000000000000000000000000F6
:1018F20000000000000000000000000000000000E6
:1019020000C0C0101818181800C0C0000000C0C0E5
:101912000000C0C020E0E00000FFFF000000000067
:10192200C0F030E0C0000080800030F0C000000055
:10193200C0C0181CDCDC10C0C0000004ECE80000D1
:1019420000000080901030F0C0000040C0C00000D5
:10195200FFFF0000C0E060C0C00000000000000007
:101962000000000000000000000000000000000075
:10197200000000000000000000000000000303005F
:101982000001030202020202030303020202030332
:10199200020303030203010000030300000000002E
:1019A2000303020303000003030202030302020211
:1019B2000303020303030203030202020303000000
:1019C2000000000303020203011010181F0F0000A1
:1019D2000303000013131A1F0F0000000000000091
:1019E20000000000000000000000000000000000F5
:1019F20000000000000000000000000000000000E5
:101A020000000000000000000000000000000000D4
:101A120000000000000000000000000000000000C4
:101A220000000000000000000000000000000000B4
:101A320000000000000000000000000000000000A4
:101A42000000000000000000000000000000000094
:101A52000000000000000000000000000000000084
:101A62000000000000000000000000000000000074
:101A72000000000000000000000000000000000064
:101A82000000000000000000000000000000000054
:101A92000000000000000000000000000000000044
:101AA2000000000000000000000000000000000034
:101AB2000000000000000000000000000000000024
:101AC2000000000000000000000000000000000014
:101AD2000000000000000000000000000000000004
:101AE20000000000000000000000000000000000F4
:101AF20000000000000000000000000000008080E4
:101B02002030303030008080000000808000008073
:101B12008040C0C00000FEFE000080C0C080800087
:101B22000000C0CC4C4840C0808000008080800013
:101B32000000202060E08000000000000020206003
:101B4200E0800000FEFE000000000060E080000077
:101B520040C0C04040C0C0000818D8D810000000E3
:101B62000000000000000000000000000000000073
:101B72000000000000000000000000000000030759
:101B82000404040404060707040404070704060700
:101B9200070407030000070700002727243D1F064C
:101BA200040405050606030100002020303F1F0043
:101BB20000070704040703000000000007070404ED
:101BC20007030000070700000707040407070404CF
:101BD20004050706070504040404070700000000C3
:101BE20000000000000000000000000000000000F3
:101BF20000000000000000000000000000000000E3
:101C020000000000000000000000000000000000D2
:101C120000000000000000000000000000000000C2
:101C220000000000000000000000000000000000B2
:101C320000000000000000000000000000000000A2
:101C42000000000000000000000000000000000092
:101C52000000000000000000000000000000000082
:101C62000000000000000000000000000000000072
:101C72000000000000000000000000000000000062
:101C820000000000B0B0A00000FEFE0000C0C04096
:101C92004040C080800000000080C0C0C000000042
:101CA200000000000060E0800000C0C0404040C072
:101CB20080800000000000B0B0A00000FEFE000026
:101CC20000000000000000000080802038B8B8301A
:101CD2008080000000008080000000C0C000000082
:101CE20000000000000000000000000000000000F2
:101CF20000000000000000000000000000000000E2
:101D020000002020303F1F000003070404050536B1
:101D1200362307060404040603070607070000002B
:101D2200000007070404070704040505060603016B
:101D320000000000002020303F1F000007070000C5
:101D42000000003E3E606060203F3F04040707043D
:101D520007070424343437370434342707000000DB
:101D62000000000000000000000000000000000071
:101D72000000000000000000000000000000000061
:101D82000000000000000000000000000000000051
:101D92000000000000000000000000000000000041
:101DA2000000000000000000000000000000000031
:101DB2000000000000000000000000000000000021
:101DC2000000000000000000000000000000000011
:101DD2000000000000000000000000000000000001
:101DE20000000000000000000000000000000000F1
:101DF20000000000000000000000000000000000E1
:101E020000000000000000000000000000000000D0
:101E120000000000000000000000000000000000C0
:101E220000000000000000000000000000000000B0
:101E320000000000000000000000000000000000A0
:101E42000000000000000000000000000000000090
:101E52000000000000000000000000000000000080
:101E62000000000000000000000000000000000070
:101E72000000000000000000000000000000000060
:101E82000000000000000000000000000000000050
:101E9200000000000000000000F8F8F83838383878
:101EA20038383838383838383838383838383838B0
:101EB20038383838383838383838383838383838A0
:101EC20038F8F8F8000000000000000000000000F0
:101ED2000000000000000000000000000000000000
:101EE20000000000000000000000000000000000F0
:101EF20000000000000000000000000000000000E0
:101F020000000000000000000000000000000000CF
:101F1200000000000000000000FFFFFF00000000C2
:101F220000000000000000000000000000000000AF
:101F3200000000000000000000000000000000009F
:101F420000FFFFFF00000000000000000000000092
:101F5200000000000000000000000000000000007F
:101F6200000000000000000000000000000000006F
:101F7200000000000000000000000000000000005F
:101F8200000000000000000000000000000000004F
:101F9200000000000000000000FFFFFF0000000042
:101FA200000000000000000000000000000000002F
:101FB200000000000000000000000000000000001F
:101FC20000FFFFFF00000000000000000000000012
:101FD20000000000000000000000000000000000FF
:101FE20000000000000000000000000000000000EF
:101FF20000000000000000000000000000000000DF
:1020020000000000000000000000000000000000CE
:102012000000000000000000000F0F0F0E0E0E0E59
:102022000E0E0E0E0E0E0E0E0E0E0E0E0E0E0E0ECE
:102032000E0E0E0E0E0E0E0E0E0E0E0E0E0E0E0EBE
:102042000E0F0F0F00000000000000000000000053
:10205200000000000000000000000000000000007E
:10206200000000000000000000000000000000016D
:1020720003070F1F3F7FFF001027E80364000A00D9
:1020820001000010000110000100313233343536F6
:102092003738392A30230705060400010200257368
:1020A2000D0A0053657474696E6720534D53204DB9
:1020B2006F64652E2E2E0041542B434D47463D3111
:1020C2000041542B434E4D493D322C322C302C30A2
:1020D2002C300041542B434D4744413D2244454C52
:1020E20020414C4C220041542B4346554E3D310079
:1020F20041542B4353434C4B3D3000534D532052DC
:10210200656164792E00436F6E6E656374696E67F4
:1021120020746F20475052532E2E2E0041542B53C1
:10212200415042523D332C312C22436F6E747970F0
:1021320065222C2247505253220041542B534150C6
:1021420042523D332C312C2241504E222C222573F7
:1021520022006D63696E65740041542B53415042F5
:10216200523D312C31004665746368696E672049BF
:10217200502E2E2E0041542B53415042523D322CB0
:1021820031002B53415042523A00526573703A006B
:102192002B53415042523A20312C312C002B5341C7
:1021A2005042523A20312C31004750525320416361
:1021B2007469766174696F6E004661696C65642149
:1021C2000041542B48545450494E4954004F4B003F
:1021D20041542B48545450504152413D22434944AA
:1021E200222C310025733F70686F6E655F6E756DCE
:1021F2006265723D25730041542B4854545050413E
:1022020052413D2255524C222C2225732200415428
:102212002B48545450414354494F4E3D31002B48B2
:10222200545450414354494F4E3A004E6F2041633B
:1022320074696F6E2052657370002B48545450417C
:102242004354494F4E3A2025642C25642C256400C2
:1022520041542B48545450524541440041542B4858
:102262005454505445524D004D4F544F5220256402
:10227200204F4E2100687474703A2F2F3139332E5B
:10228200352E34342E3139312F686F6D652F706FD2
:1022920073742F004D6F64756C6520496E69742EDE
:1022A2002E2E004154453000415400534D532049D5
:1022B2006E6974204661696C65642100475052530F
:1022C20020496E6974204661696C656421002B4364
:1022D2004D543A004661696C656420746F207265E2
:1022E2006164206D73670054696D656F7574212098
:1022F20054727920616761696E2E000001002D4ED3
:10230200414E00494E46000014000005A5200A0077
:102312001405B92012001E05C32013003005D52074
:102322000A004305E8200B004D05F2200B0058057A
:10233200FD201600630508211E0079051E210D00EF
:1023420097055B210F00A40568210D00B3057721D5
:102352000800C00584210600C8058C210D00CE05A9
:1023620092211E00DB051E210D00F9055B210D00E7
:10237200060677210D00130677210C0020069F2107
:1023820010002C06AB2108003C06BB210C004406C1
:10239200C32103005006CF2114005306D2210300AB
:1023A2006706CF2103006A06CF2110006D061022B6
:1023B2000D007D0620220F008A062D220D009906AF
:1023C20020220C00A60652220300B206CF210C00E6
:1023D200B5065E220300C106CF211F00C406772284
:1023E2000F00E30696220500F206A5220300F70677
:1023F200AA221100FA06AD2212000B07BE22060025
:102402001D07D02213002307D62214003607E92223
:102412000100F007FE220000F894EE27ECBBF1E089
:10242200F5BFE5BFE0936C008DE0A2E0BB27ED9322
:102432008A95E9F780E090E1A0E0B1E0ED930197A1
:10244200E9F7EAE0F3E285919591009761F0A591B1
:10245200B59105901590BF01F00105900D9201977D
:10246200E1F7FB01F0CFEFEFEDBFE0E1EEBFC0E03F
:10247200D5E00C94EF14AA9321970E940C2200E05D
:1024820010E0AF81B0E0E8E0F0E00E94C921EE8305
:1024920030E0EE813E1750F520E0E8852E1720F55A
:1024A200F8010F5F1F4FA985BA85EA0FFB1F449100
:1024B20050E05830B8F4E52F0E94D91FA42F0E9493
:1024C200DE1F71F0E22FAC85EA0FEA93E32FEE0FE5
:1024D200EE0FEE0FAC85EA0FE50FAE2F0E94E11969
:1024E2005F5FE7CF2F5FD9CF3F5FD3CF0E94132229
:1024F2002D960895BA93AA93E0EAF0E2FA93EA934A
:10250200EA81FB810E94E31F0E94DC1C26960C9448
:10251200D416BA93AA930E940C2200E010E020E0A5
:1025220030E0EC85FD850E94E91FAD85BE850E94E5
:10253200891EE885F9852E173F07D8F45F9B12C0E4
:102542000E94FC1A5E2FEA85FB8531970E171F0742
:1025520044F4F8010F5F1F4FAC85BD85EA0FFB1FE6
:10256200508306C0A1E0B0E00E947E212F5F3F4F62
:10257200E0CFEC85FD85FA93EA93A885B9850E94A0
:10258200D61E309711F0E1E001C0E0E00E94132274
:102592002E9608950E94EE1FA0E0B5E00E94DA1A7E
:1025A200A4E1B5E00E94F41FAEE1B5E00E94F41F81
:1025B200A0E3B5E00E94FA1FA3E4B5E00E94F41F75
:1025C200ADE4B5E00E94F41F0E940020A8E5B5E04A
:1025D2000E940520E1E00895EF97EF9768970E9427
:1025E200EE1FA3E6B5E00E94DA1AA9E7B5E00E9461
:1025F2000B200E9411200E941D20A7E9B5E00E9435
:102602000B200E94EE1FA4EAB5E00E94DA1AA3EBA7
:10261200B5E00E942420E8ECF0E0FA93EA93A0EC03
:10262200B5E077DFE03061F10E940020A8ECB5E070
:102632000E942E20DE0112960E940520FE01FA93CE
:10264200EA93AEECB5E00E94D61E3097C9F022970D
:10265200FE0132960E943520E0E0F0E00E94352033
:10266200E881F981309759F0EBECF7E0FA93EA93BD
:10267200AA81BB810E94991EE1E0229615C0229692
:1026820012C0EF97EF976897ABEDB5E00E940B2071
:102692000E9411200E941D20A9EFB5E00E940B208C
:1026A200A6E0B6E027DFE0E0EF96EF9668960895A1
:1026B200EF97A597A3E1B6E00E942420E8EEF3E0AD
:1026C200FA93EA93A0E2B6E024DFE03089F4D9DF9E
:1026D200E03071F40E94EE1FACE2B6E00E94DA1A1A
:1026E2000E940020ACE3B6E00E943E20E0E001C080
:1026F200E1E0EF96A5960895BA93AA932297D35054
:10270200E0E0E883E9830E940C2220E030E040E030
:1027120050E00E94EE1FE0E7FEE00E944420C8DF86
:10272200E03011F4E0E0B9C0A4E4B6E00E944B202E
:10273200A0E5B6E0EEDEE03011F4E0E0AEC0A3E5E5
:10274200B6E00E944B20A7E6B6E0E3DEE03011F4EB
:10275200E0E0A3C0FE013896FA93EA93E6EEF1E2D6
:10276200FA93EA93FE01E25FFC4F0190F081E02DC3
:102772000E945B20FE01E05FFC4F0190F081E02DA2
:102782000E945B2088E00E94AE1C2C96FE01E85F4E
:10279200FD4FFA93EA93E9EFF1E2FA93EA93FE012D
:1027A2003C960E94E31F0E94AE1C2896DE01A85FA1
:1027B200BD4F0E944B20AAE6B6E0ABDEE03011F43A
:1027C200E0E06BC0ADE6B6E095DEFE01E85FFE4FED
:1027D200FA93EA93E0E0F1E0FA93EA93E4EFF1E0AE
:1027E200FA93EA93ADE7B6E094DEE03061F40E943A
:1027F200EE1FAAE8B6E00E94DA1AA4E6B0E00E9450
:102802007E21E0E04AC0FE01E85FFE4FFA93EA93C0
:10281200A9E9B6E00E94D61E8F0100240016010627
:1028220021F11A930A93ECE3F2E2FA93EA93EDB7F9
:10283200FEB731970E94E4213F932F93EDB7FEB785
:1028420031970E94E4215F934F93FE0172960E949A
:102852005B208CE00E94641E60964F915F912F91E5
:102862003F91E330A0E0FA0711F0E0E016C0A6EADB
:10287200B6E00E944B20A2EBB6E04BDEA5EBB6E041
:102882000E944B20A1ECB6E044DEE8ECF0E0E41755
:10289200F50711F4E1E001C0E0E00E9413222C965A
:1028A200DD5F0895639783E1A0E0B0E0ECE8F0E239
:1028B2000E941A221A930A9300E00330C0F5E5B38E
:1028C200E760E5BB15B2E02FF0E0DE015296AE0FF5
:1028D200BF1FEC91A1E00E946020E5BB10E0143024
:1028E20020F50E946520A12D0E94DE1FE1F4AAE0DE
:1028F200B0E00E947E210E946520A12D0E94DE1F71
:1029020091F40E946520A12D0E94DE1FD1F3A3E065
:102912001A9FF001DE011296AE0FBF1FEE27A00F25
:10292200BE1FEC9105C01F5FDACF0F5FC6CFE0E09C
:102932001981088165960895BA93AA9364971A93A8
:10294200ED89FE89E130A0E0FA0711F412E00DC032
:10295200E230A0E0FA0711F413E007C0E330A0E090
:10296200FA0711F414E001C036C0FE013196FA9361
:10297200EA93EAE6F2E2FA93EA93E98DFA8D0E948B
:10298200A9210E94E62184E00E94AE1C28960E94A2
:102992005717EAE0EA93E4E1EA93DE0113960E9414
:1029A200DA1A13B0E12FA1E00E949021E129E3B9E4
:1029B200A4EFB1E00E947E2113B0E12FA1E00E94BA
:1029C2006020E3B9E0E0EA93EA93E0E7F6E00E94F0
:1029D20044200E946E20188167960895269704EC81
:1029E20016E0E0E0EABBEBBBE7BBE0EFE8BBE7E009
:1029F200E4BBE0EFE5BBECE3E2B9E0E0E3B9E0938E
:102A02006100E0936200EBB9E8E1EAB9E6E0E09345
:102A12009500E0E0E0939000E3E3E9B9E0E8E4BF89
:102A2200E4BFECE8F0E0E883F983E0E0EA83EB83DB
:102A3200EC83ED83DE01B9D1ECE8F0E00E94722074
:102A42000E94EE1FA3EEB6E00E94DA1AA8EBBBE0EA
:102A52000E947E21A2EFB6E00E94FA1FA7EFB6E025
:102A62000E94FA1F97DDE03039F40E940020AAEF9D
:102A7200B6E00E94DA1AFFCFAFDDE03039F40E94EF
:102A82000020ABE0B7E00E94DA1AFFCF0E94EE1FEF
:102A9200E0E7F2E00E944420AA97E0E0EAA3EBA379
:102AA200ECA3EDA3EEA3EFA3E7E6F7E00E94E91F94
:102AB200A4E6B0E00E94891EFE010E94E91FA0E286
:102AC200B0E00E94891E0E947720A4E6B0E00E9436
:102AD200071B309709F4C2C00E947720ADE1B7E02E
:102AE2000E94D61E309709F4B9C0FE01FA93EA9308
:102AF200A0E2B0E00E94071B309741F40E94EE1F53
:102B0200A3E2B7E00E943E20AA96C6CF0E94772099
:102B12000E947C20E8A1F9A1309721F00E94832035
:102B22000E947C20E8A1F9A1309709F491C0EBED55
:102B3200F7E0FA93EA93AAA1BBA10E94991EE88149
:102B4200E9A7A9A5A13329F0A23319F0A33309F00B
:102B520077C01A930A93ABEDB7E0CEDDE03009F40B
:102B620066C00E94EE1F0E948820E9A5EEA3E1E460
:102B7200EA93EAE0EA93DE0198960E942E20E0E7CB
:102B8200FAE00E944420E0E0E8A7EAA3EBA3AAA1AE
:102B9200BBA1A83CE0E0BE0774F484DEE8A7E03005
:102BA20051F4AAE0B0E00E947E21EAA1FBA1319695
:102BB200EAA3FBA3ECCFE8A5E03061F477D1EAE029
:102BC200EA93E9E1EA93A6E3B7E00E94DA1AA8ECF5
:102BD200B0E02AC0E1E4EA93E0E0EA930E948820B0
:102BE200E8A5EEA3E1E4EA93E2E3EA93DE01989634
:102BF2000E940520E9A5A8A5EA1751F457D1E9A535
:102C0200F0E0F097ECA3FDA3ACA1BDA195DE0EC050
:102C12000E94EE1FE0E7F6E1FA93EA93E0E8EA9316
:102C2200A0E229DCACE2B1E00E947E2108C00E9451
:102C3200EE1FE0E7FAE10E9444200E946E2008C0E5
:102C42000E94EE1FE0E7F2E10E9444200E946E2003
:102C52000E94EE1FE0E7F2E00E944420AA961CCFF9
:102C6200FFCF0000E0916200E061E09362000000AB
:102C72000895E0916200EF7E0E949120EF7D0E9414
:102C82009120EF7BE093620008951A93EADF19B373
:102C9200E0916200EF7EE0936200E12F19910895C6
:102CA200AA931A930E949620EB7FE0936200E98137
:102CB200EF5F1E2F10FF04C0E0916200E06203C0CC
:102CC200E0916200EF7DE093620011FF04C0E091A9
:102CD2006200E06403C0E0916200EF7BE093620077
:102CE200D4DFE078E9F718815EC0AA93A981D8DF22
:102CF200E09162000E949C2056C0E091EC07EA93AA
:102D0200E091EB07EF73E064AE2FEFDFE091EC07A9
:102D1200EA93E091ED07E86BAE2FE7DF0895AA93FF
:102D2200E981E093EB07E295EF70E695E695E09393
:102D3200EC07E881E093ED07E0DF35C0A091EB07F7
:102D4200AF5FA093EB07A03818F0E0E0E093EB0749
:102D5200E091EB07EF7331F4E091EB07EA93A09176
:102D6200ED07DDDF0895AA93A091EC0799DFE091CA
:102D72006200E4600E9491200E949C200C94051B3A
:102D8200A091EC078DDF0E949620E460E093620040
:102D92007CDF0895AA93E981EA93E9810E94A72042
:102DA200EFDFABDFEDDF22960895BA93AA931A9371
:102DB200E0916100E0610E94AD20E8600E94AD20D8
:102DC200E4600E94AD20E068E0936100E09162005F
:102DD200E068E0936200E0916100E0620E94AD2051
:102DE200E064E093610045DFE0916200EF77E093F9
:102DF2006200A4E6B0E00E947E21E0916200E068F9
:102E0200E093620010E0123040F41A93AFE36DDFFA
:102E12001A931395A0EC69DFF6CFE1E0E0934A073D
:102E2200E0E0E0934B07E981FA813097A9F0A981AC
:102E3200BA810E94DC210E947220A981BA81129675
:102E42000E94DC21E0936307F0936407A981BA81B1
:102E520014960E94DC210AC0E0E0F0E00E94722099
:102E6200E0E0F0E0E0936307F0936407E093650726
:102E7200F0936607E1E0E0935007E0935107E09397
:102E82005207EFEFE0935307E1E0E0935A07EBE5D7
:102E9200F7E0FA93EA93EFEFEA93A8E0B0E00E943A
:102EA200891E04D0E1E01881239608950E940E2223
:102EB20000E030E0E0914B07E03009F00FEF3830EE
:102EC20078F4E0E0EA93A32F3F5F29DF10E0A12F1F
:102ED2001F5FA03820F4A02F0E94B220F8CFEFCFBE
:102EE200E0E0EA93A0E01BDFE0E0EA93A0E076D323
:102EF2000E94152224960895AA931A930A93AC81EC
:102F0200A03818F4AB81A03408F016C0EC81EA9323
:102F1200AC8140DF1E2FF1DEEB81E770A1E00E9461
:102F220090210E2FEA81E03011F0102B03C0E02F28
:102F3200E0951E23A12F17DF198108812596089598
:102F4200AA931A93ED81EA93AD8124DF1E2FD5DE79
:102F5200E981E73011F0E83039F4EB81EA93AA8194
:102F62000E94501FEB8308C0E33021F4EB81E0950F
:102F7200EB8302C0E03021F4EA81E0951E2302C017
:102F8200E23029F4EA81AB81EA231E2B0EC0E13044
:102F920029F4EA81AB81EA231E2707C0E43029F431
:102FA200EA81E095AB81EA2B1E23A12F0E94B22079
:102FB200188126960895AA9323970E940C22A88925
:102FC200A03848F4AF85A03430F4AE85A03019F0B3
:102FD200AD85A03009F4C6C1EE85E887A889BB2774
:102FE200EE85F0E0AE0FBF1FA138E0E0BE0720F093
:102FF200A889E0E8EA1BEE872D85AF85BB27ED8522
:10300200F0E0AE0FBF1FA134E0E0BE0720F0AF85B5
:10301200E0E4EA1BED87A985A63009F05BC0EC85E8
:10302200E13009F49FC1E33039F4E0916507F09192
:103032006607309709F496C10885ED85E695E69511
:10304200E6953E2FE22FE77019F4AD852A17E9F0D5
:10305200A02FBB27E32FF0E00E94AE21AA85BB85FB
:103062000E94B620269526952695532F5F935F5F83
:10307200E22FAF91EA1748F0102FE12F1150E03004
:1030820019F00E94BB20F9CFF1CFAE850A1711F1DA
:10309200EE85AA85BB85F0E00E94B620ED85E7703B
:1030A20009F03F5F20E02F932F5FE32FAF91AE1720
:1030B20088F41E851F931F5FE02FAF91AE1718F49F
:1030C2000E94BB20F7CFEE85AE81BF81F0E00E9467
:1030D200B620E9CFEF85E7703E2FED85E03009F4A9
:1030E20041C1EA85FB85EE83FF8310E00889303019
:1030F20009F065C0AD85A83008F45CC0E985E03010
:1031020011F0E33009F402C0E73009F402C0E830FC
:1031120009F402C0E63009F402C0E93009F402C041
:10312200EA3021F40A93E8890E94A7201F931F5FC7
:10313200EE85AF91AE17B8F5A985A63061F420DE11
:10314200DCDD0E94C820FA93EA931ADEAE2F0E94B9
:10315200971FF4DD27C0E985E93011F450E00EC075
:10316200EA3011F45FEF0AC00E94C8200E94D12009
:103172005E2FE985E73011F0E83021F40E94D72074
:103182005E2F06C0E33011F4509502C0E03021F406
:10319200A52F0E94B22006C00E94DB20EFEFEA9327
:1031A200AD85CEDEC3CFEF85E85FEF87ED85E850D2
:1031B200ED87CFC05D8520E0E0E0ED877AC0E32FA8
:1031C200AD85AE0FA93020F42D85E0E0ED8703C078
:1031D200E8E0E31B2E2F3A93A22F0E94451F4E2FA9
:1031E200E985E630F1F41F931F5FEE85AF91AE17CC
:1031F200B8F40E94E120AE2FE32F0E9498210E9492
:10320200E820E32FA42F0E949821E095E1215E2B74
:103212000E94C820FA93EA93A52F0E94971FE3CF3A
:103222002CC0E93011F450E003C0EA30A9F45FEF9A
:103232000E94D720AE2FE32F0E9490215E2F1F9372
:103242001F5FEE85AF91AE1730F40E94DB204A93E8
:10325200A0E076DEF4CF11C01F931F5FEE85AF9121
:10326200AE1758F40E94F320AE2FE32F0E94902154
:10327200EA934A93AD8564DEEFCFED85E03009F441
:1032820071C0AD85A83028F4ED85E21B5E2FE0E029
:1032920003C0532FED85E850ED8710E0EF85E85F1E
:1032A200EF87E8E0E31B2E2F0889EA85FB85EE8392
:1032B200FF83E52FF0E0E059FF4D4491E985E630C8
:1032C200E1F41F931F5FEE85AF91AE17A8F40E9441
:1032D200E120AE2FE22F0E9490210E94E820E22FEF
:1032E200A42F0E9460205E2B0E94C820FA93EA93CA
:1032F200A52F0E94971FE5CF2CC0E93011F450E0B2
:1033020003C0EA30A9F45FEF0E94D720AE2FE22F6C
:103312000E9498215E2F1F931F5FEE85AF91AE171B
:1033220030F40E94DB204A93A0E00ADEF4CF11C001
:103332001F931F5FEE85AF91AE1758F40E94F320E2
:10334200AE2FE22F0E949821EA934A93AD85F8DDD1
:10335200EFCFE885AA85BB85F0E0EA0FFB1FEA877D
:10336200FB87BBCE0E941322619608950E94002122
:1033720024F0E0E0F0E00C944E1FA881B981A0385F
:10338200E0E0BE0724F0EFE7F0E00C944E1FE88186
:10339200F9810C944E1F0E94002124F0E0E0F0E03D
:1033A2000C944E1FA881B981A034E0E0BE0724F03E
:1033B200EFE3F0E00C944E1FE881F9810C944E1F6C
:1033C200AA93E981EA93E981EA93A0914A0794DDFD
:1033D2000C944E1FBA93AA9323970E9407218F0140
:1033E200002E012A19F4E0E0F0E05FC00E940E21F5
:1033F2000F820E940E210E820E940E210886EB850A
:10340200A885EA1718F4E0E0F0E04FC0F8010F5F7A
:103412001F4F5491A885BB27EE27A50FBE1FEB8532
:10342200F0E0EA17FB0718F0E0E0F0E03EC0EE81C2
:10343200E695E695E6954E2FEE81E77009F04F5F2F
:10344200EF81E030A1F0A985BA85EC93A885EB85E0
:10345200EA1BF0E0DF01EF81F0E00E94AE21DF0124
:10346200E42FF0E00E94AE21E00FF11F1EC0980190
:10347200E52FF0E00E0F1F1FA885AF5FA887A150B0
:10348200EB85AE1760F4F9012F5F3F4FA491B0E0D6
:10349200E42FF0E00E94AE210E0F1F1FEDCFF901C5
:1034A200E491A985BA85EC93F8010E9413222C9627
:1034B2000895E0E0E0934C07A0914D07BB270E94DE
:1034C2001321F0E0AE0FBF1FE0915107F0E0AE0F05
:1034D200BF1F61DFE0934D070895AA9321970E94D1
:1034E2000721309709F45FC0AF81AA3009F459C0AF
:1034F200EF81EA93DE0117966DDFAF01309709F491
:1035020054C0E0915007AE81EA0F3E2FA0914C07C4
:10351200BB27F0E0EA0FFB1F8F010138E0E01E0736
:1035220018F0032F1127C5DFE0914C07EA93E091D1
:103532004D07EA93E885EA930E941321EA93E1E0BA
:10354200EA935A934A93A7E036DDE0914C07AE81A5
:10355200EA0FEA93E0914D07EA93E0915007EA936C
:103562000E941321EA93E0E0EA930E948320A9E0FB
:1035720022DDE0914C07EA93A0914D070E941321AE
:10358200EA0FEA933A93E0915107EA93E0E0EA9373
:103592000E948320A9E00FDDE0E8F0E0E017F107E8
:1035A20011F487DF02C000934C070E941322289671
:1035B2000895BA93AA931A93EC81EA93AC810ED040
:1035C200A981BA81ED91A983BA831E2FE03019F047
:1035D200A12F83DFF5CF18810C94971EAA93A9819E
:1035E200BB27C4DEE0934C07A881BB27D4DEE0935F
:1035F2004D070C944E1F5F9BFECFECB10895AA932A
:103602005D9BFECFE881ECB921960895BA93AA9307
:103612000E940C220E811F8128853985002E012AE5
:10362200D9F0E9DF5E2F583051F4AE81BF810A171D
:103632001B0720F4215030400F5F1F4FF2CF5A304A
:1036420059F03F932F932F5F3F4FE52FAF91BF91DB
:10365200EC9301501040E2CFD901E0E0EC93E88511
:10366200F9850E9413222A960895BA93AA93AA81F1
:10367200C6DFA881B9810E941A210C94951FBA93C2
:10368200AA931A930A93AA81BB8112960E94DC2103
:10369200309729F1AA81BB8114960E94DC218F0107
:1036A200309761F00230E0E01E0780F0F8013197B8
:1036B2008F01AA81BB811496ED93FC93AA81BB81F1
:1036C20012960E941A213197AC81A083AA81BB81F4
:1036D2000E94DC21FF2312F00E941A2106C0AA8157
:1036E200BB81EFEFFFEFED93FC93198108810C94FE
:1036F200971EBA93AA9326970E940C2210E0AC85DB
:10370200BD85E0E0F0E0ED93FC93EA89FB89319618
:10371200EA8BFB8B3197E4912E2FE03009F415C12F
:10372200E12FE03039F4253211F411E002C00E9499
:1037320020210AC1E130A9F4253219F40E94202186
:1037420002C112E040E000E02D3211F401E0FCC0C1
:103752002B3211F44BE2F8C0203211F440E2F4C0F3
:1037620002C0E23039F450E013E0203311F4006873
:10377200EBC003C0E33009F0E7C0203310F02A3376
:1037820008F007C0AAE05A9F502DE22FE0535E0FC7
:10379200DBC0E22FE33649F40E942721E889F98948
:1037A200A481AA930E942D21CEC0E33741F40E9446
:1037B20027210E9433210E94A61E1E2F0AC0E03735
:1037C20061F40E9427210E9433210E94B21E1E2F03
:1037D200086002600F7730E034C0E43611F0E93659
:1037E20011F4046002C0E53731F4EAE7F0E2EE8357
:1037F200FF8315E00CC0E83511F4086003C0E83718
:1038020009F0A1C0E4E8F0E2EE83FF8314E002FFD6
:1038120014C00E9427210E943D21AB85AA233AF4BD
:10382200EA85FB850E948C21EA87FB874DE24030C6
:1038320011F01F5F01C00B7F04C00E9427210E946C
:103842003D2100FD11C0151778F407FF08C002FFE3
:1038520004C00B7F242F115001C020E301C020E2DD
:103862000E9420215150EFCF312F01FF17C030307D
:10387200A1F003FF06C0EE81FF812591EE83FF8355
:1038820005C0AE81BF812D91AE83BF830E942021EE
:10389200503009F051503150EACF4BC020E3EE8155
:1038A200FF810E94E021E887F987EE81FF8132964D
:1038B200EE83FF83E885F985AA85BB85AE17BF072E
:1038C20050F02F5FA885B985EA85FB85EA1BFB0BC3
:1038D200EA87FB87EFCF2A3328F003FF02C0295F74
:1038E20001C0295D04FD1AC0213320F4A885B985E1
:1038F200119709F409C0531710F000FF01C013C05B
:1039020020E207FF0BC020E3006102FF07C00B7F2C
:103912004A930E942D21503009F051500E942021DB
:10392200503009F051503150A885B985129708F0EE
:10393200B5CF00FF08C0503031F05150E0E2EA93B9
:103942000E942D21F8CF10E0E0CEAC85BD850E940B
:10395200DC210E94132264960895FF92F82E269786
:103962000E940E220E944521309719F4EFEFFFEFDB
:103972001DC0DE0116960E9488218D010E944521FC
:10398200EE83FF83E0E0E887E987DE011A960E9472
:103992004C21E0E4FBE1FA93EA93DE011A96A9DEF8
:1039A2009F01AE81BF81E0E0EC93F9010E941522F4
:1039B2002A96FF900895FF92F82E26971A930A935B
:1039C200DE0114960E9488218D01E0E0EC83ED83F4
:1039D200EE83EF83DE0118960E944C21E6E3FBE1C1
:1039E200FA93EA93DE01189684DE198108812896FB
:1039F200FF900895BA93AA931A93A981BA81E0E03D
:103A0200EC93AB81BC81EC911E2FE03019F0E0E029
:103A1200EC9316C0A981BA8111960E94DC213097DD
:103A220071F0E981FA81A181B281EC911E2FE0301F
:103A320029F0A981BA8111960E941A2101C010E0D1
:103A4200E12F188173C1FF92BA93AA9324970E941F
:103A52000C22E0E0F0E0E887F9874E2FE889F98947
:103A62003196E88BF98B3197E4913E2FE03009F4DF
:103A720023C10E945521C1F0EDB7FEB7FA93EA9334
:103A82004F930E945A214F913E2FE03019F00E942D
:103A9200552109F407C00E9460211CF4EFEFFFEFEB
:103AA2000DC1EACF432F07C1353209F0ECC050E017
:103AB200E889F9893591E88BF98B303310F03A3384
:103AC20008F007C0AAE05A9F502DE32FE0535E0F83
:103AD200EFCF303009F4F0C0EDB7FEB7FA93EA93B6
:103AE2004F930E945A214F912E2FAE2F0E94BF1F3B
:103AF200E03039F00E9460211CF4EFEFFFEFDEC0EE
:103B0200EBCF203009F4CFC0422F503009F45FEFE1
:103B1200E32FE33699F40E946521EDB7FEB7FA93DD
:103B2200EA934F930E945A214F91D801EC930E943D
:103B320060211CF4EFEFFFEFC1C09FC0E33741F5F6
:103B42000E946521E52F5150E030F1F0EDB7FEB74C
:103B5200FA93EA934F930E945A214F913E2FE030FD
:103B620019F00E94552139F00E9460211CF4EFEFF8
:103B7200FFEFA4C009C01F930F930F5F1F4FE32FE6
:103B8200AF91BF91EC93DECFD801E0E0EC9375C02A
:103B92006894F1F8E894F2F8E32FE43611F0E9368C
:103BA20019F4E894F1F802C0E53711F42AE008C0EC
:103BB200E83711F420E104C0E53209F464C07CC0A6
:103BC200E0E0EE83EF836894F0F8E52F5150E030A7
:103BD20009F444C0EDB7FEB7FA93EA934F930E94FB
:103BE2005A214F913E2FE13238F40E9460211CF499
:103BF200EFEFFFEF63C017C0F1FC08C06894F1F863
:103C02003D3211F4F2F8E1CF3B32F9F2203131F4D6
:103C1200A32F0E94CA1FE03031F009C0A32F0E94D7
:103C2200B61FE03021F4F0FC47C0432F17C03136F5
:103C320010F0375505C0313410F0375301C03053FE
:103C4200E22FAE81BF81F0E00E94AE21DF01E32FBF
:103C5200F0E00E94B620E894F0F8B7CF0E94652108
:103C6200F2FE06C0EE81FF810E948C21EE83FF836B
:103C7200EE81FF81D801ED93FC93E885F9853196B9
:103C8200E887F98718C0EDB7FEB7FA93EA934F9326
:103C92000E945A214F91E31771F00E9460211CF497
:103CA200EFEFFFEF0BC0E885F985309719F4EFEFDE
:103CB200FFEF04C001C0D2CEE885F9850E9413222D
:103CC2006296FF900895FF92F82E23971A930A9313
:103CD2000E947021309719F4EFEFFFEF14C0DE015C
:103CE20011960E9488218D010E947021EB83FC8332
:103CF200DE0115960E944C21EBEFFCE1FA93EA9368
:103D0200DE011896A0DE198108812596FF9008959C
:103D1200BA93AA93B981A881109631F0FC81EB8104
:103D22006A8161931197E9F7EB81FC8125960895E9
:103D3200BA93AA93E991F991A991B991CD016191AF
:103D42006D936623E1F7FC010895BA93AA93A991B2
:103D5200B991EE27FF276D91662311F03196FBCFC3
:103D62000895BA93AA93AA27BB27E991F9910590DE
:103D7200002011F01196FBCFFD010895BA93AA938A
:103D8200BB81AA816C91662361F0F981E881C895B3
:103D9200002029F031966015D1F7FD0104C011967B
:103DA200F1CFEE27FF270C94B41FBA93AA93AA81EE
:103DB200BB81CD01E881F9817191772311F4FC0176
:103DC20009C06D916717C1F30196DC01662391F773
:103DD200EE27FF270C94B41FBA93AA93BB81AA8142
:103DE200882799276D91662349F0F981E88105902A
:103DF200002021F06015D9F70196F4CFFC01B3C081
:103E0200BA93AA931A930A93EC81FD81309779F4BD
:103E1200E091EE07F091EF07309719F4E0E0F0E05F
:103E22002FC0E091EE07F091EF07EC83FD830E9433
:103E320077210E94ED1EAC81BD81EA0FFB1FEC834E
:103E4200FD83AC81BD81EC91E03041F4E0E0E09390
:103E5200EE07E093EF07E0E0F0E012C00E94772166
:103E62000E94BF1E8F01309729F0D8010F5F1F4FAC
:103E7200E0E0EC930093EE071093EF07EC81FD81F5
:103E82001981088126960895AA93E881F0E0E05905
:103E9200FF4DA491E9810E94902122960895AA9350
:103EA2001A93E981E73011F0EA3019F410914A07C8
:103EB20009C0E93019F410914B0704C0E830A1F4AD
:103EC20010915A07E0914B07E03049F0103019F099
:103ED200EFEF188129C0EA81E095188125C01030E2
:103EE20019F4E0E0188120C0EA8118811DC0BA935C
:103EF200AA93EA81E13021F4E881F981E49114C0C6
:103F0200E23029F4A881B9810E94EB210DC0E3308F
:103F120041F4A881B981E0916307F09164070995A2
:103F220003C0A881B981EC9123960895AA93EB81ED
:103F3200E03029F4E881A981BA81EC9314C0E2301F
:103F420031F4E881A981BA810E94F7210CC0E330E3
:103F520051F4E981FA81FA93EA93AA81E091650723
:103F6200F0916607099524960895AA93E1E0F991E4
:103F7200F03310F0FA3308F0EE270895AA93E1E047
:103F8200F991F03229F0F93010F0FE3008F0EE2706
:103F92000895AA93E1E0F991F05340F0FA3038F035
:103FA200FF75F750FA3010F0F03108F0EE2708955F
:103FB200A1E0B0E00E94A0210895B0E0EA23FB2333
:103FC20030970895662777270E94E62184E00895B6
:103FD200FA93EA93E0E0EA9308950E945717E0E02B
:103FE200EA93EA9308950E947B12A4E6B0E00C944F
:103FF2007E210E947B12A8ECB0E00C947E21E0E0CE
:10400200EA93EAE0EA9308950E94DA1AA8ECB0E093
:104012000C947E210E947B12ACE2B1E00C947E21D2
:10402200FE01EC59FF4FFA93EA93ECE3F1E2FA93C3
:10403200EA93E4E5F1E2C6CF0E94AE1C2896DE01C7
:10404200AC59BF4FE7CF0E947B12FE01FA93EA936D
:10405200E4E6F0E0FA93EA9308950E94DA1AE0E0C7
:10406200EA93E4E1EA930895FA93EA93A6EEB0E2C2
:104072000E94011FE883F98308950E94DA1AA8EECC
:10408200B3E00C947E21FA93EA93E0E8EA93A0E489
:104092000C943C120E947B12FE01E85FFE4FFA93E1
:1040A200EA93E0E0F1E0FA93EA93E4E6F0E0FA93CF
:1040B200EA930895662777270E94E62108950E94D1
:1040C2009021E095E121089513B2E12FF0E0DE01A5
:1040D2001E96AE0FBF1FEC916BCFACE2B1E00C9419
:1040E2007E21E0934E07F0934F070895E7E6F7E04D
:1040F200FA93EA930895A6EEB0E20E94011FE8A3A4
:10410200F9A30895E0E0F0E0FA93EA930895E0E776
:10411200FEE1FA93EA93E0E8EA93A0E20C943C12FF
:10412200E0936200E09162000895E0E0EABBE09172
:104132006200E860F5CFE77FE0936200EFEFEABB51
:10414200E881EBBB0E9432160C943A16E695E6958E
:10415200E695AE2F0C949016E0936100E091610019
:1041620008950E94B4160C949F16EA0FFB1FEE836B
:10417200FF830895EC85EA93EF81F8853196EF830A
:10418200F8873197FA93EA93A0E00C94971FEC8595
:10419200EA93EF81F8853196EF83F8873197089596
:1041A20066277727DF01CB010C94781F5A93AA85E3
:1041B2000C94501F0A930395E889EA935A93089541
:1041C2000A930395A8890E94CB16E42308955E2FD3
:1041D200EC85EA93AF81B885882799270E94781FDA
:1041E2001E2E08950A930395E889EA93EE85EA93D1
:1041F200E985FA853196E987FA873197D1CFBA9363
:10420200AA93A881B9810E94082208950E940C22D3
:10421200E0914E07F0914F070895F8010F5F1F4F8D
:1042220004900895E0914E07F0914F073196E49182
:104232000895ED91FD913196FE93EE9308952A93A0
:10424200AD85BE85EF85F88909950895E889F989D4
:104252003497E88BF98B0895AD85BE85EF85F88993
:1042620009950895A889B98914960E94DC21EE83E4
:10427200FF83AE81BF810895A889B98914960E94EF
:10428200DC21EA87FB870895DE011C960E948821C3
:104292000E94DC2108950E9488210E94DC21FA9369
:1042A200EA931A930A930895A32F0E94BF1FE03046
:1042B2000895AC85BD85EE85FF8509950895AA858B
:1042C200BB85AC91A0300895EE85FF853497EE87CB
:1042D200FF87AE85BF8514960D911C910895DE016E
:1042E20017960E9488210E94DC210895EC81FD81AD
:1042F200FA93EA93AC81BD810895109639F0A8959E
:1043020080ED97E00197F1F71197C9F7089500241E
:10431200AF0DB01D0895F195E195F0400895EE239B
:104322000E2EEA2F19F0EE0F0A94E9F70895EE2304
:104332000E2EEA2F19F0E6950A94E9F70895EE2376
:104342000E2EFD0121F0EE0FFF1F0A94E1F70895F2
:104352006F2F660F660B762F0895FA9FF02DEB9F55
:10436200F00DEA9FE02DF10D08950024112490E153
:10437200AA0FBB1F001C111C0E1A1F0A18F40E0EE6
:104382001F1E01C0A1609A9599F7FD01D001089501
:1043920004D0EBDF0EF4BFDF0895E894F7FF02C00C
:1043A200BADF6894B7FF06C0A095B095119600F8E1
:1043B200039400FA0895ED91FC91119708950590E8
:1043C200F491E02D089560E070E07A936A93FA9395
:1043D200EA930895E199FECFFF93FFB7F894AEBB3D
:1043E200BFBBE09AEDB3FFBFFF910895E19B02C00E
:1043F200A895FCCF9FB7F894AEBBBFBBE09A8DB334
:10440200E81719F0EDBBE29AE19A9FBF08950024E4
:104412000A160B0608955A934A933A932A931A93CB
:104422000A9308955D814C813B812A81198108811B
:104432000895AC0FBD1F05900D928A95E1F708957E
:00000001FF
