:080000000C9427020C9400008F
:100008000C9400000C9400000C9400000C94000068
:100018000C9400000C9400000C9400000C94000058
:100028000C9400000C9400000C9400000C94000048
:100038000C9400000C9400000C9400000C94000038
:100048000C9400000C9400000C9400000C94000028
:100058000C9400000C9400000C9400000C94000018
:100068000C9400000C9400000C9400000C94000008
:100078000C9400000C9400000C9400000C940000F8
:100088000C94000005072060000000000000005FDD
:1000980000000007000700147F147F14242A7F2A19
:1000A80012231308646236495522500005030000E4
:1000B800001C2241000041221C00082A1C2A0808B2
:1000C800083E0808005030000008080808080030FA
:1000D80030000020100804023E5149453E00427F8E
:1000E800400042615149462141454B311814127F65
:1000F8001027454545393C4A4949300171090503EE
:100108003649494936064949291E00363600000055
:100118005636000000081422411414141414412205
:100128001408000201510906324979413E7E111135
:10013800117E7F494949363E414141227F41412252
:100148001C7F494949417F090901013E414151321A
:100158007F0808087F00417F41002040413F017F20
:10016800081422417F404040407F0204027F7F0400
:1001780008107F3E4141413E7F090909063E415131
:10018800215E7F09192946464949493101017F0104
:10019800013F4040403F1F2040201F7F2018207F04
:1001A8006314081463030478040361514945430048
:1001B800007F4141020408102041417F00000402F1
:1001C8000102044040404040000102040020545411
:1001D80054787F4844443838444444203844444898
:1001E8007F3854545418087E090102081454543CAA
:1001F8007F0804047800447D40002040443D00000E
:100208007F10284400417F40007C041804787C0853
:1002180004047838444444387C141414080814142A
:10022800187C7C080404084854545420043F444073
:10023800203C4040207C1C2040201C3C4030403C5E
:1002480044281028440C5050503C4464544C4400FA
:100258000836410000007F00000041360800020116
:100268000204027F4141417F000103070F1F3F7FC6
:10027800FF001027E80364000A00010000100001D5
:10028800100001003132333435363738392A3023FB
:10029800070506040001020025730D0A0053657462
:1002A80074696E6720534D53204D6F64652E2E2E52
:1002B8000041542B434D47463D310041542B434E9A
:1002C8004D493D322C322C302C302C300041542BEF
:1002D800434D4744413D2244454C20414C4C22006B
:1002E800534D532052656164792E004D6F64756CCF
:1002F8006520496E69742E2E2E0041544530004108
:100308005400534D5320496E6974204661696C65E9
:1003180064210053797374656D2052656164792E88
:100328000057616974696E6720666F7220534D5378
:100338002E2E2E002B434D543A00534D5320436F1D
:1003480064653A00456E74657220636F6465206F5A
:100358006E206B65797061643A00596F7520707210
:1003680065737365643A00436F646520697320435D
:100378004F5252454354210050726F6772616D208D
:1003880048616C7465642E004572726F7220696EE4
:1003980020656E7472792100534D5320636F646534
:1003A80020697320696E76616C6964210000010020
:1003B8002D4E414E00494E46000014000005A5028E
:1003C8000A001405B90212001E05C3021300300505
:1003D800D5020B004305E8020F004E05F3020500A5
:1003E8005D050203030062050703110065050A03A2
:1003F8000E0076051B0313008405290306009705E4
:100408003C030A009D0542031600A7054C030D0096
:10041800BD0562031100CA056F031000DB058003E8
:100428001000EB0590031000FB05800315000B0678
:10043800A0030E0020061B0313002E06290301004B
:100448002907B6030000F894EE27ECBBF1E0F5BFEE
:10045800E5BFE0936C008DE0A2E0BB27ED938A95A1
:10046800E9F780E090E1A0E0B1E0ED930197E9F7CA
:10047800E2ECF3E085919591009761F0A591B59133
:1004880005901590BF01F00105900D920197E1F7D5
:10049800FB01F0CFEFEFEDBFE0E1EEBFC0E0D5E04C
:1004A8000C94C702639783E1A0E0B0E0ECE8F2E0C7
:1004B8000E941D0C1A930A9300E0033088F5E5B3F7
:1004C800E760E5BB15B2E02FF0E0DE015296AE0F13
:1004D800BF1FEC91A1E00E94BC0BE095E121E5BBB8
:1004E80010E01430D8F40E94A40AB1F4AAE0B0E0F5
:1004F8000E94AA0B0E94A40A79F40E94A40AE9F3B4
:10050800A3E01A9FF001DE011296AE0FBF1FEE277F
:10051800A00FBE1FEC9105C01F5FE3CF0F5FCDCFCB
:10052800E0E01981088165960895BA93AA93E0EAF4
:10053800F2E0FA93EA93EA81FB81662777270E9423
:10054800E50B84E00E94CF09269681C10E94B60A75
:10055800A0E0B5E00E943208A4E1B5E00E94BC0A20
:10056800AEE1B5E00E94BC0AA0E3B5E0DEDFA0ED95
:10057800B7E00E94AA0B0E94C20AA3E4B5E00E9459
:10058800C70AE1E008952697E0E0EABBEBBBE7BBCA
:10059800E0EFE8BBE7E0E4BBE0EFE5BBECE3E2B9A2
:1005A800E0E0E3B9E0936100E0936200EBB9E8E1D1
:1005B800EAB9E6E0E0939500E0E0E0939000E3E339
:1005C800E9B9E0E8E4BFE4BFECE8F0E0E883F983E8
:1005D800E0E0EA83EB83EC83ED83DE0171D1ECE8A4
:1005E800F0E00E94CD0A0E94B60AAEE4B5E00E948F
:1005F800C70AADE5B5E00E94BC0AA2E6B5E00E94D4
:10060800BC0AA4DFE03039F40E94C20AA5E6B5E0CE
:100618000E943208FFCF0E94B60AA6E7B5E00E9402
:1006280032080E94C20AA4E8B5E00E943208249762
:10063800E0E0E883E9830E94D20A0E94D70A0E9478
:10064800D20AA4E6B0E00E945F08309709F490C08F
:100658000E94D20AA7E9B5E00E941D0A309709F462
:1006680087C0E2ECF6E0FA93EA930E94D70AE2EC3C
:10067800F6E0FA93EA93A4E6B0E00E945F08A2ECE1
:10068800B6E00E94040A0E94070C08F065C0E091D9
:10069800C206EB83AB81A13329F0A23319F0A3334F
:1006A80009F050C08ED1E0E0EA93E5E0EA93ADE9C5
:1006B800B5E00E943208EB81E883E6E4EA93E5E0DE
:1006C800EA93DE0112960E943208E0E0EA93E9E13B
:1006D800EA93A7EAB5E00E943208E4DEEA83E03054
:1006E800E1F3E0E0EA93EDE2EA93ADEBB5E00E94D6
:1006F8003208EA81E883EAE5EA93EDE2EA93DE016B
:1007080012960E943208A0EDB7E00E94AA0BEB8176
:10071800AA81EA1759F40E94DD0AAAECB5E00E9402
:10072800E40AABEDB5E00E9432080BC00E94EB0A68
:10073800ABEEB5E00E94E40AABEFB5E00E943208E8
:10074800FFCF0AC00E94EB0AABE0B6E00E94320875
:10075800A0EABFE00E94AA0B0E94B60AA0E2B6E097
:100768000E9432080E94C20AAEE2B6E00E94320835
:1007780024965DCFFFCF0000E0916200E061E09336
:10078800620000000895E0916200EF7E0E94F20A84
:10079800EF7D0E94F20AEF7BE093620008951A93BE
:1007A800EADF19B3E0916200EF7EE0936200E12F87
:1007B80019910895AA931A930E94F70AEB7FE09380
:1007C8006200E981EF5F1E2F10FF04C0E091620014
:1007D800E06203C0E0916200EF7DE093620011FFE8
:1007E80004C0E0916200E06403C0E0916200EF7B26
:1007F800E0936200D4DFE078E9F7188128C0AA9373
:10080800A981D8DFE09162000E94FD0A20C0E09132
:100818002707EA93E0912607EF73E064AE2FEFDF36
:10082800E0912707EA93E0912807E86BAE2FE7DF0E
:100838000895AA93E981E0932607E295EF70E6957B
:10084800E695E0932707E881E0932807E0DF229602
:100858000895A0912607AF5FA0932607A03818F047
:10086800E0E0E0932607E0912607EF7331F4E0918A
:100878002607EA93A0912807DCDF0895AA93A091A0
:10088800270798DFE0916200E4600E94F20A0E9464
:10089800FD0A0C945D08A09127078CDF0E94F70AD7
:1008A800E460E09362007BDF0895AA93E981EA930C
:1008B800E9810E94080BEFDFAADFEDDF0C943C0A08
:1008C800BA93AA931A93E0916100E0610E940E0B1B
:1008D800E8600E940E0BE4600E940E0BE068E09353
:1008E8006100E0916200E068E0936200E0916100DD
:1008F800E0620E940E0BE064E093610044DFE09147
:100908006200EF77E0936200A4E6B0E00E94AA0BD1
:10091800E0916200E068E093620010E0123040F479
:100928001A93AFE36CDF1A931395A0EC68DFF6CF48
:10093800E1E0E0934106E0E0E0934206E981FA81D4
:100948003097A9F0A981BA810E94DD0B0E94CD0AD7
:10095800A981BA8112960E94DD0BE0935A06F093A2
:100968005B06A981BA8114960E94DD0B0AC0E0E0FB
:10097800F0E00E94CD0AE0E0F0E0E0935A06F09340
:100988005B06E0935C06F0935D06E1E0E0934706C2
:10099800E0934806E0934906EFEFE0934A06E1E06A
:1009A800E0935106E2E5F6E0FA93EA93EFEFEA9373
:1009B800A8E0B0E00E94F40904D0E1E018810C94AA
:1009C800830A0E94110C00E030E0E0914206E0301A
:1009D80009F00FEF383078F4E0E0EA93A32F3F5F97
:1009E80028DF10E0A12F1F5FA03820F4A02F0E945D
:1009F800130BF8CFEFCFE0E0EA93A0E01ADFE0E0D6
:100A0800EA93A0E040D30E94180C0C94A20AAA937F
:100A18001A93ED81EA93AD8148DF1E2FF8DEE98154
:100A2800E73011F0E83039F4EB81EA93AA810E94AB
:100A38003E0AEB8308C0E33021F4EB81E095EB83B9
:100A480002C0E03021F4EA81E0951E2302C0E230C2
:100A580029F4EA81AB81EA231E2B0EC0E13029F488
:100A6800EA81AB81EA231E2707C0E43029F4EA8132
:100A7800E095AB81EA2B1E23A12F0E94130B18814E
:100A880026960895AA9323970E940F0CA889A03848
:100A980048F4AF85A03430F4AE85A03019F0AD85A8
:100AA800A03009F4C8C1EE85E887A889BB27EE8580
:100AB800F0E0AE0FBF1FA138E0E0BE0720F0A88924
:100AC800E0E8EA1BEE872D85AF85BB27ED85F0E0D2
:100AD800AE0FBF1FA134E0E0BE0720F0AF85E0E411
:100AE800EA1BED87A985A63009F05BC0EC85E130EB
:100AF80009F4A1C1E33039F4E0915C06F0915D0698
:100B0800309709F498C10885ED85E695E695E69550
:100B18003E2FE22FE77019F4AD852A17E9F0A02FD0
:100B2800BB27E32FF0E00E94D50BAA85BB850E9466
:100B3800170B269526952695532F5F935F5FE22F17
:100B4800AF91EA1748F0102FE12F1150E03019F05B
:100B58000E941C0BF9CFF1CFAE850A1711F1EE8573
:100B6800AA85BB85F0E00E94170BED85E77009F0B8
:100B78003F5F20E02F932F5FE32FAF91AE1788F4EC
:100B88001E851F931F5FE02FAF91AE1718F40E94C8
:100B98001C0BF7CFEE85AE81BF81F0E00E94170BEA
:100BA800E9CFEF85E7703E2FED85E03009F443C1CA
:100BB800EA85FB85EE83FF8310E00889303009F071
:100BC80065C0AD85A83008F45CC0E985E03011F057
:100BD800E33009F402C0E73009F402C0E83009F450
:100BE80002C0E63009F402C0E93009F402C0EA3074
:100BF80021F40A93E8890E94080B1F931F5FEE8572
:100C0800AF91AE17B8F5A985A63061F444DEFFDDD3
:100C18000E94290BFA93EA933EDEAE2F0E94850AC2
:100C280018DE27C0E985E93011F450E00EC0EA303B
:100C380011F45FEF0AC00E94290B0E94320B5E2F4D
:100C4800E985E73011F0E83021F40E94380B5E2F77
:100C580006C0E33011F4509502C0E03021F4A52F0E
:100C68000E94130B06C00E943C0BEFEFEA93AD8580
:100C7800CEDEC3CFEF85E85FEF87ED85E850ED87DF
:100C8800D1C05D8520E0E0E0ED877AC0E32FAD8537
:100C9800AE0FA93020F42D85E0E0ED8703C0E8E031
:100CA800E31B2E2F3A93A22F0E94330A4E2FE98579
:100CB800E630F1F41F931F5FEE85AF91AE17B8F4DD
:100CC8000E94420BAE2FE32F0E94C40B0E94490BD7
:100CD800E32FA42F0E94C40BE095E1215E2B0E9414
:100CE800290BFA93EA93A52F0E94850AE3CF2CC01B
:100CF800E93011F450E003C0EA30A9F45FEF0E9434
:100D0800380BAE2FE32F0E94BC0B5E2F1F931F5F83
:100D1800EE85AF91AE1730F40E943C0B4A93A0E0E9
:100D280076DEF4CF11C01F931F5FEE85AF91AE172B
:100D380058F40E94540BAE2FE32F0E94BC0BEA9389
:100D48004A93AD8564DEEFCFED85E03009F473C0DA
:100D5800AD85A83028F4ED85E21B5E2FE0E003C0E6
:100D6800532FED85E850ED8710E0EF85E85FEF87BA
:100D7800E8E0E31B2E2F0889EA85FB85EE83FF83D5
:100D8800E52FF0E0E059FD4F4491E985E630F1F4B4
:100D98001F931F5FEE85AF91AE17B8F40E94420B08
:100DA800AE2FE22F0E94BC0B0E94490BE22FA42F0A
:100DB8000E94BC0BE095E1215E2B0E94290BFA935F
:100DC800EA93A52F0E94850AE3CF2CC0E93011F4DD
:100DD80050E003C0EA30A9F45FEF0E94380BAE2F51
:100DE800E22F0E94C40B5E2F1F931F5FEE85AF9109
:100DF800AE1730F40E943C0B4A93A0E008DEF4CF13
:100E080011C01F931F5FEE85AF91AE1758F40E9473
:100E1800540BAE2FE22F0E94C40BEA934A93AD8580
:100E2800F6DDEFCFE885AA85BB85F0E0EA0FFB1F6A
:100E3800EA87FB87B9CE0E94160C619608950E9436
:100E4800610B24F0E0E0F0E00C943C0AA881B98141
:100E5800A038E0E0BE0724F0EFE7F0E00C943C0A8D
:100E6800E881F9810C943C0A0E94610B24F0E0E0CF
:100E7800F0E00C943C0AA881B981A034E0E0BE07F8
:100E880024F0EFE3F0E00C943C0AE881F9810C943B
:100E98003C0ABA93AA9323970E94680B8F01002EED
:100EA800012A19F4E0E0F0E05FC00E946F0B0F82A6
:100EB8000E946F0B0E820E946F0B0886EB85A88537
:100EC800EA1718F4E0E0F0E04FC0F8010F5F1F4F99
:100ED8005491A885BB27EE27A50FBE1FEB85F0E030
:100EE800EA17FB0718F0E0E0F0E03EC0EE81E69577
:100EF800E695E6954E2FEE81E77009F04F5FEF819A
:100F0800E030A1F0A985BA85EC93A885EB85EA1BAA
:100F1800F0E0DF01EF81F0E00E94D50BDF01E42F64
:100F2800F0E00E94D50BE00FF11F1EC09801E52FDD
:100F3800F0E00E0F1F1FA885AF5FA887A150EB85B3
:100F4800AE1760F4F9012F5F3F4FA491B0E0E42F92
:100F5800F0E00E94D50B0E0F1F1FEDCFF901E491B1
:100F6800A985BA85EC93F8010E94160C2C96089571
:100F7800E0E0E0934306A0914406BB270E94740B6F
:100F8800F0E0AE0FBF1FE0914806F0E0AE0FBF1FC4
:100F98006BDFE09344060895AA9321970E94680B9B
:100FA800309709F455C0AF81AA3009F44FC0EF81DA
:100FB800EA93DE0117966DDFAF01309709F44AC056
:100FC800E0914706AE81EA0F3E2FA0914306BB276A
:100FD800F0E0EA0FFB1F8F010138E0E01E0718F070
:100FE800032F1127C5DFE0914306EA93E0914406F9
:100FF800EA93E885EA930E94740BEA93E1E0EA93A6
:101008005A934A93A7E03EDDE0914306AE81EA0F8A
:10101800EA93E0914406EA93E0914706EA930E9436
:10102800740B0E947B0BE0914306EA93A09144065F
:101038000E94740BEA0FEA933A93E09148060E94E3
:101048007B0BE0E8F0E0E017F10711F491DF02C054
:10105800009343060E94160C28960895BA93AA9303
:101068001A93EC81EA93AC810ED0A981BA81ED91F3
:10107800A983BA831E2FE03019F0A12F8DDFF5CF99
:1010880018810C94020AAA93A981BB27D8DEE093A1
:101098004306A881BB27E8DEE09344060C943C0A8B
:1010A8005F9BFECFECB10895AA935D9BFECFE881CC
:1010B800ECB921960895BA93AA930E940F0C0E8159
:1010C8001F8128853985002E012AD9F0E9DF5E2F96
:1010D800583051F4AE81BF810A171B0720F4215004
:1010E80030400F5F1F4FF2CF5A3059F03F932F9384
:1010F8002F5F3F4FE52FAF91BF91EC930150104008
:10110800E2CFD901E0E0EC93E885F9850E94160C5E
:101118002A960895BA93AA93AA81C6DFA881B981AD
:10112800ED91FD913196FE93EE930C94830ABA9358
:10113800AA9326970E940F0C10E0AC85BD85E0E0CD
:10114800F0E0ED93FC93EA89FB893196EA8BFB8BFF
:101158003197E4912E2FE03009F415C1E12FE030EA
:1011680039F4253211F411E002C00E94850B0AC13E
:10117800E130A9F4253219F40E94850B02C112E06E
:1011880040E000E02D3211F401E0FCC02B3211F4F4
:101198004BE2F8C0203211F440E2F4C002C0E23061
:1011A80039F450E013E0203311F40068EBC003C0B9
:1011B800E33009F0E7C0203310F02A3308F007C005
:1011C800AAE05A9F502DE22FE0535E0FDBC0E22FBA
:1011D800E33649F40E948C0BE889F989A481AA9323
:1011E8000E94920BCEC0E33741F40E948C0B0E9400
:1011F800980B0E94040A1E2F0AC0E03761F40E946F
:101208008C0B0E94980B0E94100A1E2F0860026027
:101218000F7730E034C0E43611F0E93611F4046099
:1012280002C0E53731F4EAE7F2E0EE83FF8315E028
:101238000CC0E83511F4086003C0E83709F0A1C014
:10124800E4E8F2E0EE83FF8314E002FF14C00E949A
:101258008C0B0E94A20BAB85AA233AF4EA85FB8586
:101268000E94B80BEA87FB874DE2403011F01F5F00
:1012780001C00B7F04C00E948C0B0E94A20B00FDD2
:1012880011C0151778F407FF08C002FF04C00B7FD0
:10129800242F115001C020E301C020E20E94850BD9
:1012A8005150EFCF312F01FF17C03030A1F003FFAD
:1012B80006C0EE81FF812591EE83FF8305C0AE81D4
:1012C800BF812D91AE83BF830E94850B503009F0FA
:1012D80051503150EACF4BC020E3EE81FF810E948C
:1012E800E10BE887F987EE81FF813296EE83FF8371
:1012F800E885F985AA85BB85AE17BF0750F02F5F33
:10130800A885B985EA85FB85EA1BFB0BEA87FB877D
:10131800EFCF2A3328F003FF02C0295F01C0295DFF
:1013280004FD1AC0213320F4A885B985119709F462
:1013380009C0531710F000FF01C013C020E207FFD7
:101348000BC020E3006102FF07C00B7F4A930E9495
:10135800920B503009F051500E94850B503009F023
:1013680051503150A885B985129708F0B5CF00FFC4
:1013780008C0503031F05150E0E2EA930E94920BDD
:10138800F8CF10E0E0CEAC85BD850E94DD0B0E9451
:10139800160C64960895FF92F82E26971A930A93CE
:1013A800DE0114960E94B40B8D01E0E0EC83ED831E
:1013B800EE83EF83DE0118960E94B40B0E94DD0BCA
:1013C800FA93EA931A930A93EEE8F8E0FA93EA9309
:1013D800DE011896ACDE198108812896FF900895E1
:1013E800BA93AA93B981A881109631F0FC81EB8158
:1013F8006A8161931197E9F7EB81FC81259608953D
:10140800BA93AA93A991B991EE27FF276D91662304
:1014180011F03196FBCF0895BA93AA93AA27BB2758
:10142800E991F9910590002011F01196FBCFFD018B
:101438000895BA93AA93AA81BB81CD01E881F98165
:101448007191772311F4FC0109C06D916717C1F3FD
:101458000196DC01662391F7EE27FF276FC0AA9358
:10146800E881F0E0E059FD4FA491E9810E94BC0BAE
:1014780022960895AA931A93E981E73011F0EA3089
:1014880019F41091410609C0E93019F41091420687
:1014980004C0E830A1F410915106E0914206E03012
:1014A80049F0103019F0EFEF188129C0EA81E09572
:1014B800188125C0103019F4E0E0188120C0EA81B5
:1014C80018811DC0BA93AA93EA81E13021F4E8811A
:1014D800F981E49114C0E23029F4A881B9810E940D
:1014E800EA0B0DC0E33041F4A881B981E0915A06B6
:1014F800F0915B06099503C0A881B981EC91239608
:101508000895AA93EB81E03029F4E881A981BA8192
:10151800EC9314C0E23031F4E881A981BA810E94C9
:10152800F60B0CC0E33051F4E981FA81FA93EA939F
:10153800AA81E0915C06F0915D06099524960895CC
:1015480013B2E12FF0E0DE011E96AE0FBF1FEC9143
:10155800A1E0B0E00E94CC0BA12DB0E0EA23FB2370
:10156800309708950E94E504E0E0EA93EA9308952D
:101578000E949902A4EFB1E00C94AA0BE0E0EA9370
:10158800EAE0EA9308950E943208A8EEB3E00C94CA
:10159800AA0BE0934506F09346060895EEE5F6E0BB
:1015A800FA93EA930895E0E0EA93A4E6B0E00C9495
:1015B800F4090E94E504EAE0EA93E9E1EA93089570
:1015C8000E943208A8EBBBE00E94AA0BF2CF0E944F
:1015D800E504E5E0EA93E9E1EA930895E09362001F
:1015E800E09162000895E0E0EABBE0916200E86003
:1015F800F5CFE77FE0936200EFEFEABBE881EBBB52
:101608000E94BF030C94C703E695E695E695AE2FB6
:101618000C941D04E0936100E091610008950E941C
:1016280042040C942D04EA0FFB1FEE83FF830895F8
:10163800EC85EA93EF81F8853196EF83F887319747
:10164800FA93EA93A0E00C94850AEC85EA93EF817B
:10165800F8853196EF83F8873197089566277727BD
:10166800DF01CB010C94660A5A93AA850C943E0AB2
:101678000A930395E889EA935A9308950A93039580
:10168800A8890E945904E42308955E2FEC85EA9303
:10169800AF81B885882799270E94660A1E2E08956B
:1016A8000A930395E889EA93EE85EA93E985FA8532
:1016B8003196E987FA873197D1CFBA93AA93A8814F
:1016C800B9810E940B0C08950E940F0CE091450609
:1016D800F09146060895F8010F5F1F4F0490089592
:1016E800E0914506F09146063196E4910895EA9313
:1016F800E0E0EA93E0E0F0E0FA93EA93A9E00C94E2
:1017080046052A93AD85BE85EF85F8890995089524
:10171800E889F9893497E88BF98B0895AD85BE85FA
:10172800EF85F88909950895A889B98914960E94C2
:10173800DD0BEE83FF83AE81BF810895A889B98947
:1017480014960E94DD0BEA87FB870895109639F0FE
:10175800A89580ED97E00197F1F71197C9F70895DB
:101768000024AF0DB01D0895F195E195F04008955E
:10177800EE230E2EEA2F19F0EE0F0A94E9F70895DA
:10178800EE230E2EEA2F19F0E6950A94E9F708954C
:10179800EE230E2EFD0121F0EE0FFF1F0A94E1F754
:1017A8000895FA9FF02DEB9FF00DEA9FE02DF10DC3
:1017B8000895ED91FC91119708950590F491E02D0D
:1017C80008957A936A93FA93EA930895E199FECF7C
:1017D800FF93FFB7F894AEBBBFBBE09AEDB3FFBF72
:1017E800FF910895E19B02C0A895FCCF9FB7F8949C
:1017F800AEBBBFBBE09A8DB3E81719F0EDBBE29A18
:10180800E19A9FBF089500240E160F06089500243C
:101818000A160B0608955A934A933A932A931A93F1
:101828000A9308955D814C813B812A811981088141
:101838000895AC0FBD1F05900D928A95E1F70895A4
:00000001FF
