:0C0000000C94EF020C9400000C94000023
:10000C000C9400000C9400000C9400000C94000064
:10001C000C9400000C9400000C9400000C94000054
:10002C000C9400000C9400000C9400000C94000044
:10003C000C9400000C9400000C9400000C94000034
:10004C000C9400000C9400000C9400000C94000024
:10005C000C9400000C9400000C9400000C94000014
:10006C000C9400000C9400000C9400000C94000004
:10007C000C9400000C9400000C9400000C940000F4
:10008C0005072060000000000000005F0000000772
:10009C00000700147F147F14242A7F2A12231308CC
:1000AC00646236495522500005030000001C2241B1
:1000BC00000041221C00082A1C2A0808083E0808D7
:1000CC0000503000000808080808003030000020FC
:1000DC00100804023E5149453E00427F40004261F7
:1000EC005149462141454B311814127F1027454583
:1000FC0045393C4A4949300171090503364949499A
:10010C0036064949291E00363600000056360000D6
:10011C00000814224114141414144122140800026F
:10012C0001510906324979413E7E1111117E7F49F8
:10013C004949363E414141227F4141221C7F494978
:10014C0049417F090901013E414151327F080808AC
:10015C007F00417F41002040413F017F0814224134
:10016C007F404040407F0204027F7F0408107F3EA6
:10017C004141413E7F090909063E4151215E7F09FB
:10018C00192946464949493101017F01013F404047
:10019C00403F1F2040201F7F2018207F631408142D
:1001AC00630304780403615149454300007F4141D6
:1001BC00020408102041417F0000040201020440A7
:1001CC0040404040000102040020545454787F48C1
:1001DC004444383844444420384444487F385454C8
:1001EC005418087E090102081454543C7F08040476
:1001FC007800447D40002040443D00007F1028449E
:10020C0000417F40007C041804787C080404783892
:10021C00444444387C14141408081414187C7C08C6
:10022C000404084854545420043F4440203C4040AB
:10023C00207C1C2040201C3C4030403C4428102892
:10024C00440C5050503C4464544C4400083641001B
:10025C0000007F0000004136080002010204027F0A
:10026C004141417F000103070F1F3F7FFF00102713
:10027C00E80364000A0001000010000110000100F6
:10028C003132333435363738392A302307050604F2
:10029C000001020025730D0A0053657474696E67C2
:1002AC0020534D53204D6F64652E2E2E0041542B40
:1002BC00434D47463D310041542B434E4D493D3251
:1002CC002C322C302C302C300041542B434D4744D5
:1002DC00413D2244454C20414C4C2200534D53206F
:1002EC0052656164792E0053657474696E6720479A
:1002FC00505253204D6F64652E2E2E0041542B53BB
:10030C00415042523D332C312C22436F6E74797024
:10031C0065222C2247505253220041542B534150FA
:10032C0042523D332C312C2241504E222C2225732B
:10033C0022006D63696E65740041542B5341504229
:10034C00523D312C310041542B53415042523D32DD
:10035C002C310049503A004D4F544F522025642007
:10036C004F4E21004D4F544F52202564204F46468E
:10037C002100417574686F72697A696E672E2E2E32
:10038C000041542B48545450494E49540041542B6D
:10039C0048545450504152413D22434944222C313F
:1003AC000041542B48545450504152413D22555217
:1003BC004C222C2225733F70686F6E653D2573228D
:1003CC0000687474703A2F2F676F6F676C652E63BB
:1003DC006F6D2F6170692F617574686F72697A65C2
:1003EC000041542B48545450414354494F4E3D30D6
:1003FC0000417574686F72697A6174696F6E20461A
:10040C0061696C6564210041542B48545450544527
:10041C00524D004D6F64756C6520496E69742E2EBB
:10042C002E004154453000415400534D5320496E29
:10043C006974204661696C656421004750525320F1
:10044C00496E6974204661696C6564210053797347
:10045C0074656D2052656164792E00576169746909
:10046C006E6720666F7220534D532E2E2E002B4339
:10047C004D543A00534D5320436F64653A00456E1A
:10048C0074657220636F6465206F6E206B65797084
:10049C0061643A0054696D656F75742120547279EA
:1004AC0020616761696E2E00596F752070726573DB
:1004BC007365643A00436F646520697320434F523F
:1004CC005245435421004572726F7220696E20654B
:1004DC006E7472792100534D5320636F64652069EB
:1004EC007320696E76616C696421000001002D4EE9
:1004FC00414E00494E46000014000005A5020A00BA
:10050C001405B90212001E05C30213003005D502F2
:10051C000B004305E80215004E05F3021E006305AF
:10052C0008030D00810545030D008E0552030400E0
:10053C009B055F030F009F057E030C00AE058D032A
:10054C001400BA0599031000CE05ED031600DE0564
:10055C00FD030C00F40513040F0000061F04050036
:10056C000F062E040300140633041100170636047C
:10057C001200280647040E003A06590413004806D8
:10058C00670406005B067A040A0061068004160004
:10059C006B068A0414008106A0040E00950659040B
:1005AC001300A30667040D00B606B4041100C306BD
:1005BC00C1041000D406D2041500E406E2040E00B7
:1005CC00F906590413000707670401001408F8041E
:1005DC000000F894EE27ECBBF1E0F5BFE5BFE0932B
:1005EC006C008DE0A2E0BB27ED938A95E9F780E0E3
:1005FC0090E1A0E0B1E0ED930197E9F7E4E0F5E0DC
:10060C0085919591009761F0A591B5910590159004
:10061C00BF01F00105900D920197E1F7FB01F0CFBE
:10062C00EFEFEDBFE0E1EEBFC0E0D5E00C94550478
:10063C00639783E1A0E0B0E0ECE8F2E00E942F0FBA
:10064C001A930A9300E0033078F5E5B3E760E5BB55
:10065C0015B2E02FF0E0DE015296AE0FBF1FEC9109
:10066C00A1E00E94640DE5BB10E01430D8F40E94A8
:10067C00690DB1F4AAE0B0E00E94B70E0E94690DBA
:10068C0079F40E94690DE9F3A3E01A9FF001DE01F1
:10069C001296AE0FBF1FEE27A00FBE1FEC9105C028
:1006AC001F5FE3CF0F5FCFCFE0E019810881659624
:1006BC000895BA93AA93E0EAF2E0FA93EA93EA81F6
:1006CC00FB81662777270E94F70E84E00E94180CA6
:1006DC0026960C943F060E947B0DA0E0B5E00E948C
:1006EC00170AA4E1B5E00E94810DAEE1B5E00E94CD
:1006FC00810DA0E3B5E0DDDF0E94870D0E948B0D1C
:10070C00A3E4B5E00E94900D0895E2970E947B0D42
:10071C00AEE4B5E00E94170AA3E6B5E00E94980D7E
:10072C00FE01FA93EA93E6E2F3E0FA93EA93EEE33E
:10073C00F3E00E949E0D0E94A30DDE010E94980D15
:10074C00A1E8B5E0B6DFA8EBBBE00E94B70EAEE8BF
:10075C00B5E00E94980D0E948B0DABE9B5E00E94AC
:10076C00900DE2960895BA93AA9364971A93ED8923
:10077C00FE89E130A0E0FA0711F412E00DC0E2307E
:10078C00A0E0FA0711F413E007C0E330A0E0FA0789
:10079C0011F414E001C031C0FE013196FA93EA93D2
:1007AC00E3E6F3E00E94A80D0E94B10DE4E1EA93A8
:1007BC00DE0113960E94170A13B0E12FA1E00E94EC
:1007CC00C90EE129E3B9A0E1B7E20E94B70E13B05C
:1007DC00E12FA1E00E94640DE3B9FE013196FA937A
:1007EC00EA93E0E7F3E00E94A80DEAE0EA93E8E27E
:1007FC00EA93DE0113960E94B60D18816796089550
:10080C00BA93AA93EF97EF9768971A930A9300E01D
:10081C0010E00E947B0DAFE9B5E00E94B90DDE013E
:10082C00A656BF4F0D90BC91A02D0E94170AAEEAA0
:10083C00B5E00E94BC0DAAEBB5E00E94810DFE0153
:10084C003296FA93EA93EDEAF3E0FA93EA93EDEC3D
:10085C00F3E00E949E0DFE01E056FF4F0190F081E7
:10086C00E02D0E949E0D88E00E94EA0B2C96DE0182
:10087C0012960E94BC0DAEECB5E00E94BC0D0E941D
:10088C00C20DAEEDB5E00E94C90DA4EFB5E011DFCD
:10089C00E1E019810881EF96EF966C960895269702
:1008AC00E0E0EABBEBBBE7BBE0EFE8BBE7E0E4BBB7
:1008BC00E0EFE5BBECE3E2B9E0E0E3B9E093610023
:1008CC00E0936200EBB9E8E1EAB9E6E0E093950069
:1008DC00E0E0E0939000E3E3E9B9E0E8E4BFE4BFD3
:1008EC00ECE8F0E0E883F983E0E0EA83EB83EC8367
:1008FC00ED83DE01C0D1ECE8F0E00E94CF0D0E9448
:10090C007B0DA0E0B6E00E94C90DAFE0B6E00E94FE
:10091C00810DA4E1B6E00E94810DDDDEE03039F4FA
:10092C000E948B0DA7E1B6E00E94170AFFCFEDDE07
:10093C00E03039F40E948B0DA8E2B6E00E94170A51
:10094C00FFCF0E947B0DAAE3B6E00E94B90DA8E48C
:10095C00B6E00E94170A2697E0E0E883E983EA8371
:10096C00EB830E94D40D0E94D90D0E94D40DA4E6F5
:10097C00B0E00E94440A309709F4D6C00E94D40D0E
:10098C00ABE5B6E00E94840C309709F4CDC02297F9
:10099C000E94D40D0E94DF0D09F4BBC00E94E70D2C
:1009AC000E94DF0D09F4B5C0EFEFF7E0FA93EA937C
:1009BC00AA81BB810E94470CAFEFB7E021DFE0308A
:1009CC0009F4A7C0EBE9F7E0FA93EA930E94D90D7A
:1009DC00EBE9F7E0FA93EA93A4E6B0E00E94440A4C
:1009EC00ABE9B7E00E94540C0E94190F08F091C0BB
:1009FC00E0919B07EF83AF81A13329F0A23319F06B
:100A0C00A33309F080C02297E0E0E883E983B4D1F6
:100A1C00E0E0EA93E5E0EA93A1E6B6E00E94170A6B
:100A2C00E985EE83E6E4EA93E5E0EA93DE011896C5
:100A3C000E94170AE0E0EA93E9E1EA93ABE6B6E03C
:100A4C000E94170AE0E0E883E983A881B981A83CF9
:100A5C00E0E0BE0774F4ECDDE887E03051F4AAE086
:100A6C00B0E00E94B70EE881F9813196E883F983F2
:100A7C00ECCFE885E030A1F40E94B10DE9E1EA93F6
:100A8C00A1E8B6E00E94C90D0E947B0DA5E9B6E075
:100A9C000E94B90DA3EAB6E00E94170A2A965BCF12
:100AAC00E0E0EA93EDE2EA93A6EBB6E00E94170AC7
:100ABC00E885EE83EAE5EA93EDE2EA93DE01189627
:100ACC000E94C90DE985A885EA17A9F40E94B10D09
:100ADC00E9E1EA93A3ECB6E00E94170AACEDB5E0AD
:100AEC000E94B70EE985F0E0F097EC83FD83AC81B2
:100AFC00BD8139DE06C00E94C20DA4EDB6E00E9495
:100B0C00B60D229606C00E94C20DA4EEB6E00E945D
:100B1C00B60D0E947B0DA9EFB6E00E94B90DA7E0BF
:100B2C00B7E00E94170A2296269615CFFFCF000039
:100B3C00E0916200E061E093620000000895E091B2
:100B4C006200EF7E0E94EC0DEF7D0E94EC0DEF7BBE
:100B5C00E093620008951A93EADF19B3E091620002
:100B6C00EF7EE0936200E12F19910895AA931A93F6
:100B7C000E94F10DEB7FE0936200E981EF5F1E2F85
:100B8C0010FF04C0E0916200E06203C0E0916200DB
:100B9C00EF7DE093620011FF04C0E0916200E0641D
:100BAC0003C0E0916200EF7BE0936200D4DFE07859
:100BBC00E9F718815EC0AA93A981D8DFE0916200A1
:100BCC000E94F70D56C0E0911008EA93E0910F08CF
:100BDC00EF73E064AE2FEFDFE0911008EA93E09141
:100BEC001108E86BAE2FE7DF0895AA93E981E09333
:100BFC000F08E295EF70E695E695E0931008E88112
:100C0C00E0931108E0DF35C0A0910F08AF5FA0930F
:100C1C000F08A03818F0E0E0E0930F08E0910F08FF
:100C2C00EF7331F4E0910F08EA93A0911108DDDF26
:100C3C000895AA93A091100899DFE0916200E460F6
:100C4C000E94EC0D0E94F70D0C94420AA091100822
:100C5C008DDF0E94F10DE460E09362007CDF08956B
:100C6C00AA93E981EA93E9810E94020EEFDFABDFE0
:100C7C00EDDF22960895BA93AA931A93E09161003E
:100C8C00E0610E94080EE8600E94080EE4600E9479
:100C9C00080EE068E0936100E0916200E068E09388
:100CAC006200E0916100E0620E94080EE064E09353
:100CBC00610045DFE0916200EF77E0936200A4E60B
:100CCC00B0E00E94B70EE0916200E068E093620031
:100CDC0010E0123040F41A93AFE36DDF1A931395C2
:100CEC00A0EC69DFF6CFE1E0E0931A07E0E0E093D7
:100CFC001B07E981FA813097A9F0A981BA810E947A
:100D0C00EF0E0E94CF0DA981BA8112960E94EF0EB0
:100D1C00E0933307F0933407A981BA8114960E94AB
:100D2C00EF0E0AC0E0E0F0E00E94CF0DE0E0F0E052
:100D3C00E0933307F0933407E0933507F0933607CD
:100D4C00E1E0E0932007E0932107E0932207EFEF27
:100D5C00E0932307E1E0E0932A07EBE2F7E0FA9354
:100D6C00EA93EFEFEA93A8E0B0E00E94370C04D0CE
:100D7C00E1E01881239608950E94230F00E030E0F3
:100D8C00E0911B07E03009F00FEF383078F4E0E029
:100D9C00EA93A32F3F5F29DF10E0A12F1F5FA0383C
:100DAC0020F4A02F0E940D0EF8CFEFCFE0E0EA93D5
:100DBC00A0E01BDFE0E0EA93A0E048D30E942A0FFA
:100DCC0024960895AA931A93ED81EA93AD8148DF96
:100DDC001E2FF9DEE981E73011F0E83039F4EB81B0
:100DEC00EA93AA810E94FE0CEB8308C0E33021F445
:100DFC00EB81E095EB8302C0E03021F4EA81E095D1
:100E0C001E2302C0E23029F4EA81AB81EA231E2BB7
:100E1C000EC0E13029F4EA81AB81EA231E2707C01A
:100E2C00E43029F4EA81E095AB81EA2B1E23A12F53
:100E3C000E940D0E18810C94F10CAA9323970E941A
:100E4C00210FA889A03848F4AF85A03430F4AE85C2
:100E5C00A03019F0AD85A03009F4C6C1EE85E88745
:100E6C00A889BB27EE85F0E0AE0FBF1FA138E0E0EC
:100E7C00BE0720F0A889E0E8EA1BEE872D85AF8538
:100E8C00BB27ED85F0E0AE0FBF1FA134E0E0BE073D
:100E9C0020F0AF85E0E4EA1BED87A985A63009F0C8
:100EAC005BC0EC85E13009F49FC1E33039F4E0918B
:100EBC003507F0913607309709F496C10885ED8512
:100ECC00E695E695E6953E2FE22FE77019F4AD8591
:100EDC002A17E9F0A02FBB27E32FF0E00E94E70EC2
:100EEC00AA85BB850E94110E269526952695532F13
:100EFC005F935F5FE22FAF91EA1748F0102FE12F5D
:100F0C001150E03019F00E94160EF9CFF1CFAE85DA
:100F1C000A1711F1EE85AA85BB85F0E00E94110E2F
:100F2C00ED85E77009F03F5F20E02F932F5FE32FF3
:100F3C00AF91AE1788F41E851F931F5FE02FAF9102
:100F4C00AE1718F40E94160EF7CFEE85AE81BF8156
:100F5C00F0E00E94110EE9CFEF85E7703E2FED8592
:100F6C00E03009F441C1EA85FB85EE83FF8310E094
:100F7C000889303009F065C0AD85A83008F45CC034
:100F8C00E985E03011F0E33009F402C0E73009F4F0
:100F9C0002C0E83009F402C0E63009F402C0E930BE
:100FAC0009F402C0EA3021F40A93E8890E94020E87
:100FBC001F931F5FEE85AF91AE17B8F5A985A630CC
:100FCC0061F444DE00DE0E94230EFA93EA933EDEC7
:100FDC00AE2F0E94450D18DE27C0E985E93011F4CB
:100FEC0050E00EC0EA3011F45FEF0AC00E94230EED
:100FFC000E942C0E5E2FE985E73011F0E83021F4C9
:10100C000E94320E5E2F06C0E33011F4509502C0E0
:10101C00E03021F4A52F0E940D0E06C00E94360E62
:10102C00EFEFEA93AD85CEDEC3CFEF85E85FEF87B8
:10103C00ED85E850ED87CFC05D8520E0E0E0ED87E1
:10104C007AC0E32FAD85AE0FA93020F42D85E0E0FA
:10105C00ED8703C0E8E0E31B2E2F3A93A22F0E94EA
:10106C00F30C4E2FE985E630F1F41F931F5FEE85EC
:10107C00AF91AE17B8F40E943C0EAE2FE32F0E9436
:10108C00D10E0E94430EE32FA42F0E94D10EE095A7
:10109C00E1215E2B0E94230EFA93EA93A52F0E9466
:1010AC00450DE3CF2CC0E93011F450E003C0EA3019
:1010BC00A9F45FEF0E94320EAE2FE32F0E94C90EEF
:1010CC005E2F1F931F5FEE85AF91AE1730F40E9419
:1010DC00360E4A93A0E076DEF4CF11C01F931F5F4B
:1010EC00EE85AF91AE1758F40E944E0EAE2FE32F43
:1010FC000E94C90EEA934A93AD8564DEEFCFED856D
:10110C00E03009F471C0AD85A83028F4ED85E21B00
:10111C005E2FE0E003C0532FED85E850ED8710E023
:10112C00EF85E85FEF87E8E0E31B2E2F0889EA855F
:10113C00FB85EE83FF83E52FF0E0E059FD4F4491F2
:10114C00E985E630E1F41F931F5FEE85AF91AE1792
:10115C00A8F40E943C0EAE2FE22F0E94C90E0E94F2
:10116C00430EE22FA42F0E94640D5E2B0E94230ECF
:10117C00FA93EA93A52F0E94450DE5CF2CC0E930D8
:10118C0011F450E003C0EA30A9F45FEF0E94320E74
:10119C00AE2FE22F0E94D10E5E2F1F931F5FEE85A4
:1011AC00AF91AE1730F40E94360E4A93A0E00ADEDF
:1011BC00F4CF11C01F931F5FEE85AF91AE1758F49B
:1011CC000E944E0EAE2FE22F0E94D10EEA934A934C
:1011DC00AD85F8DDEFCFE885AA85BB85F0E0EA0F99
:1011EC00FB1FEA87FB87BBCE0E94280F61960895F0
:1011FC000E945B0E24F0E0E0F0E00C94FC0CA88163
:10120C00B981A038E0E0BE0724F0EFE7F0E00C94E1
:10121C00FC0CE881F9810C94FC0C0E945B0E24F010
:10122C00E0E0F0E00C94FC0CA881B981A034E0E083
:10123C00BE0724F0EFE3F0E00C94FC0CE881F9819C
:10124C000C94FC0CBA93AA9323970E94620E8F0104
:10125C00002E012A19F4E0E0F0E05FC00E94690E54
:10126C000F820E94690E0E820E94690E0886EB8521
:10127C00A885EA1718F4E0E0F0E04FC0F8010F5F22
:10128C001F4F5491A885BB27EE27A50FBE1FEB85DA
:10129C00F0E0EA17FB0718F0E0E0F0E03EC0EE816A
:1012AC00E695E695E6954E2FEE81E77009F04F5FD7
:1012BC00EF81E030A1F0A985BA85EC93A885EB8588
:1012CC00EA1BF0E0DF01EF81F0E00E94E70EDF01A6
:1012DC00E42FF0E00E94E70EE00FF11F1EC0980112
:1012EC00E52FF0E00E0F1F1FA885AF5FA887A15058
:1012FC00EB85AE1760F4F9012F5F3F4FA491B0E07E
:10130C00E42FF0E00E94E70E0E0F1F1FEDCFF90146
:10131C00E491A985BA85EC93F8010E94280F2C96CC
:10132C000895E0E0E0931C07A0911D07BB270E94E5
:10133C006E0EF0E0AE0FBF1FE0912107F0E0AE0F94
:10134C00BF1F6BDFE0931D070895AA9321970E949E
:10135C00620E309709F45FC0AF81AA3009F459C00E
:10136C00EF81EA93DE0117966DDFAF01309709F438
:10137C0054C0E0912007AE81EA0F3E2FA0911C07CC
:10138C00BB27F0E0EA0FFB1F8F010138E0E01E07DE
:10139C0018F0032F1127C5DFE0911C07EA93E091A9
:1013AC001D07EA93E885EA930E946E0EEA93E1E04A
:1013BC00EA935A934A93A7E040DDE0911C07AE8173
:1013CC00EA0FEA93E0911D07EA93E0912007EA9374
:1013DC000E946E0EEA93E0E0EA930E94E70DA9E00A
:1013EC002CDDE0911C07EA93A0911D070E946E0E64
:1013FC00EA0FEA933A93E0912107EA93E0E0EA934B
:10140C000E94E70DA9E019DDE0E8F0E0E017F10734
:10141C0011F487DF02C000931C070E94280F289646
:10142C000895BA93AA931A93EC81EA93AC810ED0E7
:10143C00A981BA81ED91A983BA831E2FE03019F0EE
:10144C00A12F83DFF5CF18810C94450CAA93A981A9
:10145C00BB27CEDEE0931C07A881BB27DEDEE09322
:10146C001D070C94FC0C5F9BFECFECB10895AA9366
:10147C005D9BFECFE881ECB921960895BA93AA93AF
:10148C000E94210F0E811F8128853985002E012A8B
:10149C00D9F0E9DF5E2F583051F4AE81BF810A17C5
:1014AC001B0720F4215030400F5F1F4FF2CF5A30F2
:1014BC0059F03F932F932F5F3F4FE52FAF91BF9183
:1014CC00EC9301501040E2CFD901E0E0EC93E885B9
:1014DC00F9850E94280F2A960895BA93AA93AA8197
:1014EC00C6DFA881B9810E94750E0C94430DBA9386
:1014FC00AA931A930A93AA81BB8112960E94EF0EAB
:10150C00309729F1AA81BB8114960E94EF0E8F01AE
:10151C00309761F00230E0E01E0780F0F80131975F
:10152C008F01AA81BB811496ED93FC93AA81BB8198
:10153C0012960E94750E3197AC81A083AA81BB8153
:10154C000E94EF0EFF2312F00E94750E06C0AA81B6
:10155C00BB81EFEFFFEFED93FC93198108818FC1F5
:10156C00BA93AA9326970E94210F10E0AC85BD85F3
:10157C00E0E0F0E0ED93FC93EA89FB893196EA8B8D
:10158C00FB8B3197E4912E2FE03009F415C1E12F3C
:10159C00E03039F4253211F411E002C00E947B0EC8
:1015AC000AC1E130A9F4253219F40E947B0E02C164
:1015BC0012E040E000E02D3211F401E0FCC02B32CF
:1015CC0011F44BE2F8C0203211F440E2F4C002C036
:1015DC00E23039F450E013E0203311F40068EBC032
:1015EC0003C0E33009F0E7C0203310F02A3308F0D1
:1015FC0007C0AAE05A9F502DE22FE0535E0FDBC0CC
:10160C00E22FE33649F40E94820EE889F989A4811D
:10161C00AA930E94880ECEC0E33741F40E94820E3A
:10162C000E948E0E0E94540C1E2F0AC0E03761F4EB
:10163C000E94820E0E948E0E0E94600C1E2F08606B
:10164C0002600F7730E034C0E43611F0E93611F463
:10165C00046002C0E53731F4EAE7F2E0EE83FF8381
:10166C0015E00CC0E83511F4086003C0E83709F048
:10167C00A1C0E4E8F2E0EE83FF8314E002FF14C0A3
:10168C000E94820E0E94980EAB85AA233AF4EA853A
:10169C00FB850E94C50EEA87FB874DE2403011F0B6
:1016AC001F5F01C00B7F04C00E94820E0E94980E27
:1016BC0000FD11C0151778F407FF08C002FF04C025
:1016CC000B7F242F115001C020E301C020E20E94A7
:1016DC007B0E5150EFCF312F01FF17C03030A1F0EE
:1016EC0003FF06C0EE81FF812591EE83FF8305C0C9
:1016FC00AE81BF812D91AE83BF830E947B0E503093
:10170C0009F051503150EACF4BC020E3EE81FF81FC
:10171C000E94F30EE887F987EE81FF813296EE8303
:10172C00FF83E885F985AA85BB85AE17BF0750F006
:10173C002F5FA885B985EA85FB85EA1BFB0BEA8739
:10174C00FB87EFCF2A3328F003FF02C0295F01C0CB
:10175C00295D04FD1AC0213320F4A885B9851197A1
:10176C0009F409C0531710F000FF01C013C020E2A8
:10177C0007FF0BC020E3006102FF07C00B7F4A93F9
:10178C000E94880E503009F051500E947B0E503050
:10179C0009F051503150A885B985129708F0B5CF92
:1017AC0000FF08C0503031F05150E0E2EA930E9443
:1017BC00880EF8CF10E0E0CEAC85BD850E94EF0E10
:1017CC000E94280F64960895FF92F82E26970E9487
:1017DC00230F0E94A00E309719F4EFEFFFEF1DC0FE
:1017EC00DE0116960E94C10E8D010E94A00EEE83A2
:1017FC00FF83E0E0E887E987DE011A960E94A70ED6
:10180C00EDE7FAE0FA93EA93DE011A96A9DE9F015E
:10181C00AE81BF81E0E0EC93F9010E942A0F2A9679
:10182C00FF900895FF92F82E26971A930A93DE01E3
:10183C0014960E94C10E8D01E0E0EC83ED83EE83E3
:10184C00EF83DE0118960E94A70EE3E7FAE0FA9305
:10185C00EA93DE01189684DE198108812896FF90A0
:10186C000895BA93AA93B981A881109631F0FC819E
:10187C00EB816A8161931197E9F7EB81FC812596E5
:10188C000895BA93AA93E991F991A991B991CD01CF
:10189C0061916D936623E1F7FC010895BA93AA93C5
:1018AC00A991B991EE27FF276D91662311F031961E
:1018BC00FBCF0895BA93AA93AA27BB27E991F99174
:1018CC000590002011F01196FBCFFD010895BA93FD
:1018DC00AA93BB81AA816C91662361F0F981E8819E
:1018EC00C895002029F031966015D1F7FD0104C090
:1018FC001196F1CFEE27FF270C94620DBA93AA93A1
:10190C00AA81BB81CD01E881F9817191772311F412
:10191C00FC0109C06D916717C1F30196DC016623C8
:10192C0091F7EE27FF270C94620DBA93AA93BB8113
:10193C00AA81882799276D91662349F0F981E8815E
:10194C000590002021F06015D9F70196F4CFFC0129
:10195C00B3C0BA93AA931A930A93EC81FD81309782
:10196C0079F4E0911208F0911308309719F4E0E043
:10197C00F0E02FC0E0911208F0911308EC83FD8386
:10198C000E94B00E0E949B0CAC81BD81EA0FFB1F24
:10199C00EC83FD83AC81BD81EC91E03041F4E0E05F
:1019AC00E0931208E0931308E0E0F0E012C00E940C
:1019BC00B00E0E946D0C8F01309729F0D8010F5F8B
:1019CC001F4FE0E0EC930093120810931308EC8186
:1019DC00FD811981088126960895AA93E881F0E08B
:1019EC00E059FD4FA491E9810E94C90E22960895F9
:1019FC00AA931A93E981E73011F0EA3019F41091A7
:101A0C001A0709C0E93019F410911B0704C0E8301B
:101A1C00A1F410912A07E0911B07E03049F0103037
:101A2C0019F0EFEF188129C0EA81E095188125C0E3
:101A3C00103019F4E0E0188120C0EA8118811DC033
:101A4C00BA93AA93EA81E13021F4E881F981E49117
:101A5C0014C0E23029F4A881B9810E94FC0E0DC09B
:101A6C00E33041F4A881B981E0913307F091340758
:101A7C00099503C0A881B981EC9123960895AA9386
:101A8C00EB81E03029F4E881A981BA81EC9314C090
:101A9C00E23031F4E881A981BA810E94080F0CC0B0
:101AAC00E33051F4E981FA81FA93EA93AA81E09147
:101ABC003507F09136070995249608950E94C90EB2
:101ACC00E095E121089513B2E12FF0E0DE011E96BE
:101ADC00AE0FBF1FEC91A1E0B0E00E94D90EA12D7A
:101AEC00B0E0EA23FB23309708950E94C206E0E0A1
:101AFC00EA93EA9308950E945F03A4EFB1E00C947B
:101B0C00B70EA0EDB7E00C94B70EE0E0EA93EAE074
:101B1C00EA9308950E94170AA8EEB3E00E94B70E4C
:101B2C00E1E008950E945F03ACEDB5E00C94B70EB4
:101B3C00662777270E94F70E089584E00E94EA0B2F
:101B4C0028960895FA93EA93E98DFA8D0E94E20E95
:101B5C000E94F70EF2CF0E94C206EAE0EA930895C3
:101B6C000E94170ACECF0E94170ACFCF0E945F03A4
:101B7C00A8EEB3E00C94B70E0E94C206E5E0EA931F
:101B8C00E9E1EA9308950E94170AA8EEB3E00C94D9
:101B9C00B70EE0931E07F0931F070895E7E3F7E0F5
:101BAC00FA93EA930895E0E0EA93A4E6B0E00C948B
:101BBC00370CA6EEB2E00E94AF0CE883F9833097A5
:101BCC000895E0E0F0E0FA93EA930895E093620060
:101BDC00E09162000895E0E0EABBE0916200E86009
:101BEC00F5CFE77FE0936200EFEFEABBE881EBBB58
:101BFC000E949D050C94A505E695E695E695AE2FFD
:101C0C000C94FB05E0936100E091610008950E9443
:101C1C001F060C940A06EA0FFB1FEE83FF83089540
:101C2C00EC85EA93EF81F8853196EF83F88731974D
:101C3C00FA93EA93A0E00C94450DEC85EA93EF81BE
:101C4C00F8853196EF83F8873197089566277727C3
:101C5C00DF01CB010C94260D5A93AA850C94FE0C33
:101C6C000A930395E889EA935A9308950A93039586
:101C7C00A8890E943606E42308955E2FEC85EA932A
:101C8C00AF81B885882799270E94260D1E2E0895AE
:101C9C000A930395E889EA93EE85EA93E985FA8538
:101CAC003196E987FA873197D1CFBA93AA93A88155
:101CBC00B9810E941D0F08950E94210FE0911E070B
:101CCC00F0911F070895F8010F5F1F4F04900895BE
:101CDC00E0911E07F0911F073196E4910895ED9164
:101CEC00FD913196FE93EE9308952A93AD85BE85B2
:101CFC00EF85F88909950895E889F9893497E88B77
:101D0C00F98B0895AD85BE85EF85F8890995089501
:101D1C00A889B98914960E94EF0EEE83FF83AE81D9
:101D2C00BF810895A889B98914960E94EF0EEA879D
:101D3C00FB870895DE011C960E94C10E0E94EF0ED7
:101D4C0008950E94C10E0E94EF0EFA93EA931A9323
:101D5C000A930895EC81FD81FA93EA93AC81BD81DD
:101D6C000895109639F0A89580ED97E00197F1F75A
:101D7C001197C9F708950024AF0DB01D0895F19582
:101D8C00E195F0400895EE230E2EEA2F19F0EE0F98
:101D9C000A94E9F70895EE230E2EEA2F19F0E69532
:101DAC000A94E9F70895EE230E2EFD0121F0EE0FB3
:101DBC00FF1F0A94E1F708956F2F660F660B762FBD
:101DCC000895FA9FF02DEB9FF00DEA9FE02DF10D99
:101DDC000895ED91FC91119708950590F491E02DE3
:101DEC0008957A936A93FA93EA930895E199FECF52
:101DFC00FF93FFB7F894AEBBBFBBE09AEDB3FFBF48
:101E0C00FF910895E19B02C0A895FCCF9FB7F89471
:101E1C00AEBBBFBBE09A8DB3E81719F0EDBBE29AED
:101E2C00E19A9FBF089500240E160F060895002412
:101E3C000A160B0608955A934A933A932A931A93C7
:101E4C000A9308955D814C813B812A811981088117
:101E5C000895AC0FBD1F05900D928A95E1F708957A
:00000001FF
