:100000000C94210C0C9400000C9400000C94000043
:100010000C9400000C9400000C9400000C94000060
:100020000C9400000C9400000C9400000C94000050
:100030000C9400000C9400000C9400000C94000040
:100040000C9400000C9400000C9400000C94000030
:100050000C9400000C9400000C9400000C94000020
:100060000C9400000C9400000C9400000C94000010
:100070000C9400000C9400000C9400000C94000000
:100080000C9400000C9400000C9400000507206004
:10009000000000000000005F0000000700070014DF
:1000A0007F147F14242A7F2A12231308646236499E
:1000B0005522500005030000001C2241000041228F
:1000C0001C00082A1C2A0808083E080800503000B6
:1000D000000808080808003030000020100804025A
:1000E0003E5149453E00427F400042615149462110
:1000F00041454B311814127F1027454545393C4A7C
:1001000049493001710905033649494936064949CB
:10011000291E003636000000563600000008142262
:100120004114141414144122140800020151090648
:10013000324979413E7E1111117E7F494949363E4F
:10014000414141227F4141221C7F494949417F0968
:100150000901013E414151327F0808087F00417F7B
:1001600041002040413F017F081422417F40404030
:10017000407F0204027F7F0408107F3E4141413EE0
:100180007F090909063E4151215E7F09192946462A
:100190004949493101017F01013F4040403F1F2053
:1001A00040201F7F2018207F631408146303047805
:1001B0000403615149454300007F41410204081096
:1001C0002041417F000004020102044040404040C1
:1001D000000102040020545454787F4844443838C5
:1001E00044444420384444487F3854545418087ECA
:1001F000090102081454543C7F0804047800447D2B
:1002000040002040443D00007F10284400417F40D2
:10021000007C041804787C0804047838444444388A
:100220007C14141408081414187C7C08040408486E
:1002300054545420043F4440203C4040207C1C2027
:1002400040201C3C4030403C44281028440C505076
:10025000503C4464544C44000836410000007F0088
:1002600000004136080002010204027F4141417F43
:10027000000000000000000000000000000000007E
:10028000000000000000000000000000000000006E
:1002900080000000000000000000000000000000DE
:1002A000000000000000000000000000000000004E
:1002B000000000000000000000000000000000003E
:1002C000000000000000000000000000000000002E
:1002D000000000000000000000000000000000001E
:1002E000000000000000000000000000000000000E
:1002F00000000000000000000000000000000000FE
:1003000000000000000000000000000000000000ED
:100310007F000000E000001808180800C00000007E
:1003200000C0000000C00000804000000080C0004D
:10033000000464C00000000000E000001808180875
:1003400000C000000000C0000000C000006080008D
:100350000040C0000080001810E000000000008095
:10036000000010F80000000C1E32C2020000000065
:10037000000000000000000000000000000000007D
:10038000000000000000000000000000000000006D
:10039000030200000103020202020203010302023F
:1003A00002010302020102020303021A121B1302DA
:1003B0000202030100000000000103020202020227
:1003C00003010302020201030202010202030020F0
:1003D00030180F00000302020203000000000003B7
:1003E00002020201030202020202010000000000F8
:1003F00000000000000000000000000000000000FD
:1004000000000000000000000000000000000000EC
:1004100000000000000000000000000000000000DC
:1004200000000000000000000000000000000000CC
:1004300000000000000000000000000000000000BC
:1004400000000000000000000000000000000000AC
:10045000000000000000000000000000000000009C
:10046000000000000000000000000000000000008C
:10047000000000000000000000000000000000007C
:10048000000000000000808000000000000000006C
:10049000000000000000000080800000000000005C
:1004A000000000000000000000000000000000004C
:1004B000000000000000000000000000000000003C
:1004C000000000000000000000000000000000002C
:1004D000000000000000008080000000000000001C
:1004E000000000000000000000000000000000000C
:1004F0000000E0E00000060E1ABAE3C1000080C070
:10050000E0B0F0F00000FFFF00000000E0E00000BD
:1005100000F0F00000000000FFFF000020E0E0001D
:1005200000000000C0C008181800F0F00000E0F063
:100530003060E08000080CECEC8C000000E0E00093
:1005400080E0E010F0F00000000000E0F818F0E0BB
:10055000000020E0E00000FFFF000080C0E0B0707D
:10056000F080000000E0E00C8EEEEC18F0F00000EF
:10057000000000010101010101010101010101006F
:10058000010101010000000101090D0D0D0D0D2DEE
:100590003D3D090000000000010108080C0F0700A4
:1005A00000000000070F0C080C0C070700000909E9
:1005B000090F07010101010101010101010101010F
:1005C0000101010101000000000000010101010121
:1005D00008080C0F070000000101010100010101E2
:1005E00001010101010101010101010101000000FE
:1005F00000000000000000000000000000000000FB
:1006000000000000000000000000000000000000EA
:1006100000000000000000000000000000000000DA
:1006200000000000000000000000000000000000CA
:1006300000000000000000000000000000000000BA
:1006400000000000000000000000000000000000AA
:10065000000000000000000000000000000000009A
:10066000000000000000000000000000000000008A
:10067000000000000000000000000000000000007A
:10068000000000000000000000000000000000006A
:10069000000000000000000000000000808000005A
:1006A000C0C00018F8E0000000E0E080000008ECA6
:1006B000EC800000060E3AF3E101000000000000AB
:1006C000000000000000000000000000000000002A
:1006D000000000000000000000000000000000001A
:1006E000000000000000000000000000000000000A
:1006F00000000000000000000000000000000000FA
:1007000000000000000000000000000000000000E9
:1007100000000000000000000000000001010000D7
:1007200001010101010101050D0D0D090101010189
:1007300001010101010101010000000000000000B1
:1007400000000000000000000000000000000000A9
:100750000000000000000000000000000000000099
:100760000000000000000000000000000000000089
:100770000000000000000000000000000000000079
:100A800000C0C000000000000080800000000000E6
:100A90000000FCFC0000004040C0C000000000005E
:100AA0000000000080800000000000FCFC0000004E
:100AB00000000000000000000000000004FCFC003A
:100AC0000000808000000000000000000000808026
:100AD0008080000000808080808080000000000016
:100AE0000000808080000000000000000000000086
:100AF000000000000000000000000C0C00000E0EC2
:100B000008080F0F08286868684F0F4040637F1C73
:100B100000000F0F00000E0E08080F074040617F15
:100B20003F0868684F0F00000000000F0F40406151
:100B30007F3F00000000003E7E604060603F1F007D
:100B4000004F4F497B3F0C0808080F0F0E0B090898
:100B5000090F0F08080B0B0C0C060F0D0908080CE9
:100B6000060F0D0F0F000000000000000000000045
:100B70000000000000000000000000000000000075
:100B80000000000000000000000000000000000065
:100B90000000000000000000000000000000000055
:100BA0000000000000000000000000000000000045
:100BB0000000000000000000000000000000000035
:100BC0000000000000000000000000000000000025
:100BD0000000000000000000000000000000000015
:100BE0000000000000000000000000000000000005
:100BF00000000000000000000000000000000000F5
:100C000000000000000000000000000000000000E4
:100C100000000000000000000000000000000000D4
:100C200000000000000000000000000000000000C4
:100C300000000000000000000000000000000000B4
:100C400000000000000000000000000000000000A4
:100C50000000000000000000000000000000000094
:100C60000000000000000000000000000000000084
:100C70000000000000000000000000000000000074
:100C80000000000000000000000000000000000064
:100C90000000000000000000000000000000000054
:100CA0000000000000000000000000000000000044
:100CB0000000000000000000000000000000000034
:100CC0000000000000000000000000000000000024
:100CD0000000000000000000000000000000000014
:100CE0000000000000000000000000000000000004
:100CF00000000000000000000000000000000000F4
:100D00000000C0C000000000000000000000808063
:100D10000000FCFC0000000000808080000000104B
:100D2000B0A00000000000004040C0C00000000073
:100D300000000000FCFC00000080800000000000BB
:100D40000000FCFC0000000000000000000000406B
:100D500040C0C0000000000000C0C000000080C013
:100D6000C0C0C00000000000000000000000000043
:100D700000000000000000000000000C0C00000E4D
:100D80000E08080F0F084868686F6F6868686F4F33
:100D90000000070F08080C060F0D0B0F0C080808C1
:100DA0000F0F00000000000E0E08080F0740406102
:100DB0007F3F00000F0F00004F4F697F3F00000092
:100DC00000000F0F4040617F3F00000000000E0E4A
:100DD00008080F0700000E0E08080F0F08080B0F79
:100DE0000C0C0404000000000000000000000000E3
:100DF00000000000000000008080000000000000F3
:100E000000000000000000000000000000000000E2
:100E100000000000000000000000000000000000D2
:100E200000000000000000000000000000000000C2
:100E300000000000000000000000000000000000B2
:100E400000000000000000000000000000000000A2
:100E50000000000000000000000000000000000092
:100E60000000000000000000000000000000000082
:100E70000000000000000000010100000000000070
:100E80000000000000000000000000000000000062
:100E90000000000000000000000000000000000052
:100EA0000000000000000000000000000000000042
:100EB0000000000000000000000000000000000032
:10119000000000000000008080000000000000004F
:1011A000000000000000000000000000000000003F
:1011B000000080800000000000000000000000002F
:1011C000000000000000000000000000000000001F
:1011D000000080800000000000000000000080800F
:1011E00000000000000000808000000000000000FF
:1011F00000000000000000008080000080800000EF
:1012000080800000C0C00018F8E0000000E0E0802E
:10121000000002F6F40000FFFF000080C0E0B070A4
:10122000F080000000F0F0000000000020E0E0008E
:101230000080FF7F203236F4E00000040CECEC0468
:101240000008ECEC80000080C0E0B0F0F00000008E
:101250000000FFFF000060F39BFAF0000080FF7FBA
:10126000203030F0E0000003FFFC00000000000030
:10127000000000000000000001010000010100006A
:101280000101000001010101010101050D0D0D0920
:101290000101010101000000010101010001010142
:1012A0000101010D0D090100000008080C0F0701E4
:1012B000010101010101010101010101010101011E
:1012C0000101010101010101000101010100000012
:1012D0000000000101010101010101010101010101
:1012E00001010101010101010100000000000000F5
:1012F00000000000000000000000000000000000EE
:1013000000000000000000000000000000000000DD
:1013100000000000000000000000000000000000CD
:1013200000000000000000000000000000000000BD
:1013300000000000000000000000000000000000AD
:10134000000000000000000000000000000000009D
:10135000000000000000000000000000000000008D
:10136000000000000000000000000000000000007D
:10137000000000000000000000000000000000006D
:10138000000000000000000000000000000000005D
:10139000000000000000000000000000000000004D
:1013A000000000000000000000000000000000003D
:1013B000000000000000000000000000000000002D
:1013C000000000000000000000000000000000001D
:1013D000000000000000000000000000000000000D
:1013E00000000000000000000000000000000000FD
:1013F00000000000000000000000000000000000ED
:1014000000000000000000000000000000000000DC
:1014100000000000000000000000000000000000CC
:1014200000000000000000000000000000000000BC
:1014300000000000000000000000000000000000AC
:10144000000000000000000000000000000000009C
:10145000000000000000000000000000000000008C
:10146000000000000000000000000000000000007C
:10147000000103070F1F3F7FFF001027E8036400F0
:101480000A00010000100001100001003132333465
:1014900035363738392A30230705060400010200A3
:1014A00025730D0A0041542B53415042523D322CBA
:1014B00031002B53415042523A002B53415042527B
:1014C0003A20312C312C0053657474696E672053B7
:1014D0004D53204D6F64652E2E2E0041542B434DED
:1014E00047463D310041542B434E4D493D322C324D
:1014F0002C302C302C300041542B434D4744413D7F
:101500002244454C20414C4C220041542B4346552B
:101510004E3D310041542B4353434C4B3D3000531F
:101520004D532052656164792E00436F6E6E656382
:1015300074696E6720746F20475052532E2E2E0010
:1015400041542B53415042523D332C312C22436F96
:101550006E74797065222C224750525322004154F8
:101560002B53415042523D332C312C2241504E22BC
:101570002C22257322006D63696E65740041542B23
:1015800053415042523D312C3100466574636869C5
:101590006E672049502E2E2E00526573703A00411E
:1015A000542B48545450494E4954004F4B00415419
:1015B0002B48545450504152413D22434944222C1F
:1015C000310025733F70686F6E655F6E756D626583
:1015D000723D25730041542B4854545050415241A0
:1015E0003D2255524C222C222573220041542B4877
:1015F000545450414354494F4E3D31002B485454AC
:1016000050414354494F4E3A004E6F204163746934
:101610006F6E2052657370002B48545450414354F0
:10162000494F4E3A2025642C25642C2564005061D6
:10163000727365204572720048545450205374618F
:101640007475733A004E6F74204F4B0041542B4811
:10165000545450524541440041542B485454505422
:1016600045524D004D4F544F52202564204F4E217E
:1016700000687474703A2F2F3139332E352E34347C
:101680002E3139312F686F6D652F706F73742F0095
:101690004D6F64756C6520496E69742E2E2E004165
:1016A00054453000415400534D5320496E69742015
:1016B0004661696C656421004750525320496E6948
:1016C00074204661696C656421002B434D543A00D7
:1016D0004661696C656420746F2072656164206D79
:1016E00073670054696D656F757421205472792099
:1016F000616761696E2E00436F64652069732043E2
:101700004F52524543542100496E76616C69642002
:10171000534D5320436F6465210001002D4E414E0F
:1017200000494E4600000D000005A51408000D05F7
:10173000B2140D001505BA1414002205C7140A00CE
:101740003605DB1412004005E51413005205F714AA
:101750000A0065050A150B006F0514150B007A05C4
:101760001F15160085052A151E009B0540150D0046
:10177000B9057D150F00C6058A150D00D505A51400
:101780000800E205B2140600EA0599150D00F005FF
:10179000BA140C00FD059F1503000906AB151400D3
:1017A0000C06AE1503002006AB1503002306AB158F
:1017B00010002606EC150D003606FC150F0043063A
:1017C00009160D005206FC150A005F062E160D00C4
:1017D0006906381603007606AB150700790645162C
:1017E0000C0080064C1603008C06AB150C008F060F
:1017F000581603009B06AB151F009E0671160F00BE
:10180000BD0690160500CC069F160300D106A4164F
:101810001100D406A7161200E506B8160600F70652
:10182000CA161300FD06D01614001007E3161100A7
:101830002407F7161200350708170100ED071A17DD
:101840000000F894EE27ECBBF1E0F5BFE5BFE093B4
:101850006C008DE0A2E0BB27ED938A95E9F780E06C
:1018600090E1A0E0B1E0ED930197E9F7E6E2F7E15E
:1018700085919591009761F0A591B591059015908E
:10188000BF01F00105900D920197E1F7FB01F0CF48
:10189000EFEFEDBFE0E1EEBFC0E0D5E00C94030F49
:1018A000AA9321970E94031C00E010E0AF81B0E0F2
:1018B000E8E0F0E00E94C01BEE8330E0EE813E17CE
:1018C00050F520E0E8852E1720F5F8010F5F1F4F37
:1018D000A985BA85EA0FFB1F449150E05830B8F44F
:1018E000E52F0E94FA19A42F0E94FF1971F0E22F30
:1018F000AC85EA0FEA93E32FEE0FEE0FEE0FAC8507
:10190000EA0FE50FAE2F0E9402145F5FE7CF2F5F53
:10191000D9CF3F5FD3CF0E940A1C2D960895BA936A
:10192000AA93E0EAF4E1FA93EA93EA81FB810E9448
:10193000041A0E94FD1626960C94F510BA93AA93E9
:101940000E94031C00E010E020E030E0EC85FD8503
:101950000E940A1AAD85BE850E94AA18E885F985FD
:101960002E173F07D8F45F9B12C00E941D155E2FF3
:10197000EA85FB8531970E171F0744F4F8010F5FC6
:101980001F4FAC85BD85EA0FFB1F508306C0A1E049
:10199000B0E00E94751B2F5F3F4FE0CFEC85FD85C7
:1019A000FA93EA93A885B9850E94F718309711F049
:1019B000E1E001C0E0E00E940A1C2E9608950E941A
:1019C0000F1AA2E2B5E00E94FB14A6E3B5E00E9464
:1019D000151AA0E4B5E00E94151AA2E5B5E09FDF54
:1019E0000E941B1AA5E6B5E00E94151AAFE6B5E005
:1019F0000E94151A0E941F1AAAE7B5E00E94241A35
:101A0000E1E00895EF97EF9768970E940F1AA5E815
:101A1000B5E00E94FB14ABE9B5E00E94271AFE0175
:101A2000EC59FF4FFA93EA93EEE5F5E1FA93EA9366
:101A3000E6E7F5E10E94041A0E94CF162896DE011F
:101A4000AC59BF4F0E94271AA9EBB5E00E94271A94
:101A50000E940F1AA6ECB5E00E94FB14A5EDB5E0BC
:101A60005EDF0E942D1A0E94311AE8ECF0E0FA9332
:101A7000EA93A2EEB5E062DFE03079F10E941F1A2E
:101A8000AAEEB5E00E94FB14E0E0EA93E4E1EA93F9
:101A9000DE0112960E94241A0E942D1AA0EFB5E0D2
:101AA0000E94F7183097C9F02297FE0132960E94E3
:101AB000361AE0E0F0E00E94361AE881F9813097AA
:101AC00059F0E8ECF7E0FA93EA93AA81BB810E940F
:101AD000BA18E1E0229602C02296E0E0EF96EF9677
:101AE00068960895BA93AA932297D350E0E0E883CA
:101AF000E9830E94031C20E030E040E050E00E94B7
:101B00000F1AE0E7F0E10E943F1AADEFB5E00E9446
:101B1000461AA9E0B6E012DFE03011F4E0E0D5C0EB
:101B2000ACE0B6E00E94461AA0E2B6E007DFE03083
:101B300011F4E0E0CAC0FE013896FA93EA93E2ECB1
:101B4000F5E1FA93EA93FE01E25FFC4F0190F08128
:101B5000E02D0E94521AFE01E05FFC4F0190F081DF
:101B6000E02D0E94521A88E00E94CF162C96FE01AA
:101B7000E85FFD4FFA93EA93E5EDF5E1FA93EA9316
:101B8000FE013C960E94041A0E94CF162896DE01A0
:101B9000A85FBD4F0E94461AA3E2B6E0CFDEE03058
:101BA00011F4E0E092C0A6E2B6E0B9DEFE01E85F23
:101BB000FE4FFA93EA93E0E0F1E0FA93EA93E4EF60
:101BC000F1E0FA93EA93A6E3B6E0B8DEE03061F420
:101BD0000E940F1AA3E4B6E00E94FB14A4E6B0E052
:101BE0000E94751BE0E071C0FE01E85FFE4FFA93B2
:101BF000EA93A2E5B6E00E94F7188F0100240016D0
:101C0000010621F11A930A93E8E1F6E1FA93EA93C7
:101C1000EDB7FEB731970E94DB1B3F932F93EDB7D3
:101C2000FEB731970E94DB1B5F934F93FE017296C4
:101C30000E94521A8CE00E94851860964F915F9125
:101C40002F913F91E330A0E0FA0799F00E940F1A1C
:101C5000AFE5B6E00E94FB140E941F1ADE01A65FEA
:101C6000BE4F0E94FB14A4EFB1E00E94751BE0E0A0
:101C70002CC00E940F1AA9E6B6E00E94FB14E8EC03
:101C8000F0E0E417F50729F40E941F1AA6E7B6E072
:101C900004C00E941F1AA9E7B6E00E94FB14A0E846
:101CA000B6E00E94461AACE8B6E048DEAFE8B6E01F
:101CB0000E94461AABE9B6E041DEE8ECF0E0E4173A
:101CC000F50711F4E1E001C0E0E00E940A1C2C9647
:101CD000DD5F0895639783E1A0E0B0E0ECE8F4E114
:101CE0000E94111C1A930A9300E00330C0F5E5B37B
:101CF000E760E5BB15B2E02FF0E0DE015296AE0FD3
:101D0000BF1FEC91A1E00E94571AE5BB10E0143010
:101D100020F50E945C1AA12D0E94FF19E1F4AAE0AF
:101D2000B0E00E94751B0E945C1AA12D0E94FF1951
:101D300091F40E945C1AA12D0E94FF19D1F3A3E037
:101D40001A9FF001DE011296AE0FBF1FEE27A00F03
:101D5000BE1FEC9105C01F5FDACF0F5FC6CFE0E07A
:101D60001981088165960895BA93AA9364971A9386
:101D7000ED89FE89E130A0E0FA0711F412E00DC010
:101D8000E230A0E0FA0711F413E007C0E330A0E06E
:101D9000FA0711F414E001C033C0FE013196FA9342
:101DA000EA93E4E6F6E1FA93EA93E98DFA8D0E946C
:101DB000A01B0E94DD1B84E00E94CF1628960E9483
:101DC000651AE4E1EA93DE0113960E94FB1413B056
:101DD000E12FA1E00E94871BE129E3B9A4EFB1E064
:101DE0000E94751B13B0E12FA1E00E94571AE3B9BE
:101DF0000E946A1AE0E7F8E00E943F1A0E946E1AF9
:101E000018816796089526970EE916E0E0E0EABB90
:101E1000EBBBE7BBE0EFE8BBE7E0E4BBE0EFE5BB33
:101E2000ECE3E2B9E0E0E3B9E0936100E093620043
:101E3000EBB9E8E1EAB9E6E0E0939500E0E0E09391
:101E40009000E3E3E9B9E0E8E4BFE4BFECE8F0E0E8
:101E5000E883F983E0E0EA83EB83EC83ED83DE0142
:101E6000C6D1ECE8F0E00E94721A0E940F1AADEBA6
:101E7000B6E00E94FB14A8EBBBE00E94751BACEC23
:101E8000B6E00E94271AA1EDB6E00E94271A97DD5E
:101E9000E03039F40E941F1AA4EDB6E00E94FB1452
:101EA000FFCFB0DDE03039F40E941F1AA5EEB6E096
:101EB0000E94FB14FFCF0E940F1AE0E7F4E00E949B
:101EC0003F1AAA97E0E0EAA3EBA3ECA3EDA3EEA3ED
:101ED000EFA3E4E6F7E00E940A1AA4E6B0E00E944D
:101EE000AA18FE010E940A1AA0E2B0E00E94AA18F5
:101EF0000E94771AA4E6B0E00E942815309709F4F2
:101F0000CFC00E94771AA7EFB6E00E94F71830976B
:101F100009F4C6C00E942D1AA0E2B0E00E94281564
:101F2000309761F40E940F1AADEFB6E00E94FB14E7
:101F3000A8EEB3E00E94751BAA96C3CF0E94771A41
:101F40000E947C1AE8A1F9A1309721F00E94831A1F
:101F50000E947C1AE8A1F9A1309709F49BC0E8ED32
:101F6000F7E0FA93EA93AAA1BBA10E94BA181A93C8
:101F70000A93A8EDB7E0B6DDE03009F483C0E8814C
:101F8000E9A7A9A5A13329F0A23319F0A33309F0D9
:101F90006DC0AED1E9A5EEA3E6E4EA93E5E0EA93ED
:101FA000DE0198960E94FB140E946A1AE0E7FCE0AA
:101FB0000E943F1AE0E0E8A7EAA3EBA3AAA1BBA115
:101FC000A83CE0E0BE0774F485DEE8A7E03051F4F9
:101FD000AAE0B0E00E94751BEAA1FBA13196EAA33A
:101FE000FBA3ECCFE8A5E03059F40E94651AE9E1C3
:101FF000EA93A0E1B7E00E94FB14A8ECB0E033C084
:102000000E946A1AE0E7FCE00E943F1AE8A5EEA3EE
:10201000EAE5EA93EDE2EA93DE0198960E94241A3B
:10202000E9A5A8A5EA1799F40E94651AE9E1EA93DF
:10203000A4E2B7E00E94FB140E946E1AE9A5F0E04A
:10204000F097ECA3FDA3ACA1BDA18EDE0EC00E9453
:102050000F1AE0E7F2E0FA93EA93E0E8EA93A0E2ED
:102060001FDCACE2B1E00E94751B0BC041D1E5E082
:10207000EA93E9E1EA93A5E3B7E00E94FB140E942A
:102080006E1A08C00E940F1AE0E7F2E00E943F1AA1
:102090000E946E1A0E940F1AE0E7F4E00E943F1AB5
:1020A000AA960FCFFFCF0000E0916200E061E093BD
:1020B000620000000895E0916200EF7E0E94881A9D
:1020C000EF7D0E94881AEF7BE093620008951A93D7
:1020D000EADF19B3E0916200EF7EE0936200E12F46
:1020E00019910895AA931A930E948D1AEB7FE09399
:1020F0006200E981EF5F1E2F10FF04C0E0916200D3
:10210000E06203C0E0916200EF7DE093620011FFA6
:1021100004C0E0916200E06403C0E0916200EF7BE4
:10212000E0936200D4DFE078E9F718815EC0AA93FB
:10213000A981D8DFE09162000E94931A56C0E09115
:10214000E907EA93E091E807EF73E064AE2FEFDF71
:10215000E091E907EA93E091EA07E86BAE2FE7DF49
:102160000895AA93E981E093E807E295EF70E69578
:10217000E695E093E907E881E093EA07E0DF35C000
:10218000A091E807AF5FA093E807A03818F0E0E05F
:10219000E093E807E091E807EF7331F4E091E80796
:1021A000EA93A091EA07DDDF0895AA93A091E907D9
:1021B00099DFE0916200E4600E94881A0E94931AFD
:1021C0000C942615A091E9078DDF0E948D1AE4601A
:1021D000E09362007CDF0895AA93E981EA93E981A4
:1021E0000E949E1AEFDFABDFEDDF22960895BA93CF
:1021F000AA931A93E0916100E0610E94A41AE8603A
:102200000E94A41AE4600E94A41AE068E0936100AE
:10221000E0916200E068E0936200E0916100E062BA
:102220000E94A41AE064E093610045DFE09162003F
:10223000EF77E0936200A4E6B0E00E94751BE091A6
:102240006200E068E093620010E0123040F41A93FC
:10225000AFE36DDF1A931395A0EC69DFF6CFE1E0F1
:10226000E0934707E0E0E0934807E981FA8130977F
:10227000A9F0A981BA810E94D31B0E94721AA98178
:10228000BA8112960E94D31BE0936007F093610716
:10229000A981BA8114960E94D31B0AC0E0E0F0E045
:1022A0000E94721AE0E0F0E0E0936007F0936107AB
:1022B000E0936207F0936307E1E0E0934D07E0935A
:1022C0004E07E0934F07EFEFE0935007E1E0E09314
:1022D0005707E8E5F7E0FA93EA93EFEFEA93A8E00F
:1022E000B0E00E94AA1804D0E1E018812396089576
:1022F0000E94051C00E030E0E0914807E03009F062
:102300000FEF383078F4E0E0EA93A32F3F5F29DF46
:1023100010E0A12F1F5FA03820F4A02F0E94A91A5F
:10232000F8CFEFCFE0E0EA93A0E01BDFE0E0EA9334
:10233000A0E076D30E940C1C24960895AA931A93C9
:102340000A93AC81A03818F4AB81A03408F016C011
:10235000EC81EA93AC8140DF1E2FF1DEEB81E77068
:10236000A1E00E94871B0E2FEA81E03011F0102BB4
:1023700003C0E02FE0951E23A12F17DF19810881EC
:1023800025960895AA931A93ED81EA93AD8124DFEF
:102390001E2FD5DEE981E73011F0E83039F4EB810A
:1023A000EA93AA810E947119EB8308C0E33021F4FB
:1023B000EB81E095EB8302C0E03021F4EA81E09507
:1023C0001E2302C0E23029F4EA81AB81EA231E2BEE
:1023D0000EC0E13029F4EA81AB81EA231E2707C051
:1023E000E43029F4EA81E095AB81EA2B1E23A12F8A
:1023F0000E94A91A188126960895AA9323970E94ED
:10240000031CA889A03848F4AF85A03430F4AE8509
:10241000A03019F0AD85A03009F4C6C1EE85E8877B
:10242000A889BB27EE85F0E0AE0FBF1FA138E0E022
:10243000BE0720F0A889E0E8EA1BEE872D85AF856E
:10244000BB27ED85F0E0AE0FBF1FA134E0E0BE0773
:1024500020F0AF85E0E4EA1BED87A985A63009F0FE
:102460005BC0EC85E13009F49FC1E33039F4E091C1
:102470006207F0916307309709F496C10885ED85EE
:10248000E695E695E6953E2FE22FE77019F4AD85C7
:102490002A17E9F0A02FBB27E32FF0E00E94A51B2D
:1024A000AA85BB850E94AD1A269526952695532FA1
:1024B0005F935F5FE22FAF91EA1748F0102FE12F93
:1024C0001150E03019F00E94B21AF9CFF1CFAE8569
:1024D0000A1711F1EE85AA85BB85F0E00E94AD1ABE
:1024E000ED85E77009F03F5F20E02F932F5FE32F2A
:1024F000AF91AE1788F41E851F931F5FE02FAF9139
:10250000AE1718F40E94B21AF7CFEE85AE81BF81E4
:10251000F0E00E94AD1AE9CFEF85E7703E2FED8520
:10252000E03009F441C1EA85FB85EE83FF8310E0CA
:102530000889303009F065C0AD85A83008F45CC06A
:10254000E985E03011F0E33009F402C0E73009F426
:1025500002C0E83009F402C0E63009F402C0E930F4
:1025600009F402C0EA3021F40A93E8890E949E1A15
:102570001F931F5FEE85AF91AE17B8F5A985A63002
:1025800061F420DEDCDD0E94BF1AFA93EA931ADEC2
:10259000AE2F0E94B819F4DD27C0E985E93011F4A7
:1025A00050E00EC0EA3011F45FEF0AC00E94BF1A7B
:1025B0000E94C81A5E2FE985E73011F0E83021F457
:1025C0000E94CE1A5E2F06C0E33011F4509502C06F
:1025D000E03021F4A52F0E94A91A06C00E94D21A49
:1025E000EFEFEA93AD85CEDEC3CFEF85E85FEF87EF
:1025F000ED85E850ED87CFC05D8520E0E0E0ED8718
:102600007AC0E32FAD85AE0FA93020F42D85E0E030
:10261000ED8703C0E8E0E31B2E2F3A93A22F0E9420
:1026200066194E2FE985E630F1F41F931F5FEE85A2
:10263000AF91AE17B8F40E94D81AAE2FE32F0E94C4
:102640008F1B0E94DF1AE32FA42F0E948F1BE0959F
:10265000E1215E2B0E94BF1AFA93EA93A52F0E94F4
:10266000B819E3CF2CC0E93011F450E003C0EA30D0
:10267000A9F45FEF0E94CE1AAE2FE32F0E94871BB2
:102680005E2F1F931F5FEE85AF91AE1730F40E944F
:10269000D21A4A93A0E076DEF4CF11C01F931F5FD9
:1026A000EE85AF91AE1758F40E94EA1AAE2FE32FD1
:1026B0000E94871BEA934A93AD8564DEEFCFED85D8
:1026C000E03009F471C0AD85A83028F4ED85E21B37
:1026D0005E2FE0E003C0532FED85E850ED8710E05A
:1026E000EF85E85FEF87E8E0E31B2E2F0889EA8596
:1026F000FB85EE83FF83E52FF0E0E059FB4E44912C
:10270000E985E630E1F41F931F5FEE85AF91AE17C8
:10271000A8F40E94D81AAE2FE22F0E94871B0E94B5
:10272000DF1AE22FA42F0E94571A5E2B0E94BF1AB5
:10273000FA93EA93A52F0E94B819E5CF2CC0E9308F
:1027400011F450E003C0EA30A9F45FEF0E94CE1A02
:10275000AE2FE22F0E948F1B5E2F1F931F5FEE850F
:10276000AF91AE1730F40E94D21A4A93A0E00ADE6D
:10277000F4CF11C01F931F5FEE85AF91AE1758F4D1
:102780000E94EA1AAE2FE22F0E948F1BEA934A930F
:10279000AD85F8DDEFCFE885AA85BB85F0E0EA0FCF
:1027A000FB1FEA87FB87BBCE0E940A1C6196089537
:1027B0000E94F71A24F0E0E0F0E00C946F19A88171
:1027C000B981A038E0E0BE0724F0EFE7F0E00C9418
:1027D0006F19E881F9810C946F190E94F71A24F09F
:1027E000E0E0F0E00C946F19A881B981A034E0E03A
:1027F000BE0724F0EFE3F0E00C946F19E881F98153
:102800000C946F19AA93E981EA93E981EA93A09164
:10281000470794DD0C946F19BA93AA9323970E94EB
:10282000FE1A8F01002E012A19F4E0E0F0E05FC0EB
:102830000E94051B0F820E94051B0E820E94051B31
:102840000886EB85A885EA1718F4E0E0F0E04FC0B1
:10285000F8010F5F1F4F5491A885BB27EE27A50FE6
:10286000BE1FEB85F0E0EA17FB0718F0E0E0F0E0B0
:102870003EC0EE81E695E695E6954E2FEE81E77037
:1028800009F04F5FEF81E030A1F0A985BA85EC93A4
:10289000A885EB85EA1BF0E0DF01EF81F0E00E9404
:1028A000A51BDF01E42FF0E00E94A51BE00FF11F44
:1028B0001EC09801E52FF0E00E0F1F1FA885AF5F27
:1028C000A887A150EB85AE1760F4F9012F5F3F4F49
:1028D000A491B0E0E42FF0E00E94A51B0E0F1F1F93
:1028E000EDCFF901E491A985BA85EC93F8010E9436
:1028F0000A1C2C960895E0E0E0934907A0914A074E
:10290000BB270E940A1BF0E0AE0FBF1FE0914E07ED
:10291000F0E0AE0FBF1F61DFE0934A070895AA936E
:1029200021970E94FE1A309709F45FC0AF81AA3048
:1029300009F459C0EF81EA93DE0117966DDFAF010C
:10294000309709F454C0E0914D07AE81EA0F3E2F55
:10295000A0914907BB27F0E0EA0FFB1F8F01013868
:10296000E0E01E0718F0032F1127C5DFE0914907AB
:10297000EA93E0914A07EA93E885EA930E940A1BEA
:10298000EA93E1E0EA935A934A93A7E036DDE091B7
:102990004907AE81EA0FEA93E0914A07EA93E09192
:1029A0004D07EA930E940A1BEA93E0E0EA930E9433
:1029B000831AA9E022DDE0914907EA93A0914A0732
:1029C0000E940A1BEA0FEA933A93E0914E07EA93BA
:1029D000E0E0EA930E94831AA9E00FDDE0E8F0E06E
:1029E000E017F10711F487DF02C0009349070E9446
:1029F0000A1C28960895BA93AA931A93EC81EA9335
:102A0000AC810ED0A981BA81ED91A983BA831E2F22
:102A1000E03019F0A12F83DFF5CF18810C94B8189E
:102A2000AA93A981BB27C4DEE0934907A881BB27ED
:102A3000D4DEE0934A070C946F195F9BFECFECB194
:102A40000895AA935D9BFECFE881ECB92196089585
:102A5000BA93AA930E94031C0E811F812885398591
:102A6000002E012AD9F0E9DF5E2F583051F4AE81F3
:102A7000BF810A171B0720F4215030400F5F1F4F02
:102A8000F2CF5A3059F03F932F932F5F3F4FE52FEE
:102A9000AF91BF91EC9301501040E2CFD901E0E03B
:102AA000EC93E885F9850E940A1C2A960895BA934A
:102AB000AA93AA81C6DFA881B9810E94111B0C9438
:102AC000B619BA93AA931A930A93AA81BB81129654
:102AD0000E94D31B309729F1AA81BB8114960E94D2
:102AE000D31B8F01309761F00230E0E01E0780F0C9
:102AF000F80131978F01AA81BB811496ED93FC9365
:102B0000AA81BB8112960E94111B3197AC81A083D0
:102B1000AA81BB810E94D31BFF2312F00E94111BCC
:102B200006C0AA81BB81EFEFFFEFED93FC93198103
:102B300008810C94B818BA93AA9326970E94031C94
:102B400010E0AC85BD85E0E0F0E0ED93FC93EA8910
:102B5000FB893196EA8BFB8B3197E4912E2FE03085
:102B600009F415C1E12FE03039F4253211F411E0F8
:102B700002C00E94171B0AC1E130A9F4253219F4E2
:102B80000E94171B02C112E040E000E02D3211F458
:102B900001E0FCC02B3211F44BE2F8C0203211F4FA
:102BA00040E2F4C002C0E23039F450E013E02033D8
:102BB00011F40068EBC003C0E33009F0E7C0203334
:102BC00010F02A3308F007C0AAE05A9F502DE22FD8
:102BD000E0535E0FDBC0E22FE33649F40E941E1B78
:102BE000E889F989A481AA930E94241BCEC0E33707
:102BF00041F40E941E1B0E942A1B0E94C7181E2F10
:102C00000AC0E03761F40E941E1B0E942A1B0E942A
:102C1000D3181E2F086002600F7730E034C0E4360E
:102C200011F0E93611F4046002C0E53731F4EAE747
:102C3000F4E1EE83FF8315E00CC0E83511F4086081
:102C400003C0E83709F0A1C0E4E8F4E1EE83FF83B4
:102C500014E002FF14C00E941E1B0E94341BAB85AF
:102C6000AA233AF4EA85FB850E94831BEA87FB8747
:102C70004DE2403011F01F5F01C00B7F04C00E9485
:102C80001E1B0E94341B00FD11C0151778F407FFAE
:102C900008C002FF04C00B7F242F115001C020E3A5
:102CA00001C020E20E94171B5150EFCF312F01FFCE
:102CB00017C03030A1F003FF06C0EE81FF812591DF
:102CC000EE83FF8305C0AE81BF812D91AE83BF83AC
:102CD0000E94171B503009F051503150EACF4BC0C1
:102CE00020E3EE81FF810E94D71BE887F987EE8100
:102CF000FF813296EE83FF83E885F985AA85BB853F
:102D0000AE17BF0750F02F5FA885B985EA85FB8510
:102D1000EA1BFB0BEA87FB87EFCF2A3328F003FF80
:102D200002C0295F01C0295D04FD1AC0213320F4CF
:102D3000A885B985119709F409C0531710F000FF51
:102D400001C013C020E207FF0BC020E3006102FFB7
:102D500007C00B7F4A930E94241B503009F051504A
:102D60000E94171B503009F051503150A885B98589
:102D7000129708F0B5CF00FF08C0503031F0515025
:102D8000E0E2EA930E94241BF8CF10E0E0CEAC858D
:102D9000BD850E94D31B0E940A1C64960895FF9271
:102DA000F82E26970E94051C0E943C1B309719F4B0
:102DB000EFEFFFEF1DC0DE0116960E947F1B8D0115
:102DC0000E943C1BEE83FF83E0E0E887E987DE0199
:102DD0001A960E94431BE1E6F5E1FA93EA93DE01BD
:102DE0001A96A9DE9F01AE81BF81E0E0EC93F90164
:102DF0000E940C1C2A96FF900895FF92F82E2697A9
:102E00001A930A93DE0114960E947F1B8D01E0E065
:102E1000EC83ED83EE83EF83DE0118960E94431B63
:102E2000E7E5F5E1FA93EA93DE01189684DE19816D
:102E300008812896FF900895BA93AA931A93A981BE
:102E4000BA81E0E0EC93AB81BC81EC911E2FE030C5
:102E500019F0E0E0EC9316C0A981BA8111960E94A6
:102E6000D31B309771F0E981FA81A181B281EC9195
:102E70001E2FE03029F0A981BA8111960E94111B02
:102E800001C010E0E12F188173C1FF92BA93AA9399
:102E900024970E94031CE0E0F0E0E887F9874E2FBA
:102EA000E889F9893196E88BF98B3197E4913E2FC7
:102EB000E03009F423C10E944C1BC1F0EDB7FEB70E
:102EC000FA93EA934F930E94511B4F913E2FE030AB
:102ED00019F00E944C1B09F407C00E94571B1CF4F8
:102EE000EFEFFFEF0DC1EACF432F07C1353209F0F5
:102EF000ECC050E0E889F9893591E88BF98B3033E3
:102F000010F03A3308F007C0AAE05A9F502DE32F83
:102F1000E0535E0FEFCF303009F4F0C0EDB7FEB7ED
:102F2000FA93EA934F930E94511B4F912E2FAE2F8D
:102F30000E94E019E03039F00E94571B1CF4EFEFBB
:102F4000FFEFDEC0EBCF203009F4CFC0422F50306E
:102F500009F45FEFE32FE33699F40E945C1BEDB7B1
:102F6000FEB7FA93EA934F930E94511B4F91D801F9
:102F7000EC930E94571B1CF4EFEFFFEFC1C09FC002
:102F8000E33741F50E945C1BE52F5150E030F1F032
:102F9000EDB7FEB7FA93EA934F930E94511B4F91FE
:102FA0003E2FE03019F00E944C1B39F00E94571B55
:102FB0001CF4EFEFFFEFA4C009C01F930F930F5F46
:102FC0001F4FE32FAF91BF91EC93DECFD801E0E02C
:102FD000EC9375C06894F1F8E894F2F8E32FE436C6
:102FE00011F0E93619F4E894F1F802C0E53711F46C
:102FF0002AE008C0E83711F420E104C0E53209F402
:1030000064C07CC0E0E0EE83EF836894F0F8E52FC5
:103010005150E03009F444C0EDB7FEB7FA93EA939B
:103020004F930E94511B4F913E2FE13238F40E9482
:10303000571B1CF4EFEFFFEF63C017C0F1FC08C093
:103040006894F1F83D3211F4F2F8E1CF3B32F9F235
:10305000203131F4A32F0E94EB19E03031F009C088
:10306000A32F0E94D719E03021F4F0FC47C0432F72
:1030700017C0313610F0375505C0313410F03753D2
:1030800001C03053E22FAE81BF81F0E00E94A51B4A
:10309000DF01E32FF0E00E94AD1AE894F0F8B7CF1B
:1030A0000E945C1BF2FE06C0EE81FF810E94831B22
:1030B000EE83FF83EE81FF81D801ED93FC93E885D9
:1030C000F9853196E887F98718C0EDB7FEB7FA930E
:1030D000EA934F930E94511B4F91E31771F00E94A6
:1030E000571B1CF4EFEFFFEF0BC0E885F985309715
:1030F00019F4EFEFFFEF04C001C0D2CEE885F985E7
:103100000E940A1C6296FF900895FF92F82E239762
:103110001A930A930E94671B309719F4EFEFFFEFA1
:1031200014C0DE0111960E947F1B8D010E94671B57
:10313000EB83FC83DE0115960E94431BECE1F7E173
:10314000FA93EA93DE011896A0DE1981088125968C
:10315000FF900895BA93AA93B981A881109631F08F
:10316000FC81EB816A8161931197E9F7EB81FC8126
:1031700025960895BA93AA93E991F991A991B991E5
:10318000CD0161916D936623E1F7FC010895BA9337
:10319000AA93A991B991EE27FF276D91662311F0AB
:1031A0003196FBCF0895BA93AA93AA27BB27E9913A
:1031B000F9910590002011F01196FBCFFD010895C3
:1031C000BA93AA93BB81AA816C91662361F0F981BD
:1031D000E881C895002029F031966015D1F7FD01EE
:1031E00004C01196F1CFEE27FF270C94D519BA939E
:1031F000AA93AA81BB81CD01E881F98171917723DE
:1032000011F4FC0109C06D916717C1F30196DC014F
:10321000662391F7EE27FF270C94D519BA93AA934A
:10322000BB81AA81882799276D91662349F0F9818E
:10323000E8810590002021F06015D9F70196F4CFC0
:10324000FC01B3C0BA93AA931A930A93EC81FD814F
:10325000309779F4E091EB07F091EC07309719F48F
:10326000E0E0F0E02FC0E091EB07F091EC07EC8399
:10327000FD830E946E1B0E940E19AC81BD81EA0F76
:10328000FB1FEC83FD83AC81BD81EC91E03041F408
:10329000E0E0E093EB07E093EC07E0E0F0E012C041
:1032A0000E946E1B0E94E0188F01309729F0D80110
:1032B0000F5F1F4FE0E0EC930093EB071093EC07D8
:1032C000EC81FD811981088126960895AA93E881F1
:1032D000F0E0E059FB4EA491E9810E94871B229601
:1032E0000895AA931A93E981E73011F0EA3019F4AE
:1032F0001091470709C0E93019F41091480704C03C
:10330000E830A1F410915707E0914807E03049F008
:10331000103019F0EFEF188129C0EA81E09518818B
:1033200025C0103019F4E0E0188120C0EA8118812E
:103330001DC0BA93AA93EA81E13021F4E881F981B2
:10334000E49114C0E23029F4A881B9810E94E21B03
:103350000DC0E33041F4A881B981E0916007F0919C
:103360006107099503C0A881B981EC91239608955E
:10337000AA93EB81E03029F4E881A981BA81EC932A
:1033800014C0E23031F4E881A981BA810E94EE1BB9
:103390000CC0E33051F4E981FA81FA93EA93AA81EF
:1033A000E0916207F0916307099524960895AA9326
:1033B000E1E0F991F03310F0FA3308F0EE270895C8
:1033C000AA93E1E0F991F03229F0F93010F0FE30E3
:1033D00008F0EE270895AA93E1E0F991F05340F048
:1033E000FA3038F0FF75F750FA3010F0F03108F08D
:1033F000EE270895A1E0B0E00E94971B0895B0E089
:10340000EA23FB2330970895662777270E94DD1B68
:1034100084E00895FA93EA93E0E0EA9308950E9425
:103420007811E0E0EA93EA9308950E948F0CA4E6F5
:10343000B0E00C94751BA8ECB0E00C94751BE0E0B8
:10344000EA93EAE0EA9308950E94FB14F4CF0E9405
:103450008F0CACE2B1E00C94751BFE01FA93EA9379
:103460000895E4E6F0E0FA93EA930895FA93EA9374
:10347000A8E0B5E10E942219E883F9830895FA9340
:10348000EA93E0E8EA93A0E40C94500C0E948F0CBD
:10349000FE01E85FFE4FFA93EA93E0E0F1E0FA9371
:1034A000EA93DFCF662777270E94DD1B08950E94ED
:1034B000871BE095E121089513B2E12FF0E0DE01D2
:1034C0001E96AE0FBF1FEC9195CF0E947811EAE0D7
:1034D000EA930895E0E0EA93EA930895ACE2B1E05C
:1034E0000C94751BE0934B07F0934C070895E4E6AA
:1034F000F7E0FA93EA930895A8E0B5E10E94221953
:10350000E8A3F9A30895E0E0F0E0FA93EA930895C0
:10351000E0936200E09162000895E0E0EABBE09190
:103520006200E860F5CFE77FE0936200EFEFEABB6F
:10353000E881EBBB0E9453100C945B10E695E69576
:10354000E695AE2F0C94B110E0936100E09161001C
:1035500008950E94D5100C94C010EA0FFB1FEE8353
:10356000FF830895EC85EA93EF81F8853196EF8328
:10357000F8873197FA93EA93A0E00C94B819EC8598
:10358000EA93EF81F8853196EF83F88731970895B4
:1035900066277727DF01CB010C9499195A93AA85E6
:1035A0000C9471190A930395E889EA935A93089544
:1035B0000A930395A8890E94EC10E42308955E2FD6
:1035C000EC85EA93AF81B885882799270E949919DD
:1035D0001E2E08950A930395E889EA93EE85EA93EF
:1035E000E985FA853196E987FA873197D1CFBA9381
:1035F000AA93A881B9810E94FF1B08950E94031C11
:10360000E0914B07F0914C070895F8010F5F1F4FB1
:1036100004900895E0914B07F0914C073196E491A6
:103620000895ED91FD913196FE93EE9308952A93BE
:10363000AD85BE85EF85F88909950895E889F989F2
:103640003497E88BF98B0895AD85BE85EF85F889B1
:1036500009950895A889B98914960E94D31BEE8311
:10366000FF83AE81BF810895A889B98914960E940D
:10367000D31BEA87FB870895DE011C960E947F1BFF
:103680000E94D31B08950E947F1B0E94D31BFA93B4
:10369000EA931A930A930895A32F0E94E019E03049
:1036A0000895AC85BD85EE85FF8509950895AA85A9
:1036B000BB85AC91A0300895EE85FF853497EE87E9
:1036C000FF87AE85BF8514960D911C910895DE018C
:1036D00017960E947F1B0E94D31B0895EC81FD81E9
:1036E000FA93EA93AC81BD810895109639F0A895BC
:1036F00080ED97E00197F1F71197C9F7089500243D
:10370000AF0DB01D0895F195E195F0400895EE23B9
:103710000E2EEA2F19F0EE0F0A94E9F70895EE2322
:103720000E2EEA2F19F0E6950A94E9F70895EE2394
:103730000E2EFD0121F0EE0FFF1F0A94E1F7089510
:103740006F2F660F660B762F0895FA9FF02DEB9F73
:10375000F00DEA9FE02DF10D08950024112490E171
:10376000AA0FBB1F001C111C0E1A1F0A18F40E0E04
:103770001F1E01C0A1609A9599F7FD01D00108951F
:1037800004D0EBDF0EF4BFDF0895E894F7FF02C02A
:10379000BADF6894B7FF06C0A095B095119600F8FF
:1037A000039400FA0895ED91FC9111970895059006
:1037B000F491E02D089560E070E07A936A93FA93B3
:1037C000EA930895E199FECFFF93FFB7F894AEBB5B
:1037D000BFBBE09AEDB3FFBFFF910895E19B02C02C
:1037E000A895FCCF9FB7F894AEBBBFBBE09A8DB352
:1037F000E81719F0EDBBE29AE19A9FBF0895002403
:103800000A160B0608955A934A933A932A931A93E9
:103810000A9308955D814C813B812A811981088139
:103820000895AC0FBD1F05900D928A95E1F708959C
:00000001FF
