:060000000C943B090C9476
:1000060000000C9400000C9400000C9400000C946A
:1000160000000C9400000C9400000C9400000C945A
:1000260000000C9400000C9400000C9400000C944A
:1000360000000C9400000C9400000C9400000C943A
:1000460000000C9400000C9400000C9400000C942A
:1000560000000C9400000C9400000C9400000C941A
:1000660000000C9400000C9400000C9400000C940A
:1000760000000C9400000C9400000C9400000C94FA
:1000860000000C940000050720600000000000003E
:10009600005F00000007000700147F147F14242A65
:1000A6007F2A12231308646236495522500005033D
:1000B6000000001C2241000041221C00082A1C2AC4
:1000C6000808083E0808005030000008080808081C
:1000D600003030000020100804023E5149453E0021
:1000E600427F400042615149462141454B31181437
:1000F600127F1027454545393C4A49493001710967
:1001060005033649494936064949291E003636004F
:10011600000056360000000814224114141414146A
:1001260041221408000201510906324979413E7EF6
:100136001111117E7F494949363E414141227F4195
:1001460041221C7F494949417F090901013E41413C
:1001560051327F0808087F00417F41002040413F1F
:10016600017F081422417F404040407F0204027F05
:100176007F0408107F3E4141413E7F090909063E42
:100186004151215E7F0919294646494949310101F4
:100196007F01013F4040403F1F2040201F7F201825
:1001A600207F6314081463030478040361514945EE
:1001B6004300007F4141020408102041417F0000B6
:1001C60004020102044040404040000102040020B5
:1001D600545454787F48444438384444442038447E
:1001E60044487F3854545418087E090102081454B0
:1001F600543C7F0804047800447D40002040443D80
:1002060000007F10284400417F40007C04180478D9
:100216007C0804047838444444387C1414140808D0
:100226001414187C7C080404084854545420043FD1
:100236004440203C4040207C1C2040201C3C403058
:10024600403C44281028440C5050503C4464544CC4
:1002560044000836410000007F00000041360800D7
:1002660002010204027F4141417F000000000000BC
:100276000000000000000000000000000000000078
:100286000000000000000000000000000000000068
:100296000000000000000000000000000000000058
:1002A6000000000000000000000000000000000048
:1002B6000000000000000000000000000000000038
:1002C6000000000000000000000000000000000028
:1002D6000000000000000000000000000000000018
:1002E6000000000000000000000000000000000008
:1002F60000000000000000000000000000000000F8
:1003060000000000000000000000000000000000E7
:1003160000000000000000000000000000000000D7
:1003260000000000000000000000000000000000C7
:1003360000000000000000000000000000000000B7
:1003460000000000000000000000000000000000A7
:100356000000000000000000000000000000000097
:100366000000000000000000000000000000000087
:100376000000000000000000000000000000000077
:100386000000000000000000000000000000000067
:1003960000000000000080C00000C08000000000D7
:1003A6000000000000000000000000000000000047
:1003B600000000C0800000000000000000000000F7
:1003C6000000000000000000000000000000000027
:1003D60000000000C08000000000000000000000D7
:1003E6000000000000000000000000000000000007
:1003F6000000F8C00000000000808000000008989F
:100406008000000E1A3273C3810100000000000054
:1004160000000000000001FF000003FF00000000D4
:1004260000804000000080000000E0C00000008066
:1004360000000003FF0000000000C0C00000000034
:100446000E0E1A32E38101000000000000C0606059
:10045600E0C0000003FF000000000000C000000034
:10046600000000E0800000000000000000070C0C07
:100476000C0C0C070C0C8CCC4C47C70C0C0C0C074A
:10048600070C0C0C0C0C0C0C0300000000003E6F5B
:10049600C0C0C0C0C040603F000000070C0C0C0C80
:1004A6000C070E0C0C0C070C0C0C0C030080C0E1A6
:1004B6003F0000000F000000000007040C0C0C0CAD
:1004C6000C0C0C0C0C07060C0C0C0C0607040C0C84
:1004D6000C07000000070C0C0CCCCC8CC74E0CCCC7
:1004E600CC8CCC8D03000000000000000000000052
:1004F60000000000000000000000000000000000F6
:1005060000000000000000000000000000000000E5
:1005160000000000000000000000000000000000D5
:1005260000000000000000000000000001010000C3
:1005360000000000000000000000000000000000B5
:1005460000000000000000000000000000000000A5
:100556000000000000000000000000000000000095
:10056600020702000000000000000000000000007A
:100576000000000000000000000000000000000075
:100586000000000000000000000000000000000065
:100596000000000000000000000000000000000055
:1005A6000000000000000000000000000000000045
:1005B6000000000000000000000000000000000035
:1005C6000000000000000000000000000000000025
:1005D6000000000000000000000000000000000015
:1005E6000000000000000000000000000000000005
:1005F60000000000000000000000000000000000F5
:1006060000000000000000000000000000000000E4
:1006160000000000000000000000000000000000D4
:1006260000000000000000000000000000000000C4
:1006360000000000000000000000000000000000B4
:1006460000000000000000000000000000000000A4
:100656000000000000000000000000000000000094
:100666000000000000000000000000000000000084
:100676000000000000000000000000000000000074
:100686000000000000000000000000000000000064
:100696000000000000000000000000000000000054
:1006A6000000000000000000000000000000000044
:1006B600000000000000006003000040020000008F
:1006C60000000000000000C003000030020000200F
:1006D60002000060020000C00100000000000000EF
:1006E600000000800300000002000000020000106D
:1006F600020000F8010000000300000002000000F4
:1007060002000000020000C0010000000300000813
:100716000200001A020000CC0100001802000000CE
:1007260002000060030000800000000000000000DE
:10073600000000000000000000000000000000E0D3
:100746000100000003000000020000000200000497
:100756000200000C0200001202000022020000C289
:100766000100000203000000020000000200000079
:10077600010000800100006001000020020000204E
:10078600020000C00100000000000000000080FF21
:10079600010000000300000002000000020000004B
:1007A6001A000000020000C019000000030000004B
:1007B6001A000000520000007A000060130000C01A
:1007C6000100000000000000000000000000000022
:1007D60000000000000000800F000000180000006C
:1007E600100000301000000010000000180000404B
:1007F600080000E00F00000000000000000000C03C
:100806002300002032000020120000401A00008061
:100816000700000002000008020000180200008025
:10082600030000D8030000000200000002000000E0
:10083600020000C0010000000300000002000000EA
:10084600020000C00100000002000000020000607B
:10085600030000800000000000000000000000000F
:100866000000000000000000000000000000000082
:100876000000000000000000000000000000000072
:100886000000000000000000000000000000000062
:100896000000000000000000000000000000000052
:1008A6000000000000000000000000000000000042
:1008B6000000000000000000000000000000000032
:1008C6000000000000000000000000000000000022
:1008D6000000000000000000000000000000008092
:1008E600000008000000000000000000000000807A
:1008F600000008000000000000000000000000806A
:1009060000000800000000000078000000000080E1
:10091600000008000000000000C000000000008188
:10092600E00008078000008008C000000000008189
:1009360040000805000000C01860000000000088A4
:100946000000882000020020082000000000008827
:1009560008448820211230200810000000000008FA
:100966000844482021111220881000000000008C45
:100976001C648830719212208C100000000000C7A1
:10098600F7BB881FDEEE13E0F7E000000000000072
:100996000000000000001000000000000000000041
:1009A6000000000000003000000000000000000011
:1009B60000000000000060000000000000000000D1
:1009C600000000000000C000000000000000000061
:1009D6000000000000000000000000000000000011
:1009E6000000000000000000000000000000000001
:1009F60000000000000000000000000000000000F1
:100A060000000000000000000000000000000000E0
:100A160000000000000000000000000000000000D0
:100A260000000000000000000000000000000000C0
:100A360000000000000000000000000000000000B0
:100A460000000000000000000000000000000000A0
:100A56000000000000000000000000000000000090
:100A66000000000000000000000000000000000080
:100A76000000000000000000000000000000000070
:100A860000000000000000000000800000000000E0
:100A96000000000000000000000000000000000050
:100AA6000000000000000000000000000000000040
:100AB6000000000000000000000000000000000030
:100AC6000000000000000000000000000000000020
:100AD6000000000000000000000000000000000010
:100AE6000000000000000000000000000000000000
:100AF60000000000000000000000000000000000F0
:100B0600000000000000000000007F000000E00080
:100B1600001808180800C000000000C0000000C04F
:100B26000000804000000080C000000464C0000097
:100B3600000000E000001808180800C000000000CF
:100B4600C0000000C000006080000040C0000080BF
:100B5600001810E0000000000080000010F80000FF
:100B6600000C1E32C202000000000000000000005F
:100B7600000000000000000000000000000000006F
:100B86000000000000000000000003020000010356
:100B9600020202020203010302020201030202012F
:100BA60002020303021A121B1302020203010000CF
:100BB6000000000103020202020203010302020214
:100BC6000103020201020203002030180F00000395
:100BD60002020203000000000003020202010302F7
:100BE60002020202010000000000000000000000F6
:100BF60000000000000000000000000000000000EF
:100C060000000000000000000000000000000000DE
:100C160000000000000000000000000000000000CE
:100C260000000000000000000000000000000000BE
:100C360000000000000000000000000000000000AE
:100C4600000000000000000000000000000000009E
:100C5600000000000000000000000000000000008E
:100C6600000000000000000000000000E00000009E
:100C7600000000000000000000000000000000006E
:100C860000000000000000000000800000000000DE
:100C9600000000000000000000000000000000004E
:100CA600000000000000000000000000000000003E
:100CB600000000000000000000000000000000002E
:100CC600000000000000000000000000000000001E
:100CD600000000000000000000000000000000000E
:100CE6000000000000000000000000006F00003857
:100CF600404243424340607840404038404060783C
:100D060040403840404038604040407D0000000090
:100D1600384042434243406078404040384040605B
:100D26007840443C000008F8000070424246380013
:100D3600000000F00002060000FC0000784448D8DD
:100D4600604042433A634040403840406078404407
:100D56003C000000007042424638000070404046A9
:100D66003840405C6662263000000000000000004B
:100D7600000000000000000000000000000000006D
:100D86000000000001020102000000000000000057
:100D9600000000000000000000000000000000004D
:100DA6000000000002020301000000000000000035
:100DB6000000000103020203010100000202020119
:100DC600000000000000000000000000000000001D
:100DD600000000000000000000000000000000000D
:100DE60000000000000000000000000000000000FD
:100DF60000000000000000000000000000000000ED
:100E060000000000000000000000000000000000DC
:100E160000000000000000000000000000000000CC
:100E260000000000000000000000000000000000BC
:100E360000000000000000000000000000000000AC
:100E4600000000000000000000000000000000009C
:100E5600000000000000000000000000000000008C
:100E660000000000000000000000000103070F1F43
:100E76003F7FFF001027E80364000A00010000100E
:100E86000001100001003132333435363738392A43
:100E96003023070506040001020025730D0A0041F0
:100EA600542B53415042523D322C31002B5341506A
:100EB60042523A002B53415042523A20312C312CA7
:100EC6000053657474696E6720534D53204D6F64EB
:100ED600652E2E2E0041542B434D47463D31004191
:100EE600542B434E4D493D322C322C302C302C3075
:100EF6000041542B434D4744413D2244454C20413B
:100F06004C4C220041542B4346554E3D3100415432
:100F16002B4353434C4B3D3000534D532052656198
:100F260064792E00436F6E6E656374696E67207414
:100F36006F20475052532E2E2E0041542B534150B2
:100F460042523D332C312C22436F6E7479706522E8
:100F56002C2247505253220041542B5341504252A7
:100F66003D332C312C2241504E222C222573220057
:100F76006D63696E65740041542B53415042523D76
:100F8600312C31004665746368696E672049502EBE
:100F96002E2E00526573703A004750525320466118
:100FA600696C656421006C657620300041542B48DD
:100FB600545450494E4954004F4B006C65762031CD
:100FC6000041542B48545450504152413D2243490C
:100FD60044222C31006C657620320025733F706800
:100FE6006F6E655F6E756D6265723D257300415467
:100FF6002B48545450504152413D2255524C222CBC
:1010060022257322006C657620330041542B485408
:101016005450414354494F4E3D31002B485454508F
:10102600414354494F4E3A004E6F20416374696FF5
:101036006E2052657370006C65762034002B485420
:101046005450414354494F4E3A2025642C25642C74
:10105600256400506172736520457272006C657676
:1010660020350048545450205374617475733A0007
:101076004E6F74204F4B006C657620360041542B22
:101086004854545052454144006C6576203700411F
:10109600542B485454505445524D006C65762038B4
:1010A600004D4F544F52202564204F4E21004D4F86
:1010B600544F52202564204F4646210068747470B0
:1010C6003A2F2F3139332E352E34342E3139312FF4
:1010D600686F6D652F706F73742F002B3938393137
:1010E6003532363038353832004D6F64756C6520D0
:1010F600496E69742E2E2E0041544530004154002D
:10110600534D5320496E6974204661696C656421AC
:10111600004750525320496E6974204661696C65D8
:101126006421000001002D4E414E00494E4600004C
:101136000D000005A50E08000D05B20E0D001505E3
:10114600BA0E14002205C70E0A003605DB0E120081
:101156004005E50E13005205F70E0A0065050A0F55
:101166000B006F05140F0B007A051F0F160085057F
:101176002A0F1E009B05400F0D00B9057D0F0F00BD
:10118600C6058A0F0D00D505A50E0800E205B20EAC
:101196000600EA05990F0D00F005BA0E0D00FD05D3
:1011A6009F0F06000A06AC0F0C001006B20F0300D4
:1011B6001C06BE0F06001F06C10F14002506C70F2A
:1011C60003003906BE0F06003C06DB0F030042068D
:1011D600BE0F060045060B1010004B0611100D0041
:1011E6005B0621100F0068062E10060077063D10DC
:1011F6000D007D0621100A008A0659100600940685
:1012060063100D009A0669100300A706BE0F0700BB
:10121600AA0676100600B1067D100C00B7068310EC
:101226000300C306BE0F0600C6068F100C00CC06D0
:1012360095100300D806BE0F0600DB06A1101F009E
:10124600E106C2100E000007E1100F000E07EF10B6
:1012560005001D07FE1003002207031111002507D4
:10126600061112003607171101007A072A1100002D
:10127600F894EE27ECBBF1E0F5BFE5BFE0936C0018
:101286008DE0A2E0BB27ED938A95E9F780E090E137
:10129600A0E0B1E0ED930197E9F7E6E3F1E185918E
:1012A6009591009761F0A591B59105901590BF01B4
:1012B600F00105900D920197E1F7FB01F0CFEFEFFA
:1012C600EDBFE0E1EEBFC0E0D5E00C949F0AAA9323
:1012D60021970E94751400E010E0AF81B0E0E8E0CD
:1012E600F0E00E943414EE8330E0EE813E1770F594
:1012F60020E0E8852E1740F5F8010F5F1F4FA985FE
:10130600BA85EA0FFB1F449150E05830D8F4E52F18
:10131600A1E0B0E00E941014A42FB0E0EA23FB2362
:10132600309771F0E22FAC85EA0FEA93E32FEE0FC8
:10133600EE0FEE0FAC85EA0FE50FAE2F0E94D70E2B
:101346005F5FE3CF2F5FD5CF3F5FCFCF0E947C1487
:101356002D960895BA93AA93E0EAFEE0FA93EA93EB
:10136600EA81FB81662777270E944F1484E00E945A
:101376009811269607C2BA93AA930E94751400E0A4
:1013860010E020E030E0EC85FD85FA93EA93E0E09A
:10139600EA93AD85BE850E94B711E885F9852E17BB
:1013A6003F07D8F45F9B12C00E94E80F5E2FEA85C4
:1013B600FB8531970E171F0744F4F8010F5F1F4F87
:1013C600AC85BD85EA0FFB1F508306C0A1E0B0E0E7
:1013D6000E94EE132F5F3F4FE0CFEC85FD85FA9319
:1013E600EA93A885B9850E940412309711F0E1E0CE
:1013F60001C0E0E00E947C142E9608950E94E4123B
:10140600A2E2B5E00E94C60FA6E3B5E00E94EA128A
:10141600A0E4B5E00E94EA12A2E5B5E09BDF0E94D7
:10142600F012A5E6B5E00E94EA12AFE6B5E00E942A
:10143600EA120E94F412AAE7B5E00E94C60F0E94C3
:10144600F012E1E00895EF97EF9768970E94E41293
:10145600A5E8B5E00E94C60FABE9B5E00E94F91217
:10146600FE01EC59FF4FFA93EA93EEE5FFE0FA939B
:10147600EA93E6E7FFE0662777270E944F1484E0A9
:101486000E946A112896DE01AC59BF4F0E94F912DC
:10149600A9EBB5E00E94F9120E94E412A6ECB5E0B1
:1014A6000E94C60FA5EDB5E055DFFE01FA93EA935B
:1014B600E4E6F0E0FA93EA93E8ECF0E0FA93EA93D4
:1014C600A2EEB5E058DFE03091F10E94F412AAEEE8
:1014D600B5E00E94C60FE0E0EA93E4E1EA93DE019C
:1014E60012960E94C60F0E94F012FE01FA93EA932A
:1014F600A0EFB5E00E9404123097C9F02297FE01D2
:1015060032960E94FF12E0E0F0E00E94FF12E881AE
:10151600F981309759F0E5E6F7E0FA93EA93AA8164
:10152600BB810E94C711E1E0229602C02296E0E04C
:10153600EF96EF9668960895269701EE16E020E05E
:1015460037E0E0E0EABBEBBBE7BBE0EFE8BBE7E098
:10155600E4BBE0EFE5BBECE3E2B9E0E0E3B9E0933E
:101566006100E0936200EBB9E8E1EAB9E6E0E093F6
:101576009500E0E0E0939000E3E3E9B9E0E8E4BF3A
:10158600E4BFECE8F0E0E883F983E0E0EA83EB838C
:10159600EC83ED83DE01F8D0ECE8F0E00E9408135E
:1015A6000E94E412AEE0B7E00E94C60FA8EBBBE0D3
:1015B6000E94EE13ADE1B7E00E94F912A2E2B7E095
:1015C6000E94F9121BDFE03039F40E94F412A5E202
:1015D600B7E00E94C60FFFCF36DFE03039F40E9435
:1015E600F412A6E3B7E00E94C60FFFCF0E94E412F2
:1015F600E0E7F2E00E940D13A0E40E941213E0E778
:10160600F6E00E940D13A0E20E941213E0E7F8E054
:101616000E940D13A0E20E941213E0E7FAE00E9476
:101626000D13A0E20E941213E0E7FCE00E940D13E6
:10163600A0E24DDEA4EFB1E00E94EE13FFCFFFCF94
:101646000000E0916200E061E0936200000008950E
:10165600E0916200EF7E0E941913EF7D0E9419133C
:10166600EF7BE093620008951A93EADF19B3E091E5
:101676006200EF7EE0936200E12F19910895AA932C
:101686001A930E941E13EB7FE0936200E981EF5FDD
:101696001E2F10FF04C0E0916200E06203C0E091DB
:1016A6006200EF7DE093620011FF04C0E0916200EA
:1016B600E06403C0E0916200EF7BE0936200D4DF58
:1016C600E078E9F718815EC0AA93A981D8DFE09196
:1016D60062000E94241356C0E0917607EA93E091D7
:1016E6007507EF73E064AE2FEFDFE0917607EA93BC
:1016F600E0917707E86BAE2FE7DF0895AA93E981BB
:10170600E0937507E295EF70E695E695E093760728
:10171600E881E0937707E0DF35C0A0917507AF5FFA
:10172600A0937507A03818F0E0E0E0937507E09104
:101736007507EF7331F4E0917507EA93A091770787
:10174600DDDF0895AA93A091760799DFE091620004
:10175600E4600E9419130E9424130C94F10FA091C7
:1017660076078DDF0E941E13E460E09362007CDF43
:101776000895AA93E981EA93E9810E942F13EFDF86
:10178600ABDFEDDF22960895BA93AA931A93E09100
:101796006100E0610E943513E8600E943513E46041
:1017A6000E943513E068E0936100E0916200E06812
:1017B600E0936200E0916100E0620E943513E0640C
:1017C600E093610045DFE0916200EF77E09362000D
:1017D600A4E6B0E00E94EE13E0916200E068E093B8
:1017E600620010E0123040F41A93AFE36DDF1A93F3
:1017F6001395A0EC69DFF6CFE1E0E0934807E0E05F
:10180600E0934907E981FA813097A9F0A981BA8165
:101816000E9447140E940813A981BA8112960E9459
:101826004714E0936107F0936207A981BA81149681
:101836000E9447140AC0E0E0F0E00E940813E0E0CE
:10184600F0E0E0936107F0936207E0936307F0939B
:101856006407E1E0E0934E07E0934F07E0935007FB
:10186600EFEFE0935107E1E0E0935807E9E5F7E091
:10187600FA93EA93EFEFEA93A8E0B0E00E94B7117B
:1018860004D0E1E01881239608950E94771400E0C1
:1018960030E0E0914907E03009F00FEF383078F496
:1018A600E0E0EA93A32F3F5F29DF10E0A12F1F5F3F
:1018B600A03820F4A02F0E943A13F8CFEFCFE0E033
:1018C600EA93A0E01BDFE0E0EA93A0E071D30E9478
:1018D6007E1424960895AA931A930A93AC81A0388D
:1018E60018F4AB81A03420F0198108810C94C5113D
:1018F600EC81EA93AC813DDF1E2FEEDEEB81E770D3
:10190600A1E00E9400140E2FEA81E03011F0102BA6
:1019160003C0E02FE0951E23A12F14DF1981088153
:101926000C94C511AA931A93ED81EA93AD8121DF38
:101936001E2FD2DEE981E73011F0E83039F4EB8171
:10194600EA93AA810E947E12EB8308C0E33021F459
:10195600EB81E095EB8302C0E03021F4EA81E0956B
:101966001E2302C0E23029F4EA81AB81EA231E2B52
:101976000EC0E13029F4EA81AB81EA231E2707C0B5
:10198600E43029F4EA81E095AB81EA2B1E23A12FEE
:101996000E943A1318810C947112AA9323970E94FD
:1019A6007514A889A03848F4AF85A03430F4AE8504
:1019B600A03019F0AD85A03009F4C8C1EE85E887DE
:1019C600A889BB27EE85F0E0AE0FBF1FA138E0E087
:1019D600BE0720F0A889E0E8EA1BEE872D85AF85D3
:1019E600BB27ED85F0E0AE0FBF1FA134E0E0BE07D8
:1019F60020F0AF85E0E4EA1BED87A985A63009F063
:101A06005BC0EC85E13009F4A1C1E33039F4E09123
:101A16006307F0916407309709F498C10885ED854E
:101A2600E695E695E6953E2FE22FE77019F4AD852B
:101A36002A17E9F0A02FBB27E32FF0E00E94191424
:101A4600AA85BB850E943E13269526952695532F7B
:101A56005F935F5FE22FAF91EA1748F0102FE12FF7
:101A66001150E03019F00E944313F9CFF1CFAE8543
:101A76000A1711F1EE85AA85BB85F0E00E943E1398
:101A8600ED85E77009F03F5F20E02F932F5FE32F8E
:101A9600AF91AE1788F41E851F931F5FE02FAF919D
:101AA600AE1718F40E944313F7CFEE85AE81BF81BF
:101AB600F0E00E943E13E9CFEF85E7703E2FED85FB
:101AC600E03009F443C1EA85FB85EE83FF8310E02D
:101AD6000889303009F065C0AD85A83008F45CC0CF
:101AE600E985E03011F0E33009F402C0E73009F48B
:101AF60002C0E83009F402C0E63009F402C0E93059
:101B060009F402C0EA3021F40A93E8890E942F13EF
:101B16001F931F5FEE85AF91AE17B8F5A985A63066
:101B260061F41DDED9DD0E945013FA93EA9317DEA5
:101B3600AE2F0E94C512F1DD27C0E985E93011F408
:101B460050E00EC0EA3011F45FEF0AC00E94501355
:101B56000E9459135E2FE985E73011F0E83021F431
:101B66000E945F135E2F06C0E33011F4509502C049
:101B7600E03021F4A52F0E943A1306C00E94631399
:101B8600EFEFEA93AD85CEDEC3CFEF85E85FEF8753
:101B9600ED85E850ED87D1C05D8520E0E0E0ED877A
:101BA6007AC0E32FAD85AE0FA93020F42D85E0E095
:101BB600ED8703C0E8E0E31B2E2F3A93A22F0E9485
:101BC60073124E2FE985E630F1F41F931F5FEE8501
:101BD600AF91AE17B8F40E946913AE2FE32F0E949F
:101BE60008140E947013E32FA42F0E940814E09596
:101BF600E1215E2B0E945013FA93EA93A52F0E94CF
:101C0600C512E3CF2CC0E93011F450E003C0EA302E
:101C1600A9F45FEF0E945F13AE2FE32F0E9400141A
:101C26005E2F1F931F5FEE85AF91AE1730F40E94B3
:101C360063134A93A0E076DEF4CF11C01F931F5FB3
:101C4600EE85AF91AE1758F40E947B13AE2FE32FAB
:101C56000E940014EA934A93AD8564DEEFCFED85CA
:101C6600E03009F473C0AD85A83028F4ED85E21B99
:101C76005E2FE0E003C0532FED85E850ED8710E0BE
:101C8600EF85E85FEF87E8E0E31B2E2F0889EA85FA
:101C9600FB85EE83FF83E52FF0E0E059F14F449199
:101CA600E985E630F1F41F931F5FEE85AF91AE171D
:101CB600B8F40E946913AE2FE22F0E9400140E940E
:101CC6007013E22FA42F0E940014E095E1215E2BF1
:101CD6000E945013FA93EA93A52F0E94C512E3CFF0
:101CE6002CC0E93011F450E003C0EA30A9F45FEFEC
:101CF6000E945F13AE2FE22F0E9408145E2F1F93DF
:101D06001F5FEE85AF91AE1730F40E9463134A93BE
:101D1600A0E008DEF4CF11C01F931F5FEE85AF91E0
:101D2600AE1758F40E947B13AE2FE22F0E940814C0
:101D3600EA934A93AD85F6DDEFCFE885AA85BB85A4
:101D4600F0E0EA0FFB1FEA87FB87B9CE0E947C14FE
:101D5600619608950E94881324F0E0E0F0E00C9468
:101D66007C12A881B981A038E0E0BE0724F0EFE735
:101D7600F0E00C947C12E881F9810C947C120E94AC
:101D8600881324F0E0E0F0E00C947C12A881B9817D
:101D9600A034E0E0BE0724F0EFE3F0E00C947C1200
:101DA600E881F9810C947C12AA93E981EA93E9818E
:101DB600EA93A09148078FDD0C947C12BA93AA93FC
:101DC60023970E948F138F01002E012A19F4E0E059
:101DD600F0E05FC00E9496130F820E9496130E8257
:101DE6000E9496130886EB85A885EA1718F4E0E0AA
:101DF600F0E04FC0F8010F5F1F4F5491A885BB2735
:101E0600EE27A50FBE1FEB85F0E0EA17FB0718F0DB
:101E1600E0E0F0E03EC0EE81E695E695E6954E2FD1
:101E2600EE81E77009F04F5FEF81E030A1F0A98500
:101E3600BA85EC93A885EB85EA1BF0E0DF01EF811C
:101E4600F0E00E941914DF01E42FF0E00E9419145B
:101E5600E00FF11F1EC09801E52FF0E00E0F1F1FC7
:101E6600A885AF5FA887A150EB85AE1760F4F9018E
:101E76002F5F3F4FA491B0E0E42FF0E00E941914C9
:101E86000E0F1F1FEDCFF901E491A985BA85EC93DA
:101E9600F8010E947C142C960895E0E0E0934A072E
:101EA600A0914B07BB270E949B13F0E0AE0FBF1F0C
:101EB600E0914F07F0E0AE0FBF1F61DFE0934B07E5
:101EC6000895AA9321970E948F13309709F455C05D
:101ED600AF81AA3009F44FC0EF81EA93DE0117966D
:101EE6006DDFAF01309709F44AC0E0914E07AE812D
:101EF600EA0F3E2FA0914A07BB27F0E0EA0FFB1F2F
:101F06008F010138E0E01E0718F0032F1127C5DF07
:101F1600E0914A07EA93E0914B07EA93E885EA9352
:101F26000E949B13EA93E1E0EA935A934A93A7E04F
:101F360034DDE0914A07AE81EA0FEA93E0914B0760
:101F4600EA93E0914E07EA930E949B130E94A21324
:101F5600E0914A07EA93A0914B070E949B13EA0F70
:101F6600EA933A93E0914F070E94A213E0E8F0E06B
:101F7600E017F10711F491DF02C000934A070E94AF
:101F86007C1428960895BA93AA931A93EC81EA933F
:101F9600AC810ED0A981BA81ED91A983BA831E2F97
:101FA600E03019F0A12F8DDFF5CF18810C94C51103
:101FB600AA93A981BB27CEDEE0934A07A881BB2757
:101FC600DEDEE0934B070C947C125F9BFECFECB1F8
:101FD6000895AA935D9BFECFE881ECB921960895FA
:101FE600BA93AA93AA81F5DFA881B9810E94AC139E
:101FF6000C94C312BA93AA931A930A93AA81BB812B
:1020060012960E944714309729F1AA81BB81149633
:102016000E9447148F01309761F00230E0E01E07FE
:1020260080F0F80131978F01AA81BB811496ED9358
:10203600FC93AA81BB8112960E94AC133197AC81A6
:10204600A083AA81BB810E944714FF2312F00E943D
:10205600AC1306C0AA81BB81EFEFFFEFED93FC93B3
:10206600198108818FC1BA93AA9326970E94751485
:1020760010E0AC85BD85E0E0F0E0ED93FC93EA89E5
:10208600FB893196EA8BFB8B3197E4912E2FE0305A
:1020960009F415C1E12FE03039F4253211F411E0CD
:1020A60002C00E94B2130AC1E130A9F4253219F424
:1020B6000E94B21302C112E040E000E02D3211F49A
:1020C60001E0FCC02B3211F44BE2F8C0203211F4CF
:1020D60040E2F4C002C0E23039F450E013E02033AD
:1020E60011F40068EBC003C0E33009F0E7C0203309
:1020F60010F02A3308F007C0AAE05A9F502DE22FAD
:10210600E0535E0FDBC0E22FE33649F40E94B913B9
:10211600E889F989A481AA930E94BF13CEC0E33748
:1021260041F40E94B9130E94C5130E94D4111E2FB8
:102136000AC0E03761F40E94B9130E94C5130E94D9
:10214600E0111E2F086002600F7730E034C0E436DD
:1021560011F0E93611F4046002C0E53731F4EAE71C
:10216600FEE0EE83FF8315E00CC0E83511F408604D
:1021760003C0E83709F0A1C0E4E8FEE0EE83FF8380
:1021860014E002FF14C00E94B9130E94CF13AB855E
:10219600AA233AF4EA85FB850E94FC13EA87FB87AB
:1021A6004DE2403011F01F5F01C00B7F04C00E945A
:1021B600B9130E94CF1300FD11C0151778F407FF5D
:1021C60008C002FF04C00B7F242F115001C020E37A
:1021D60001C020E20E94B2135150EFCF312F01FF10
:1021E60017C03030A1F003FF06C0EE81FF812591B4
:1021F600EE83FF8305C0AE81BF812D91AE83BF8381
:102206000E94B213503009F051503150EACF4BC002
:1022160020E3EE81FF810E944B14E887F987EE8167
:10222600FF813296EE83FF83E885F985AA85BB8513
:10223600AE17BF0750F02F5FA885B985EA85FB85E5
:10224600EA1BFB0BEA87FB87EFCF2A3328F003FF55
:1022560002C0295F01C0295D04FD1AC0213320F4A4
:10226600A885B985119709F409C0531710F000FF26
:1022760001C013C020E207FF0BC020E3006102FF8C
:1022860007C00B7F4A930E94BF13503009F051508C
:102296000E94B213503009F051503150A885B985CB
:1022A600129708F0B5CF00FF08C0503031F05150FA
:1022B600E0E2EA930E94BF13F8CF10E0E0CEAC85CF
:1022C600BD850E9447140E947C1464960895FF926F
:1022D600F82E26970E9477140E94D713309719F488
:1022E600EFEFFFEF1DC0DE0116960E94F8138D0179
:1022F6000E94D713EE83FF83E0E0E887E987DE01DB
:102306001A960E94DE13EDEFFFE0FA93EA93DE01E0
:102316001A96A9DE9F01AE81BF81E0E0EC93F90138
:102326000E947E142A96FF900895FF92F82E269713
:102336001A930A93DE0114960E94F8138D01E0E0C9
:10234600EC83ED83EE83EF83DE0118960E94DE13A5
:10235600E3EFFFE0FA93EA93DE01189684DE198133
:1023660008812896FF900895BA93AA93B981A88107
:10237600109631F0FC81EB816A8161931197E9F740
:10238600EB81FC8125960895BA93AA93E991F99178
:10239600A991B991CD0161916D936623E1F7FC0195
:1023A6000895BA93AA93A991B991EE27FF276D9143
:1023B600662311F03196FBCF0895BA93AA93AA2704
:1023C600BB27E991F9910590002011F01196FBCFFA
:1023D600FD010895BA93AA93BB81AA816C916623E5
:1023E60061F0F981E881C895002029F031966015E1
:1023F600D1F7FD0104C01196F1CFEE27FF270C940B
:10240600E212BA93AA93AA81BB81CD01E881F98130
:102416007191772311F4FC0109C06D916717C1F31F
:102426000196DC01662391F7EE27FF270C94E21252
:10243600BA93AA93BB81AA81882799276D916623AF
:1024460049F0F981E8810590002021F06015D9F75F
:102456000196F4CFFC01B3C0BA93AA931A930A93D8
:10246600EC81FD81309779F4E0917807F091790756
:10247600309719F4E0E0F0E02FC0E0917807F09192
:102486007907EC83FD830E94E7130E941B12AC813F
:10249600BD81EA0FFB1FEC83FD83AC81BD81EC910E
:1024A600E03041F4E0E0E0937807E0937907E0E07C
:1024B600F0E012C00E94E7130E94ED118F013097E1
:1024C60029F0D8010F5F1F4FE0E0EC9300937807E7
:1024D60010937907EC81FD8119810881269608956C
:1024E600AA93E881F0E0E059F14FA491E9810E94B6
:1024F600001422960895AA931A93E981E73011F001
:10250600EA3019F41091480709C0E93019F410911E
:10251600490704C0E830A1F410915807E091490733
:10252600E03049F0103019F0EFEF188129C0EA8148
:10253600E095188125C0103019F4E0E0188120C01C
:10254600EA8118811DC0BA93AA93EA81E13021F489
:10255600E881F981E49114C0E23029F4A881B981B7
:102566000E9454140DC0E33041F4A881B981E09172
:102576006107F0916207099503C0A881B981EC91C2
:1025860023960895AA93EB81E03029F4E881A98186
:10259600BA81EC9314C0E23031F4E881A981BA81A2
:1025A6000E9460140CC0E33051F4E981FA81FA9379
:1025B600EA93AA81E0916307F0916407099524964E
:1025C60008950E94480CE0E0EA93EA9308950E9479
:1025D600AD09A4E6B0E00C94EE13A8ECB0E00C94C0
:1025E600EE13E0E0EA93EAE0EA9308950E94AD096B
:1025F600ACE2B1E00C94EE13FA93EA93A8E0BFE0E4
:102606000E942F12E883F9830895E0934C07F09314
:102616004D070895FA93EA93E0E8EA9308950E9435
:102626006A09A4EFB1E00E94EE13CBCFE0936200FB
:10263600E09162000895E0E0EABBE0916200E860A4
:10264600F5CFE77FE0936200EFEFEABBE881EBBBF3
:102656000E94230B0C942B0BE695E695E695AE2F80
:102666000C94810BE0936100E091610008950E9453
:10267600A50B0C94900BEA0FFB1FEE83FF830895C6
:10268600EC85EA93EF81F8853196EF83F8873197E9
:10269600FA93EA93A0E00C94C512EC85EA93EF81D5
:1026A600F8853196EF83F88731970895662777275F
:1026B600DF01CB010C94A6125A93AA850C947E12C4
:1026C6000A930395E889EA935A9308950A93039522
:1026D600A8890E94BC0BE42308955E2FEC85EA933B
:1026E600AF81B885882799270E94A6121E2E0895C5
:1026F6000A930395E889EA93EE85EA93E985FA85D4
:102706003196E987FA873197D1CFBA93AA93A881F0
:10271600B9810E94711408950E947514E0914C07C6
:10272600F0914D070895F8010F5F1F4F049008952B
:10273600E0914C07F0914D073196E4910895EA93A4
:10274600E0E0EA93E0E0F0E0FA93EA93A9E00C9483
:10275600D00CED91FD913196FE93EE9308952A9358
:10276600AD85BE85EF85F88909950895E889F989CB
:102776003497E88BF98B0895AD85BE85EF85F8898A
:1027860009950895A889B98914960E944714EE837D
:10279600FF83AE81BF810895A889B98914960E94E6
:1027A6004714EA87FB870895DE011C960E94F813FA
:1027B6000E94471408950E94F8130E944714FA9342
:1027C600EA931A930A930895EC81FD81FA93EA93AA
:1027D600AC81BD810895109639F0A89580ED97E0FB
:1027E6000197F1F71197C9F708950024AF0DB01DB1
:1027F6000895F195E195F0400895EE230E2EEA2F07
:1028060019F0EE0F0A94E9F70895EE230E2EEA2F3B
:1028160019F0E6950A94E9F70895EE230E2EFD01C8
:1028260021F0EE0FFF1F0A94E1F70895FA9FF02DAD
:10283600EB9FF00DEA9FE02DF10D08950024112481
:1028460090E1AA0FBB1F001C111C0E1A1F0A18F4D8
:102856000E0E1F1E01C0A1609A9599F7FD01D001C9
:10286600089504D0EBDF0EF4C4DF0895E894F7FF73
:1028760002C0BFDF6894B7FF06C0A095B095119659
:1028860000F8039400FA0895ED91FC9111970895CC
:102896000590F491E02D08957A936A93FA93EA935A
:1028A6000895E199FECFFF93FFB7F894AEBBBFBB87
:1028B600E09AEDB3FFBFFF910895E19B02C0A89592
:1028C600FCCF9FB7F894AEBBBFBBE09A8DB3E817B9
:1028D60019F0EDBBE29AE19A9FBF089500240A160B
:1028E6000B0608955A934A933A932A931A930A9396
:1028F60008955D814C813B812A8119810881089563
:00000001FF
