:100000000C94AE100C9400000C9400000C940000B2
:100010000C9400000C9400000C9400000C94000060
:100020000C9400000C9400000C9400000C94000050
:100030000C9400000C9400000C9400000C94000040
:100040000C9413110C9400000C94DD100C9400001F
:100050000C9400000C9400000C9400000C94000020
:100060000C9400000C9400000C9400000C94000010
:100070000C9400000C9400000C9400000C94000000
:100080000C9400000C9400000C9400000507206004
:10009000000000000000005F0000000700070014DF
:1000A0007F147F14242A7F2A12231308646236499E
:1000B0005522500005030000001C2241000041228F
:1000C0001C00082A1C2A0808083E080800503000B6
:1000D000000808080808003030000020100804025A
:1000E0003E5149453E00427F400042615149462110
:1000F00041454B311814127F1027454545393C4A7C
:1001000049493001710905033649494936064949CB
:10011000291E003636000000563600000008142262
:100120004114141414144122140800020151090648
:10013000324979413E7E1111117E7F494949363E4F
:10014000414141227F4141221C7F494949417F0968
:100150000901013E414151327F0808087F00417F7B
:1001600041002040413F017F081422417F40404030
:10017000407F0204027F7F0408107F3E4141413EE0
:100180007F090909063E4151215E7F09192946462A
:100190004949493101017F01013F4040403F1F2053
:1001A00040201F7F2018207F631408146303047805
:1001B0000403615149454300007F41410204081096
:1001C0002041417F000004020102044040404040C1
:1001D000000102040020545454787F4844443838C5
:1001E00044444420384444487F3854545418087ECA
:1001F000090102081454543C7F0804047800447D2B
:1002000040002040443D00007F10284400417F40D2
:10021000007C041804787C0804047838444444388A
:100220007C14141408081414187C7C08040408486E
:1002300054545420043F4440203C4040207C1C2027
:1002400040201C3C4030403C44281028440C505076
:10025000503C4464544C44000836410000007F0088
:1002600000004136080002010204027F4141417F43
:10027000000000000000000000000000000000007E
:10028000000000000000808000000000000000006E
:10029000000000000000000080800000000000005E
:1002A000000000000000000000000000000000004E
:1002B000000000000000000000000000000000003E
:1002C000000000000000000000000000000000002E
:1002D000000000000000008080000000000000001E
:1002E000000000000000000000000000000000000E
:1002F0000000E0E00000060E1ABAE3C1000080C072
:10030000E0B0F0F00000FFFF00000000E0E00000BF
:1003100000F0F00000000000FFFF000020E0E0001F
:1003200000000000C0C008181800F0F00000E0F065
:100330003060E08000080CECEC8C000000E0E00095
:1003400080E0E010F0F00000000000E0F818F0E0BD
:10035000000020E0E00000FFFF000080C0E0B0707F
:10036000F080000000E0E00C8EEEEC18F0F00000F1
:100370000000000101010101010101010101010071
:10038000010101010000000101090D0D0D0D0D2DF0
:100390003D3D090000000000010108080C0F0700A6
:1003A00000000000070F0C080C0C070700000909EB
:1003B000090F070101010101010101010101010111
:1003C0000101010101000000000000010101010123
:1003D00008080C0F070000000101010100010101E4
:1003E0000101010101010101010101010100000000
:1003F00000000000000000000000000000000000FD
:1004000000000000000000000000000000000000EC
:1004100000000000000000000000000000000000DC
:1004200000000000000000000000000000000000CC
:1004300000000000000000000000000000000000BC
:1004400000000000000000000000000000000000AC
:10045000000000000000000000000000000000009C
:10046000000000000000000000000000000000008C
:10047000000000000000000000000000000000007C
:10048000000000000000000000000000000000006C
:10049000000000000000000000000000808000005C
:1004A000C0C00018F8E0000000E0E080000008ECA8
:1004B000EC800000060E3AF3E101000000000000AD
:1004C000000000000000000000000000000000002C
:1004D000000000000000000000000000000000001C
:1004E000000000000000000000000000000000000C
:1004F00000000000000000000000000000000000FC
:1005000000000000000000000000000000000000EB
:1005100000000000000000000000000001010000D9
:1005200001010101010101050D0D0D09010101018B
:1005300001010101010101010000000000000000B3
:1005400000000000000000000000000000000000AB
:10055000000000000000000000000000000000009B
:10056000000000000000000000000000000000008B
:10057000000000000000000000000000000000007B
:10058000000000000000000000000000000000006B
:10059000000000000000000000000000000000005B
:1005A000000000000000000000000000000000004B
:1005B000000000000000000000000000000000003B
:1005C000000000000000000000000000000000002B
:1005D000000000000000000000000000000000001B
:1005E000000000000000000000000000000000000B
:1005F00000000000000000000000000000000000FB
:1006000000000000000000000000000000000000EA
:1006100000000000000000000000000000000000DA
:1006200000000000000000000000000000000000CA
:1006300000000000000000000000000000000000BA
:1006400000000000000000000000000000000000AA
:10065000000000000000000000000000000000009A
:10066000000000000000000000000000000000008A
:10067000000000000000000000000000000000007A
:10068000000000000000000000000000000000006A
:10069000000000000000000000000000000000005A
:1006A000000000000000000000000000000000004A
:1006B000000000000000000000000000000000003A
:1006C000000000000000000000000000000000002A
:1006D000000000000000000000000000000000001A
:1006E000000000000000000000000000000000000A
:1006F00000000000000000000000000000000000FA
:100700000000C0C000000000000000000000808069
:100710000000FCFC00000000008080800000001051
:10072000B0A00000000000004040C0C00000000079
:1007300000000000FCFC00000080800000000000C1
:100740000000FCFC00000000000000000000004071
:1007500040C0C0000000000000C0C000000080C019
:10076000C0C0C00000000000000000000000000049
:1007700000000000000000000000000C0C00000E53
:100780000E08080F0F084868686F6F6868686F4F39
:100790000000070F08080C060F0D0B0F0C080808C7
:1007A0000F0F00000000000E0E08080F0740406108
:1007B0007F3F00000F0F00004F4F697F3F00000098
:1007C00000000F0F4040617F3F00000000000E0E50
:1007D00008080F0700000E0E08080F0F08080B0F7F
:1007E0000C0C0404000000000000000000000000E9
:1007F00000000000000000008080000000000000F9
:1008000000000000000000000000000000000000E8
:1008100000000000000000000000000000000000D8
:1008200000000000000000000000000000000000C8
:1008300000000000000000000000000000000000B8
:1008400000000000000000000000000000000000A8
:100850000000000000000000000000000000000098
:100860000000000000000000000000000000000088
:100870000000000000000000010100000000000076
:100880000000000000000000000000000000000068
:100890000000000000000000000000000000000058
:1008A0000000000000000000000000000000000048
:1008B0000000000000000000000000000000000038
:100B90000000000000000080800000000000000055
:100BA0000000000000000000000000000000000045
:100BB0000000808000000000000000000000000035
:100BC0000000000000000000000000000000000025
:100BD0000000808000000000000000000000808015
:100BE0000000000000000080800000000000000005
:100BF00000000000000000008080000080800000F5
:100C000080800000C0C00018F8E0000000E0E08034
:100C1000000002F6F40000FFFF000080C0E0B070AA
:100C2000F080000000F0F0000000000020E0E00094
:100C30000080FF7F203236F4E00000040CECEC046E
:100C40000008ECEC80000080C0E0B0F0F000000094
:100C50000000FFFF000060F39BFAF0000080FF7FC0
:100C6000203030F0E0000003FFFC00000000000036
:100C70000000000000000000010100000101000070
:100C80000101000001010101010101050D0D0D0926
:100C90000101010101000000010101010001010148
:100CA0000101010D0D090100000008080C0F0701EA
:100CB0000101010101010101010101010101010124
:100CC0000101010101010101000101010100000018
:100CD0000000000101010101010101010101010107
:100CE00001010101010101010100000000000000FB
:100CF00000000000000000000000000000000000F4
:100D000000000000000000000000000000000000E3
:100D100000000000000000000000000000000000D3
:100D200000000000000000000000000000000000C3
:100F500000000000E0E000000000000000000000D1
:100F60000000000000808000000000000000000081
:100F70000000000000000000003878424343434373
:100F8000607878404040787840607878447C3C00D5
:100F90000008F8F80000707242467E380000000039
:100FA00000F0F002060600FCFC0000787C4CD8F84B
:100FB000604042437B7B6340404078784060787873
:100FC000447C3C0000000000787E467C78000008ED
:100FD000F8F800003F7F40406030786C5C7C6040F7
:100FE0004040787843637B7B467C3C0000000000F7
:100FF00000000000000000000000000000000000F1
:1010000000000000000000000000000000000002DE
:1010100002030301000000000000000000000000C7
:1010200000010303020303010100000202020301A5
:1010300000000000000000000000000000000000B0
:101040000000000000000000000000000002020399
:10105000030100000000000000000000000000008C
:101060000000000000000000000000000000000080
:101070000000000000000000000000000000000070
:101080000000000000000000000000000000000060
:101090000000000000000000E0E000000000000090
:1010A0000000000000000000000000000000000040
:1010B00000008080800000000000808000000000B0
:1010C00000000000000080808080C0400000000020
:1010D000000000000000E0E0000000000000000050
:1010E0000000000000000000000000000000000000
:1010F0000000000000000000000000006060000030
:1011000038784243434343607878404040787840A1
:10111000607878447C3C00007F7F0000000000780D
:101120007E467C780000707040467E784040407873
:101130007843637B7B4278784040407D7D000000AF
:101140000000387840404143466E7870404060303F
:10115000786C7C7C00003F7F404040407878404085
:10116000407C7C0000000000000000000000000047
:10117000000000000000000000000000000000006F
:10118000000000000000000000000000000000005F
:10119000000000000000000000000000000000004F
:1011A000000000000000000000000000000000003F
:1011B000000000000000000000000000000000002F
:1011C000000000000000000000000000000000001F
:1011D0000000000000000000000203030303030BF3
:1011E0000F0F0200000000000000000000000000DF
:1011F00000000000000000000000000000000000EF
:1012000000000000000000000000000000000000DE
:1012100000000000000000000000000000000000CE
:1012200000000000000000000000000000000000BE
:1012300000000000000000000000000000000000AE
:10124000000000000000000000000000000000009E
:10125000000000000000000000000000000000008E
:10126000000000000000000000000000000000007E
:10127000000000000000000000000000000000006E
:10128000000000000000000000000000000000005E
:10129000000000000000000000000000000000004E
:1012A000000000000000000000000000000000003E
:1012B000000000000000000000000000000000002E
:1012C000000000000000000000000000000000001E
:1012D000000000000000000000000000000000000E
:1012E00000000000000000000000000000000000FE
:1012F00000000000000000000000000000000000EE
:1013000000000000000000000000000000000000DD
:1013100000000000000000000000000000000000CD
:1013200000000000000000000000000000000000BD
:1013300000000000000000000000000000000000AD
:10134000000000000000000000000000000000009D
:10135000000000000000000000000000000000008D
:10136000000000000000000000000000000000007D
:10137000000000000000C0C0101818181800C0C0FD
:10138000000000C0C00000C0C020E0E0000040C07D
:10139000C0000080901030F0C0000000000080808D
:1013A00010303000E0E00000C0E060C0C00000107D
:1013B00018D8D818000000C0C00000C0C020E0E06D
:1013C0000000000000C0F030E0C0000040C0C000DD
:1013D00000FFFF00000080C060E0E000000000C0EF
:1013E000C0181CDCD830E0E0000000000000000065
:1013F00000000000000001030202020202030303D6
:101400000202020303020303030203011010181F68
:101410000F000003030202030100000000000F1F81
:10142000181018180F0F00001313121E0F030202DA
:101430000203030302020203030203030302030184
:10144000000000000003030203031010181F0F0028
:101450000001030202030103030203030202020369
:101460000302030303020301000000000000000068
:10147000000000000000000000000000000000006C
:10148000000000000000000000000000000000005C
:10149000000000000000000000000000000000004C
:1014A000000000000000000000000000000000003C
:1014B000000000000000000000000000000000002C
:1014C000000000000000000000000000000000001C
:1014D000000000000000000000000000000000000C
:1014E00000000000000000000000000000000000FC
:1014F00000000000000000000000000000000000EC
:10150000000000C0C0101818181800C0C00000006B
:10151000C0C00000C0C020E0E00000FFFF000000ED
:101520000000C0F030E0C0000080800030F0C0005B
:101530000000C0C0181CDCDC10C0C0000004ECE8D7
:10154000000000000080901030F0C0000040C0C0DB
:101550000000FFFF0000C0E060C0C000000000000D
:10156000000000000000000000000000000000007B
:101570000000000000000000000000000000000368
:10158000030000010302020202020303030202023B
:10159000030302030303020301000003030000002E
:1015A000000003030203030000030302020303021B
:1015B0000202030302030303020303020202030302
:1015C00000000000000303020203011010181F0FA7
:1015D00000000303000013131A1F0F000000000097
:1015E00000000000000000000000000000000000FB
:1015F00000000000000000000000000000000000EB
:1016000000000000000000000000000000000000DA
:1016100000000000000000000000000000000000CA
:1016200000000000000000000000000000000000BA
:1016300000000000000000000000000000000000AA
:10164000000000000000000000000000000000009A
:10165000000000000000000000000000000000008A
:10166000000000000000000000000000000000007A
:10167000000000000000000000000000000000006A
:10168000000000000000000000000000000000005A
:10169000000000000000000000000000000000004A
:1016A000000000000000000000000000000000003A
:1016B000000000000000000000000000000000002A
:1016C000000000000000000000000000000000001A
:1016D000000000000000000000000000000000000A
:1016E00000000000000000000000000000000000FA
:1016F00000000000000000000000000000000000EA
:1017000080802030303030008080000000808000F9
:1017100000808040C0C00000FEFE000080C0C0808D
:1017200080000000C0CC4C4840C080800000808019
:1017300080000000202060E0800000000000002009
:101740002060E0800000FEFE000000000060E080FD
:10175000000040C0C04040C0C0000818D8D81000E9
:101760000000000000000000000000000000000079
:101770000000000000000000000000000000000069
:101780000307040404040406070704040407070409
:101790000607070407030000070700002727243D6A
:1017A0001F06040405050606030100002020303F43
:1017B0001F000007070404070300000000000707DC
:1017C00004040703000007070000070704040707D5
:1017D00004040405070607050404040407070000C1
:1017E00000000000000000000000000000000000F9
:1017F00000000000000000000000000000000000E9
:1018000000000000000000000000000000000000D8
:1018100000000000000000000000000000000000C8
:1018200000000000000000000000000000000000B8
:1018300000000000000000000000000000000000A8
:101840000000000000000000000000000000000098
:101850000000000000000000000000000000000088
:101860000000000000000000000000000000000078
:101870000000000000000000000000000000000068
:10188000000000000000B0B0A00000FEFE0000C09C
:10189000C0404040C080800000000080C0C0C00048
:1018A0000000000000000060E0800000C0C0404078
:1018B00040C080800000000000B0B0A00000FEFE2C
:1018C000000000000000000000000080802038B808
:1018D000B8308080000000008080000000C0C000A0
:1018E00000000000000000000000000000000000F8
:1018F00000000000000000000000000000000000E8
:10190000000000002020303F1F00000307040405F2
:1019100005363623070604040406030706070700F6
:101920000000000007070404070704040505060675
:10193000030100000000002020303F1F00000707C7
:1019400000000000003E3E606060203F3F0404074E
:1019500007040707042434343737043434270700D6
:101960000000000000000000000000000000000077
:101970000000000000000000000000000000000067
:101980000000000000000000000000000000000057
:101990000000000000000000000000000000000047
:1019A0000000000000000000000000000000000037
:1019B0000000000000000000000000000000000027
:1019C0000000000000000000000000000000000017
:1019D0000000000000000000000000000000000007
:1019E00000000000000000000000000000000000F7
:1019F00000000000000000000000000000000000E7
:101A000000000000000000000000000000000000D6
:101A100000000000000000000000000000000000C6
:101A200000000000000000000000000000000000B6
:101A300000000000000000000000000000000000A6
:101A40000000000000000000000000000000000096
:101A50000000000000000000000000000000000086
:101A60000000000000000000000000000000000076
:101A70000000000000000000000000000000000066
:101A80000000000000000000000000000000000056
:101A90000000000000000000000000F8F8F83838EE
:101AA00038383838383838383838383838383838B6
:101AB00038383838383838383838383838383838A6
:101AC000383838F8F8F80000000000000000000086
:101AD0000000000000000000000000000000000006
:101AE00000000000000000000000000000000000F6
:101AF00000000000000000000000000000000000E6
:101B000000000000000000000000000000000000D5
:101B10000000000000000000000000FFFFFF0000C8
:101B200000000000000000000000000000000000B5
:101B300000000000000000000000000000000000A5
:101B4000000000FFFFFF0000000000000000000098
:101B50000000000000000000000000000000000085
:101B60000000000000000000000000000000000075
:101B70000000000000000000000000000000000065
:101B80000000000000000000000000000000000055
:101B90000000000000000000000000FFFFFF000048
:101BA0000000000000000000000000000000000035
:101BB0000000000000000000000000000000000025
:101BC000000000FFFFFF0000000000000000000018
:101BD0000000000000000000000000000000000005
:101BE00000000000000000000000000000000000F5
:101BF00000000000000000000000000000000000E5
:101C000000000000000000000000000000000000D4
:101C100000000000000000000000000F0F0F0E0E7B
:101C20000E0E0E0E0E0E0E0E0E0E0E0E0E0E0E0ED4
:101C30000E0E0E0E0E0E0E0E0E0E0E0E0E0E0E0EC4
:101C40000E0E0E0F0F0F000000000000000000003D
:101C50000000000000000000000000000000000084
:101C60000000000000000000000000000000000074
:101C7000000103070F1F3F7FFF001027E8036400E8
:101C80000A00010000100001100001000000000027
:101C90000000000000003132333435363738392A3D
:101CA0003023070506040001020025730D0A0041D8
:101CB000542B48545450494E4954004F4B00415402
:101CC0002B485454505445524D0041542B485454C1
:101CD00050504152413D22434944222C310025734A
:101CE0003F70686F6E655F6E756D6265723D2573DE
:101CF0000041542B48545450504152413D225552BA
:101D00004C222C222573220041542B48545450411C
:101D10004354494F4E3D31002B4854545041435495
:101D2000494F4E3A004E6F20416374696F6E2052E6
:101D3000657370002B48545450414354494F4E3AF8
:101D40002025642C25642C25640041542B485454D0
:101D50005052454144004D4F544F52202564204F6E
:101D60004E210053657474696E6720534D53204DA6
:101D70006F64652E2E2E0041542B434D47463D3156
:101D80000041542B434E4D493D322C322C302C30E7
:101D90002C300041542B434D4744413D2244454C97
:101DA00020414C4C220041542B4346554E3D3100BE
:101DB00041542B4353434C4B3D3000534D53205221
:101DC000656164792E00687474703A2F2F3139334D
:101DD0002E352E34342E3139312F686F6D652F70CA
:101DE0006F73742F00756E6B6E6F776E00534D536B
:101DF0002066726F6D3A0054696D656F75742120AD
:101E000054727920616761696E2E002B434D543AFC
:101E10000041542B435245473F002B435245473A1C
:101E200020302C31002B435245473A20302C3500CE
:101E300041542B43474154543F002B434741545492
:101E40003A203100496E697420475052532E2E2E8D
:101E5000004154004E6F204154204F4B004E6F20E4
:101E60004353434C4B204F4B0057616974204E65E0
:101E700074776F726B2E2E2E004E6574204661694A
:101E80006C005761697420475052532E2E2E00412A
:101E90007474616368204661696C0041542B53413E
:101EA0005042523D332C312C22436F6E7479706551
:101EB000222C224750525322004E6F20436F6E74E3
:101EC0007970650041542B53415042523D332C31BF
:101ED0002C2241504E222C22257322006D63696E04
:101EE0006574004E6F2041504E204F4B0041542BE3
:101EF00053415042523D312C310053415042522007
:101F00004F50454E204641494C0046657463682059
:101F100049502E2E2E0041542B53415042523D32F7
:101F20002C31002B53415042523A20312C312C009D
:101F30004E6F2049502052657370004E6F204950FB
:101F400020466F756E640047505253204F4B2C2033
:101F500049503A004D6F64756C6520496E69742E66
:101F60002E2E004154453000534D5320496E697464
:101F7000204661696C656421004750525320496EC8
:101F80006974204661696C656421000001002D4E72
:101F9000414E00494E460000010002008C1C080022
:101FA00004008E1C0C000005AF1C03000C05BB1CBC
:101FB0000C000F05BE1C03001B05BB1C14001E05F6
:101FC000CA1C03003205BB1C0C003505BE1C0300F7
:101FD0004105BB1C03004405BB1C0C004705BE1C8F
:101FE00003005305BB1C10005605081D0D006605B7
:101FF000181D0F007305251D0C008205BE1C030073
:102000008E05BB1C0D009105181D0C009E05BE1C05
:102010000300AA05BB1C0C00AD054A1D0300B90551
:10202000BB1C0C00BC05BE1C0300C805BB1C140077
:10203000CB05631D0A00DF05771D1200E905811D30
:102040001300FB05931D0A000E06A61D0B001806C3
:10205000B01D0B002306BB1D1F002E06C61D080069
:102060004D06E51D0A005506ED1D14005F06F71D1F
:10207000060073060B1E09007906111E0B0082066E
:102080001A1E0B008D06251E0A009806301E0A0037
:10209000A2063A1E0D00AC06441E0300B906511EEE
:1020A0000300BC06BB1C0900BF06541E0B00C8067B
:1020B000B01D0300D306BB1C0C00D6065D1E10002D
:1020C000E206691E0900F206791E0D00FB06821E5B
:1020D0000C0008078F1E1E0014079B1E030032070A
:1020E000BB1C0B003507B91E03004007BB1C0A00D0
:1020F0004307E31E0D004D07ED1E03005A07BB1CEE
:1021000010005D07FA1E0C006D070A1F0D0079070D
:10211000161F0D008607231F0B009307301F0D00AD
:102120009E07231F0D00AB07231F0C00B8073B1FA2
:102130000D00C407471F0F00D107541F0500E0071B
:10214000631F0300E507511E1100E807681F120016
:10215000F907791F01006C098C1F0000F894EE2725
:10216000ECBBF1E0F5BFE5BFE0936C008DE0A2E0D1
:10217000BB27ED938A95E9F780E090E1A0E0B1E01C
:10218000ED930197E9F7E8E9FFE1859195910097D3
:1021900061F0A591B59105901590BF01F0010590F2
:1021A0000D920197E1F7FB01F0CFEFEFEDBFE0E11A
:1021B000EEBFC0E0D5E00C94F215EA93FA93EFB7C6
:1021C000EA931A930A931BB10CB1E12FEC7189F4D5
:1021D000E92D9394F0E0E050F74F0083E4E6E91531
:1021E00009F49924B394E4E6EB1519F4BB2468943C
:1021F00021F809911991E991EFBFF991E9911895A9
:102200001A93BB20F1F3E82D8394F0E0E050F74FF0
:102210001081E4E6E81509F48824F894BA947894D7
:10222000E12F199108951895AA9321970E9453229E
:1022300000E010E0AF81B0E0E8E0F0E00E941022A2
:10224000EE8330E0EE813E1750F520E0E8852E1752
:1022500020F5F8010F5F1F4FA985BA85EA0FFB1F14
:10226000449150E05830B8F4E52F0E942020A42F6C
:102270000E94252071F0E22FAC85EA0FEA93E32F4C
:10228000EE0FEE0FEE0FAC85EA0FE50FAE2F0E94BA
:10229000521A5F5FE7CF2F5FD9CF3F5FD3CF0E9446
:1022A0005A222D960895BA93AA93EAEAFCE1FA938A
:1022B000EA93EA81FB810E942A2084E00E94101D9B
:1022C000269622960895BA93AA930E94552200E07A
:1022D00010E020E030E00E942F20E0E0EA93AB85A0
:1022E000BC850E94D01EEE81FF812E173F0748F566
:1022F000E0E0EB1530F4E885F98531970E171F07FC
:102300000CF00EC0F8010F5F1F4FAA85BB85EA0FC6
:10231000FB1FFF93EF9374DFAF91BF91EC93E8CF76
:102320000E942F20AE81BF810E941D1F309711F0A7
:10233000E1E011C0A1E0B0E00E94BF212F5F3F4F5C
:10234000D2CF0E942F20AE81BF810E941D1FA0E02E
:10235000B0E00E94EF210E945C222C960895BA936F
:10236000AA932297D350E0E0E883E9830E945322A6
:1023700020E030E040E050E00E943420E0E7FAE066
:102380000E943A208E2E9E2EBB24E89421F8A0E0D5
:10239000B5E00E9443200E944F20ACE0B5E093DFFF
:1023A000E03059F4AFE0B5E00E9443200E94542091
:1023B000ABE1B5E088DFE0E0DBC0AEE1B5E00E9474
:1023C00043200E945420A2E3B5E07DDFE03059F4C1
:1023D000A5E3B5E00E9443200E945420A1E4B5E0AB
:1023E00072DFE0E0C5C0FE013896FA93EA93EEEDA5
:1023F000FCE1FA93EA93FE01E25FFC4F0190F08169
:10240000E02D0E942A20FE01E05FFC4F0190F08148
:10241000E02D0E942A2088E00E94E21C2C96FE01FA
:10242000E85FFD4FFA93EA93E1EFFCE1FA93EA9358
:10243000FE013C960E942A200E945920DE01A85FDE
:10244000BD4F0E9443200E944F20A4E4B5E03BDF33
:10245000E03059F4A7E4B5E00E9443200E945420E4
:10246000A3E5B5E030DFE0E083C00E945E20A6E592
:10247000B5E00E944320E8E8F3E1FA93EA93A6E688
:10248000B5E021DFE030A9F40E943420A3E7B5E0F5
:102490000E94411BA4EFB1E00E94BF21A2E8B5E079
:1024A0000E9443200E945420AEE8B5E00CDFE0E03B
:1024B0005FC0FE01E85FFE4FFA93EA93A1E9B5E041
:1024C0000E941D1F8F0100240016010621F11A939E
:1024D0000A93E4E3FDE1FA93EA93EDB7FEB731978F
:1024E0000E942B223F932F93EDB7FEB731970E94A6
:1024F0002B225F934F93FE0172960E942A208CE05C
:102500000E94991E60964F915F912F913F91E33009
:10251000A0E0FA0759F0AEE9B5E00E9443200E941E
:102520005420AAEAB5E0CFDEE0E022C0ADEAB5E093
:10253000BADE0E945E20FE01E85FFE4F0E9463202B
:10254000E8EBFBE0FA93EA93A9EBB5E0BCDEACEB79
:10255000B5E00E9443200E945420A8ECB5E0B3DE11
:10256000E8ECF0E0E417F50711F4E1E001C0E0E089
:102570000E945A222C96DD5F0895639783E1A0E0C4
:10258000B0E0E6E9FCE10E9461221A930A9300E0C0
:102590000330C0F5E5B3E760E5BB15B2E02FF0E02E
:1025A000DE015296AE0FBF1FEC91A1E00E946A209F
:1025B000E5BB10E0143020F50E946F20A12D0E9491
:1025C0002520E1F4AAE0B0E00E94BF210E946F2024
:1025D000A12D0E94252091F40E946F20A12D0E9420
:1025E0002520D1F3A3E01A9FF001DE011296AE0F71
:1025F000BF1FEE27A00FBE1FEC9105C01F5FDACFF3
:102600000F5FC6CFE0E01981088165960895BA93FF
:10261000AA9364970E94552228EE33E0E88DF98D45
:10262000E130A0E0FA0711F412E00DC0E230A0E0C2
:10263000FA0711F413E007C0E330A0E0FA0711F441
:1026400014E001C035C0FE013496FA93EA93E6E542
:10265000FDE1FA93EA93EC8DFD8D0E94EA210E9440
:102660002D220E9459200E94C817EAE0EA93E4E173
:10267000EA93DE0116960E94411B13B0E12FA1E000
:102680000E94D121E129E3B9819904C000240216F6
:1026900003060CF007C0A1E0B0E00E94BF2121506A
:1026A0003040F2CF13B0E12FA1E00E946A20E3B9DD
:1026B0000E945C226A9608950E943420ABECB5E03B
:1026C0000E94411BAFEDB5E00E947820A9EEB5E075
:1026D0000E947820ABEFB5E0E6DD0E947E20AEE000
:1026E000B6E00E947820A8E1B6E00E9478200E941F
:1026F0008220A3E2B6E00E948720E1E00895A3973C
:102700000E9453220EE216E020E030E040E050E06C
:10271000E8E3F8E00E948A20E0E0F0E00E948A20EE
:10272000EEA1FFA1309729F00E949320A8A5B9A59A
:1027300004C00E949320ADE4B6E00E94E01E0E9417
:102740003420A5E5B6E00E94411B0E948220DE01F4
:1027500018960E94411BE0E0EA93E4E1EA93ACE9B9
:10276000B8E00E948720ACE9B8E0D19749F0ACE925
:10277000B8E0D29729F0ACE9B8E0D39709F063C08C
:102780001A930A93DE011896EADDE03009F454C08A
:102790000E943420E0E7F6E00E943A20EA93E0E26B
:1027A000EA93E0E7FAE10E949820E0E4EA93EAE2A3
:1027B000EA93ACE9B8E00E94411BE0E0E8A740E002
:1027C00050E0483CE0E05E075CF4D7DEE8A7E0308C
:1027D00039F4AAE0B0E00E94BF214F5F5F4FF1CF14
:1027E000E8A5E03069F40E94C817EAE0EA93E9E15D
:1027F000EA93AFE5B6E00E94411BA8ECB0E019C037
:10280000ECE9F8E0A8A5B0E0EA17FB0751F40E9454
:10281000C817E0919C08F0E0F0979F01D901F7DE1E
:102820000AC00E943420E0E7F2E10E949820ACE266
:10283000B1E00E94BF2106C00E943420E0E7F6E12B
:102840000E949F2006C00E943420E0E7FEE00E9424
:102850009F20E89420F80E945A22A99608951A937E
:10286000E0E0EB1510F420FE01C058C0C9DC1E2FBB
:10287000E0916409E03071F51A30D9F4E09165090E
:10288000F0E0E85CF74FA0E0A083E8E3F8E0FA931B
:10289000EA93A3E7B6E00E941D1F309731F0E1E014
:1028A000E0936409E0E0E0936609E0E0E093650905
:1028B00010C01D3071F0A0916509A33650F4E0916D
:1028C0006509EF5FE0936509E150F0E0E85CF74FE0
:1028D000108323C01A3089F4E0916609F0E0E456D1
:1028E000F74FA0E0A083689420F8E0E0E09364094B
:1028F000E0936509E093660910C01D3071F0A09166
:102900006609A33650F4E0916609EF5FE09366092B
:10291000E150F0E0E456F74F1083A2CF0C94C016BC
:102920000E94AA20F801015010403097F9F0A9E761
:10293000B6E00E94B220A2E8B6E0C5DCE03079F44F
:10294000FE013296FA93EA93E0E8F0E0FA93EA9314
:102950000E945420ADE8B6E0B6DCE03011F0E1E0D2
:102960001EC0A8EEB3E00E94BF21DCCF17C00E94BA
:10297000AA20F80101501040309781F0A8E9B6E094
:102980000E94B220A2EAB6E09EDCE03011F0E1E065
:1029900006C0A8EEB3E00E94BF21EBCFE0E01981B2
:1029A0000881EF96EF9624960895EF972197D150DE
:1029B0000E9453220E945E20E89421F80E94342055
:1029C000ACEAB6E00E94411BA9EBB6E00E94BD2034
:1029D0000E945420ACEBB6E076DCE03041F40E947B
:1029E0008220AFEBB6E00E948720E0E0F5C0A8ECC3
:1029F000B6E00E94BD200E945420A3EDB6E063DC47
:102A0000E03041F40E948220A6EDB6E00E948720CB
:102A1000E0E0E2C00E943420A2EEB6E00E94411B3A
:102A20007FDFE03041F40E948220A2EFB6E00E94F6
:102A30008720E0E0D1C00E943420ABEFB6E00E94D6
:102A4000411B95DFE03041F40E948220A8E0B7E00E
:102A50000E948720E0E0C0C0A4E1B7E00E94BD2052
:102A60000E945420A2E3B7E02EDCE03041F40E9443
:102A70008220A5E3B7E00E948720E0E0ADC0FE0120
:102A8000EA5FFE4FFA93EA93E4ECFEE1FA93EA93ED
:102A9000ECEDFEE10E942A200E945920DE01AA5F8F
:102AA000BE4F0E94BD200E944F20A0E4B7E00BDC87
:102AB000E03041F40E948220A3E4B7E00E94872026
:102AC000E0E08AC0ADE4B7E00E94BD20E0E3F5E7B6
:102AD000FA93EA93AAE5B7E0F6DBE03041F40E940E
:102AE0008220ADE5B7E00E948720E0E075C00E943B
:102AF0003420ADE6B7E00E94411B0E945E20A9E7AA
:102B0000B7E00E94BD20E0E1F7E2FA93EA93A6E87D
:102B1000B7E0D9DBE03041F40E948220A3E9B7E0BE
:102B20000E948720E0E058C00E949320AEE9B7E001
:102B30000E941D1F8F01ABEAB7E00E94ED1E0E0F31
:102B40001F1FD801AC91A03219F40F5F1F4FF9CFAE
:102B50009801D901EC91E03039F0AC91AD3021F021
:102B6000D901AC91AA3009F403C02F5F3F4FF1CFD8
:102B7000F901E01BF10BAF0100240416050644F037
:102B80000E948220A8EBB7E00E948720E0E024C0EA
:102B90004031E0E05E0714F04FE050E0E8E2F8E09A
:102BA0000E94C220DA010E94BE1EA8E2B8E0A40F73
:102BB000B51FE0E0EC930E943420A4ECB7E00E9443
:102BC000411B0E948220A8E2B8E00E94411BA8EBB2
:102BD000BBE00E94BF21E1E00E945A22EF962796B7
:102BE000DF5F08952697E0E0EABBEBBBE7BBE0EFD1
:102BF000E8BBE7E0E4BBE0EFE5BBE0E0E1BBE2E03F
:102C0000E2BBECE3E2B9E0E0E3B9E0936100E0931A
:102C10006200E0936400E0936500E0BFE7E0E3BF9B
:102C2000E0E0E2BFE1BFEFBDEEBDEDBDECBDE7BD55
:102C3000E6BDEBBDEABDE9BDE8BDE0937900E093F8
:102C40007800E5BDE4BDE3BDE0938B00E0938A002E
:102C5000E0938900E0938800E0938100E093800096
:102C6000E0938700E0938600E0938500E093840082
:102C7000E0938300E0938200E1E0E7BFE0E0E093CF
:102C80007D00E0936A00EABFE9BFEBB9E8E9EAB981
:102C9000E6E0E0939500E0E0E0939000E3E3E9B93B
:102CA000E0E0E0939A00E0E8E8B9E0E0E0BDE6B9F2
:102CB000EDB9E0937400E0E8E4BFE4BFECE8F0E0D5
:102CC000E883F983E0E0EA83EB83EC83ED83DE01C4
:102CD000DED0ECE8F0E00E94C72078940E94342017
:102CE000A1EDB7E00E94411BA8EAB1E60E94BF2116
:102CF000A0EEB7E00E947820A5EEB7E00E94782011
:102D0000DBDCE03039F40E948220A8EEB7E00E94BC
:102D1000411BFFCF4ADEE03039F40E948220A9EF48
:102D2000B7E00E94411BFFCF0E943420E0E7F2E0B1
:102D3000FA93EA93E0E8EA93A0E476DA90DD20FCE7
:102D4000DEDCFCCFFFCF0000E0916200E061E093A9
:102D5000620000000895E0916200EF7E0E94CC20A6
:102D6000EF7D0E94CC20EF7BE093620008951A93E0
:102D7000EADF19B3E0916200EF7EE0936200E12F99
:102D800019910895AA931A930E94D120EB7FE093A2
:102D90006200E981EF5F1E2F10FF04C0E091620026
:102DA000E06203C0E0916200EF7DE093620011FFFA
:102DB00004C0E0916200E06403C0E0916200EF7B38
:102DC000E0936200D4DFE078E9F718815EC0AA934F
:102DD000A981D8DFE09162000E94D72056C0E0911F
:102DE0006809EA93E0916709EF73E064AE2FEFDFC3
:102DF000E0916809EA93E0916909E86BAE2FE7DF9B
:102E00000895AA93E981E0936709E295EF70E6954A
:102E1000E695E0936809E881E0936909E0DF35C051
:102E2000A0916709AF5FA0936709A03818F0E0E0B0
:102E3000E0936709E0916709EF7331F4E091670966
:102E4000EA93A0916909DDDF0895AA93A09168092A
:102E500099DFE0916200E4600E94CC200E94D720BC
:102E60000C94681BA09168098DDF0E94D120E4605A
:102E7000E09362007CDF0895AA93E981EA93E981F7
:102E80000E94E220EFDFABDFEDDF22960895BA93D8
:102E9000AA931A93E0916100E0610E94E820E86043
:102EA0000E94E820E4600E94E820E068E09361006E
:102EB000E0916200E068E0936200E0916100E0620E
:102EC0000E94E820E064E093610045DFE091620049
:102ED000EF77E0936200A4E6B0E00E94BF21E091AA
:102EE0006200E068E093620010E0123040F41A9350
:102EF000AFE36DDF1A931395A0EC69DFF6CFE1E045
:102F0000E0930B08E0E0E0930C08E981FA81309748
:102F1000A9F0A981BA810E9423220E94C720A98119
:102F2000BA8112960E942322E0932408F093250888
:102F3000A981BA8114960E9423220AC0E0E0F0E041
:102F40000E94C720E0E0F0E0E0932408F093250819
:102F5000E0932608F0932708E1E0E0931108E0935E
:102F60001208E0931308EFEFE0931408E1E0E09318
:102F70001B08ECE1F8E0FA93EA93EFEFEA93A8E09C
:102F8000B0E00E94D01E04D0E1E01881239608959D
:102F90000E94552200E030E0E0910C08E03009F09A
:102FA0000FEF383078F4E0E0EA93A32F3F5F29DF9A
:102FB00010E0A12F1F5FA03820F4A02F0E94ED2069
:102FC000F8CFEFCFE0E0EA93A0E01BDFE0E0EA9388
:102FD000A0E06CD30E945C2224960895AA931A93D1
:102FE0000A93AC81A03818F4AB81A03408F016C065
:102FF000EC81EA93AC8140DF1E2FF1DEEB81E770BC
:10300000A1E00E94D1210E2FEA81E03011F0102BB7
:1030100003C0E02FE0951E23A12F17DF198108813F
:1030200025960895AA931A93ED81EA93AD8124DF42
:103030001E2FD5DEE981E73011F0E83039F4EB815D
:10304000EA93AA810E94971FEB8308C0E33021F422
:10305000EB81E095EB8302C0E03021F4EA81E0955A
:103060001E2302C0E23029F4EA81AB81EA231E2B41
:103070000EC0E13029F4EA81AB81EA231E2707C0A4
:10308000E43029F4EA81E095AB81EA2B1E23A12FDD
:103090000E94ED20188126960895AA9323970E94F6
:1030A0005322A889A03848F4AF85A03430F4AE8507
:1030B000A03019F0AD85A03009F4C6C1EE85E887CF
:1030C000A889BB27EE85F0E0AE0FBF1FA138E0E076
:1030D000BE0720F0A889E0E8EA1BEE872D85AF85C2
:1030E000BB27ED85F0E0AE0FBF1FA134E0E0BE07C7
:1030F00020F0AF85E0E4EA1BED87A985A63009F052
:103100005BC0EC85E13009F49FC1E33039F4E09114
:103110002608F0912708309709F496C10885ED85B7
:10312000E695E695E6953E2FE22FE77019F4AD851A
:103130002A17E9F0A02FBB27E32FF0E00E94F5212A
:10314000AA85BB850E94F120269526952695532FAA
:103150005F935F5FE22FAF91EA1748F0102FE12FE6
:103160001150E03019F00E94F620F9CFF1CFAE8572
:103170000A1711F1EE85AA85BB85F0E00E94F120C7
:10318000ED85E77009F03F5F20E02F932F5FE32F7D
:10319000AF91AE1788F41E851F931F5FE02FAF918C
:1031A000AE1718F40E94F620F7CFEE85AE81BF81EE
:1031B000F0E00E94F120E9CFEF85E7703E2FED852A
:1031C000E03009F441C1EA85FB85EE83FF8310E01E
:1031D0000889303009F065C0AD85A83008F45CC0BE
:1031E000E985E03011F0E33009F402C0E73009F47A
:1031F00002C0E83009F402C0E63009F402C0E93048
:1032000009F402C0EA3021F40A93E8890E94E2201E
:103210001F931F5FEE85AF91AE17B8F5A985A63055
:1032200061F420DEDCDD0E940321FA93EA931ADECA
:10323000AE2F0E94DE1FF4DD27C0E985E93011F4CE
:1032400050E00EC0EA3011F45FEF0AC00E94032183
:103250000E940C215E2FE985E73011F0E83021F45F
:103260000E9412215E2F06C0E33011F4509502C077
:10327000E03021F4A52F0E94ED2006C00E94162107
:10328000EFEFEA93AD85CEDEC3CFEF85E85FEF8742
:10329000ED85E850ED87CFC05D8520E0E0E0ED876B
:1032A0007AC0E32FAD85AE0FA93020F42D85E0E084
:1032B000ED8703C0E8E0E31B2E2F3A93A22F0E9474
:1032C0008C1F4E2FE985E630F1F41F931F5FEE85CA
:1032D000AF91AE17B8F40E941C21AE2FE32F0E94CD
:1032E000D9210E942321E32FA42F0E94D921E09508
:1032F000E1215E2B0E940321FA93EA93A52F0E94FD
:10330000DE1FE3CF2CC0E93011F450E003C0EA30F7
:10331000A9F45FEF0E941221AE2FE32F0E94D1216A
:103320005E2F1F931F5FEE85AF91AE1730F40E94A2
:1033300016214A93A0E076DEF4CF11C01F931F5FE1
:10334000EE85AF91AE1758F40E942E21AE2FE32FD9
:103350000E94D121EA934A93AD8564DEEFCFED85DB
:10336000E03009F471C0AD85A83028F4ED85E21B8A
:103370005E2FE0E003C0532FED85E850ED8710E0AD
:10338000EF85E85FEF87E8E0E31B2E2F0889EA85E9
:10339000FB85EE83FF83E52FF0E0E059F34E449187
:1033A000E985E630E1F41F931F5FEE85AF91AE171C
:1033B000A8F40E941C21AE2FE22F0E94D1210E946E
:1033C0002321E22FA42F0E946A205E2B0E9403215A
:1033D000FA93EA93A52F0E94DE1FE5CF2CC0E930B7
:1033E00011F450E003C0EA30A9F45FEF0E9412210B
:1033F000AE2FE22F0E94D9215E2F1F931F5FEE8513
:10340000AF91AE1730F40E9416214A93A0E00ADE75
:10341000F4CF11C01F931F5FEE85AF91AE1758F424
:103420000E942E21AE2FE22F0E94D921EA934A93C7
:10343000AD85F8DDEFCFE885AA85BB85F0E0EA0F22
:10344000FB1FEA87FB87BBCE0E945A226196089534
:103450000E943B2124F0E0E0F0E00C94951FA8814D
:10346000B981A038E0E0BE0724F0EFE7F0E00C946B
:10347000951FE881F9810C94951F0E943B2124F04F
:10348000E0E0F0E00C94951FA881B981A034E0E061
:10349000BE0724F0EFE3F0E00C94951FE881F9817A
:1034A0000C94951FAA93E981EA93E981EA93A0918C
:1034B0000B0894DD0C94951FBA93AA9323970E944E
:1034C00042218F01002E012A19F4E0E0F0E05FC0F4
:1034D0000E9449210F820E9449210E820E944921A7
:1034E0000886EB85A885EA1718F4E0E0F0E04FC005
:1034F000F8010F5F1F4F5491A885BB27EE27A50F3A
:10350000BE1FEB85F0E0EA17FB0718F0E0E0F0E003
:103510003EC0EE81E695E695E6954E2FEE81E7708A
:1035200009F04F5FEF81E030A1F0A985BA85EC93F7
:10353000A885EB85EA1BF0E0DF01EF81F0E00E9457
:10354000F521DF01E42FF0E00E94F521E00FF11FEB
:103550001EC09801E52FF0E00E0F1F1FA885AF5F7A
:10356000A887A150EB85AE1760F4F9012F5F3F4F9C
:10357000A491B0E0E42FF0E00E94F5210E0F1F1F90
:10358000EDCFF901E491A985BA85EC93F8010E9489
:103590005A222C960895E0E0E0930D08A0910E08C1
:1035A000BB270E944E21F0E0AE0FBF1FE091120832
:1035B000F0E0AE0FBF1F61DFE0930E080895AA93FD
:1035C00021970E944221309709F455C0AF81AA305B
:1035D00009F44FC0EF81EA93DE0117966DDFAF016A
:1035E000309709F44AC0E0911108AE81EA0F3E2FEE
:1035F000A0910D08BB27F0E0EA0FFB1F8F010138F7
:10360000E0E01E0718F0032F1127C5DFE0910D0839
:10361000EA93E0910E08EA93E885EA930E944E212E
:10362000EA93E1E0EA935A934A93A7E036DDE0910A
:103630000D08AE81EA0FEA93E0910E08EA93E0915B
:103640001108EA930E944E210E945521E0910D0835
:10365000EA93A0910E080E944E21EA0FEA933A9352
:10366000E09112080E945521E0E8F0E0E017F10730
:1036700011F491DF02C000930D080E945A2228968F
:103680000895BA93AA931A93EC81EA93AC810ED071
:10369000A981BA81ED91A983BA831E2FE03019F078
:1036A000A12F8DDFF5CF18810C94DE1EAA93A9817E
:1036B000BB27CEDEE0930D08A881BB27DEDEE093BA
:1036C0000E080C94951FAA935D9BFECFE881ECB980
:1036D00021960895BA93AA93AA81F5DFA881B981AA
:1036E0000E945F210C94DC1FBA93AA931A930A9349
:1036F000AA81BB8112960E942322309729F1AA81C8
:10370000BB8114960E9423228F01309761F0023012
:10371000E0E01E0780F0F80131978F01AA81BB819C
:103720001496ED93FC93AA81BB8112960E945F21AF
:103730003197AC81A083AA81BB810E942322FF2301
:1037400012F00E945F2106C0AA81BB81EFEFFFEF5C
:10375000ED93FC93198108810C94DE1EBA93AA9311
:1037600026970E94532210E0AC85BD85E0E0F0E092
:10377000ED93FC93EA89FB893196EA8BFB8B3197B9
:10378000E4912E2FE03009F415C1E12FE03039F437
:10379000253211F411E002C00E9465210AC1E13016
:1037A000A9F4253219F40E94652102C112E040E01B
:1037B00000E02D3211F401E0FCC02B3211F44BE299
:1037C000F8C0203211F440E2F4C002C0E23039F413
:1037D00050E013E0203311F40068EBC003C0E33085
:1037E00009F0E7C0203310F02A3308F007C0AAE040
:1037F0005A9F502DE22FE0535E0FDBC0E22FE336DD
:1038000049F40E946C21E889F989A481AA930E9455
:103810007221CEC0E33741F40E946C210E947821CE
:103820000E94ED1E1E2F0AC0E03761F40E946C2139
:103830000E9478210E94F91E1E2F086002600F77F7
:1038400030E034C0E43611F0E93611F4046002C00F
:10385000E53731F4EAE7FCE1EE83FF8315E00CC0C5
:10386000E83511F4086003C0E83709F0A1C0E4E8C6
:10387000FCE1EE83FF8314E002FF14C00E946C2180
:103880000E948221AB85AA233AF4EA85FB850E9437
:10389000CD21EA87FB874DE2403011F01F5F01C068
:1038A0000B7F04C00E946C210E94822100FD11C088
:1038B000151778F407FF08C002FF04C00B7F242F00
:1038C000115001C020E301C020E20E946521515047
:1038D000EFCF312F01FF17C03030A1F003FF06C03A
:1038E000EE81FF812591EE83FF8305C0AE81BF810C
:1038F0002D91AE83BF830E946521503009F0515055
:103900003150EACF4BC020E3EE81FF810E94272295
:10391000E887F987EE81FF813296EE83FF83E885A1
:10392000F985AA85BB85AE17BF0750F02F5FA88524
:10393000B985EA85FB85EA1BFB0BEA87FB87EFCF9E
:103940002A3328F003FF02C0295F01C0295D04FD6E
:103950001AC0213320F4A885B985119709F409C04C
:10396000531710F000FF01C013C020E207FF0BC087
:1039700020E3006102FF07C00B7F4A930E9472217F
:10398000503009F051500E946521503009F05150DB
:103990003150A885B985129708F0B5CF00FF08C04F
:1039A000503031F05150E0E2EA930E947221F8CF9A
:1039B00010E0E0CEAC85BD850E9423220E945A22F1
:1039C00064960895FF92F82E26970E9455220E9431
:1039D0008A21309719F4EFEFFFEF1DC0DE01169634
:1039E0000E94C9218D010E948A21EE83FF83E0E0BD
:1039F000E887E987DE011A960E949121E4E7FBE15E
:103A0000FA93EA93DE011A96A9DE9F01AE81BF8187
:103A1000E0E0EC93F9010E945C222A96FF90089561
:103A2000FF92F82E26971A930A93DE0114960E94AD
:103A3000C9218D01E0E0EC83ED83EE83EF83DE01AD
:103A400018960E949121EAE6FBE1FA93EA93DE01DF
:103A5000189684DE198108812896FF900895BA93FC
:103A6000AA931A93A981BA81E0E0EC93AB81BC815F
:103A7000EC911E2FE03019F0E0E0EC9316C0A98124
:103A8000BA8111960E942322309771F0E981FA8160
:103A9000A181B281EC911E2FE03029F0A981BA8179
:103AA00011960E945F2101C010E0E12F18810C9453
:103AB000DE1EFF92BA93AA9324970E945322E0E05D
:103AC000F0E0E887F9874E2FE889F9893196E88B8D
:103AD000F98B3197E4913E2FE03009F423C10E9425
:103AE0009621C1F0EDB7FEB7FA93EA934F930E9487
:103AF0009B214F913E2FE03019F00E94962109F44E
:103B000007C00E94A1211CF4EFEFFFEF0DC1EACF27
:103B1000432F07C1353209F0ECC050E0E889F9893C
:103B20003591E88BF98B303310F03A3308F007C049
:103B3000AAE05A9F502DE32FE0535E0FEFCF3030B5
:103B400009F4F0C0EDB7FEB7FA93EA934F930E94E1
:103B50009B214F912E2FAE2F0E940620E03039F08E
:103B60000E94A1211CF4EFEFFFEFDEC0EBCF20306D
:103B700009F4CFC0422F503009F45FEFE32FE33652
:103B800099F40E94A621EDB7FEB7FA93EA934F93FA
:103B90000E949B214F91D801EC930E94A1211CF41B
:103BA000EFEFFFEFC1C09FC0E33741F50E94A621B0
:103BB000E52F5150E030F1F0EDB7FEB7FA93EA93FC
:103BC0004F930E949B214F913E2FE03019F00E94AD
:103BD000962139F00E94A1211CF4EFEFFFEFA4C061
:103BE00009C01F930F930F5F1F4FE32FAF91BF913A
:103BF000EC93DECFD801E0E0EC9375C06894F1F867
:103C0000E894F2F8E32FE43611F0E93619F4E89479
:103C1000F1F802C0E53711F42AE008C0E83711F4E2
:103C200020E104C0E53209F464C07CC0E0E0EE832A
:103C3000EF836894F0F8E52F5150E03009F444C068
:103C4000EDB7FEB7FA93EA934F930E949B214F91F1
:103C50003E2FE13238F40E94A1211CF4EFEFFFEF78
:103C600063C017C0F1FC08C06894F1F83D3211F44C
:103C7000F2F8E1CF3B32F9F2203131F4A32F0E9468
:103C80001120E03031F009C0A32F0E94FD1FE03069
:103C900021F4F0FC47C0432F17C0313610F03755E0
:103CA00005C0313410F0375301C03053E22FAE81DC
:103CB000BF81F0E00E94F521DF01E32FF0E00E94D8
:103CC000F120E894F0F8B7CF0E94A621F2FE06C0DA
:103CD000EE81FF810E94CD21EE83FF83EE81FF8183
:103CE000D801ED93FC93E885F9853196E887F9874B
:103CF00018C0EDB7FEB7FA93EA934F930E949B2149
:103D00004F91E31771F00E94A1211CF4EFEFFFEF38
:103D10000BC0E885F985309719F4EFEFFFEF04C089
:103D200001C0D2CEE885F9850E945A226296FF90A2
:103D30000895FF92F82E23971A930A930E94B121B7
:103D4000309719F4EFEFFFEF14C0DE0111960E94D7
:103D5000C9218D010E94B121EB83FC83DE01159600
:103D60000E949121EFE2FDE1FA93EA93DE011896B9
:103D7000A0DE198108812596FF900895BA93AA9331
:103D800099818881009641F0BD81AC81FB81EA81F7
:103D900061916D930197E1F7FD81EC810C948A1F8D
:103DA000BA93AA93B981A881109631F0FC81EB8176
:103DB0006A8161931197E9F7EB81FC81259608955B
:103DC000BA93AA93E991F991A991B991CD01619121
:103DD0006D936623E1F7FC010895BA93AA93A99124
:103DE000B991EE27FF276D91662311F03196FBCF35
:103DF0000895BA93AA93AA27BB27E991F991059050
:103E0000002011F01196FBCFFD010895BA93AA93FB
:103E1000BB81AA816C91662361F0F981E881C89524
:103E2000002029F031966015D1F7FD0104C01196EC
:103E3000F1CFEE27FF270C94FB1FBA93AA93AA8118
:103E4000BB81CD01E881F9817191772311F4FC01E7
:103E500009C06D916717C1F30196DC01662391F7E4
:103E6000EE27FF270C94FB1FBA93AA93BB81AA816C
:103E7000882799276D91662349F0F981E88105909B
:103E8000002021F06015D9F70196F4CFFC01B3C0F2
:103E9000BA93AA931A930A93EC81FD81309779F42F
:103EA000E0916A09F0916B09309719F4E0E0F0E0D5
:103EB0002FC0E0916A09F0916B09EC83FD830E94A9
:103EC000B8210E94341FAC81BD81EA0FFB1FEC8337
:103ED000FD83AC81BD81EC91E03041F4E0E0E09302
:103EE0006A09E0936B09E0E0F0E012C00E94B8219B
:103EF0000E94061F8F01309729F0D8010F5F1F4FD6
:103F0000E0E0EC9300936A0910936B09EC81FD816A
:103F10001981088126960895AA93E881F0E0E05976
:103F2000F34EA491E9810E94D12122960895AA938B
:103F30001A93E981E73011F0EA3019F410910B0877
:103F400009C0E93019F410910C0804C0E830A1F45C
:103F500010911B08E0910C08E03049F0103019F086
:103F6000EFEF188129C0EA81E095188125C0103053
:103F700019F4E0E0188120C0EA8118811DC0BA93CD
:103F8000AA93EA81E13021F4E881F981E49114C037
:103F9000E23029F4A881B9810E9432220DC0E330B9
:103FA00041F4A881B981E0912408F0912508099590
:103FB00003C0A881B981EC9123960895AA93EB815F
:103FC000E03029F4E881A981BA81EC9314C0E23091
:103FD00031F4E881A981BA810E943E220CC0E3300D
:103FE00051F4E981FA81FA93EA93AA81E0912608D3
:103FF000F0912708099524960895AA93E1E0F99194
:10400000F03310F0FA3308F0EE270895AA93E1E0B8
:10401000F991F03229F0F93010F0FE3008F0EE2777
:104020000895AA93E1E0F991F05340F0FA3038F0A6
:10403000FF75F750FA3010F0F03108F0EE270895D0
:10404000A1E0B0E00E94E1210895B0E0EA23FB2363
:1040500030970895662777270E942D220895EA85D4
:10406000FB85FA93EA9308950E94C817E0E0EA936B
:10407000EA930895FA93EA93E0E8EA93A0E40E94B1
:104080001411E0E008950E945311FE01E85FFE4F15
:10409000FA93EA93E0E0F1E0FA93EA930895E0ED11
:1040A000F7E0FA93EA930895E8EEF3E0FA93EA93DF
:1040B000089584E00E94E21C28960895E0E08E2E88
:1040C0009E2EBB240895FA93EA93E0E0F1E0FA9380
:1040D000EA9308950E94D121E095E121089513B259
:1040E000E12FF0E0DE011E96AE0FBF1FEC91A8CFCE
:1040F0000E945311A8EEB3E00C94BF21A0EDB7E0ED
:104100000C94BF21E0E0EA93EAE0EA9308950E946C
:10411000411BF4CFFA93EA93A6E0BDE10E94481F49
:10412000EEA3FFA30895FE013696FA93EA9308954D
:10413000FA93EA93E0E8EA93A0E20C941411FA935C
:10414000EA93E0E8EA93A0E40E941411ACE2B1E043
:104150000C94BF21EF97EF9722971A930A9304E1EB
:1041600010E008950E945311FE013296FA93EA93EB
:10417000E0E8F0E0FA93EA9397CF0E945311FE0132
:104180003696A1CFFA93EA931A930A930895E0938F
:104190000F08F09310080895E0936200E091620028
:1041A0000895E0E0EABBE0916200E860F5CFE77FC8
:1041B000E0936200EFEFEABBE881EBBB0E94A3163D
:1041C0000C94AB16E695E695E695AE2F0C94011788
:1041D000E0936100E091610008950E9425170C941E
:1041E0001017EA0FFB1FEE83FF830895EC85EA9317
:1041F000EF81F8853196EF83F8873197FA93EA9348
:10420000A0E00C94DE1FEC85EA93EF81F8853196EF
:10421000EF83F8873197089566277727DF01CB0171
:104220000C94BF1F5A93AA850C94971F0A93039569
:10423000E889EA935A9308950A930395A8890E94FE
:104240003C17E42308955E2FEC85EA93AF81B8858F
:10425000882799270E94BF1F1E2E08950A93039551
:10426000E889EA93EE85EA93E985FA853196E9874C
:10427000FA873197D1CFBA93AA93A881B9810E94C6
:104280004F2208950E945322E0910F08F0911008E8
:104290000895F8010F5F1F4F04900895E0910F08F3
:1042A000F09110083196E4910895EA93E0E0EA93E2
:1042B000E0E0F0E0FA93EA93A9E00C944D18ED9158
:1042C000FD913196FE93EE9308952A93AD85BE85B8
:1042D000EF85F88909950895E889F9893497E88B7D
:1042E000F98B0895AD85BE85EF85F8890995089508
:1042F000A889B98914960E942322EE83FF83AE8198
:10430000BF810895A889B98914960E942322EA875B
:10431000FB870895DE011C960E94C9210E9423227A
:1043200008950E94C9210E9423222CCFA32F0E940E
:104330000620E0300895AC85BD85EE85FF850995A2
:104340000895AA85BB85AC91A0300895EE85FF85C0
:104350003497EE87FF87AE85BF8514960D911C912B
:104360000895DE0117960E94C9210E942322089514
:10437000EC81FD81FA93EA93AC81BD81089510969A
:1043800039F0A89580ED97E00197F1F71197C9F7FB
:1043900008950024AF0DB01D0895F195E195F0400A
:1043A0000895EE230E2EEA2F19F0EE0F0A94E9F786
:1043B0000895EE230E2EEA2F19F0E6950A94E9F7F8
:1043C0000895EE230E2EFD0121F0EE0FFF1F0A943B
:1043D000E1F708956F2F660F660B762F0895EA17A1
:1043E000FB07E1E009F4EE270895FA9FF02DEB9F1B
:1043F000F00DEA9FE02DF10D08950024112490E1C5
:10440000AA0FBB1F001C111C0E1A1F0A18F40E0E57
:104410001F1E01C0A1609A9599F7FD01D001089572
:1044200004D0EBDF0EF4B9DF0895E894F7FF02C083
:10443000B4DF6894B7FF06C0A095B095119600F858
:10444000039400FA0895ED91FC9111970895059059
:10445000F491E02D089560E070E07A936A93FA9306
:10446000EA930895E199FECFFF93FFB7F894AEBBAE
:10447000BFBBE09AEDB3FFBFFF910895E19B02C07F
:10448000A895FCCF9FB7F894AEBBBFBBE09A8DB3A5
:10449000E81719F0EDBBE29AE19A9FBF0895002456
:1044A0000A160B0608955A934A933A932A931A933D
:1044B0000A9308955D814C813B812A81198108818D
:1044C0000895AC0FBD1F05900D928A95E1F70895F0
:00000001FF
