:020000000C945E
:100002002A110C9400000C9400000C9400000C9433
:1000120000000C9400000C9400000C9400000C945E
:1000220000000C9400000C9400000C9400000C944E
:1000320000000C9400000C9400000C9400000C943E
:10004200AA110C9400000C9459110C9400000C9409
:1000520000000C9400000C9400000C9400000C941E
:1000620000000C9400000C9400000C9400000C940E
:1000720000000C9400000C9400000C9400000C94FE
:1000820000000C9400000C940000050720600000A2
:1000920000000000005F00000007000700147F144A
:1000A2007F14242A7F2A12231308646236495522B8
:1000B200500005030000001C2241000041221C00E8
:1000C200082A1C2A0808083E0808005030000008C8
:1000D20008080808003030000020100804023E51D1
:1000E20049453E00427F4000426151494621414517
:1000F2004B311814127F1027454545393C4A49496E
:100102003001710905033649494936064949291E14
:100112000036360000005636000000081422411452
:100122001414141441221408000201510906324920
:1001320079413E7E1111117E7F494949363E414146
:1001420041227F4141221C7F494949417F090901DE
:10015200013E414151327F0808087F00417F410042
:100162002040413F017F081422417F404040407FB0
:100172000204027F7F0408107F3E4141413E7F0915
:100182000909063E4151215E7F091929464649491E
:10019200493101017F01013F4040403F1F20402083
:1001A2001F7F2018207F631408146303047804035C
:1001B200615149454300007F41410204081020413A
:1001C200417F00000402010204404040404000011F
:1001D20002040020545454787F484444383844443C
:1001E2004420384444487F3854545418087E090146
:1001F20002081454543C7F0804047800447D4000F3
:100202002040443D00007F10284400417F40007C94
:10021200041804787C0804047838444444387C1474
:10022200141408081414187C7C0804040848545454
:100232005420043F4440203C4040207C1C2040206D
:100242001C3C4030403C44281028440C5050503C48
:100252004464544C44000836410000007F00000012
:100262004136080002010204027F4141417F000041
:10027200000000000000000000000000000000007C
:10028200000000000000000000000000000000006C
:10029200000000000000000000000000000000005C
:1002A200000000000000000000000000000000004C
:1002B200000000000000000000000000000000003C
:1002C200000000000000000000000000000000002C
:1002D200000000000000000000000000000000001C
:1002E200000000000000000000000000000000000C
:1002F20000000000000000000000000000000000FC
:10030200F8000000000000000000000000000040B3
:1003120030400000000000000000000080000000EB
:1003220000000000000000F80000000000000000D3
:10033200000000000000000030D0000000000000BB
:1003420000000000000000000000000000000000AB
:10035200000000000000000000000000000000009B
:10036200C000000000E0A01010180800000000000B
:100372000000000000001C13130E000080CC780067
:100382000F101010100C1A121C1010101008101060
:100392000810100E00000000000C0A090F101010C7
:1003A200900E00000000001F000080CC78000000CA
:1003B2000000E08000000000807F001C92D27C10D0
:1003C20010101818181412121A16101211090B060E
:1003D2000E121210100C12120C000000001C101051
:1003E200100F18101010110E000000000000000085
:1003F20000000000000000000000000101000000F9
:1004020000000000000000000000000000000000EA
:1004120000000000000000000000000000000000DA
:1004220000000000000000000001010000000000C8
:1004320000000001010101010000010101000000B2
:1004420000000000000000000000000000000000AA
:10045200000000000000000000000000000000009A
:10046200000000000000000000000000000000008A
:10047200000000000000000000000000000000007A
:10048200000000000000000000000000000000006A
:10049200000000000000808040406020000000005A
:1004A2000000000000008080C040402000000000EA
:1004B200000000E00000000000000000000000005A
:1004C200000000000000000000000000000000002A
:1004D200000000000000000000000000000000001A
:1004E200000000000000000000000000000000000A
:1004F20000000000000000000000000000000000FA
:1005020000000000704040433C60404040204040BA
:100512004040424240404346380000000000000094
:1005220038604040404041424438306040404030B2
:100532004848303F40404040204040404038000062
:1005420000000000000030C00040403800000002FF
:1005520022E0000000000000000000000000000097
:100562000000000000000000000000000000000089
:100572000000000000000000000000000000000079
:100582000000000000000000000000000202020063
:100592000000000000000000000000000000000059
:1005A2000000000000000000000000000000000049
:1005B200000000000000000202020000060A000023
:1005C200000000000406030100000202020004060B
:1005D2000301000000000000000000000000000015
:1005E2000000000000000000000000000000000009
:1005F20000000000000000000000000000000000F9
:1006020000000000000000000000000000000000E8
:1006120000000000000000000000000000000000D8
:1006220000000000000000000000000000000000C8
:1006320000000000000000000000000000000000B8
:1006420000000000000000000000000000000000A8
:100652000000000000000000000000000000000098
:100662000000000000000000000000000000000088
:100672000000000000000000000000000000000078
:100682000000000000000000000000000000000068
:100692000000000000000000000000000000000058
:1006A2000000000000000000000000000000000048
:1006B2000000000000000000000000000000000038
:1006C2000000000000000000000000000000000028
:1006D2000000000000000000000000000000000018
:1006E2000000000000000000000000000000000008
:1006F20000000000000000000000000000000000F8
:10070200C0C0000000000000000000008080000067
:10071200FCFC000000000080808000000010B0A0FF
:100722000000000000004040C0C0000000000000C7
:100732000000FCFC000000808000000000000000BF
:10074200FCFC00000000000000000000004040C06F
:10075200C0000000000000C0C000000080C0C0C097
:10076200C0000000000000000000000000000000C7
:100772000000000000000000000C0C00000E0E083B
:10078200080F0F084868686F6F6868686F4F00004D
:10079200070F08080C060F0D0B0F0C0808080F0FA7
:1007A20000000000000E0E08080F074040617F3F66
:1007B20000000F0F00004F4F697F3F000000000054
:1007C2000F0F4040617F3F00000000000E0E08083E
:1007D2000F0700000E0E08080F0F08080B0F0C0C75
:1007E20004040000000000000000000000000000FF
:1007F20000000000000080800000000000000000F7
:1008020000000000000000000000000000000000E6
:1008120000000000000000000000000000000000D6
:1008220000000000000000000000000000000000C6
:1008320000000000000000000000000000000000B6
:1008420000000000000000000000000000000000A6
:100852000000000000000000000000000000000096
:100862000000000000000000000000000000000086
:100872000000000000000101000000000000000074
:100882000000000000000000000000000000000066
:100892000000000000000000000000000000000056
:1008A2000000000000000000000000000000000046
:1008B2000000000000000000000000000000000036
:100B92000000000000808000000000000000000053
:100BA2000000000000000000000000000000000043
:100BB2008080000000000000000000000000000033
:100BC2000000000000000000000000000000000023
:100BD2008080000000000000000000008080000013
:100BE2000000000000808000000000000000000003
:100BF20000000000000080800000808000008080F3
:100C02000000C0C00018F8E0000000E0E080000032
:100C120002F6F40000FFFF000080C0E0B070F08038
:100C2200000000F0F0000000000020E0E000008082
:100C3200FF7F203236F4E00000040CECEC040008E4
:100C4200ECEC80000080C0E0B0F0F000000000009A
:100C5200FFFF000060F39BFAF0000080FF7F20306E
:100C620030F0E0000003FFFC000000000000000084
:100C7200000000000000010100000101000001016C
:100C8200000001010101010101050D0D0D09010124
:100C92000101010000000101010100010101010146
:100CA200010D0D090100000008080C0F07010101E8
:100CB2000101010101010101010101010101010122
:100CC2000101010101010001010101000000000018
:100CD2000001010101010101010101010101010103
:100CE20001010101010101000000000000000000FB
:100CF20000000000000000000000000000000000F2
:100D020000000000000000000000000000000000E1
:100D120000000000000000000000000000000000D1
:100D220000000000000000000000000000000000C1
:100F52000000E0E0000000000000000000000000CF
:100F6200000000808000000000000000000000007F
:100F72000000000000000038784243434343607899
:100F820078404040787840607878447C3C000008A3
:100F9200F8F80000707242467E380000000000F04F
:100FA200F002060600FCFC0000787C4CD8F8604099
:100FB20042437B7B63404040787840607878447C51
:100FC2003C0000000000787E467C78000008F8F8BB
:100FD20000003F7F40406030786C5C7C6040404065
:100FE200787843637B7B467C3C0000000000000075
:100FF20000000000000000000000000000000000EF
:1010020000000000000000000000000000020203D7
:1010120003010000000000000000000000000001C9
:1010220003030203030101000002020203010000A4
:1010320000000000000000000000000000000000AE
:101042000000000000000000000000020203030193
:10105200000000000000000000000000000000008E
:10106200000000000000000000000000000000007E
:10107200000000000000000000000000000000006E
:10108200000000000000000000000000000000005E
:10109200000000000000E0E000000000000000008E
:1010A200000000000000000000000000000000003E
:1010B20080808000000000008080000000000000AE
:1010C2000000000080808080C0400000000000001E
:1010D20000000000E0E0000000000000000000004E
:1010E20000000000000000000000000000000000FE
:1010F200000000000000000000006060000038787E
:101102004243434343607878404040787840607877
:1011120078447C3C00007F7F0000000000787E461F
:101122007C780000707040467E784040407878437A
:10113200637B7B4278784040407D7D000000000068
:10114200387840404143466E787040406030786C59
:101152007C7C00003F7F4040404078784040407CAB
:101162007C00000000000000000000000000000001
:10117200000000000000000000000000000000006D
:10118200000000000000000000000000000000005D
:10119200000000000000000000000000000000004D
:1011A200000000000000000000000000000000003D
:1011B200000000000000000000000000000000002D
:1011C200000000000000000000000000000000001D
:1011D200000000000000000203030303030B0F0FD3
:1011E20002000000000000000000000000000000FB
:1011F20000000000000000000000000000000000ED
:1012020000000000000000000000000000000000DC
:1012120000000000000000000000000000000000CC
:1012220000000000000000000000000000000000BC
:1012320000000000000000000000000000000000AC
:10124200000000000000000000000000000000009C
:10125200000000000000000000000000000000008C
:10126200000000000000000000000000000000007C
:10127200000000000000000000000000000000006C
:10128200000000000000000000000000000000005C
:10129200000000000000000000000000000000004C
:1012A200000000000000000000000000000000003C
:1012B200000000000000000000000000000000002C
:1012C200000000000000000000000000000000001C
:1012D200000000000000000000000000000000000C
:1012E20000000000000000000000000000000000FC
:1012F20000000000000000000000000000000000EC
:1013020000000000000000000000000000000000DB
:1013120000000000000000000000000000000000CB
:1013220000000000000000000000000000000000BB
:1013320000000000000000000000000000000000AB
:10134200000000000000000000000000000000009B
:10135200000000000000000000000000000000008B
:10136200000000000000000000000000000000007B
:1013720000000000C0C0101818181800C0C00000FB
:1013820000C0C00000C0C020E0E0000040C0C000BB
:101392000080901030F0C00000000000808010300B
:1013A2003000E0E00000C0E060C0C000001018D8CB
:1013B200D818000000C0C00000C0C020E0E000005B
:1013C200000000C0F030E0C0000040C0C00000FFDC
:1013D200FF00000080C060E0E000000000C0C01814
:1013E2001CDCD830E0E0000000000000000000003B
:1013F20000000000010302020202020303030202D0
:10140200020303020303030203011010181F0F005B
:101412000003030202030100000000000F1F181066
:1014220018180F0F00001313121E0F0302020203FB
:101432000303020202030302030303020301000087
:1014420000000003030203031010181F0F00000125
:101452000302020301030302030302020203030263
:10146200030303020301000000000000000000006B
:10147200000000000000000000000000000000006A
:10148200000000000000000000000000000000005A
:10149200000000000000000000000000000000004A
:1014A200000000000000000000000000000000003A
:1014B200000000000000000000000000000000002A
:1014C200000000000000000000000000000000001A
:1014D200000000000000000000000000000000000A
:1014E20000000000000000000000000000000000FA
:1014F20000000000000000000000000000000000EA
:1015020000C0C0101818181800C0C0000000C0C0E9
:101512000000C0C020E0E00000FFFF00000000006B
:10152200C0F030E0C0000080800030F0C000000059
:10153200C0C0181CDCDC10C0C0000004ECE80000D5
:1015420000000080901030F0C0000040C0C00000D9
:10155200FFFF0000C0E060C0C0000000000000000B
:101562000000000000000000000000000000000079
:101572000000000000000000000000000003030063
:101582000001030202020202030303020202030336
:101592000203030302030100000303000000000032
:1015A2000303020303000003030202030302020215
:1015B2000303020303030203030202020303000004
:1015C2000000000303020203011010181F0F0000A5
:1015D2000303000013131A1F0F0000000000000095
:1015E20000000000000000000000000000000000F9
:1015F20000000000000000000000000000000000E9
:1016020000000000000000000000000000000000D8
:1016120000000000000000000000000000000000C8
:1016220000000000000000000000000000000000B8
:1016320000000000000000000000000000000000A8
:101642000000000000000000000000000000000098
:101652000000000000000000000000000000000088
:101662000000000000000000000000000000000078
:101672000000000000000000000000000000000068
:101682000000000000000000000000000000000058
:101692000000000000000000000000000000000048
:1016A2000000000000000000000000000000000038
:1016B2000000000000000000000000000000000028
:1016C2000000000000000000000000000000000018
:1016D2000000000000000000000000000000000008
:1016E20000000000000000000000000000000000F8
:1016F20000000000000000000000000000008080E8
:101702002030303030008080000000808000008077
:101712008040C0C00000FEFE000080C0C08080008B
:101722000000C0CC4C4840C0808000008080800017
:101732000000202060E08000000000000020206007
:10174200E0800000FEFE000000000060E08000007B
:1017520040C0C04040C0C0000818D8D810000000E7
:101762000000000000000000000000000000000077
:10177200000000000000000000000000000003075D
:101782000404040404060707040404070704060704
:10179200070407030000070700002727243D1F0650
:1017A200040405050606030100002020303F1F0047
:1017B20000070704040703000000000007070404F1
:1017C20007030000070700000707040407070404D3
:1017D20004050706070504040404070700000000C7
:1017E20000000000000000000000000000000000F7
:1017F20000000000000000000000000000000000E7
:1018020000000000000000000000000000000000D6
:1018120000000000000000000000000000000000C6
:1018220000000000000000000000000000000000B6
:1018320000000000000000000000000000000000A6
:101842000000000000000000000000000000000096
:101852000000000000000000000000000000000086
:101862000000000000000000000000000000000076
:101872000000000000000000000000000000000066
:1018820000000000B0B0A00000FEFE0000C0C0409A
:101892004040C080800000000080C0C0C000000046
:1018A200000000000060E0800000C0C0404040C076
:1018B20080800000000000B0B0A00000FEFE00002A
:1018C20000000000000000000080802038B8B8301E
:1018D2008080000000008080000000C0C000000086
:1018E20000000000000000000000000000000000F6
:1018F20000000000000000000000000000000000E6
:1019020000002020303F1F000003070404050536B5
:10191200362307060404040603070607070000002F
:10192200000007070404070704040505060603016F
:1019320000000000002020303F1F000007070000C9
:101942000000003E3E606060203F3F040407070441
:1019520007070424343437370434342707000000DF
:101962000000000000000000000000000000000075
:101972000000000000000000000000000000000065
:101982000000000000000000000000000000000055
:101992000000000000000000000000000000000045
:1019A2000000000000000000000000000000000035
:1019B2000000000000000000000000000000000025
:1019C2000000000000000000000000000000000015
:1019D2000000000000000000000000000000000005
:1019E20000000000000000000000000000000000F5
:1019F20000000000000000000000000000000000E5
:101A020000000000000000000000000000000000D4
:101A120000000000000000000000000000000000C4
:101A220000000000000000000000000000000000B4
:101A320000000000000000000000000000000000A4
:101A42000000000000000000000000000000000094
:101A52000000000000000000000000000000000084
:101A62000000000000000000000000000000000074
:101A72000000000000000000000000000000000064
:101A82000000000000000000000000000000000054
:101A9200000000000000000000F8F8F8383838387C
:101AA20038383838383838383838383838383838B4
:101AB20038383838383838383838383838383838A4
:101AC20038F8F8F8000000000000000000000000F4
:101AD2000000000000000000000000000000000004
:101AE20000000000000000000000000000000000F4
:101AF20000000000000000000000000000000000E4
:101B020000000000000000000000000000000000D3
:101B1200000000000000000000FFFFFF00000000C6
:101B220000000000000000000000000000000000B3
:101B320000000000000000000000000000000000A3
:101B420000FFFFFF00000000000000000000000096
:101B52000000000000000000000000000000000083
:101B62000000000000000000000000000000000073
:101B72000000000000000000000000000000000063
:101B82000000000000000000000000000000000053
:101B9200000000000000000000FFFFFF0000000046
:101BA2000000000000000000000000000000000033
:101BB2000000000000000000000000000000000023
:101BC20000FFFFFF00000000000000000000000016
:101BD2000000000000000000000000000000000003
:101BE20000000000000000000000000000000000F3
:101BF20000000000000000000000000000000000E3
:101C020000000000000000000000000000000000D2
:101C12000000000000000000000F0F0F0E0E0E0E5D
:101C22000E0E0E0E0E0E0E0E0E0E0E0E0E0E0E0ED2
:101C32000E0E0E0E0E0E0E0E0E0E0E0E0E0E0E0EC2
:101C42000E0F0F0F00000000000000000000000057
:101C52000000000000000000000000000000000082
:101C620000000000000000000000000000006D63A2
:101C7200696E65740000000103070F1F3F7FFF00BC
:101C82001027E80364000A000100001000011000A0
:101C9200010000000000000041542B4854545049F8
:101CA2004E4954004F4B0041542B48545450544514
:101CB200524D0041542B48545450504152413D2200
:101CC200434944222C310025733F70686F6E655F73
:101CD2006E756D6265723D25730041542B485454F4
:101CE20050504152413D2255524C222C2225732202
:101CF2000041542B48545450414354494F4E3D31B6
:101D0200002B48545450414354494F4E3A004E6FB1
:101D120020416374696F6E2052657370002B4854C2
:101D22005450414354494F4E3A2025642C25642C8B
:101D320025640041542B4854545052454144006894
:101D42007474703A2F2F3139332E352E34342E31AC
:101D520039312F686F6D652F706F73742F00756E38
:101D62006B6E6F776E00534D532066726F6D3A0043
:101D72003200330054696D656F7574212054727995
:101D820020616761696E2E002B434D543A004D6FFE
:101D920064756C6520496E69742E2E2E0047505270
:101DA2005320496E6974204661696C6564210000A4
:101DB20025730D0A00003132333435363738392A6B
:101DC200302307050604000102004D4F544F5220F4
:101DD2002564204F4E21000052657374617274694C
:101DE2006E672053494D3830302E2E2E0041542B31
:101DF20053415042523D322C310041542B43474112
:101E020054543D300041542B43474154543D31001A
:101E120041542B4352455345540041542B4346559C
:101E22004E3D300041542B4346554E3D3100415406
:101E32004530004154004F4B0053494D383030205B
:101E42006E6F7420726573706F6E64696E672100C5
:101E520041542B4350494E3F004350494E00415498
:101E62002B435245473F0043524547002B435245BF
:101E7200473A0057616974696E6720666F72206E17
:101E82006574776F726B2E2E2E004E6574776F72AB
:101E92006B204F4B210041542B435351002B435392
:101EA200513A004E6F207369676E616C20616674EF
:101EB20065722025642072657472696573210A0057
:101EC20053657474696E6720534D53204D6F64657A
:101ED2002E2E2E0041542B4353434C4B3D30004198
:101EE200542B434D47463D310041542B434E4D49FF
:101EF2003D322C322C302C302C300041542B434DAF
:101F02004744413D2244454C20414C4C2200534D14
:101F1200532052656164792E00436F6E6E6563745F
:101F2200696E6720746F20475052532E2E2E004147
:101F3200542B53415042523D332C312C22436F6E6D
:101F420074797065222C2247505253220041542B3F
:101F520053415042523D332C312C2241504E222CBF
:101F6200222573220041542B53415042523D312CC1
:101F720031004665746368696E672049502E2E2EC3
:101F8200005341504252002B53415042523A004EAC
:101F92006F20495000436865636B696E6720496E24
:101FA2007465726E65742E2E2E0041542B48545463
:101FB200505445524D0041542B48545450494E49B7
:101FC200540041542B48545450504152413D2243F5
:101FD2004944222C310041542B4854545050415210
:101FE200413D2255524C222C22687474703A2F2F94
:101FF2007777772E676F6F676C652E636F6D220040
:1020020041542B48545450414354494F4E3D3000A3
:1020120048545450414354494F4E3A00496E7465F6
:10202200726E6574204F4B00496E7465726E6574F2
:10203200204661696C6564004E6F20726573706F33
:102042006E736521000001002D4E414E00494E463F
:10205200000001000200941C04000400961C0C0005
:1020620000059A1C03000C05A61C0C000F05A91CF8
:1020720003001B05A61C14001E05B51C0300320537
:10208200A61C0C003505A91C03004105A61C030073
:102092004405A61C0C004705A91C03005305A61CF9
:1020A20010005605F31C0D006605031D0F00730595
:1020B200101D0C008205A91C03008E05A61C0D0034
:1020C2009105031D0C009E05A91C0300AA05A61C70
:1020D2000C00AD05351D0300B905A61C0C00BC059E
:1020E200A91C0300C805A61C1F00CB05411D080042
:1020F200EA05601D0A00F205681D0200FC05C71C06
:102102000200FE05721D02000006741D1400020684
:10211200761D060016068A1D0F001C06901D120071
:102122002B069F1D15003D06DA1D0D005206EF1D00
:102132000B005F06FC1D0B006A06071E0A007506EF
:10214200121E0A007F061C1E0A008906261E0500B2
:102152009306301E03009806351E03009B06381EA8
:1021620017009E063B1E0900B506521E0500BE065C
:102172005B1E0900C306601E0500CC06691E07002F
:10218200D1066E1E1700D806751E0C00EF068C1EB7
:102192000700FB06981E040002079B1E06000607A6
:1021A2009F1E14000C07C21E0A002007261E0B00E9
:1021B2002A07D61E0A003507E11E12003F07EB1E52
:1021C20013005107FD1E0B006407101F16006F0756
:1021D2001B1F1E008507311F0D00A307671F030089
:1021E200B007381E0F00B307741F0D00C207EF1DA2
:1021F2000600CF07831F0800D507891F0800DD07E7
:10220200891F0600E507911F1500EB07971F0C00B9
:102212000008AC1F0C000C08B81F14001808C41FDB
:102222002A002C08D81F1000560802200C0066084D
:1022320012200C0072081E2010007E082A200D00B9
:102242008E083A200C009B08AC1F0100320C48207B
:102252000000F894EE27ECBBF1E0F5BFE5BFE09398
:102262006C008DE0A2E0BB27ED938A95E9F780E050
:1022720090E1A0E0B1E0ED930197E9F7E4E5F0E247
:1022820085919591009761F0A591B5910590159072
:10229200BF01F00105900D920197E1F7FB01F0CF2C
:1022A200EFEFEDBFE0E1EEBFC0E0D5E00C945514D6
:1022B200AA93EA93FA93EFB7EA931A930A931BB19C
:1022C2000CB1E12FEC71E9F4E091C508EF5FE09306
:1022D200C508E150F0E0E956F64F0083A091C50829
:1022E200A43619F4E0E0E093C508A091C408AF5FFA
:1022F200A093C408A43629F4E0E0E093C4086894EB
:1023020020F809911991E991EFBFF991E991A99109
:1023120018951A93E091C408E030E1F3E091C60801
:10232200EF5FE093C608E150F0E0E956F64F108106
:10233200A091C608A43619F4E0E0E093C608F89428
:10234200E091C408E150E093C4087894E12F199118
:1023520008956A937A93EA93FA93EFB7EA930E9405
:10236200E122EF5DFF4F6F4F7F4FE093C708F0937D
:10237200C8086093C9087093CA08E991EFBFF99140
:10238200E991799169911895AA9321970E94EA227D
:10239200AF81B0E0E8E0F0E00E942A25EE8330E071
:1023A200EE813E1750F520E0E8852E1720F5F80162
:1023B2000F5F1F4FA985BA85EA0FFB1F449150E0BA
:1023C2005830B8F4E52F0E94EF22A42F0E94F42285
:1023D20071F0E22FAC85EA0FEA93E32FEE0FEE0FD6
:1023E200EE0FAC85EA0FE50FAE2F0E94C31C5F5FB4
:1023F200E7CF2F5FD9CF3F5FD3CF0E9483252D96A2
:1024020008952497F8940E94E1220E944A25789424
:102412000E94452524960895BA93AA932297D350F1
:10242200E0E0E883E9830E947C2520E030E040E0A0
:1024320050E00E94F922E0E7FAE00E94FF220E94A7
:102442000823E89420F8A0E0B5E00E941023E0ED14
:10245200F7E0FA93EA93ACE0B5E00E944716E03069
:1024620061F4AFE0B5E00E9410230E941C23ABE1AF
:10247200B5E00E944716E0E0E8C0AEE1B5E00E9498
:1024820010230E941C23A2E3B5E00E944716E0300D
:1024920061F4A5E3B5E00E9410230E941C23A1E48D
:1024A200B5E00E944716E0E0D0C0FE013896FA93EC
:1024B200EA93E9ECFCE1FA93EA93FE01E25FFC4F56
:1024C2000190F081E02D0E942123FE01E05FFC4F8C
:1024D2000190F081E02D0E94212388E00E945D1F7F
:1024E2002C96FE01E85FFD4FFA93EA93ECEDFCE1D6
:1024F200FA93EA93FE013C960E9421230E9426232E
:10250200DE01A85FBD4F0E941023E0EDF7E0FA93D1
:10251200EA93A4E4B5E00E944716E03061F4A7E430
:10252200B5E00E9410230E941C23A3E5B5E00E949F
:102532004716E0E08AC0E0E00E940823A6E5B5E085
:102542000E941023E8E8F3E1FA93EA93A6E6B5E0E5
:102552000E944716E03091F40E94F922A3E7B5E009
:102562000E942B23A2E8B5E00E9410230E941C23A4
:10257200AEE8B5E00E944716E0E067C0FE01E85F02
:10258200FE4FFA93EA93A1E9B5E00E94A6218F01DA
:1025920000240016010621F11A930A93EFE1FDE1EE
:1025A200FA93EA93EDB7FEB731970E944F253F9316
:1025B2002F93EDB7FEB731970E944F255F934F934C
:1025C200FE0172960E9421238CE00E9413216096E4
:1025D2004F915F912F913F91E330A0E0FA0761F0B4
:1025E200AEE9B5E00E9410230E941C23AAEAB5E0DE
:1025F2000E944716E0E029C0ADEAB5E026D2E0E04D
:102602000E940823FE01E85FFE4FFA93EA93E0E09E
:10261200F1E0FA93EA93E8EBFBE0FA93EA93A9EB91
:10262200B5E00E944716ACEBB5E00E9410230E9471
:102632001C23A8ECB5E00E944716E8ECF0E0E41792
:10264200F50711F4E1E001C0E0E00E9483252C9639
:10265200DD5F0895A3970E947C250BEC15E020E036
:1026620030E040E050E0EFECF8E00E943123E0E09F
:10267200F0E00E943123EEA1FFA1309739F0FE0174
:102682003696FA93EA93A8A5B9A506C0FE01369636
:10269200FA93EA93AAEEB5E00E9469210E94F92218
:1026A200A2EFB5E00E94BC1D0E943A23DE011896FB
:1026B2000E94BC1DE0E0EA93E4E1EA93A3E3B9E0FF
:1026C2000E943F230E944523ACEFB5E00E945521B2
:1026D200E03089F00E944523AEEFB5E00E9455211B
:1026E200E03049F00E944523A0E0B6E00E94552167
:1026F200E03009F067C01A930A93DE0118968CDE67
:10270200E03009F456C00E94F922E0E7F6E00E94A8
:10271200FF22EA93E0E2EA93E0E7FAE10E944A2329
:10272200E0E4EA93EAE2EA93A3E3B9E00E94BC1D83
:10273200E0E0E8A740E050E0483CE0E05E0764F4F7
:102742000E949316E8A7E03039F4AAE0B0E00E94B4
:10275200CE244F5F5F4FF0CFE8A5E03069F40E94CE
:10276200391AEAE0EA93E9E1EA93A2E0B6E00E94CC
:10277200BC1DA8ECB0E01AC0E3E3F9E0A8A5B0E004
:10278200EA17FB0759F40E94391AE0913309F0E085
:10279200F0979F01D9010E94DD160AC00E94F9221A
:1027A200E0E7F2E10E944A23ACE2B1E00E94CE24CB
:1027B20008C00E94F922E0E7F6E10E9451230E943C
:1027C20058230AC00E94F922E0E7FEE00E9451234A
:1027D2000E945C230E94391AE89421F80E94832502
:1027E200A99608951A93A091C408A13010F021FE71
:1027F20001C058C08EDD1E2FE091FB09E03071F55B
:102802001A30D9F4E091FC09F0E0E153F74FA0E06F
:10281200A083EFECF8E0FA93EA93A6E1B6E00E9417
:10282200A621309731F0E1E0E093FB09E0E0E0938C
:10283200FD09E0E0E093FC0910C01D3071F0A091A9
:10284200FC09A33650F4E091FC09EF5FE093FC0928
:10285200E150F0E0E153F74F108323C01A3089F4BE
:10286200E091FD09F0E0ED5CF64FA0E0A0836894F2
:1028720021F8E0E0E093FB09E093FC09E093FD0915
:1028820010C01D3071F0A091FD09A33650F4E09103
:10289200FD09EF5FE093FD09E150F0E0ED5CF64FDA
:1028A2001083A1CF0C9431192697E0E0EABBEBBB71
:1028B200E7BBE0EFE8BBE7E0E4BBE0EFE5BBE0E06D
:1028C200E1BBE2E0E2BBECE3E2B9E0E0E3B9E093D2
:1028D2006100E0936200E0936400E0936500E0BF72
:1028E200E7E0E3BFE0E0E2BFE1BFEFBDEEBDEDBD7B
:1028F200ECBDE7BDE6BDEBBDEABDE9BDE8BDE093D9
:102902007900E0937800E5BDE4BDE3BDE0938B0080
:10291200E0938A00E0938900E0938800E0938100CD
:10292200E0938000E0938700E0938600E0938500C7
:10293200E0938400E0938300E0938200E1E0E7BF4C
:10294200E0E0E0937D00E0936A00EABFE9BFEBB903
:10295200E8E9EAB9E6E0E0939500E0E0E093900070
:10296200E3E3E9B9E0E0E0939A00E0E8E8B9E0E007
:10297200E0BDE6B9EDB9E0937400E0E8E4BFE4BF7E
:10298200ECE8F0E0E883F983E0E0EA83EB83EC83B0
:10299200ED83DE010E94B819ECE8F0E00E946023AA
:1029A20078940E94F922ACE1B6E00E942B230E94A7
:1029B20030170E946C170E94E3170E9406180E94AB
:1029C2002C18E03039F40E94F922ABE2B6E00E9402
:1029D2003F23EDCF0E94391A0E946523E0E7F2E01F
:1029E2000E945123FFDE21FE07C0E1E0E093FE09D1
:1029F20031DEE0E0E093FE09E091FE09E030A9F467
:102A020000DDDF01CB01E091CB08F091CC086091B1
:102A1200CD087091CE080E94DC24A135E3ECBE07FC
:102A2200E0E08E07E0E09E0708F40DC00E94A818BF
:102A3200E8DCE093CB08F093CC086093CD08709368
:102A4200CE080E94391AC8CFFFCFBA93AA93E2EBFD
:102A5200FDE1FA93EA93EA81FB810E94212384E05B
:102A62000E948B1F26960C94B619E0E00E94082360
:102A7200E89420F80895BA93AA932497E0E0E883B3
:102A8200E983EA83EB830E94EA2220E030E0AA8510
:102A9200BB850E947621AF01EA89FB89FA93EA930A
:102AA200E0E0EA93AB89BC890E943821EC85FD8580
:102AB2006E857F85AE81BF81888599850E94772545
:102AC20030F4E889F98931970E171F070CF059C0C5
:102AD200A091C408A13030F0E889F98931970E1726
:102AE2001F070CF02EC021970E948A11E883F8017B
:102AF2000F5F1F4FAB89BC89EA0FFB1FA881A08320
:102B0200F801AB89BC89AE0FBF1FE0E0EC93022E47
:102B1200032A19F4041715070CF411C0EB89FC8978
:102B2200FA93EA93AD85BE850E94A621309739F0CB
:102B320021E030E0E0E0EF83E887E987EA87219649
:102B4200C7CF022E032A61F0AE81BF8188859985A5
:102B5200A536E0E0BE07E0E08E07E0E09E0708F45D
:102B620001C00FC00E946923EE81FF8168857985CB
:102B7200EF5FFF4F6F4F7F4FEE83FF836887798749
:102B820095CFD801E0E0F0E00E9409250E9483255C
:102B920064960895BA93AA930E94EA2220E030E054
:102BA200EE85FF85FA93EA93AE85BF850E94A62142
:102BB200AF01042E052A09F463C0AC85BD850E94CD
:102BC20076214E0F5F1FDA01AC91A03221F0DA01BB
:102BD200AC91A93019F44F5F5F4FF5CFDA01EC9158
:102BE200E03029F0EA85FB85E017F1070CF448C0D4
:102BF200EA85FB85E017F10779F5DA01EC91E0301F
:102C020089F0AC91AC3271F0DA01AC91AD3051F097
:102C1200DA01AC91AA3031F0EE81FF8131972E17A3
:102C22003F070CF00FC0F9012F5F3F4FA885B98510
:102C3200EA0FFB1F0F01DA014F5F5F4FEC91D001EA
:102C4200EC93DBCFF901A885B985AE0FBF1FE0E099
:102C5200EC93E1E0F0E016C0DA01EC91E03019F01B
:102C6200AC91AC3209F403C04F5F5F4FF5CFDA018C
:102C7200AC91AC3211F44F5F5F4F0F5F1F4FAECF7D
:102C8200E0E0F0E00E94832560960895BA93AA934B
:102C92000E947E2500E010E020E030E00E946D23DB
:102CA200E0E0EA93AB85BC850E943821EE81FF818A
:102CB2002E173F0748F5A091C408A13030F0E885EF
:102CC200F98531970E171F070CF00FC0F8010F5F3F
:102CD2001F4FAA85BB85EA0FFB1FFF93EF930E944C
:102CE2008A11AF91BF91EC93E6CF0E946D23AE8122
:102CF200BF810E94A621309711F0E1E00FC00E942F
:102D020069232F5F3F4FD2CF0E946D23AE81BF81D7
:102D12000E94A621A0E0B0E00E9403250E94852522
:102D22002C960895639783E1A0E0B0E0E8EBFDE123
:102D32000E948A251A930A9300E00330C0F5E5B396
:102D4200E760E5BB15B2E02FF0E0DE015296AE0F70
:102D5200BF1FEC91A1E00E947223E5BB10E014308A
:102D620020F50E947723A12D0E94F422E1F4AAE02B
:102D7200B0E00E94CE240E947723A12D0E94F4226B
:102D820091F40E947723A12D0E94F422D1F3A3E0B3
:102D92001A9FF001DE011296AE0FBF1FEE27A00FA1
:102DA200BE1FEC9105C01F5FDACF0F5FC6CFE0E018
:102DB2001981088165960895BA93AA9364970E942F
:102DC2007E2528EE33E0E88DF98DE130A0E0FA07A8
:102DD20011F412E00DC0E230A0E0FA0711F413E0A2
:102DE20007C0E330A0E0FA0711F414E001C033C0D9
:102DF200FE013496FA93EA93ECECFDE1FA93EA933E
:102E0200EC8DFD8D0E94FE240E9451250E942623F6
:102E12000E94391AEAE0EA93E4E1EA93DE011696A7
:102E22000E94BC1D13B0E12FA1E00E94E524E1291C
:102E3200E3B9819904C00024021603060CF005C010
:102E42000E94692321503040F4CF13B0E12FA1E05A
:102E52000E947223E3B90E9485256A9608950E9412
:102E6200F922ADE3B6E00E94BC1D0E943615A2E530
:102E7200B6E00E948023AFE5B6E00E948023AAE676
:102E8200B6E00E948023A5E7B6E00E948623AFE762
:102E9200B6E00E948623A9E8B6E00E9486230E943B
:102EA2003615A3E9B6E00E9480230E943615A8E9F0
:102EB200B6E00E948C230E949723ABE9B6E00E9401
:102EC2003C15E03039F40E943A23AEE9B6E00E94A4
:102ED200BC1D089508950E947E250E94391A0E9401
:102EE2003615A5EBB6E00E948C230E949E23AEEB22
:102EF200B6E00E943C15E03031F00E946523ADE25D
:102F0200BAE00E94A5230E94391A0E943615A3EC4A
:102F1200B6E00E948C230E949723ACECB6E00E949C
:102F22003C15E030A9F00E94AB23E1EDF6E00E94EF
:102F3200B02371F00E943A23AFEFB9E00E94A523BB
:102F42000E94C0238F01E1E0F0E0E017F10749F0B1
:102F5200E0E0EA93EFE0EA93A8EDB6E00E94BC1D40
:102F6200D2CFE0E0EA93E4E1EA93AFEEB6E00E946A
:102F72002B23E1E00C945B1A0E943615ABEFB6E00E
:102F82000E948C230E949E23A2E0B7E00E943C157F
:102F9200E030B1F00E94F922ADE2BAE00E94BC1D1D
:102FA2000E94AB23E6E0F7E0FA93EA930E94C4237F
:102FB2000E94C92329F00E94C02335970CF049C012
:102FC200E0E008951A930A9300E010E00330E0E095
:102FD2001E0754F4D1DFE03011F0E1E013C03FDF0F
:102FE2007ADF0F5F1F4FF2CFE5EAFEE1FA93EA9331
:102FF200E3E0F0E060E070E00E94512584E00E948E
:103002008B1F26960991199108950E94F922ACE02E
:10301200B7E00E94BC1DA0E2B7E00E948623AAE2AC
:10302200B7E00E94D323A5E3B7E00E94D323AFE326
:10303200B7E00E94D323A1E5B7E00E9426150E94C3
:1030420058230E943A23A4E6B7E00E94BC1D0E94C6
:103052005823E1E008951A9310E00E94F922AFE6A6
:10306200B7E00E94BC1DA5E8B7E00E94D623EFE0BE
:10307200FAE0FA93EA93EFE4FFE1FA93EA93E0E7E6
:10308200FCE10E9421230E942623AFE0BAE00E94C5
:10309200D6230E943615A3EAB7E00E948C23E0E112
:1030A200F7E260E070E00E945125A0EBB7E00E94D9
:1030B2003C15E03031F00E946523ADE2BAE00E9497
:1030C2002B230E94F922A3EBB7E00E94BC1D133010
:1030D200B0F50E943615A2ECB7E00E948C230E9444
:1030E2009E23AFECB7E00E943C15E03011F10E9444
:1030F200AB23E5EDF7E00E94B023D9F00E94C02394
:10310200E130A0E0FA07A9F40E94AB23EDEDF7E06D
:10311200FA93EA93E2E0F0E0FA93EA930E94C92379
:1031220041F00E94F922AFEFB9E00E94BC1DE1E03C
:1031320097C01F5FA8EEB3E00E94CE24C8CF0E94C2
:10314200F922A5EEB7E00E94BC1DE0E089C00E9412
:10315200F922ABEEB7E00E94BC1D0E943615A0E03A
:10316200B8E00E9480230E943615ACE0B8E00E94CD
:1031720080230E943615A8E1B8E00E9480230E94B5
:103182003615ACE2B8E00E9480230E943615A6E50F
:10319200B8E00E9480230E9436150E94AB23E0E033
:1031A200F2E0FA93EA930E949E23A6E6B8E00E9418
:1031B2003C15E03039F12497E0E0EA83EB830E948A
:1031C200AB23ACE20E944821E883F983309739F0BF
:1031D200A881B98111960E941622EA83FB83AA81F3
:1031E200BB81A83CE0E0BE0729F40E94DC23A2E7F1
:1031F200B8E004C00E94DC23AEE7B8E00E94BC1D28
:10320200249606C00E94DC23AEE8B8E00E94BC1DF2
:10321200A4E6B0E00E94CE240E943615ABE9B8E0E5
:103222000E94802308950000E0916200E061E09333
:10323200620000000895E0916200EF7E0E94E123A7
:10324200EF7D0E94E123EF7BE093620008951A93E1
:10325200EADF19B3E0916200EF7EE0936200E12FB2
:1032620019910895AA931A930E94E623EB7FE093A3
:103272006200E981EF5F1E2F10FF04C0E09162003F
:10328200E06203C0E0916200EF7DE093620011FF13
:1032920004C0E0916200E06403C0E0916200EF7B51
:1032A200E0936200D4DFE078E9F718815EC0AA9368
:1032B200A981D8DFE09162000E94EC2356C0E09120
:1032C2002E0CEA93E0912D0CEF73E064AE2FEFDF4A
:1032D200E0912E0CEA93E0912F0CE86BAE2FE7DF22
:1032E2000895AA93E981E0932D0CE295EF70E6959B
:1032F200E695E0932E0CE881E0932F0CE0DF35C0D9
:10330200A0912D0CAF5FA0932D0CA03818F0E0E037
:10331200E0932D0CE0912D0CEF7331F4E0912D0C24
:10332200EA93A0912F0CDDDF0895AA93A0912E0CB1
:1033320099DFE0916200E4600E94E1230E94EC23A5
:103342000C94E31DA0912E0C8DDF0E94E623E46015
:10335200E09362007CDF0895AA93E981EA93E98110
:103362000E94F723EFDFABDFEDDF22960895BA93D9
:10337200AA931A93E0916100E0610E94FD23E86044
:103382000E94FD23E4600E94FD23E068E093610057
:10339200E0916200E068E0936200E0916100E06227
:1033A2000E94FD23E064E093610045DFE09162004A
:1033B200EF77E0936200A4E6B0E00E94CE24E091B1
:1033C2006200E068E093620010E0123040F41A9369
:1033D200AFE36DDF1A931395A0EC69DFF6CFE1E05E
:1033E200E093A708E0E0E093A808E981FA8130972A
:1033F200A9F0A981BA810E943D250E946023A9817A
:10340200BA8112960E943D25E093C008F093C1084C
:10341200A981BA8114960E943D250AC0E0E0F0E03D
:103422000E946023E0E0F0E0E093C008F093C1085E
:10343200E093C208F093C308E1E0E093AD08E093A3
:10344200AE08E093AF08EFEFE093B008E1E0E0935D
:10345200B708E8EBF8E0FA93EA93EFEFEA93A8E013
:10346200B0E00E94382104D0E1E01881239608954B
:103472000E947E2500E030E0E091A808E03009F0EB
:103482000FEF383078F4E0E0EA93A32F3F5F29DFB3
:1034920010E0A12F1F5FA03820F4A02F0E94022469
:1034A200F8CFEFCFE0E0EA93A0E01BDFE0E0EA93A1
:1034B200A0E076D30E94852524960895AA931A93B4
:1034C2000A93AC81A03818F4AB81A03408F016C07E
:1034D200EC81EA93AC8140DF1E2FF1DEEB81E770D5
:1034E200A1E00E94E5240E2FEA81E03011F0102BBA
:1034F20003C0E02FE0951E23A12F17DF1981088159
:1035020025960895AA931A93ED81EA93AD8124DF5B
:103512001E2FD5DEE981E73011F0E83039F4EB8176
:10352200EA93AA810E945822EB8308C0E33021F477
:10353200EB81E095EB8302C0E03021F4EA81E09573
:103542001E2302C0E23029F4EA81AB81EA231E2B5A
:103552000EC0E13029F4EA81AB81EA231E2707C0BD
:10356200E43029F4EA81E095AB81EA2B1E23A12FF6
:103572000E940224188126960895AA9323970E94F6
:103582007C25A889A03848F4AF85A03430F4AE85F4
:10359200A03019F0AD85A03009F4C6C1EE85E887E8
:1035A200A889BB27EE85F0E0AE0FBF1FA138E0E08F
:1035B200BE0720F0A889E0E8EA1BEE872D85AF85DB
:1035C200BB27ED85F0E0AE0FBF1FA134E0E0BE07E0
:1035D20020F0AF85E0E4EA1BED87A985A63009F06B
:1035E2005BC0EC85E13009F49FC1E33039F4E0912E
:1035F200C208F091C308309709F496C10885ED8599
:10360200E695E695E6953E2FE22FE77019F4AD8533
:103612002A17E9F0A02FBB27E32FF0E00E940F2525
:10362200AA85BB850E940624269526952695532FAA
:103632005F935F5FE22FAF91EA1748F0102FE12FFF
:103642001150E03019F00E940B24F9CFF1CFAE8572
:103652000A1711F1EE85AA85BB85F0E00E940624C7
:10366200ED85E77009F03F5F20E02F932F5FE32F96
:10367200AF91AE1788F41E851F931F5FE02FAF91A5
:10368200AE1718F40E940B24F7CFEE85AE81BF81EE
:10369200F0E00E940624E9CFEF85E7703E2FED852A
:1036A200E03009F441C1EA85FB85EE83FF8310E037
:1036B2000889303009F065C0AD85A83008F45CC0D7
:1036C200E985E03011F0E33009F402C0E73009F493
:1036D20002C0E83009F402C0E63009F402C0E93061
:1036E20009F402C0EA3021F40A93E8890E94F72320
:1036F2001F931F5FEE85AF91AE17B8F5A985A6306F
:1037020061F420DEDCDD0E941824FA93EA931ADECB
:10371200AE2F0E949F22F4DD27C0E985E93011F423
:1037220050E00EC0EA3011F45FEF0AC00E94182484
:103732000E9421245E2FE985E73011F0E83021F460
:103742000E9427245E2F06C0E33011F4509502C078
:10375200E03021F4A52F0E94022406C00E942B24EF
:10376200EFEFEA93AD85CEDEC3CFEF85E85FEF875B
:10377200ED85E850ED87CFC05D8520E0E0E0ED8784
:103782007AC0E32FAD85AE0FA93020F42D85E0E09D
:10379200ED8703C0E8E0E31B2E2F3A93A22F0E948D
:1037A2004D224E2FE985E630F1F41F931F5FEE851F
:1037B200AF91AE17B8F40E943124AE2FE32F0E94CE
:1037C200ED240E943824E32FA42F0E94ED24E095DB
:1037D200E1215E2B0E941824FA93EA93A52F0E94FE
:1037E2009F22E3CF2CC0E93011F450E003C0EA304D
:1037F200A9F45FEF0E942724AE2FE32F0E94E52455
:103802005E2F1F931F5FEE85AF91AE1730F40E94BB
:103812002B244A93A0E076DEF4CF11C01F931F5FE2
:10382200EE85AF91AE1758F40E944324AE2FE32FDA
:103832000E94E524EA934A93AD8564DEEFCFED85DD
:10384200E03009F471C0AD85A83028F4ED85E21BA3
:103852005E2FE0E003C0532FED85E850ED8710E0C6
:10386200EF85E85FEF87E8E0E31B2E2F0889EA8502
:10387200FB85EE83FF83E52FF0E0E858F34E449199
:10388200E985E630E1F41F931F5FEE85AF91AE1735
:10389200A8F40E943124AE2FE22F0E94E5240E9458
:1038A2003824E22FA42F0E9472235E2B0E94182438
:1038B200FA93EA93A52F0E949F22E5CF2CC0E9300C
:1038C20011F450E003C0EA30A9F45FEF0E9427240C
:1038D200AE2FE22F0E94ED245E2F1F931F5FEE8515
:1038E200AF91AE1730F40E942B244A93A0E00ADE77
:1038F200F4CF11C01F931F5FEE85AF91AE1758F43E
:103902000E944324AE2FE22F0E94ED24EA934A93B1
:10391200AD85F8DDEFCFE885AA85BB85F0E0EA0F3B
:10392200FB1FEA87FB87BBCE0E9483256196089521
:103932000E94502424F0E0E0F0E00C945622A8818A
:10394200B981A038E0E0BE0724F0EFE7F0E00C9484
:103952005622E881F9810C9456220E94502424F0C8
:10396200E0E0F0E00C945622A881B981A034E0E0B6
:10397200BE0724F0EFE3F0E00C945622E881F981CF
:103982000C945622AA93E981EA93E981EA93A091E1
:10399200A70894DD0C945622BA93AA9323970E9407
:1039A20057248F01002E012A19F4E0E0F0E05FC0F5
:1039B2000E945E240F820E945E240E820E945E2478
:1039C2000886EB85A885EA1718F4E0E0F0E04FC01E
:1039D200F8010F5F1F4F5491A885BB27EE27A50F53
:1039E200BE1FEB85F0E0EA17FB0718F0E0E0F0E01D
:1039F2003EC0EE81E695E695E6954E2FEE81E770A4
:103A020009F04F5FEF81E030A1F0A985BA85EC9310
:103A1200A885EB85EA1BF0E0DF01EF81F0E00E9470
:103A22000F25DF01E42FF0E00E940F25E00FF11FC8
:103A32001EC09801E52FF0E00E0F1F1FA885AF5F93
:103A4200A887A150EB85AE1760F4F9012F5F3F4FB5
:103A5200A491B0E0E42FF0E00E940F250E0F1F1F8B
:103A6200EDCFF901E491A985BA85EC93F8010E94A2
:103A720083252C960895E0E0E093A908A091AA0876
:103A8200BB270E946324F0E0AE0FBF1FE091AE0897
:103A9200F0E0AE0FBF1F61DFE093AA080895AA937A
:103AA20021970E945724309709F45FC0AF81AA3052
:103AB20009F459C0EF81EA93DE0117966DDFAF0179
:103AC200309709F454C0E091AD08AE81EA0F3E2F61
:103AD200A091A908BB27F0E0EA0FFB1F8F01013874
:103AE200E0E01E0718F0032F1127C5DFE091A908B7
:103AF200EA93E091AA08EA93E885EA930E94632494
:103B0200EA93E1E0EA935A934A93A7E036DDE09123
:103B1200A908AE81EA0FEA93E091AA08EA93E0913C
:103B2200AD08EA930E946324EA93E0E0EA930E94DC
:103B3200C423A9E022DDE091A908EA93A091AA0892
:103B42000E946324EA0FEA933A93E091AE08EA9363
:103B5200E0E0EA930E94C423A9E00FDDE0E8F0E090
:103B6200E017F10711F487DF02C00093A9080E9451
:103B7200832528960895BA93AA931A93EC81EA931F
:103B8200AC810ED0A981BA81ED91A983BA831E2F8F
:103B9200E03019F0A12F83DFF5CF18810C94462174
:103BA200AA93A981BB27C4DEE093A908A881BB27F9
:103BB200D4DEE093AA080C945622AA935D9BFECF12
:103BC200E881ECB921960895BA93AA93AA81F5DF08
:103BD200A881B9810E946A240C949D22BA93AA9367
:103BE2001A930A93AA81BB8112960E943D253097AF
:103BF20029F1AA81BB8114960E943D258F0130973D
:103C020061F00230E0E01E0780F0F80131978F0189
:103C1200AA81BB811496ED93FC93AA81BB81129673
:103C22000E946A243197AC81A083AA81BB810E9441
:103C32003D25FF2312F00E946A2406C0AA81BB819F
:103C4200EFEFFFEFED93FC93198108810C9446216D
:103C5200BA93AA9326970E947C2510E0AC85BD8575
:103C6200E0E0F0E0ED93FC93EA89FB893196EA8B80
:103C7200FB8B3197E4912E2FE03009F415C1E12F2F
:103C8200E03039F4253211F411E002C00E947024B0
:103C92000AC1E130A9F4253219F40E94702402C14C
:103CA20012E040E000E02D3211F401E0FCC02B32C2
:103CB20011F44BE2F8C0203211F440E2F4C002C029
:103CC200E23039F450E013E0203311F40068EBC025
:103CD20003C0E33009F0E7C0203310F02A3308F0C4
:103CE20007C0AAE05A9F502DE22FE0535E0FDBC0BF
:103CF200E22FE33649F40E947724E889F989A48106
:103D0200AA930E947D24CEC0E33741F40E94772417
:103D12000E9483240E9476211E2F0AC0E03761F49C
:103D22000E9477240E9483240E9482211E2F086011
:103D320002600F7730E034C0E43611F0E93611F456
:103D4200046002C0E53731F4E2E8FCE1EE83FF8370
:103D520015E00CC0E83511F4086003C0E83709F03B
:103D6200A1C0ECE8FCE1EE83FF8314E002FF14C083
:103D72000E9477240E948D24AB85AA233AF4EA8517
:103D8200FB850E94E124EA87FB874DE2403011F077
:103D92001F5F01C00B7F04C00E9477240E948D2404
:103DA20000FD11C0151778F407FF08C002FF04C018
:103DB2000B7F242F115001C020E301C020E20E949A
:103DC20070245150EFCF312F01FF17C03030A1F0D6
:103DD20003FF06C0EE81FF812591EE83FF8305C0BC
:103DE200AE81BF812D91AE83BF830E94702450307B
:103DF20009F051503150EACF4BC020E3EE81FF81F0
:103E02000E944125E887F987EE81FF813296EE8391
:103E1200FF83E885F985AA85BB85AE17BF0750F0F9
:103E22002F5FA885B985EA85FB85EA1BFB0BEA872C
:103E3200FB87EFCF2A3328F003FF02C0295F01C0BE
:103E4200295D04FD1AC0213320F4A885B985119794
:103E520009F409C0531710F000FF01C013C020E29B
:103E620007FF0BC020E3006102FF07C00B7F4A93EC
:103E72000E947D24503009F051500E94702450302D
:103E820009F051503150A885B985129708F0B5CF85
:103E920000FF08C0503031F05150E0E2EA930E9436
:103EA2007D24F8CF10E0E0CEAC85BD850E943D2593
:103EB2000E94832564960895FF92F82E26970E9409
:103EC2007E250E949524309719F4EFEFFFEF1DC075
:103ED200DE0116960E94D8248D010E949524EE835D
:103EE200FF83E0E0E887E987DE011A960E949C24BE
:103EF200EFEEFDE1FA93EA93DE011A96A9DE9F0145
:103F0200AE81BF81E0E0EC93F9010E9485252A96FB
:103F1200FF900895FF92F82E26971A930A93DE01D6
:103F220014960E94D8248D01E0E0EC83ED83EE83A9
:103F3200EF83DE0118960E949C24E5EEFDE1FA93E0
:103F4200EA93DE01189684DE198108812896FF9093
:103F52000895BA93AA931A93A981BA81E0E0EC93E7
:103F6200AB81BC81EC911E2FE03019F0E0E0EC93C4
:103F720016C0A981BA8111960E943D25309771F031
:103F8200E981FA81A181B281EC911E2FE03029F002
:103F9200A981BA8111960E946A2401C010E0E12F22
:103FA200188173C1FF92BA93AA9324970E947C2529
:103FB200E0E0F0E0E887F9874E2FE889F989319649
:103FC200E88BF98B3197E4913E2FE03009F423C15D
:103FD2000E94A524C1F0EDB7FEB7FA93EA934F937E
:103FE2000E94AA244F913E2FE03019F00E94A5248E
:103FF20009F407C00E94B0241CF4EFEFFFEF0DC1DB
:10400200EACF432F07C1353209F0ECC050E0E8890E
:10401200F9893591E88BF98B303310F03A3308F097
:1040220007C0AAE05A9F502DE32FE0535E0FEFCF57
:10403200303009F4F0C0EDB7FEB7FA93EA934F932C
:104042000E94AA244F912E2FAE2F0E94C722E03049
:1040520039F00E94B0241CF4EFEFFFEFDEC0EBCF8B
:10406200203009F4CFC0422F503009F45FEFE32F24
:10407200E33699F40E94B524EDB7FEB7FA93EA93BA
:104082004F930E94AA244F91D801EC930E94B0242E
:104092001CF4EFEFFFEFC1C09FC0E33741F50E9470
:1040A200B524E52F5150E030F1F0EDB7FEB7FA93A9
:1040B200EA934F930E94AA244F913E2FE03019F0C9
:1040C2000E94A52439F00E94B0241CF4EFEFFFEF08
:1040D200A4C009C01F930F930F5F1F4FE32FAF912F
:1040E200BF91EC93DECFD801E0E0EC9375C0689409
:1040F200F1F8E894F2F8E32FE43611F0E93619F416
:10410200E894F1F802C0E53711F42AE008C0E83774
:1041120011F420E104C0E53209F464C07CC0E0E09F
:10412200EE83EF836894F0F8E52F5150E03009F404
:1041320044C0EDB7FEB7FA93EA934F930E94AA24C4
:104142004F913E2FE13238F40E94B0241CF4EFEF7D
:10415200FFEF63C017C0F1FC08C06894F1F83D326C
:1041620011F4F2F8E1CF3B32F9F2203131F4A32F0E
:104172000E94D222E03031F009C0A32F0E94BE2259
:10418200E03021F4F0FC47C0432F17C0313610F065
:10419200375505C0313410F0375301C03053E22F88
:1041A200AE81BF81F0E00E940F25DF01E32FF0E036
:1041B2000E940624E894F0F8B7CF0E94B524F2FEDC
:1041C20006C0EE81FF810E94E124EE83FF83EE812F
:1041D200FF81D801ED93FC93E885F9853196E88754
:1041E200F98718C0EDB7FEB7FA93EA934F930E948E
:1041F200AA244F91E31771F00E94B0241CF4EFEF50
:10420200FFEF0BC0E885F985309719F4EFEFFFEF68
:1042120004C001C0D2CEE885F9850E94832562964A
:10422200FF900895FF92F82E23971A930A930E9403
:10423200C024309719F4EFEFFFEF14C0DE0111969E
:104242000E94D8248D010E94C024EB83FC83DE01EE
:1042520015960E949C24EAEAFFE1FA93EA93DE01B2
:104262001896A0DE198108812596FF900895BA93C9
:10427200AA93B981A881109631F0FC81EB816A8101
:1042820061931197E9F7EB81FC8125960895AA9332
:10429200A991E991F991B081AB1729F03196BB232D
:1042A200D1F7EE27FF270895BA93AA93E991F991DE
:1042B200A991B9916D917191671721F46623D1F794
:1042C200EE270895671BE1F3E1E008F4E250089558
:1042D200BA93AA93E991F991A991B991CD0161910A
:1042E2006D936623E1F7FC010895BA93AA93A9910D
:1042F200B991EE27FF276D91662311F03196FBCF1E
:104302000895BA93AA93AA27BB27E991F991059038
:10431200002011F01196FBCFFD010895BA93AA93E4
:10432200BB81AA816C91662361F0F981E881C8950D
:10433200002029F031966015D1F7FD0104C01196D5
:10434200F1CFEE27FF270C94BC22BA93AA93AA813D
:10435200BB81CD01E881F9817191772311F4FC01D0
:1043620009C06D916717C1F30196DC01662391F7CD
:10437200EE27FF270C94BC22BA93AA93BB81AA8191
:10438200882799276D91662349F0F981E881059084
:10439200002021F06015D9F70196F4CFFC010C94AE
:1043A200BC22BA93AA931A930A93EC81FD813097A7
:1043B20079F4E091300CF091310C309719F4E0E08F
:1043C200F0E02FC0E091300CF091310CEC83FD83D2
:1043D2000E94C7240E94BD21AC81BD81EA0FFB1F50
:1043E200EC83FD83AC81BD81EC91E03041F4E0E0EF
:1043F200E093300CE093310CE0E0F0E012C00E9458
:10440200C7240E948F218F01309729F0D8010F5FB6
:104412001F4FE0E0EC930093300C1093310CEC81D1
:10442200FD811981088126960895BA93AA93B981CC
:10443200A881EC918A2FAE2F0E94C722A82FEE23CB
:1044420011F01196F6CFE894EC91ED3211F46894E4
:1044520002C0EB3209F4119666277727EC918A2F76
:10446200AE2F0E94BE22A82FEE2379F0FB01660F29
:10447200771F660F771F6E0F7F1F660F771FED91F5
:10448200FF27E0536E0F7F1FE9CFFB011EF4E0957B
:10449200F095319622960895AA93E881F0E0E858C3
:1044A200F34EA491E9810E94E52422960895AA93ED
:1044B2001A93E981E73011F0EA3019F41091A70854
:1044C20009C0E93019F41091A80804C0E830A1F439
:1044D2001091B708E091A808E03049F0103019F0C7
:1044E200EFEF188129C0EA81E095188125C01030CC
:1044F20019F4E0E0188120C0EA8118811DC0BA9346
:10450200AA93EA81E13021F4E881F981E49114C0AF
:10451200E23029F4A881B9810E9456250DC0E3300A
:1045220041F4A881B981E091C008F091C1080995D0
:1045320003C0A881B981EC9123960895AA93EB81D7
:10454200E03029F4E881A981BA81EC9314C0E23009
:1045520031F4E881A981BA810E9462250CC0E3305E
:1045620051F4E981FA81FA93EA93AA81E091C208AF
:10457200F091C308099524960895AA93E1E0F99170
:10458200F03310F0FA3308F0EE270895AA93E1E031
:10459200F991F03229F0F93010F0FE3008F0EE27F0
:1045A2000895AA93E1E0F991F05340F0FA3038F01F
:1045B200FF75F750FA3010F0F03108F0EE27089549
:1045C200E091C708F091C8086091C9087091CA08C3
:1045D20008950E947C2500E010E00895A1E0B0E07B
:1045E2000E94F5240895B0E0EA23FB233097089552
:1045F2000E94391AE0E0EA93EA930895FA93EA9363
:10460200E0E8EA93A0E40E94C511E0E00895E09397
:10461200C608E093C508E0E0E093C40808950E944C
:104622002615FE01E85FFE4FFA93EA93E0E0F1E01F
:10463200FA93EA930895E8EEF3E0FA93EA93089581
:10464200662777270E945125089584E00E945D1F06
:10465200289608950E94BC1DA4EFB1E00C94CE24CC
:10466200FA93EA93A1EFBCE10E94D221EEA3FFA349
:104672000895E0E0EA93EAE0EA9308950E94BC1DFF
:10468200A0EDB7E00C94CE24E3E3F9E0FA93EA93C9
:104692000895FA93EA93E0E8EA93A0E20C94C51134
:1046A200FA93EA93E0E8EA93A0E40C94C511ACE231
:1046B200B1E00C94CE24A8ECB0E00C94CE24E093AC
:1046C200AB08F093AC080895E0E0EA93EA9308950A
:1046D200A1E0B0E00C94CE24EA85FB85FA93EA933C
:1046E20008950E94E524E095E121089513B2E12F97
:1046F200F0E0DE011E96AE0FBF1FEC916FCF0E945D
:104702002615A4E6B0E00C94CE240E942615A4EF50
:10471200B1E00C94CE240E942615EDE2FAE0FA9361
:10472200EA93E0E0F2E0FA93EA930895E0EDF7E02D
:1047320060E070E00E9451250895E8E8F3E160E04E
:1047420070E00E94512508950E94BC1DA8EEB3E0BE
:104752000C94CE24EDE2FAE0FA93EA930895FA93E8
:10476200EA93E1E0F0E0FA93EA93EFEFF9E0FA93EB
:10477200EA93A0E1B0E00E94CB1530970895AFEF25
:10478200B9E00C941622E0E0F0E0FA93EA9308957F
:10479200EFEFF9E0FA93EA93A0E1B0E00E94CB15C3
:1047A200309708950E94261586CF0E942615A6E905
:1047B200B0E00C94CE24E0E0EA93E0E1EA930895BD
:1047C200E0936200E09162000895E0E0EABBE091CC
:1047D2006200E860F5CFE77FE0936200EFEFEABBAB
:1047E200E881EBBB0E9414190C941C19E695E6951E
:1047F200E695AE2F0C947219E0936100E09161008E
:1048020008950E9496190C948119EA0FFB1FEE83FA
:10481200FF830895EC85EA93EF81F8853196EF8363
:10482200F8873197FA93EA93A0E00C949F22EC85E3
:10483200EA93EF81F8853196EF83F88731970895EF
:1048420066277727DF01CB010C9480225A93AA8531
:104852000C9458220A930395E889EA935A9308958F
:104862000A930395A8890E94AD19E42308955E2F47
:10487200EC85EA93AF81B885882799270E94802228
:104882001E2E08950A930395E889EA93EE85EA932A
:10489200E985FA853196E987FA873197D1CFBA93BC
:1048A200AA93A881B9810E94732508950E947C254C
:1048B200E091AB08F091AC080895F8010F5F1F4F2B
:1048C20004900895E091AB08F091AC083196E49120
:1048D2000895ED91FD913196FE93EE9308952A93FA
:1048E200AD85BE85EF85F88909950895E889F9892E
:1048F2003497E88BF98B0895AD85BE85EF85F889ED
:1049020009950895A889B98914960E943D25EE83D8
:10491200FF83AE81BF810895A889B98914960E9448
:104922003D25EA87FB870895DE011C960E94D82464
:104932000E943D2508950E94D8240E943D25FA93A5
:10494200EA931A930A930895A32F0E94C722E03094
:104952000895AC85BD85EE85FF8509950895AA85E4
:10496200BB85AC91A0300895EE85FF853497EE8724
:10497200FF87AE85BF8514960D911C910895DE01C7
:1049820017960E94D8240E943D250895EC81FD814E
:10499200FA93EA93AC81BD810895109639F0A895F7
:1049A20080ED97E00197F1F71197C9F70895002478
:1049B200AF0DB01D0895AE1BBF0B860B970B08956C
:1049C200F195E195F0400895EE230E2EEA2F19F0AD
:1049D200EE0F0A94E9F70895EE230E2EEA2F19F04E
:1049E200E6950A94E9F70895EE230E2EFD0121F0D3
:1049F200EE0FFF1F0A94E1F708956F2F660F660B03
:104A0200762F0895EA17FB07E1E009F4EE270895EF
:104A1200EA17FB07E1E00CF0EE270895FA9FF02D6C
:104A2200EB9FF00DEA9FE02DF10D08950024112473
:104A320090E1AA0FBB1F001C111C0E1A1F0A18F4CA
:104A42000E0E1F1E01C0A1609A9599F7FD01D001BB
:104A5200089504D0EBDF0EF4B3DF0895E894F7FF76
:104A620002C0AEDF6894B7FF06C0A095B09511965C
:104A720000F8039400FA0895ED91FC9111970895BE
:104A82000590F491E02D0895E881F9816A817B8196
:104A92000895E883F9836A837B83089560E070E078
:104AA2007A936A93FA93EA930895E199FECFFF937A
:104AB200FFB7F894AEBBBFBBE09AEDB3FFBFFF9167
:104AC2000895E19B02C0A895FCCF9FB7F894AEBBB6
:104AD200BFBBE09A8DB3E81719F0EDBBE29AE19AF9
:104AE2009FBF089500240A160B060895AE17BF074C
:104AF2008607970708955A934A933A932A931A93EB
:104B02000A9308955D814C813B812A811981088134
:104B12000895AC0FBD1F05900D928A95E1F7089597
:00000001FF
