:0C0000000C94C4030C9400000C9400004D
:10000C000C9400000C9400000C9400000C94000064
:10001C000C9400000C9400000C9400000C94000054
:10002C000C9400000C9400000C9400000C94000044
:10003C000C9400000C9400000C9400000C94000034
:10004C000C9400000C9400000C9400000C94000024
:10005C000C9400000C9400000C9400000C94000014
:10006C000C9400000C9400000C9400000C94000004
:10007C000C9400000C9400000C9400000C940000F4
:10008C0005072060000000000000005F0000000772
:10009C00000700147F147F14242A7F2A12231308CC
:1000AC00646236495522500005030000001C2241B1
:1000BC00000041221C00082A1C2A0808083E0808D7
:1000CC0000503000000808080808003030000020FC
:1000DC00100804023E5149453E00427F40004261F7
:1000EC005149462141454B311814127F1027454583
:1000FC0045393C4A4949300171090503364949499A
:10010C0036064949291E00363600000056360000D6
:10011C00000814224114141414144122140800026F
:10012C0001510906324979413E7E1111117E7F49F8
:10013C004949363E414141227F4141221C7F494978
:10014C0049417F090901013E414151327F080808AC
:10015C007F00417F41002040413F017F0814224134
:10016C007F404040407F0204027F7F0408107F3EA6
:10017C004141413E7F090909063E4151215E7F09FB
:10018C00192946464949493101017F01013F404047
:10019C00403F1F2040201F7F2018207F631408142D
:1001AC00630304780403615149454300007F4141D6
:1001BC00020408102041417F0000040201020440A7
:1001CC0040404040000102040020545454787F48C1
:1001DC004444383844444420384444487F385454C8
:1001EC005418087E090102081454543C7F08040476
:1001FC007800447D40002040443D00007F1028449E
:10020C0000417F40007C041804787C080404783892
:10021C00444444387C14141408081414187C7C08C6
:10022C000404084854545420043F4440203C4040AB
:10023C00207C1C2040201C3C4030403C4428102892
:10024C00440C5050503C4464544C4400083641001B
:10025C0000007F0000004136080002010204027F0A
:10026C004141417F000103070F1F3F7FFF00102713
:10027C00E80364000A0001000010000110000100F6
:10028C003132333435363738392A302307050604F2
:10029C000001020025730D0A0041542B53415042BA
:1002AC00523D322C31002B53415042523A002B53C9
:1002BC00415042523A20312C312C00436F6E6E6506
:1002CC006374696E6720746F20475052532E2E2E24
:1002DC000041542B53415042523D332C312C22437C
:1002EC006F6E74797065222C224750525322004154
:1002FC00542B53415042523D332C312C2241504E01
:10030C00222C22257322006D63696E6574004154A2
:10031C002B53415042523D312C3100466574636879
:10032C00696E672049502E2E2E00526573703A006C
:10033C0047505253204661696C656421006C6576A8
:10034C0020300041542B48545450494E4954004FCE
:10035C004B006C657620310041542B48545450505E
:10036C004152413D22434944222C31006C65762098
:10037C00320025733F70686F6E655F6E756D6265D8
:10038C00723D25730041542B4854545050415241F6
:10039C003D2255524C222C22257322006C6576206E
:1003AC00330041542B48545450414354494F4E3D13
:1003BC0031002B48545450414354494F4E3A004E4F
:1003CC006F20416374696F6E2052657370006C65A9
:1003DC00762034002B48545450414354494F4E3AE4
:1003EC002025642C25642C256400506172736520D3
:1003FC00457272006C657620350048545450205379
:10040C0074617475733A004E6F74204F4B006C65B9
:10041C007620360041542B485454505245414400E8
:10042C006C657620370041542B4854545054455237
:10043C004D006C657620380053657474696E6720C6
:10044C00534D53204D6F64652E2E2E0041542B437B
:10045C004D47463D310041542B434E4D493D322CC6
:10046C00322C302C302C300041542B434D4744411E
:10047C003D2244454C20414C4C2200534D532052BC
:10048C00656164792E004D4F544F52202564204FE6
:10049C004E21004D4F544F52202564204F4646218B
:1004AC0000687474703A2F2F3139332E352E343452
:1004BC002E3139312F686F6D652F706F73742F006B
:1004CC002B393839313532363038353832004D6FBA
:1004DC0064756C6520496E69742E2E2E004154454E
:1004EC003000415400534D5320496E6974204661CD
:1004FC00696C656421004750525320496E69742021
:10050C004661696C6564210053797374656D205282
:10051C00656164792E0057616974696E6720666F36
:10052C007220534D532E2E2E002B434D543A004621
:10053C0061696C656420746F2072656164206D73F1
:10054C00670073746570203100737465702032001D
:10055C00534D5320436F64653A00456E74657220A9
:10056C00636F6465206F6E206B65797061643A000F
:10057C0054696D656F7574212054727920616761BF
:10058C00696E2E00596F7520707265737365643ACD
:10059C0000436F646520697320434F5252454354A6
:1005AC0021004572726F7220696E20656E747279CB
:1005BC002100496E76616C696420534D5320436F62
:1005CC0064652100596F7520617265206E6F74200F
:1005DC00617574686F72697A6564210001002D4E33
:1005EC00414E00494E4600000D000005A5020800D2
:1005FC000D05B2020D001505BA0216002205C70240
:10060C001E003805DD020D0056051A030F006305A8
:10061C0027030D007205A50208007F05B202060033
:10062C00870536030D008D05BA020D009A053C03B3
:10063C000600A70549030C00AD054F030300B905DF
:10064C005B030600BC055E031400C20564030300D3
:10065C00D6055B030600D90578030300DF055B03B1
:10066C000600E205A8031000E805AE030D00F8052E
:10067C00BE030F000506CB0306001406DA030D00BB
:10068C001A06BE030A002706F6030600310600040C
:10069C000D0037060604030044065B0307004706FB
:1006AC00130406004E061A040C0054062004030022
:1006BC0060065B03060063062C040C00690632041A
:1006CC00030075065B03060078063E0414007E06E4
:1006DC0044040A009206580412009C06620413009B
:1006EC00AE0674040B00C10687041F00CC06AD04D3
:1006FC000E00EB06CC040F00F906DA04050008071F
:10070C00E90403000D07EE0411001007F1041200B8
:10071C00210702050E0033071405130041072205BB
:10072C0006005407350513005A073B0507006D07F3
:10073C004E050700740755050A007B075C0516007B
:10074C008507660514009B077C050D00AF07900517
:10075C001100BC079D051000CD07AE051200DD078A
:10076C00BE051800EF07D0050E000708140513008E
:10077C00150822050100CE08E8050000F894EE27C4
:10078C00ECBBF1E0F5BFE5BFE0936C008DE0A2E0BF
:10079C00BB27ED938A95E9F780E090E1A0E0B1E00A
:1007AC00ED930197E9F7E4EFF5E0859195910097CA
:1007BC0061F0A591B59105901590BF01F0010590E0
:1007CC000D920197E1F7FB01F0CFEFEFEDBFE0E108
:1007DC00EEBFC0E0D5E00C94A606BA93AA93E0EA6B
:1007EC00F2E0FA93EA93EA81FB810E9486110E945F
:1007FC00890E26960C94AF08BA93AA930E94A11363
:10080C0000E010E020E030E0EC85FD850E948C11CA
:10081C00AD85BE850E943610E885F9852E173F07F9
:10082C00D8F45F9B12C00E94A90C5E2FEA85FB8551
:10083C0031970E171F0744F4F8010F5F1F4FAC855B
:10084C00BD85EA0FFB1F508306C0A1E0B0E00E94FB
:10085C0039132F5F3F4FE0CFEC85FD85FA93EA9378
:10086C00A885B9850E948310309711F0E1E001C092
:10087C00E0E00E94A8132E960895EF97A597A0E0AC
:10088C00B5E00E949111ADE0B5E0B6DFE03051F07B
:10089C000E949F11A5E1B5E00E948310309711F0E2
:1008AC00E1E001C0E0E0EF96A5960895EF97EF9791
:1008BC0068970E94A311A2E2B5E00E94870CA8E3FE
:1008CC00B5E00E94A911FE01EC59FF4FFA93EA938F
:1008DC00EBEFF2E0FA93EA93E3E1F3E00E94861186
:1008EC000E945B0E2896DE01AC59BF4F0E94A911E5
:1008FC00A6E5B5E00E94A9110E94A311A3E6B5E0FC
:10090C000E94870CA2E7B5E00E949111AFE7B5E019
:10091C0073DFE03059F10E94AF11A7E8B5E00E94F7
:10092C00B411DE0112960E94BB110E949F11ADE81A
:10093C00B5E00E9483103097C9F02297FE013296E1
:10094C000E94C111E0E0F0E00E94C111E881F98140
:10095C00309759F0E9EAF8E0FA93EA93AA81BB815F
:10096C000E944610E1E0229602C02296E0E0EF964B
:10097C00EF9668960895BA93AA932297D350E0E025
:10098C00E883E9830E94A11320E030E040E050E0CE
:10099C0074DFE03059F48ADFE03041F40E94A31197
:1009AC00AAE9B5E00E94CA11E0E016C10E94320922
:1009BC000E94AF11DE01A65FBC4F0D90BC91A02D23
:1009CC000E94B411A7EAB5E00E94870CADEAB5E02D
:1009DC000E94D011A9EBB5E00FDFE03011F4E0E09C
:1009EC00FBC00E94E011ACEBB5E00E94870CA2ECBE
:1009FC00B5E00E94D011A6EDB5E0FEDEE03011F4BA
:100A0C00E0E0EAC00E94E011A9EDB5E00E94870C7D
:100A1C00FE013896FA93EA93EEE7F3E0FA93EA9341
:100A2C00FE01E25FFC4F0190F081E02D0E94E51188
:100A3C00FE01E05FFC4F0190F081E02D0E94E5117A
:100A4C0088E00E945B0E2C96FE01E85FFD4FFA9346
:100A5C00EA93E1E9F3E0FA93EA93FE013C960E94F3
:100A6C0086110E945B0E2896DE01A85FBD4F0E9486
:100A7C00D011AFEDB5E0C0DEE03011F4E0E0ACC079
:100A8C000E94E011A2EEB5E00E94870CA8EEB5E042
:100A9C00A4DEFE01E85FFE4FFA93EA93E0E0F1E09A
:100AAC00FA93EA93E4EFF1E0FA93EA93A8EFB5E056
:100ABC00A3DEE03041F40E94A311A5E0B6E00E9451
:100ACC00BB11E0E089C00E94E011A4E1B6E00E94F5
:100ADC00870CFE01E85FFE4FFA93EA93AAE1B6E0B9
:100AEC000E9483108F0100240016010621F11A9335
:100AFC000A93E0EEF3E0FA93EA93EDB7FEB7319781
:100B0C000E9479133F932F93EDB7FEB731970E9454
:100B1C0079135F934F93FE0172960E94E5118CE05E
:100B2C000E94111060964F915F912F913F91E3308D
:100B3C00A0E0FA0789F00E94A311A7E2B6E00E9498
:100B4C00EA11DE01A65FBE4F0E94870CA4EFB1E054
:100B5C000E943913E0E040C00E94E011A1E3B6E02E
:100B6C000E94BB110E94A311A7E3B6E00E94ED11F5
:100B7C0029F40E94AF11A4E4B6E004C00E94AF11A6
:100B8C00A7E4B6E00E94870CA8ECB0E00E943913F1
:100B9C000E94E011AEE4B6E00E94870CA4E5B6E03A
:100BAC000E94D011A0E6B6E027DE0E94E011A3E679
:100BBC00B6E00E94870CA9E6B6E00E94D011A5E72A
:100BCC00B6E01ADE0E94E011A8E7B6E00E94ED1133
:100BDC0011F4E1E001C0E0E00E94A8132C96DD5F67
:100BEC0008950E94A311AEE7B6E00E94870CA2E91B
:100BFC00B6E00E94F411ACE9B6E00E94F411AEEA42
:100C0C00B6E0EBDDA8ECB0E00E9439130E94AF1106
:100C1C00A1ECB6E00E94BB11E1E00895639783E17B
:100C2C00A0E0B0E0ECE8F2E00E94AF131A930A9354
:100C3C0000E0033078F5E5B3E760E5BB15B2E02FD3
:100C4C00F0E0DE015296AE0FBF1FEC91A1E00E94C6
:100C5C00FA11E5BB10E01430D8F40E94FF11B1F486
:100C6C00AAE0B0E00E9439130E94FF1179F40E94AF
:100C7C00FF11E9F3A3E01A9FF001DE011296AE0F0B
:100C8C00BF1FEE27A00FBE1FEC9105C01F5FE3CF67
:100C9C000F5FCFCFE0E01981088165960895BA9374
:100CAC00AA9364971A93ED89FE89E130A0E0FA07C4
:100CBC0011F412E00DC0E230A0E0FA0711F413E0D9
:100CCC0007C0E330A0E0FA0711F414E001C035C00E
:100CDC00FE013196FA93EA93E2E9F4E00E941112D4
:100CEC000E941E12E4E1EA93DE0113960E94870C27
:100CFC0013B0E12FA1E00E944B13E129E3B9A0E16D
:100D0C00B7E20E94391313B0E12FA1E00E94FA114F
:100D1C00E3B9FE013196FA93EA93EFE9F4E00E940D
:100D2C001112EAE0EA93E8E2EA93DE0113960E94DC
:100D3C00870CA0EDB7E00E943913188167960895CF
:100D4C0026970CEC16E02BEE36E0E0E0EABBEBBBB2
:100D5C00E7BBE0EFE8BBE7E0E4BBE0EFE5BBECE3CF
:100D6C00E2B9E0E0E3B9E0936100E0936200EBB933
:100D7C00E8E1EAB9E6E0E0939500E0E0E09390006A
:100D8C00E3E3E9B9E0E8E4BFE4BFECE8F0E0E883D2
:100D9C00F983E0E0EA83EB83EC83ED83DE01DBD1C6
:100DAC00ECE8F0E00E9423120E94A311A9EFB6E038
:100DBC000E94870CA8EBBBE00E943913A8E0B7E0B7
:100DCC000E94A911ADE0B7E00E94A9110ADFE03042
:100DDC0039F40E94AF11A0E1B7E00E94870CFFCF5D
:100DEC0065DDE03039F40E94AF11A1E2B7E00E945A
:100DFC00870CFFCF0E94A311A3E3B7E00E94EA1176
:100E0C00A1E4B7E00E94870CAA97E0E0EAA3EBA369
:100E1C00ECA3EDA3EEA3EFA3E5E4F8E00E948C11A4
:100E2C00A4E6B0E00E943610FE010E948C11A0E2F4
:100E3C00B0E00E9436100E942812A4E6B0E00E9496
:100E4C00B40C309709F4E0C00E942812A4E5B7E076
:100E5C000E948310309709F4D7C00E949F11A0E222
:100E6C00B0E00E94B40C309741F40E94A311AAE5A3
:100E7C00B7E00E94CA11AA96C7CF0E9428120E94FE
:100E8C002D12E8A1F9A1309721F00E9434120E9492
:100E9C002D12E8A1F9A1309709F4ACC0E9EBF8E008
:100EAC00FA93EA93AAA1BBA10E9446101A930A9343
:100EBC00A9EBB8E060DDE03009F491C00E94391272
:100ECC00ADE6B7E00E94BB11E881E9A7E0E0EA9348
:100EDC00E5E0EA93A4E7B7E00E94BB11A9A5A13312
:100EEC0029F0A23319F0A33309F070C00E94391213
:100EFC00ABE7B7E00E94870CE9A5EEA3E6E4EA9322
:100F0C00E5E0EA93DE0198960E94870CE0E0EA9314
:100F1C00E9E1EA93A5E8B7E00E94870CE0E0E8A7D6
:100F2C00EAA3EBA3AAA1BBA1A83CE0E0BE0774F422
:100F3C0075DEE8A7E03051F4AAE0B0E00E94391366
:100F4C00EAA1FBA13196EAA3FBA3ECCFE8A5E03024
:100F5C0059F40E941E12E9E1EA93ABE9B7E00E9452
:100F6C00870CA8ECB0E02FC0E0E0EA93EDE2EA9346
:100F7C00AFEAB7E00E94870CE8A5EEA3EAE5EA9396
:100F8C00EDE2EA93DE0198960E94BB11E9A5A8A5B3
:100F9C00EA1799F40E941E12E9E1EA93ACEBB7E070
:100FAC000E9440120E943913E9A5F0E0F097ECA3DF
:100FBC00FDA3ACA1BDA173DE08C00E944512ADEC2F
:100FCC00B7E00E9440120E94391308C00E944512DB
:100FDC00ADEDB7E00E9440120E9439130BC03CD11A
:100FEC00E0E0EA93E9E1EA93AFEEB7E00E94401249
:100FFC000E9439130E94A311A7E0B8E00E94EA11E5
:10100C00A5E1B8E00E94870CAA96FECEFFCF0000A7
:10101C00E0916200E061E093620000000895E091CD
:10102C006200EF7E0E944C12EF7D0E944C12EF7B0F
:10103C00E093620008951A93EADF19B3E09162001D
:10104C00EF7EE0936200E12F19910895AA931A9311
:10105C000E945112EB7FE0936200E981EF5F1E2F3B
:10106C0010FF04C0E0916200E06203C0E0916200F6
:10107C00EF7DE093620011FF04C0E0916200E06438
:10108C0003C0E0916200EF7BE0936200D4DFE07874
:10109C00E9F718815EC0AA93A981D8DFE0916200BC
:1010AC000E94571256C0E091CA08EA93E091C90811
:1010BC00EF73E064AE2FEFDFE091CA08EA93E091A2
:1010CC00CB08E86BAE2FE7DF0895AA93E981E09394
:1010DC00C908E295EF70E695E695E093CA08E881B9
:1010EC00E093CB08E0DF35C0A091C908AF5FA093B7
:1010FC00C908A03818F0E0E0E093C908E091C908ED
:10110C00EF7331F4E091C908EA93A091CB08DDDFCD
:10111C000895AA93A091CA0899DFE0916200E46057
:10112C000E944C120E9457120C94B20CA091CA0847
:10113C008DDF0E945112E460E09362007CDF089521
:10114C00AA93E981EA93E9810E946212EFDFABDF97
:10115C00EDDF22960895BA93AA931A93E091610059
:10116C00E0610E946812E8600E946812E4600E94CC
:10117C006812E068E0936100E0916200E068E0933F
:10118C006200E0916100E0620E946812E064E0930A
:10119C00610045DFE0916200EF77E0936200A4E626
:1011AC00B0E00E943913E0916200E068E0936200C5
:1011BC0010E0123040F41A93AFE36DDF1A931395DD
:1011CC00A0EC69DFF6CFE1E0E0932808E0E0E093E3
:1011DC002908E981FA813097A9F0A981BA810E9486
:1011EC0071130E942312A981BA8112960E94711365
:1011FC00E0934108F0934208A981BA8114960E94A9
:10120C0071130AC0E0E0F0E00E942312E0E0F0E08D
:10121C00E0934108F0934208E0934308F0934408AC
:10122C00E1E0E0932E08E0932F08E0933008EFEF15
:10123C00E0933108E1E0E0933808E9E3F8E0FA9351
:10124C00EA93EFEFEA93A8E0B0E00E94361004D0E6
:10125C00E1E01881239608950E94A31300E030E08A
:10126C00E0912908E03009F00FEF383078F4E0E035
:10127C00EA93A32F3F5F29DF10E0A12F1F5FA03857
:10128C0020F4A02F0E946D12F8CFEFCFE0E0EA938C
:10129C00A0E01BDFE0E0EA93A0E048D30E94AA1391
:1012AC0024960895AA931A93ED81EA93AD8148DFB1
:1012BC001E2FF9DEE981E73011F0E83039F4EB81CB
:1012CC00EA93AA810E94FD10EB8308C0E33021F45D
:1012DC00EB81E095EB8302C0E03021F4EA81E095EC
:1012EC001E2302C0E23029F4EA81AB81EA231E2BD3
:1012FC000EC0E13029F4EA81AB81EA231E2707C036
:10130C00E43029F4EA81E095AB81EA2B1E23A12F6E
:10131C000E946D12188126960895AA9323970E9415
:10132C00A113A889A03848F4AF85A03430F4AE8559
:10133C00A03019F0AD85A03009F4C6C1EE85E88760
:10134C00A889BB27EE85F0E0AE0FBF1FA138E0E007
:10135C00BE0720F0A889E0E8EA1BEE872D85AF8553
:10136C00BB27ED85F0E0AE0FBF1FA134E0E0BE0758
:10137C0020F0AF85E0E4EA1BED87A985A63009F0E3
:10138C005BC0EC85E13009F49FC1E33039F4E091A6
:10139C004308F0914408309709F496C10885ED850F
:1013AC00E695E695E6953E2FE22FE77019F4AD85AC
:1013BC002A17E9F0A02FBB27E32FF0E00E94691356
:1013CC00AA85BB850E947112269526952695532FCA
:1013DC005F935F5FE22FAF91EA1748F0102FE12F78
:1013EC001150E03019F00E947612F9CFF1CFAE8592
:1013FC000A1711F1EE85AA85BB85F0E00E947112E7
:10140C00ED85E77009F03F5F20E02F932F5FE32F0E
:10141C00AF91AE1788F41E851F931F5FE02FAF911D
:10142C00AE1718F40E947612F7CFEE85AE81BF810D
:10143C00F0E00E947112E9CFEF85E7703E2FED8549
:10144C00E03009F441C1EA85FB85EE83FF8310E0AF
:10145C000889303009F065C0AD85A83008F45CC04F
:10146C00E985E03011F0E33009F402C0E73009F40B
:10147C0002C0E83009F402C0E63009F402C0E930D9
:10148C0009F402C0EA3021F40A93E8890E9462123E
:10149C001F931F5FEE85AF91AE17B8F5A985A630E7
:1014AC0061F444DE00DE0E948312FA93EA933EDE7E
:1014BC00AE2F0E94441118DE27C0E985E93011F4E3
:1014CC0050E00EC0EA3011F45FEF0AC00E948312A4
:1014DC000E948C125E2FE985E73011F0E83021F480
:1014EC000E9492125E2F06C0E33011F4509502C098
:1014FC00E03021F4A52F0E946D1206C00E949612B6
:10150C00EFEFEA93AD85CEDEC3CFEF85E85FEF87D3
:10151C00ED85E850ED87CFC05D8520E0E0E0ED87FC
:10152C007AC0E32FAD85AE0FA93020F42D85E0E015
:10153C00ED8703C0E8E0E31B2E2F3A93A22F0E9405
:10154C00F2104E2FE985E630F1F41F931F5FEE8504
:10155C00AF91AE17B8F40E949C12AE2FE32F0E94ED
:10156C0053130E94A312E32FA42F0E945313E09550
:10157C00E1215E2B0E948312FA93EA93A52F0E941D
:10158C004411E3CF2CC0E93011F450E003C0EA3031
:10159C00A9F45FEF0E949212AE2FE32F0E944B131F
:1015AC005E2F1F931F5FEE85AF91AE1730F40E9434
:1015BC0096124A93A0E076DEF4CF11C01F931F5F02
:1015CC00EE85AF91AE1758F40E94AE12AE2FE32FFA
:1015DC000E944B13EA934A93AD8564DEEFCFED8501
:1015EC00E03009F471C0AD85A83028F4ED85E21B1C
:1015FC005E2FE0E003C0532FED85E850ED8710E03F
:10160C00EF85E85FEF87E8E0E31B2E2F0889EA857A
:10161C00FB85EE83FF83E52FF0E0E059FD4F44910D
:10162C00E985E630E1F41F931F5FEE85AF91AE17AD
:10163C00A8F40E949C12AE2FE22F0E944B130E9422
:10164C00A312E22FA42F0E94FA115E2B0E94831288
:10165C00FA93EA93A52F0E944411E5CF2CC0E930F0
:10166C0011F450E003C0EA30A9F45FEF0E9492122B
:10167C00AE2FE22F0E9453135E2F1F931F5FEE8538
:10168C00AF91AE1730F40E9496124A93A0E00ADE96
:10169C00F4CF11C01F931F5FEE85AF91AE1758F4B6
:1016AC000E94AE12AE2FE22F0E945313EA934A937C
:1016BC00AD85F8DDEFCFE885AA85BB85F0E0EA0FB4
:1016CC00FB1FEA87FB87BBCE0E94A8136196089587
:1016DC000E94BB1224F0E0E0F0E00C94FB10A88117
:1016EC00B981A038E0E0BE0724F0EFE7F0E00C94FD
:1016FC00FB10E881F9810C94FB100E94BB1224F0C2
:10170C00E0E0F0E00C94FB10A881B981A034E0E09B
:10171C00BE0724F0EFE3F0E00C94FB10E881F981B4
:10172C000C94FB10BA93AA9323970E94C2128F01B8
:10173C00002E012A19F4E0E0F0E05FC00E94C9120B
:10174C000F820E94C9120E820E94C9120886EB8574
:10175C00A885EA1718F4E0E0F0E04FC0F8010F5F3D
:10176C001F4F5491A885BB27EE27A50FBE1FEB85F5
:10177C00F0E0EA17FB0718F0E0E0F0E03EC0EE8185
:10178C00E695E695E6954E2FEE81E77009F04F5FF2
:10179C00EF81E030A1F0A985BA85EC93A885EB85A3
:1017AC00EA1BF0E0DF01EF81F0E00E946913DF013A
:1017BC00E42FF0E00E946913E00FF11F1EC09801A6
:1017CC00E52FF0E00E0F1F1FA885AF5FA887A15073
:1017DC00EB85AE1760F4F9012F5F3F4FA491B0E099
:1017EC00E42FF0E00E9469130E0F1F1FEDCFF901DB
:1017FC00E491A985BA85EC93F8010E94A8132C9664
:10180C000895E0E0E0932A08A0912B08BB270E94E2
:10181C00CE12F0E0AE0FBF1FE0912F08F0E0AE0F3C
:10182C00BF1F6BDFE0932B080895AA9321970E94AA
:10183C00C212309709F45FC0AF81AA3009F459C0C5
:10184C00EF81EA93DE0117966DDFAF01309709F453
:10185C0054C0E0912E08AE81EA0F3E2FA0912A08C9
:10186C00BB27F0E0EA0FFB1F8F010138E0E01E07F9
:10187C0018F0032F1127C5DFE0912A08EA93E091B5
:10188C002B08EA93E885EA930E94CE12EA93E1E0F2
:10189C00EA935A934A93A7E040DDE0912A08AE817F
:1018AC00EA0FEA93E0912B08EA93E0912E08EA9371
:1018BC000E94CE12EA93E0E0EA930E943412A9E06F
:1018CC002CDDE0912A08EA93A0912B080E94CE12FD
:1018DC00EA0FEA933A93E0912F08EA93E0E0EA9357
:1018EC000E943412A9E019DDE0E8F0E0E017F107FE
:1018FC0011F487DF02C000932A080E94A8132896CF
:10190C000895BA93AA931A93EC81EA93AC810ED002
:10191C00A981BA81ED91A983BA831E2FE03019F009
:10192C00A12F83DFF5CF18810C944410AA93A981C1
:10193C00BB27CEDEE0932A08A881BB27DEDEE0932E
:10194C002B080C94FB105F9BFECFECB10895AA936F
:10195C005D9BFECFE881ECB921960895BA93AA93CA
:10196C000E94A1130E811F8128853985002E012A22
:10197C00D9F0E9DF5E2F583051F4AE81BF810A17E0
:10198C001B0720F4215030400F5F1F4FF2CF5A300D
:10199C0059F03F932F932F5F3F4FE52FAF91BF919E
:1019AC00EC9301501040E2CFD901E0E0EC93E885D4
:1019BC00F9850E94A8132A960895BA93AA93AA812E
:1019CC00C6DFA881B9810E94D5120C944211BA933A
:1019DC00AA931A930A93AA81BB8112960E9471133F
:1019EC00309729F1AA81BB8114960E9471138F0143
:1019FC00309761F00230E0E01E0780F0F80131977B
:101A0C008F01AA81BB811496ED93FC93AA81BB81B3
:101A1C0012960E94D5123197AC81A083AA81BB810A
:101A2C000E947113FF2312F00E94D51206C0AA81E6
:101A3C00BB81EFEFFFEFED93FC93198108810C94C0
:101A4C004410BA93AA9326970E94A11310E0AC8578
:101A5C00BD85E0E0F0E0ED93FC93EA89FB893196DB
:101A6C00EA8BFB8B3197E4912E2FE03009F415C1F2
:101A7C00E12FE03039F4253211F411E002C00E945C
:101A8C00DB120AC1E130A9F4253219F40E94DB12F1
:101A9C0002C112E040E000E02D3211F401E0FCC084
:101AAC002B3211F44BE2F8C0203211F440E2F4C0B6
:101ABC0002C0E23039F450E013E0203311F4006836
:101ACC00EBC003C0E33009F0E7C0203310F02A3339
:101ADC0008F007C0AAE05A9F502DE22FE0535E0F8A
:101AEC00DBC0E22FE33649F40E94E212E889F9895F
:101AFC00A481AA930E94E812CEC0E33741F40E945D
:101B0C00E2120E94EE120E9453101E2F0AC0E03700
:101B1C0061F40E94E2120E94EE120E945F101E2FCE
:101B2C00086002600F7730E034C0E43611F0E9361B
:101B3C0011F4046002C0E53731F4EAE7F2E0EE8319
:101B4C00FF8315E00CC0E83511F4086003C0E837DA
:101B5C0009F0A1C0E4E8F2E0EE83FF8314E002FF99
:101B6C0014C00E94E2120E94F812AB85AA233AF428
:101B7C00EA85FB850E944713EA87FB874DE24030DC
:101B8C0011F01F5F01C00B7F04C00E94E2120E9483
:101B9C00F81200FD11C0151778F407FF08C002FFFA
:101BAC0004C00B7F242F115001C020E301C020E2A0
:101BBC000E94DB125150EFCF312F01FF17C0303094
:101BCC00A1F003FF06C0EE81FF812591EE83FF8318
:101BDC0005C0AE81BF812D91AE83BF830E94DB1205
:101BEC00503009F051503150EACF4BC020E3EE8118
:101BFC00FF810E947513E887F987EE81FF81329689
:101C0C00EE83FF83E885F985AA85BB85AE17BF07F0
:101C1C0050F02F5FA885B985EA85FB85EA1BFB0B85
:101C2C00EA87FB87EFCF2A3328F003FF02C0295F36
:101C3C0001C0295D04FD1AC0213320F4A885B985A3
:101C4C00119709F409C0531710F000FF01C013C01D
:101C5C0020E207FF0BC020E3006102FF07C00B7FEF
:101C6C004A930E94E812503009F051500E94DB1246
:101C7C00503009F051503150A885B985129708F0B1
:101C8C00B5CF00FF08C0503031F05150E0E2EA937C
:101C9C000E94E812F8CF10E0E0CEAC85BD850E9422
:101CAC0071130E94A81364960895FF92F82E26973C
:101CBC000E94A3130E940013309719F4EFEFFFEF6B
:101CCC001DC0DE0116960E9443138D010E94001365
:101CDC00EE83FF83E0E0E887E987DE011A960E9435
:101CEC000713EDEEFCE0FA93EA93DE011A96A9DEF7
:101CFC009F01AE81BF81E0E0EC93F9010E94AA1331
:101D0C002A96FF900895FF92F82E26971A930A931D
:101D1C00DE0114960E9443138D01E0E0EC83ED8309
:101D2C00EE83EF83DE0118960E940713E3EEFCE0CE
:101D3C00FA93EA93DE01189684DE198108812896BD
:101D4C00FF900895BA93AA931A93A981BA81E0E0FF
:101D5C00EC93AB81BC81EC911E2FE03019F0E0E0EC
:101D6C00EC9316C0A981BA8111960E947113309719
:101D7C0071F0E981FA81A181B281EC911E2FE030E2
:101D8C0029F0A981BA8111960E94D51201C010E0E8
:101D9C00E12F188173C1FF92BA93AA9324970E94E2
:101DAC00A113E0E0F0E0E887F9874E2FE889F98984
:101DBC003196E88BF98B3197E4913E2FE03009F4A2
:101DCC0023C10E941013C1F0EDB7FEB7FA93EA934A
:101DDC004F930E9415134F913E2FE03019F00E9443
:101DEC00101309F407C00E941B131CF4EFEFFFEF54
:101DFC000DC1EACF432F07C1353209F0ECC050E0DA
:101E0C00E889F9893591E88BF98B303310F03A3346
:101E1C0008F007C0AAE05A9F502DE32FE0535E0F45
:101E2C00EFCF303009F4F0C0EDB7FEB7FA93EA9378
:101E3C004F930E9415134F912E2FAE2F0E946C11B1
:101E4C00E03039F00E941B131CF4EFEFFFEFDEC003
:101E5C00EBCF203009F4CFC0422F503009F45FEFA4
:101E6C00E32FE33699F40E942013EDB7FEB7FA93F3
:101E7C00EA934F930E9415134F91D801EC930E9453
:101E8C001B131CF4EFEFFFEFC1C09FC0E33741F50C
:101E9C000E942013E52F5150E030F1F0EDB7FEB762
:101EAC00FA93EA934F930E9415134F913E2FE03013
:101EBC0019F00E94101339F00E941B131CF4EFEF61
:101ECC00FFEFA4C009C01F930F930F5F1F4FE32FA9
:101EDC00AF91BF91EC93DECFD801E0E0EC9375C0ED
:101EEC006894F1F8E894F2F8E32FE43611F0E9364F
:101EFC0019F4E894F1F802C0E53711F42AE008C0AF
:101F0C00E83711F420E104C0E53209F464C07CC068
:101F1C00E0E0EE83EF836894F0F8E52F5150E03069
:101F2C0009F444C0EDB7FEB7FA93EA934F930E94BD
:101F3C0015134F913E2FE13238F40E941B131CF401
:101F4C00EFEFFFEF63C017C0F1FC08C06894F1F825
:101F5C003D3211F4F2F8E1CF3B32F9F2203131F499
:101F6C00A32F0E947711E03031F009C0A32F0E94FB
:101F7C006311E03021F4F0FC47C0432F17C0313619
:101F8C0010F0375505C0313410F0375301C03053C1
:101F9C00E22FAE81BF81F0E00E946913DF01E32FD5
:101FAC00F0E00E947112E894F0F8B7CF0E94201371
:101FBC00F2FE06C0EE81FF810E944713EE83FF8381
:101FCC00EE81FF81D801ED93FC93E885F98531967C
:101FDC00E887F98718C0EDB7FEB7FA93EA934F93E9
:101FEC000E9415134F91E31771F00E941B131CF400
:101FFC00EFEFFFEF0BC0E885F985309719F4EFEFA1
:10200C00FFEF04C001C0D2CEE885F9850E94A81369
:10201C006296FF900895FF92F82E23971A930A93D5
:10202C000E942B13309719F4EFEFFFEF14C0DE0171
:10203C0011960E9443138D010E942B13EB83FC839A
:10204C00DE0115960E940713E8EAFEE0FA93EA9384
:10205C00DE011896A0DE198108812596FF9008955F
:10206C00BA93AA93B981A881109631F0FC81EB81C7
:10207C006A8161931197E9F7EB81FC8125960895AC
:10208C00BA93AA93E991F991A991B991CD01619172
:10209C006D936623E1F7FC010895BA93AA93A99175
:1020AC00B991EE27FF276D91662311F03196FBCF86
:1020BC000895BA93AA93AA27BB27E991F9910590A1
:1020CC00002011F01196FBCFFD010895BA93AA934D
:1020DC00BB81AA816C91662361F0F981E881C89576
:1020EC00002029F031966015D1F7FD0104C011963E
:1020FC00F1CFEE27FF270C946111BA93AA93AA8112
:10210C00BB81CD01E881F9817191772311F4FC0138
:10211C0009C06D916717C1F30196DC01662391F735
:10212C00EE27FF270C946111BA93AA93BB81AA8165
:10213C00882799276D91662349F0F981E8810590EC
:10214C00002021F06015D9F70196F4CFFC01B3C043
:10215C00BA93AA931A930A93EC81FD81309779F480
:10216C00E091CC08F091CD08309719F4E0E0F0E064
:10217C002FC0E091CC08F091CD08EC83FD830E9438
:10218C0032130E949A10AC81BD81EA0FFB1FEC83C5
:10219C00FD83AC81BD81EC91E03041F4E0E0E09353
:1021AC00CC08E093CD08E0E0F0E012C00E943213BE
:1021BC000E946C108F01309729F0D8010F5F1F4FD0
:1021CC00E0E0EC930093CC081093CD08EC81FD81FA
:1021DC001981088126960895AA93E881F0E0E059C8
:1021EC00FD4FA491E9810E944B1322960895AA9366
:1021FC001A93E981E73011F0EA3019F410912808AC
:10220C0009C0E93019F41091290804C0E830A1F490
:10221C0010913808E0912908E03049F0103019F09D
:10222C00EFEF188129C0EA81E095188125C01030A4
:10223C0019F4E0E0188120C0EA8118811DC0BA931E
:10224C00AA93EA81E13021F4E881F981E49114C088
:10225C00E23029F4A881B9810E9480130DC0E330CB
:10226C0041F4A881B981E0914108F09142080995A7
:10227C0003C0A881B981EC9123960895AA93EB81B0
:10228C00E03029F4E881A981BA81EC9314C0E230E2
:10229C0031F4E881A981BA810E948C130CC0E3301F
:1022AC0051F4E981FA81FA93EA93AA81E091430807
:1022BC00F0914408099524960895AA93E1E0F991C8
:1022CC00F03310F0FA3308F0EE270895AA93E1E00A
:1022DC00F991F03229F0F93010F0FE3008F0EE27C9
:1022EC000895AA93E1E0F991F05340F0FA3038F0F8
:1022FC00FF75F750FA3010F0F03108F0EE27089522
:10230C00662777270E947B1384E00895FA93EA935B
:10231C00E0E0EA9308950E94F303FE01FA93EA9336
:10232C00E4E6F0E0FA93EA93E8ECF0E0FA93EA934F
:10233C000895FE01FA93EA9308950E943209E0E0B1
:10234C00EA93EA9308950E94F303ACE2B1E00C9493
:10235C003913E0E0EA93EAE0EA9308950E94870CCF
:10236C00E0E0EA93E4E1EA9308950E94870CA8EC7C
:10237C00B0E00C943913FA93EA93A9EFB2E00E94FF
:10238C00AE10E883F98308950E94870CA8EEB3E0A1
:10239C000C9439130E94F303FE01E85FFE4FFA938D
:1023AC00EA93E0E0F1E0FA93EA93E8ECF0E0FA93D8
:1023BC00EA930895E0E0EA93E4E1EA93089566274E
:1023CC0077270E947B1308950E94870CC2CF0E942E
:1023DC00870CE8ECF0E0E417F50708950E94F3038E
:1023EC00A4E6B0E00C9439130E944B13E095E12164
:1023FC00089513B2E12FF0E0DE011E96AE0FBF1F61
:10240C00EC91A1E0B0E00E945B13A12DB0E0EA23B7
:10241C00FB2330970895FA93EA93E98DFA8D0E9485
:10242C0064130E947B1384E00E945B0E289608952F
:10243C000E943209EAE0EA930895E0932C08F093A5
:10244C002D080895E5E4F8E0FA93EA930895A9EFCE
:10245C00B2E00E94AE10E8A3F9A30895E0E0F0E02A
:10246C00FA93EA9308950E943209E0E0EA93E5E0DA
:10247C00EA9308950E94870CACE2B1E008950E94A3
:10248C003209E5E0EA93E9E1EA930895E09362000A
:10249C00E09162000895E0E0EABBE0916200E86040
:1024AC00F5CFE77FE0936200EFEFEABBE881EBBB8F
:1024BC000E940D080C941508E695E695E695AE2F4E
:1024CC000C946B08E0936100E091610008950E9408
:1024DC008F080C947A08EA0FFB1FEE83FF83089594
:1024EC00EC85EA93EF81F8853196EF83F887319785
:1024FC00FA93EA93A0E00C944411EC85EA93EF81F3
:10250C00F8853196EF83F8873197089566277727FA
:10251C00DF01CB010C9425115A93AA850C94FD1064
:10252C000A930395E889EA935A9308950A930395BD
:10253C00A8890E94A608E42308955E2FEC85EA93EF
:10254C00AF81B885882799270E9425111E2E0895E2
:10255C000A930395E889EA93EE85EA93E985FA856F
:10256C003196E987FA873197D1CFBA93AA93A8818C
:10257C00B9810E949D1308950E94A113E0912C082B
:10258C00F0912D080895F8010F5F1F4F04900895E6
:10259C00E0912C08F0912D083196E4910895ED917D
:1025AC00FD913196FE93EE9308952A93AD85BE85E9
:1025BC00EF85F88909950895E889F9893497E88BAE
:1025CC00F98B0895AD85BE85EF85F8890995089539
:1025DC00A889B98914960E947113EE83FF83AE818A
:1025EC00BF810895A889B98914960E947113EA874E
:1025FC00FB870895DE011C960E9443130E94711301
:10260C0008950E9443130E947113FA93EA931A934C
:10261C000A930895A32F0E946C11E0300895AC85A5
:10262C00BD85EE85FF8509950895AA85BB85AC917E
:10263C00A0300895EE85FF853497EE87FF87AE8531
:10264C00BF8514960D911C910895DE0117960E947A
:10265C0043130E9471130895EC81FD81FA93EA9360
:10266C00AC81BD810895109639F0A89580ED97E066
:10267C000197F1F71197C9F708950024AF0DB01D1C
:10268C000895F195E195F0400895EE230E2EEA2F72
:10269C0019F0EE0F0A94E9F70895EE230E2EEA2FA7
:1026AC0019F0E6950A94E9F70895EE230E2EFD0134
:1026BC0021F0EE0FFF1F0A94E1F708956F2F660FBC
:1026CC00660B762F0895FA9FF02DEB9FF00DEA9F85
:1026DC00E02DF10D0895ED91FC9111970895059061
:1026EC00F491E02D089560E070E07A936A93FA9388
:1026FC00EA930895E199FECFFF93FFB7F894AEBB30
:10270C00BFBBE09AEDB3FFBFFF910895E19B02C000
:10271C00A895FCCF9FB7F894AEBBBFBBE09A8DB326
:10272C00E81719F0EDBBE29AE19A9FBF08950024D7
:10273C000A160B0608955A934A933A932A931A93BE
:10274C000A9308955D814C813B812A81198108810E
:10275C000895AC0FBD1F05900D928A95E1F7089571
:00000001FF
