:020000000C945E
:1000020050030C9400000C9400000C9400000C941B
:1000120000000C9400000C9400000C9400000C945E
:1000220000000C9400000C9400000C9400000C944E
:1000320000000C9400000C9400000C9400000C943E
:1000420000000C9400000C9400000C9400000C942E
:1000520000000C9400000C9400000C9400000C941E
:1000620000000C9400000C9400000C9400000C940E
:1000720000000C9400000C9400000C9400000C94FE
:1000820000000C9400000C940000050720600000A2
:1000920000000000005F00000007000700147F144A
:1000A2007F14242A7F2A12231308646236495522B8
:1000B200500005030000001C2241000041221C00E8
:1000C200082A1C2A0808083E0808005030000008C8
:1000D20008080808003030000020100804023E51D1
:1000E20049453E00427F4000426151494621414517
:1000F2004B311814127F1027454545393C4A49496E
:100102003001710905033649494936064949291E14
:100112000036360000005636000000081422411452
:100122001414141441221408000201510906324920
:1001320079413E7E1111117E7F494949363E414146
:1001420041227F4141221C7F494949417F090901DE
:10015200013E414151327F0808087F00417F410042
:100162002040413F017F081422417F404040407FB0
:100172000204027F7F0408107F3E4141413E7F0915
:100182000909063E4151215E7F091929464649491E
:10019200493101017F01013F4040403F1F20402083
:1001A2001F7F2018207F631408146303047804035C
:1001B200615149454300007F41410204081020413A
:1001C200417F00000402010204404040404000011F
:1001D20002040020545454787F484444383844443C
:1001E2004420384444487F3854545418087E090146
:1001F20002081454543C7F0804047800447D4000F3
:100202002040443D00007F10284400417F40007C94
:10021200041804787C0804047838444444387C1474
:10022200141408081414187C7C0804040848545454
:100232005420043F4440203C4040207C1C2040206D
:100242001C3C4030403C44281028440C5050503C48
:100252004464544C44000836410000007F00000012
:100262004136080002010204027F4141417F000140
:1002720003070F1F3F7FFF001027E80364000A00F7
:100282000100001000011000010031323334353614
:100292003738392A30230705060400010200257386
:1002A2000D0A0041542B48545450494E4954004FB2
:1002B2004B006C657620310041542B485454505009
:1002C2004152413D22434944222C31006C65762043
:1002D200320041542B48545450504152413D225512
:1002E200524C222C22257322006C65762033004169
:1002F200542B48545450504152413D22434F4E5486
:10030200454E54222C226170706C69636174696F6E
:100312006E2F6A736F6E22006C65762034007B222A
:1003220070686F6E655F6E756D626572223A222526
:1003320073227D006C657620350041542B4854545D
:1003420050444154413D25752C256400444F574E7D
:100352004C4F4144006C65762036006C6576203740
:100362000041542B48545450414354494F4E3D315F
:10037200002B48545450414354494F4E3A006C6547
:100382007620380041542B48545450524541440081
:10039200526573706F6E73653A006C657620390032
:1003A20041542B485454505445524D006C657620AC
:1003B20031300053657474696E6720534D53204D7C
:1003C2006F64652E2E2E0041542B434D47463D311E
:1003D2000041542B434E4D493D322C322C302C30AF
:1003E2002C300041542B434D4744413D2244454C5F
:1003F20020414C4C2200534D532052656164792EAA
:1004020000436F6E6E656374696E6720746F204778
:100412005052532E2E2E0041542B53415042523DE6
:10042200332C312C22436F6E74797065222C224753
:10043200505253220041542B53415042523D332CCF
:10044200312C2241504E222C22257322006D6369E9
:100452006E65740041542B53415042523D312C3150
:10046200004665746368696E672049502E2E2E001F
:1004720041542B53415042523D322C31002B5341B7
:100482005042523A00526573703A002B5341504227
:10049200523A20312C312C004D4F544F52202564BA
:1004A200204F4E21004D4F544F52202564204F467D
:1004B200462100687474703A2F2F3139332E352E4D
:1004C20034342E3139312F686F6D652F706F73742C
:1004D2002F002B3938393132323630383538320044
:1004E2004D6F64756C6520496E69742E2E2E004125
:1004F20054453000415400534D5320496E697420D5
:100502004661696C656421004750525320496E6907
:1005120074204661696C6564210053797374656D5A
:100522002052656164792E0057616974696E672093
:10053200666F7220534D532E2E2E0053656E6469E2
:100542006E6720504F53542E2E2E00504F5354207E
:100552004F4B00504F5354204661696C000001001C
:100562002D4E414E00494E4600000C000005A502EA
:1005720003000C05B10206000F05B40214001505B4
:10058200BA0203002905B10206002C05CE020300BF
:100592003205B10206003505EB0229003B05F102E6
:1005A20003006405B102060067051A0306006D0523
:1005B2003603090073054E0306007C055703060047
:1005C20082055D031000880563030D00980573031F
:1005D2000600A50580030C00AB0586030300B705E2
:1005E200B1020A00BA0592030600C4059C030C007E
:1005F200CA05A2030300D605B1020700D905AE035E
:100602001400E005B5030A00F405C9031200FE0553
:10061200D30313001006E5030B002306F8031600AC
:100622002E0603041E00440619040D006206560439
:100632000F006F0663040D007E06720408008B062D
:100642007F040600930687040D0099068D041F009F
:10065200A606B5040E00C506D4040F00D306E204B4
:100662000500E206F1040300E706F6041100EA06BB
:10067200F9041200FB060A050E000D071C05130003
:100682001B072A0510002E073D0508003E074D05F1
:100692000A00460755050100820760050000F8942C
:1006A200EE27ECBBF1E0F5BFE5BFE0936C008DE017
:1006B200A2E0BB27ED938A95E9F780E090E1A0E004
:1006C200B1E0ED930197E9F7ECE6F5E085919591BC
:1006D200009761F0A591B59105901590BF01F001C9
:1006E20005900D920197E1F7FB01F0CFEFEFEDBF1F
:1006F200E0E1EEBFC0E0D5E00C946005BA93AA93A6
:10070200E0EAF2E0FA93EA93EA81FB810E946F0D3C
:100712000E94230C26960C948106BA93AA930E94F7
:10072200FB0E00E010E020E030E0EC85FD85FA935E
:10073200EA93E0E0EA93AD85BE850E94420CE8852B
:10074200F9852E173F07D8F45F9B12C00E94730AE7
:100752005E2FEA85FB8531970E171F0744F4F801D7
:100762000F5F1F4FAC85BD85EA0FFB1F508306C08C
:10077200A1E0B0E00E94A30E2F5F3F4FE0CFEC85D7
:10078200FD85FA93EA93A885B9850E948F0C30976C
:1007920011F0E1E001C0E0E00E94020F2E96089500
:1007A200BA93AA93EF97EF97EF972397D1501A93A3
:1007B2000A93A0E0B5E00E94750DACE0B5E0ADDFB4
:1007C200E03011F4E0E0DBC00E94850DAFE0B5E05F
:1007D2000E94510AA5E1B5E00E94750DA9E2B5E0BB
:1007E2009CDFE03011F4E0E0CAC00E94850DACE26B
:1007F200B5E00E948A0DE4EDF2E0FA93EA93FE017D
:10080200E853FE4F0190F081E02D0E946F0D0E948F
:10081200F50B2896DE01AE5BBE4F0E94750DA2E37A
:10082200B5E07BDFE03011F4E0E0A9C00E94850D65
:10083200A5E3B5E00E94510AABE3B5E00E94750D55
:10084200A4E6B5E06ADFE03011F4E0E098C00E946F
:10085200850DA7E6B5E00E94510AFE013296FA9391
:10086200EA93E0E2F3E0FA93EA93FE01EA53FE4FE1
:100872000190F081E02D0E946F0D0E94F50B2896E9
:10088200DE0112960E945F0C8F010E94850DADE67B
:10089200B5E00E948A0DECE3F3E0FA93EA93F801E3
:1008A200662777270E94D50EE0E3F5E760E070E067
:1008B2000E94D50E88E00E94F50B2C96DE01AE5BFD
:1008C200BE4F0E94920DE8E5FBE1FA93EA93A3E79B
:1008D200B5E023DFE03011F4E0E051C00E94850D65
:1008E200ACE7B5E00E94510ADE0112960E949E0D0D
:1008F2000E94850DA2E8B5E00E94510AA8E8B5E081
:100902000E94920DE0E3F5E7FA93EA93A8E9B5E0D5
:1009120004DFE03011F4E0E032C00E94850DA5EA68
:10092200B5E00E94510AABEAB5E00E94920DE8E5FB
:10093200FBE1FA93EA93A7EBB5E0EFDEE03059F082
:100942000E94A40DAAEBB5E00E94AA0DDE01AC5BE9
:10095200BF4F0E94510A0E94850DA4ECB5E00E948F
:10096200510AAAECB5E00E94750DA6EDB5E0D5DE00
:100972000E94850DA9EDB5E00E94510AE1E01981BE
:100982000881EF96EF96EF962996DF5F08950E9411
:10099200A40DA0EEB5E00E94510AA4EFB5E00E94BA
:1009A2009E0DAEEFB5E00E949E0DA0E1B6E0A6DE80
:1009B200A0EDB7E00E94A30E0E94B10DA3E2B6E043
:1009C2000E94510A0E94B60DE1E00895EF97EF9759
:1009D20068970E94A40DAEE2B6E00E94510AA4E418
:1009E200B6E00E94BA0DFE01EC59FF4FFA93EA936A
:1009F200E7E3F4E0FA93EA93EFE4F4E00E946F0D88
:100A02000E94F50B2896DE01AC59BF4F0E94BA0D29
:100A1200A2E6B6E073DEA8EBBBE00E94A30E0E9442
:100A2200A40DAFE6B6E00E94510AAEE7B6E066DE7C
:100A3200FE01FA93EA93E4E6F0E0FA93EA93E8E837
:100A4200F3E1FA93EA93ABE8B6E067DEE03091F1C6
:100A52000E94B10DA3E9B6E00E94510A0E94850DE1
:100A6200DE0112960E94510AA8EBBBE00E94A30E7F
:100A7200FE01FA93EA93A9E9B6E00E948F0C30973F
:100A8200C9F02297FE0132960E94C00DE0E0F0E02C
:100A92000E94C00DE881F981309759F0EDE6F7E048
:100AA200FA93EA93AA81BB810E94520CE1E022965A
:100AB20002C02296E0E0EF96EF9668960895269798
:100AC20006EA16E025EC36E0E0E0EABBEBBBE7BB6A
:100AD200E0EFE8BBE7E0E4BBE0EFE5BBECE3E2B963
:100AE200E0E0E3B9E0936100E0936200EBB9E8E192
:100AF200EAB9E6E0E0939500E0E0E0939000E3E3FA
:100B0200E9B9E0E8E4BFE4BFECE8F0E0E883F983A8
:100B1200E0E0EA83EB83EC83ED83DE01F3D0ECE8E3
:100B2200F0E00E94C90D0E94A40DA3EDB6E00E9460
:100B3200510AA8E8B3E10E94A30EA2EEB6E0DEDD00
:100B42000E94B60DA7EEB6E0D9DD0E94B60D1FDFFA
:100B5200E03039F40E94B10DAAEEB6E00E94510ACB
:100B6200FFCF34DFE03039F40E94B10DABEFB6E0D5
:100B72000E94510AFFCF0E94A40DADE0B7E00E948F
:100B8200AA0DABE1B7E00E94510A0E94A40DAEE2A9
:100B9200B7E00E94510A1A930A93D90101DEE030AC
:100BA20029F00E94B10DAEE3B7E004C00E94B10D7E
:100BB200A6E4B7E00E94510AFFCFFFCF0000E09108
:100BC2006200E061E093620000000895E09162003B
:100BD200EF7E0E94CE0DEF7D0E94CE0DEF7BE09363
:100BE200620008951A93EADF19B3E0916200EF7E82
:100BF200E0936200E12F19910895AA931A930E943B
:100C0200D30DEB7FE0936200E981EF5F1E2F10FFAF
:100C120004C0E0916200E06203C0E0916200EF7DF7
:100C2200E093620011FF04C0E0916200E06403C03F
:100C3200E0916200EF7BE0936200D4DFE078E9F7B5
:100C420018815EC0AA93A981D8DFE09162000E9458
:100C5200D90D56C0E0917E07EA93E0917D07EF73CC
:100C6200E064AE2FEFDFE0917E07EA93E0917F0729
:100C7200E86BAE2FE7DF0895AA93E981E0937D0741
:100C8200E295EF70E695E695E0937E07E881E093C2
:100C92007F07E0DF35C0A0917D07AF5FA0937D079E
:100CA200A03818F0E0E0E0937D07E0917D07EF7354
:100CB20031F4E0917D07EA93A0917F07DDDF08958B
:100CC200AA93A0917E0799DFE0916200E4600E94FE
:100CD200CE0D0E94D90D0C947C0AA0917E078DDF67
:100CE2000E94D30DE460E09362007CDF0895AA9332
:100CF200E981EA93E9810E94E40DEFDFABDFEDDFEA
:100D020022960895BA93AA931A93E0916100E06142
:100D12000E94EA0DE8600E94EA0DE4600E94EA0D7A
:100D2200E068E0936100E0916200E068E0936200B5
:100D3200E0916100E0620E94EA0DE064E0936100EC
:100D420045DFE0916200EF77E0936200A4E6B0E055
:100D52000E94A30EE0916200E068E093620010E05E
:100D6200123040F41A93AFE36DDF1A931395A0EC9F
:100D720069DFF6CFE1E0E0935007E0E0E09351074E
:100D8200E981FA813097A9F0A981BA810E94CD0E3A
:100D92000E94C90DA981BA8112960E94CD0EE093DC
:100DA2006907F0936A07A981BA8114960E94CD0E51
:100DB2000AC0E0E0F0E00E94C90DE0E0F0E0E0935C
:100DC2006907F0936A07E0936B07F0936C07E1E021
:100DD200E0935607E0935707E0935807EFEFE0934D
:100DE2005907E1E0E0936007E1E6F7E0FA93EA935E
:100DF200EFEFEA93A8E0B0E00E94420C04D0E1E0F9
:100E02001881239608950E94FD0E00E030E0E091E3
:100E12005107E03009F00FEF383078F4E0E0EA9360
:100E2200A32F3F5F29DF10E0A12F1F5FA03820F41E
:100E3200A02F0E94EF0DF8CFEFCFE0E0EA93A0E001
:100E42001BDFE0E0EA93A0E040D30E94040F249667
:100E52000895AA931A93ED81EA93AD8148DF1E2F7C
:100E6200F9DEE981E73011F0E83039F4EB81EA93F9
:100E7200AA810E94090DEB8308C0E33021F4EB81C3
:100E8200E095EB8302C0E03021F4EA81E0951E2375
:100E920002C0E23029F4EA81AB81EA231E2B0EC0A4
:100EA200E13029F4EA81AB81EA231E2707C0E4304E
:100EB20029F4EA81E095AB81EA2B1E23A12F0E943F
:100EC200EF0D18810C94FC0CAA9323970E94FB0E41
:100ED200A889A03848F4AF85A03430F4AE85A0309C
:100EE20019F0AD85A03009F4C8C1EE85E887A8895C
:100EF200BB27EE85F0E0AE0FBF1FA138E0E0BE07D2
:100F020020F0A889E0E8EA1BEE872D85AF85BB2794
:100F1200ED85F0E0AE0FBF1FA134E0E0BE0720F088
:100F2200AF85E0E4EA1BED87A985A63009F05BC036
:100F3200EC85E13009F4A1C1E33039F4E0916B07AB
:100F4200F0916C07309709F498C10885ED85E69514
:100F5200E695E6953E2FE22FE77019F4AD852A1744
:100F6200E9F0A02FBB27E32FF0E00E94C50EAA856F
:100F7200BB850E94F30D269526952695532F5F93E8
:100F82005F5FE22FAF91EA1748F0102FE12F115067
:100F9200E03019F00E94F80DF9CFF1CFAE850A17B3
:100FA20011F1EE85AA85BB85F0E00E94F30DED8577
:100FB200E77009F03F5F20E02F932F5FE32FAF919F
:100FC200AE1788F41E851F931F5FE02FAF91AE17F7
:100FD20018F40E94F80DF7CFEE85AE81BF81F0E0E4
:100FE2000E94F30DE9CFEF85E7703E2FED85E030EB
:100FF20009F443C1EA85FB85EE83FF8310E008898B
:10100200303009F065C0AD85A83008F45CC0E985D0
:10101200E03011F0E33009F402C0E73009F402C015
:10102200E83009F402C0E63009F402C0E93009F4FC
:1010320002C0EA3021F40A93E8890E94E40D1F936A
:101042001F5FEE85AF91AE17B8F5A985A63061F4A2
:1010520044DE00DE0E94050EFA93EA933EDEAE2FD6
:101062000E94500D18DE27C0E985E93011F450E0E6
:101072000EC0EA3011F45FEF0AC00E94050E0E9412
:101082000E0E5E2FE985E73011F0E83021F40E9460
:10109200140E5E2F06C0E33011F4509502C0E0300A
:1010A20021F4A52F0E94EF0D06C00E94180EEFEF4B
:1010B200EA93AD85CEDEC3CFEF85E85FEF87ED859E
:1010C200E850ED87D1C05D8520E0E0E0ED877AC091
:1010D200E32FAD85AE0FA93020F42D85E0E0ED873A
:1010E20003C0E8E0E31B2E2F3A93A22F0E94FE0CCE
:1010F2004E2FE985E630F1F41F931F5FEE85AF9125
:10110200AE17B8F40E941E0EAE2FE32F0E94BD0E42
:101112000E94250EE32FA42F0E94BD0EE095E1212F
:101122005E2B0E94050EFA93EA93A52F0E94500DA2
:10113200E3CF2CC0E93011F450E003C0EA30A9F447
:101142005FEF0E94140EAE2FE32F0E94B50E5E2FAA
:101152001F931F5FEE85AF91AE1730F40E94180EF9
:101162004A93A0E076DEF4CF11C01F931F5FEE8595
:10117200AF91AE1758F40E94300EAE2FE32F0E94AB
:10118200B50EEA934A93AD8564DEEFCFED85E0308C
:1011920009F473C0AD85A83028F4ED85E21B5E2FFB
:1011A200E0E003C0532FED85E850ED8710E0EF85B6
:1011B200E85FEF87E8E0E31B2E2F0889EA85FB85CD
:1011C200EE83FF83E52FF0E0E059FD4F4491E9857E
:1011D200E630F1F41F931F5FEE85AF91AE17B8F4BE
:1011E2000E941E0EAE2FE22F0E94B50E0E94250E07
:1011F200E22FA42F0E94B50EE095E1215E2B0E9402
:10120200050EFA93EA93A52F0E94500DE3CF2CC04E
:10121200E93011F450E003C0EA30A9F45FEF0E9414
:10122200140EAE2FE22F0E94BD0E5E2F1F931F5F82
:10123200EE85AF91AE1730F40E94180E4A93A0E0EB
:1012420008DEF4CF11C01F931F5FEE85AF91AE177A
:1012520058F40E94300EAE2FE22F0E94BD0EEA9388
:101262004A93AD85F6DDEFCFE885AA85BB85F0E030
:10127200EA0FFB1FEA87FB87B9CE0E94020F619635
:1012820008950E943D0E24F0E0E0F0E00C94070D7A
:10129200A881B981A038E0E0BE0724F0EFE7F0E0D2
:1012A2000C94070DE881F9810C94070D0E943D0E04
:1012B20024F0E0E0F0E00C94070DA881B981A0349D
:1012C200E0E0BE0724F0EFE3F0E00C94070DE881C4
:1012D200F9810C94070DBA93AA9323970E94440EA6
:1012E2008F01002E012A19F4E0E0F0E05FC00E94B5
:1012F2004B0E0F820E944B0E0E820E944B0E0886EE
:10130200EB85A885EA1718F4E0E0F0E04FC0F80199
:101312000F5F1F4F5491A885BB27EE27A50FBE1F55
:10132200EB85F0E0EA17FB0718F0E0E0F0E03EC0E2
:10133200EE81E695E695E6954E2FEE81E77009F08F
:101342004F5FEF81E030A1F0A985BA85EC93A885C3
:10135200EB85EA1BF0E0DF01EF81F0E00E94C50EB1
:10136200DF01E42FF0E00E94C50EE00FF11F1EC066
:101372009801E52FF0E00E0F1F1FA885AF5FA88729
:10138200A150EB85AE1760F4F9012F5F3F4FA49196
:10139200B0E0E42FF0E00E94C50E0E0F1F1FEDCF4C
:1013A200F901E491A985BA85EC93F8010E94020F34
:1013B2002C960895E0E0E0935207A0915307BB27D3
:1013C2000E94500EF0E0AE0FBF1FE0915707F0E011
:1013D200AE0FBF1F6BDFE09353070895AA932197C7
:1013E2000E94440E309709F455C0AF81AA3009F427
:1013F2004FC0EF81EA93DE0117966DDFAF013097A0
:1014020009F44AC0E0915607AE81EA0F3E2FA0913F
:101412005207BB27F0E0EA0FFB1F8F010138E0E023
:101422001E0718F0032F1127C5DFE0915207EA9338
:10143200E0915307EA93E885EA930E94500EEA93FB
:10144200E1E0EA935A934A93A7E03EDDE091520726
:10145200AE81EA0FEA93E0915307EA93E0915607CF
:10146200EA930E94500E0E94570EE0915207EA93AF
:10147200A09153070E94500EEA0FEA933A93E0912B
:1014820057070E94570EE0E8F0E0E017F10711F469
:1014920091DF02C0009352070E94020F289608951E
:1014A200BA93AA931A93EC81EA93AC810ED0A981E4
:1014B200BA81ED91A983BA831E2FE03019F0A12FD2
:1014C2008DDFF5CF18810C94500CAA93A981BB270C
:1014D200D8DEE0935207A881BB27E8DEE0935307EA
:1014E2000C94070D5F9BFECFECB10895AA935D9B10
:1014F200FECFE881ECB921960895BA93AA93AA8106
:10150200F5DFA881B9810E94610E0C944E0DBA9349
:10151200AA931A930A93AA81BB8112960E94CD0EB6
:10152200309729F1AA81BB8114960E94CD0E8F01BA
:10153200309761F00230E0E01E0780F0F801319749
:101542008F01AA81BB811496ED93FC93AA81BB8182
:1015520012960E94610E3197AC81A083AA81BB8151
:101562000E94CD0EFF2312F00E94610E06C0AA81D6
:10157200BB81EFEFFFEFED93FC93198108818FC1DF
:10158200BA93AA9326970E94FB0E10E0AC85BD8504
:10159200E0E0F0E0ED93FC93EA89FB893196EA8B77
:1015A200FB8B3197E4912E2FE03009F415C1E12F26
:1015B200E03039F4253211F411E002C00E94670EC6
:1015C2000AC1E130A9F4253219F40E94670E02C162
:1015D20012E040E000E02D3211F401E0FCC02B32B9
:1015E20011F44BE2F8C0203211F440E2F4C002C020
:1015F200E23039F450E013E0203311F40068EBC01C
:1016020003C0E33009F0E7C0203310F02A3308F0BA
:1016120007C0AAE05A9F502DE22FE0535E0FDBC0B5
:10162200E22FE33649F40E946E0EE889F989A4811B
:10163200AA930E94740ECEC0E33741F40E946E0E4C
:101642000E947A0E0E945F0C1E2F0AC0E03761F4DE
:101652000E946E0E0E947A0E0E946B0C1E2F086072
:1016620002600F7730E034C0E43611F0E93611F44D
:10167200046002C0E53731F4EAE7F2E0EE83FF836B
:1016820015E00CC0E83511F4086003C0E83709F032
:10169200A1C0E4E8F2E0EE83FF8314E002FF14C08D
:1016A2000E946E0E0E94840EAB85AA233AF4EA854C
:1016B200FB850E94B10EEA87FB874DE2403011F0B4
:1016C2001F5F01C00B7F04C00E946E0E0E94840E39
:1016D20000FD11C0151778F407FF08C002FF04C00F
:1016E2000B7F242F115001C020E301C020E20E9491
:1016F200670E5150EFCF312F01FF17C03030A1F0EC
:1017020003FF06C0EE81FF812591EE83FF8305C0B2
:10171200AE81BF812D91AE83BF830E94670E503090
:1017220009F051503150EACF4BC020E3EE81FF81E6
:101732000E94D10EE887F987EE81FF813296EE830F
:10174200FF83E885F985AA85BB85AE17BF0750F0F0
:101752002F5FA885B985EA85FB85EA1BFB0BEA8723
:10176200FB87EFCF2A3328F003FF02C0295F01C0B5
:10177200295D04FD1AC0213320F4A885B98511978B
:1017820009F409C0531710F000FF01C013C020E292
:1017920007FF0BC020E3006102FF07C00B7F4A93E3
:1017A2000E94740E503009F051500E94670E503062
:1017B20009F051503150A885B985129708F0B5CF7C
:1017C20000FF08C0503031F05150E0E2EA930E942D
:1017D200740EF8CF10E0E0CEAC85BD850E94CD0E30
:1017E2000E94020F64960895FF92F82E26970E9497
:1017F200FD0E0E948C0E309719F4EFEFFFEF1DC023
:10180200DE0116960E94AD0E8D010E948C0EEE83B3
:10181200FF83E0E0E887E987DE011A960E94930ED3
:10182200E8E8FAE0FA93EA93DE011A96A9DE9F014C
:10183200AE81BF81E0E0EC93F9010E94040F2A9689
:10184200FF900895FF92F82E26971A930A93DE01CD
:1018520014960E94AD0E8D01E0E0EC83ED83EE83E1
:10186200EF83DE0118960E94930EEEE7FAE0FA93F8
:10187200EA93DE01189684DE198108812896FF908A
:101882000895BA93AA93B981A881109631F0FC8188
:10189200EB816A8161931197E9F7EB81FC812596CF
:1018A2000895BA93AA93E991F991A991B991CD01B9
:1018B20061916D936623E1F7FC010895BA93AA93AF
:1018C200A991B991EE27FF276D91662311F0319608
:1018D200FBCF0895BA93AA93AA27BB27E991F9915E
:1018E2000590002011F01196FBCFFD010895BA93E7
:1018F200AA93BB81AA816C91662361F0F981E88188
:10190200C895002029F031966015D1F7FD0104C079
:101912001196F1CFEE27FF270C946D0DBA93AA937F
:10192200AA81BB81CD01E881F9817191772311F4FC
:10193200FC0109C06D916717C1F30196DC016623B2
:1019420091F7EE27FF270C946D0DBA93AA93BB81F2
:10195200AA81882799276D91662349F0F981E88148
:101962000590002021F06015D9F70196F4CFFC0113
:10197200B3C0BA93AA931A930A93EC81FD8130976C
:1019820079F4E0918007F0918107309719F4E0E053
:10199200F0E02FC0E0918007F0918107EC83FD8396
:1019A2000E949C0E0E94A60CAC81BD81EA0FFB1F17
:1019B200EC83FD83AC81BD81EC91E03041F4E0E049
:1019C200E0938007E0938107E0E0F0E012C00E941C
:1019D2009C0E0E94780C8F01309729F0D8010F5F7E
:1019E2001F4FE0E0EC930093800710938107EC8196
:1019F200FD811981088126960895AA93E881F0E075
:101A0200E059FD4FA491E9810E94B50E22960895F6
:101A1200AA931A93E981E73011F0EA3019F4109190
:101A2200500709C0E93019F41091510704C0E83099
:101A3200A1F410916007E0915107E03049F01030B5
:101A420019F0EFEF188129C0EA81E095188125C0CD
:101A5200103019F4E0E0188120C0EA8118811DC01D
:101A6200BA93AA93EA81E13021F4E881F981E49101
:101A720014C0E23029F4A881B9810E94DA0E0DC0A7
:101A8200E33041F4A881B981E0916907F0916A07D6
:101A9200099503C0A881B981EC9123960895AA9370
:101AA200EB81E03029F4E881A981BA81EC9314C07A
:101AB200E23031F4E881A981BA810E94E60E0CC0BD
:101AC200E33051F4E981FA81FA93EA93AA81E09131
:101AD2006B07F0916C07099524960895662777277E
:101AE2000E94D50E84E008950E947F03FE01EE5B02
:101AF200FF4FFA93EA93E0E0F1E0FA93EA93E0ED24
:101B0200F7E0FA93EA930895E0E0EA93E4E1EA93D6
:101B120008950E94510AFE01EE5BFE4FFA93EA938A
:101B220008950E947F03FE01EE5BFF4FFA93EA9352
:101B3200E0E0F1E0FA93EA9308950E947F03A4EFB4
:101B4200B1E00C94A30E0E940407E0E0EA93EA934A
:101B520008950E94510AE0E0EA93EAE0EA930895C8
:101B6200E0E0EA93EAE0EA930895A8EEB3E00C9489
:101B7200A30E0E947F03ACEDB5E00C94A30EFA9382
:101B8200EA93A9EEB2E00E94BA0CE883F9830895C1
:101B9200E0935407F09355070895E0936200E091B3
:101BA20062000895E0E0EABBE0916200E860F5CFF0
:101BB200E77FE0936200EFEFEABBE881EBBB0E94B4
:101BC200DF050C94E705E695E695E695AE2F0C94B5
:101BD2003D06E0936100E091610008950E94610674
:101BE2000C944C06EA0FFB1FEE83FF830895EC85ED
:101BF200EA93EF81F8853196EF83F8873197FA936C
:101C0200EA93A0E00C94500DEC85EA93EF81F885FD
:101C12003196EF83F8873197089566277727DF019A
:101C2200CB010C94310D5A93AA850C94090D0A9399
:101C32000395E889EA935A9308950A930395A8892C
:101C42000E947806E42308955E2FEC85EA93AF8123
:101C5200B885882799270E94310D1E2E08950A9370
:101C62000395E889EA93EE85EA93E985FA85319648
:101C7200E987FA873197D1CFBA93AA93A881B9811C
:101C82000E94F70E08950E94FB0EE0915407F09116
:101C920055070895F8010F5F1F4F04900895E091D2
:101CA2005407F09155073196E4910895EA93E0E0E4
:101CB200EA93E0E0F0E0FA93EA93A9E00C94650776
:101CC200ED91FD913196FE93EE9308952A93AD85A1
:101CD200BE85EF85F88909950895E889F9893497D1
:101CE200E88BF98B0895AD85BE85EF85F889099556
:101CF2000895A889B98914960E94CD0EEE83FF83B8
:101D0200AE81BF810895A889B98914960E94CD0E2B
:101D1200EA87FB870895DE011C960E94AD0E0E94A1
:101D2200CD0E08950E94AD0E0E94CD0EFA93EA9355
:101D32001A930A930895EC81FD81FA93EA93AC8198
:101D4200BD810895109639F0A89580ED97E001972E
:101D5200F1F71197C9F708950024AF0DB01D08954A
:101D6200F195E195F0400895EE230E2EEA2F19F039
:101D7200EE0F0A94E9F70895EE230E2EEA2F19F0DA
:101D8200E6950A94E9F70895FA9FF02DEB9FF00D7E
:101D9200EA9FE02DF10D0895ED91FC9111970895C0
:101DA2000590F491E02D08957A936A93FA93EA9359
:101DB2000895E199FECFFF93FFB7F894AEBBBFBB86
:101DC200E09AEDB3FFBFFF910895E19B02C0A89591
:101DD200FCCF9FB7F894AEBBBFBBE09A8DB3E817B8
:101DE20019F0EDBBE29AE19A9FBF089500240A160A
:101DF2000B0608955A934A933A932A931A930A9395
:101E020008955D814C813B812A8119810881089561
:00000001FF
