:100000000C9487020C9400000C9400000C940000E7
:100010000C9400000C9400000C9400000C94000060
:100020000C9400000C9400000C9400000C94000050
:100030000C9400000C9400000C9400000C94000040
:100040000C9400000C9400000C9400000C94000030
:100050000C9400000C9400000C9400000C94000020
:100060000C9400000C9400000C9400000C94000010
:100070000C9400000C9400000C9400000C94000000
:100080000C9400000C9400000C9400000507206004
:10009000000000000000005F0000000700070014DF
:1000A0007F147F14242A7F2A12231308646236499E
:1000B0005522500005030000001C2241000041228F
:1000C0001C00082A1C2A0808083E080800503000B6
:1000D000000808080808003030000020100804025A
:1000E0003E5149453E00427F400042615149462110
:1000F00041454B311814127F1027454545393C4A7C
:1001000049493001710905033649494936064949CB
:10011000291E003636000000563600000008142262
:100120004114141414144122140800020151090648
:10013000324979413E7E1111117E7F494949363E4F
:10014000414141227F4141221C7F494949417F0968
:100150000901013E414151327F0808087F00417F7B
:1001600041002040413F017F081422417F40404030
:10017000407F0204027F7F0408107F3E4141413EE0
:100180007F090909063E4151215E7F09192946462A
:100190004949493101017F01013F4040403F1F2053
:1001A00040201F7F2018207F631408146303047805
:1001B0000403615149454300007F41410204081096
:1001C0002041417F000004020102044040404040C1
:1001D000000102040020545454787F4844443838C5
:1001E00044444420384444487F3854545418087ECA
:1001F000090102081454543C7F0804047800447D2B
:1002000040002040443D00007F10284400417F40D2
:10021000007C041804787C0804047838444444388A
:100220007C14141408081414187C7C08040408486E
:1002300054545420043F4440203C4040207C1C2027
:1002400040201C3C4030403C44281028440C505076
:10025000503C4464544C44000836410000007F0088
:1002600000004136080002010204027F4141417F43
:10027000000103070F1F3F7FFF001027E803640002
:100280000A00010000100001100001003132333477
:1002900035363738392A30230705060400010200B5
:1002A00025730D0A0053657474696E6720534D53AE
:1002B000204D6F64652E2E2E0041542B434D474632
:1002C0003D310041542B434E4D493D322C322C30B0
:1002D0002C302C300041542B434D4744413D2244A7
:1002E000454C20414C4C2200534D532052656164D3
:1002F000792E0053657474696E67204750525320FD
:100300004D6F64652E2E2E0041542B5341504252A6
:100310003D332C312C22436F6E74797065222C2270
:1003200047505253220041542B53415042523D33C7
:100330002C312C2241504E222C22257322006D6339
:10034000696E65740041542B53415042523D312C2B
:10035000310041542B53415042523D322C3100491F
:10036000503A004D4F544F52202564204F4E2100EB
:100370004D4F544F52202564204F464621004D6F6B
:1003800064756C6520496E69742E2E2E00415445AB
:100390003000415400534D5320496E69742046612A
:1003A000696C656421004750525320496E6974207E
:1003B0004661696C6564210053797374656D2052E0
:1003C000656164792E0057616974696E6720666F94
:1003D0007220534D532E2E2E002B434D543A005372
:1003E0004D5320436F64653A00456E746572206317
:1003F0006F6465206F6E206B65797061643A005997
:100400006F7520707265737365643A00436F64653D
:1004100020697320434F5252454354210050726F5C
:100420006772616D2048616C7465642E004572725C
:100430006F7220696E20656E7472792100534D537E
:1004400020636F646520697320696E76616C6964EE
:10045000210001002D4E414E00494E46000014007F
:100460000005A5020A001405B90212001E05C30208
:1004700013003005D5020B004305E80215004E05B8
:10048000F3021E00630508030D00810545030D00FE
:100490008E05520304009B055F030F009F057E033A
:1004A0000500AE058D030300B30592031100B605E8
:1004B00095031200C705A6030E00D905B803130063
:1004C000E705C6030600FA05D9030A000006DF03A4
:1004D00016000A06E9030D002006FF0311002D0691
:1004E0000C0410003E061D0410004E062D041000E2
:1004F0005E061D0415006E063D040E008306B8035B
:1005000013009106C60301008C0752040000F89402
:10051000EE27ECBBF1E0F5BFE5BFE0936C008DE0AA
:10052000A2E0BB27ED938A95E9F780E090E1A0E097
:10053000B1E0ED930197E9F7EEE5F4E0859195914F
:10054000009761F0A591B59105901590BF01F0015C
:1005500005900D920197E1F7FB01F0CFEFEFEDBFB2
:10056000E0E1EEBFC0E0D5E00C94A203639783E125
:10057000A0E0B0E0ECE8F2E00E94A10D1A930A932B
:1005800000E0033078F5E5B3E760E5BB15B2E02F96
:10059000F0E0DE015296AE0FBF1FEC91A1E00E9489
:1005A000EE0BE5BB10E01430D8F40E94F30BB1F46D
:1005B000AAE0B0E00E94290D0E94F30B79F40E949A
:1005C000F30BE9F3A3E01A9FF001DE011296AE0FE0
:1005D000BF1FEE27A00FBE1FEC9105C01F5FE3CF2A
:1005E0000F5FCFCFE0E01981088165960895BA9337
:1005F000AA93E0EAF2E0FA93EA93EA81FB816627A4
:1006000077270E94690D84E00E941F0B269648C23E
:100610000E94050CA0E0B5E00E941E09A4E1B5E02F
:100620000E940B0CAEE1B5E00E940B0CA0E3B5E01C
:10063000DEDFA0EDB7E00E94110CA3E4B5E00E945C
:10064000180C0895E2970E94050CAEE4B5E00E94F4
:100650001E09A3E6B5E00E94200CFE01FA93EA937E
:10066000E6E2F3E0FA93EA93EEE3F3E06627772716
:100670000E94260CDE010E94200CA1E8B5E0B7DF45
:10068000A8EBBBE00E94290DAEE8B5E0B0DFACED11
:10069000B5E00E94110CABE9B5E00E94180CE2969F
:1006A0000895BA93AA9364971A93ED89FE89E1306D
:1006B000A0E0FA0711F412E00DC0E230A0E0FA0762
:1006C00011F413E007C0E330A0E0FA0711F414E0DE
:1006D00001C035C0FE013196FA93EA93E3E6F3E0F8
:1006E0000E942D0C0E94340CE4E1EA93DE01139683
:1006F0000E941E0913B0E12FA1E00E943B0DE129E9
:10070000E3B9A0E1B7E20E94290D13B0E12FA1E007
:100710000E94EE0BE3B9FE013196FA93EA93E0E70B
:10072000F3E00E942D0CEAE0EA93E8E2EA93DE01AE
:1007300013960E941E09A0EDB7E00E94290D1881B2
:10074000679608952697E0E0EABBEBBBE7BBE0EFD6
:10075000E8BBE7E0E4BBE0EFE5BBECE3E2B9E0E0F7
:10076000E3B9E0936100E0936200EBB9E8E1EAB934
:10077000E6E0E0939500E0E0E0939000E3E3E9B980
:10078000E0E8E4BFE4BFECE8F0E0E883F983E0E010
:10079000EA83EB83EC83ED83DE0184D1ECE8F0E0C7
:1007A0000E94390C0E94050CAFE9B5E00E943E0C96
:1007B000AEEAB5E00E940B0CA3EBB5E00E940B0C77
:1007C00027DFE03039F40E94440CA6EBB5E00E942C
:1007D0001E09FFCF37DFE03039F40E94440CA7EC4C
:1007E000B5E00E941E09FFCF0E94050CA9EDB5E0FF
:1007F0000E941E090E94440CA7EEB5E00E941E094B
:100800002697E4E6E883E0E0E983EA83EB830E944D
:10081000490C0E944E0C0E94490CA4E6B0E00E94D4
:100820004B09309709F497C00E94490CAAEFB5E034
:100830000E94670B309709F48EC0E5E2F7E0FA9367
:10084000EA930E944E0CE5E2F7E0FA93EA93A4E6FD
:10085000B0E00E944B09A5E2B7E00E944E0B0E9457
:100860008B0D08F06CC0E0912507ED83AD81A133BD
:1008700029F0A23319F0A33309F05BC094D1E0E072
:10088000EA93E5E0EA93A0E0B6E00E941E09ED815C
:10089000EA83E6E4EA93E5E0EA93DE0114960E9437
:1008A0001E09E0E0EA93E9E1EA93AAE0B6E00E94DB
:1008B0001E095CDEEC83E030E1F3E0E0EA93EDE278
:1008C000EA93A0E2B6E00E941E09EC81EA83EAE521
:1008D000EA93EDE2EA93DE0114960E943E0CED816C
:1008E000AC81EA17B9F40E94340CE9E1EA93ADE275
:1008F000B6E00E941E09ED81F0E0F097E883F983ED
:10090000A881B981CEDE0E94340CE9E1EA93AEE31E
:10091000B6E00CC00E94540CAEE4B6E00E943E0C5F
:100920000E94340CE9E1EA93AEE5B6E00E941E09AC
:1009300006C00E94540CAEE6B6E00E943E0C0E9437
:10094000050CA3E8B6E00E941E090E94440CA1E930
:10095000B6E00E941E09269653CFFFCF0000E0911B
:100960006200E061E093620000000895E09162009F
:10097000EF7E0E945B0CEF7D0E945B0CEF7BE093AF
:10098000620008951A93EADF19B3E0916200EF7EE6
:10099000E0936200E12F19910895AA931A930E949F
:1009A000600CEB7FE0936200E981EF5F1E2F10FF88
:1009B00004C0E0916200E06203C0E0916200EF7D5C
:1009C000E093620011FF04C0E0916200E06403C0A4
:1009D000E0916200EF7BE0936200D4DFE078E9F71A
:1009E00018815EC0AA93A981D8DFE09162000E94BD
:1009F000660C56C0E0918A07EA93E0918907EF738D
:100A0000E064AE2FEFDFE0918A07EA93E0918B0775
:100A1000E86BAE2FE7DF0895AA93E981E093890799
:100A2000E295EF70E695E695E0938A07E881E0931A
:100A30008B07E0DF35C0A0918907AF5FA0938907DE
:100A4000A03818F0E0E0E0938907E0918907EF73A0
:100A500031F4E0918907EA93A0918B07DDDF0895D7
:100A6000AA93A0918A0799DFE0916200E4600E9456
:100A70005B0C0E94660C0C944909A0918A078DDFDB
:100A80000E94600CE460E09362007CDF0895AA930A
:100A9000E981EA93E9810E94710CEFDFABDFEDDFC2
:100AA00022960895BA93AA931A93E0916100E061A7
:100AB0000E94770CE8600E94770CE4600E94770C3B
:100AC000E068E0936100E0916200E068E09362001A
:100AD000E0916100E0620E94770CE064E0936100C5
:100AE00045DFE0916200EF77E0936200A4E6B0E0BA
:100AF0000E94290DE0916200E068E093620010E03E
:100B0000123040F41A93AFE36DDF1A931395A0EC03
:100B100069DFF6CFE1E0E093A406E0E0E093A5060C
:100B2000E981FA813097A9F0A981BA810E94610D0B
:100B30000E94390CA981BA8112960E94610DE0933E
:100B4000BD06F093BE06A981BA8114960E94610D7C
:100B50000AC0E0E0F0E00E94390CE0E0F0E0E09351
:100B6000BD06F093BE06E093BF06F093C006E1E039
:100B7000E093AA06E093AB06E093AC06EFEFE093B8
:100B8000AD06E1E0E093B406E5EBF6E0FA93EA9314
:100B9000EFEFEA93A8E0B0E00E943E0B04D0E1E062
:100BA0001881239608950E94950D00E030E0E091B1
:100BB000A506E03009F00FEF383078F4E0E0EA9372
:100BC000A32F3F5F29DF10E0A12F1F5FA03820F483
:100BD000A02F0E947C0CF8CFEFCFE0E0EA93A0E0DA
:100BE0001BDFE0E0EA93A0E03ED30E949C0D249638
:100BF0000895AA931A93ED81EA93AD8148DF1E2FE1
:100C0000F9DEE981E73011F0E83039F4EB81EA935D
:100C1000AA810E94880BEB8308C0E33021F4EB81AA
:100C2000E095EB8302C0E03021F4EA81E0951E23D9
:100C300002C0E23029F4EA81AB81EA231E2B0EC008
:100C4000E13029F4EA81AB81EA231E2707C0E430B2
:100C500029F4EA81E095AB81EA2B1E23A12F0E94A3
:100C60007C0C188126960895AA9323970E94930DD1
:100C7000A889A03848F4AF85A03430F4AE85A03000
:100C800019F0AD85A03009F4C6C1EE85E887A889C2
:100C9000BB27EE85F0E0AE0FBF1FA138E0E0BE0736
:100CA00020F0A889E0E8EA1BEE872D85AF85BB27F9
:100CB000ED85F0E0AE0FBF1FA134E0E0BE0720F0ED
:100CC000AF85E0E4EA1BED87A985A63009F05BC09B
:100CD000EC85E13009F49FC1E33039F4E091BF06BF
:100CE000F091C006309709F496C10885ED85E69528
:100CF000E695E6953E2FE22FE77019F4AD852A17A9
:100D0000E9F0A02FBB27E32FF0E00E94590DAA8540
:100D1000BB850E94800C269526952695532F5F93C0
:100D20005F5FE22FAF91EA1748F0102FE12F1150CB
:100D3000E03019F00E94850CF9CFF1CFAE850A178B
:100D400011F1EE85AA85BB85F0E00E94800CED854F
:100D5000E77009F03F5F20E02F932F5FE32FAF9103
:100D6000AE1788F41E851F931F5FE02FAF91AE175B
:100D700018F40E94850CF7CFEE85AE81BF81F0E0BC
:100D80000E94800CE9CFEF85E7703E2FED85E030C3
:100D900009F441C1EA85FB85EE83FF8310E00889F1
:100DA000303009F065C0AD85A83008F45CC0E98535
:100DB000E03011F0E33009F402C0E73009F402C07A
:100DC000E83009F402C0E63009F402C0E93009F461
:100DD00002C0EA3021F40A93E8890E94710C1F9343
:100DE0001F5FEE85AF91AE17B8F5A985A63061F407
:100DF00044DE00DE0E94920CFA93EA933EDEAE2FB0
:100E00000E94CF0B18DE27C0E985E93011F450E0CD
:100E10000EC0EA3011F45FEF0AC00E94920C0E94EB
:100E20009B0C5E2FE985E73011F0E83021F40E9439
:100E3000A10C5E2F06C0E33011F4509502C0E030E3
:100E400021F4A52F0E947C0C06C00E94A50CEFEF98
:100E5000EA93AD85CEDEC3CFEF85E85FEF87ED8502
:100E6000E850ED87CFC05D8520E0E0E0ED877AC0F7
:100E7000E32FAD85AE0FA93020F42D85E0E0ED879E
:100E800003C0E8E0E31B2E2F3A93A22F0E947D0BB4
:100E90004E2FE985E630F1F41F931F5FEE85AF9189
:100EA000AE17B8F40E94AB0CAE2FE32F0E94430D97
:100EB0000E94B20CE32FA42F0E94430DE095E12184
:100EC0005E2B0E94920CFA93EA93A52F0E94CF0BFF
:100ED000E3CF2CC0E93011F450E003C0EA30A9F4AC
:100EE0005FEF0E94A10CAE2FE32F0E943B0D5E2FFF
:100EF0001F931F5FEE85AF91AE1730F40E94A50CD3
:100F00004A93A0E076DEF4CF11C01F931F5FEE85F9
:100F1000AF91AE1758F40E94BD0CAE2FE32F0E9484
:100F20003B0DEA934A93AD8564DEEFCFED85E0306B
:100F300009F471C0AD85A83028F4ED85E21B5E2F61
:100F4000E0E003C0532FED85E850ED8710E0EF851A
:100F5000E85FEF87E8E0E31B2E2F0889EA85FB8531
:100F6000EE83FF83E52FF0E0E059FD4F4491E985E2
:100F7000E630E1F41F931F5FEE85AF91AE17A8F442
:100F80000E94AB0CAE2FE22F0E943B0D0E94B20CD0
:100F9000E22FA42F0E94EE0B5E2B0E94920CFA937C
:100FA000EA93A52F0E94CF0BE5CF2CC0E93011F4B6
:100FB00050E003C0EA30A9F45FEF0E94A10CAE2F0D
:100FC000E22F0E94430D5E2F1F931F5FEE85AF91AE
:100FD000AE1730F40E94A50C4A93A0E00ADEF4CFCD
:100FE00011C01F931F5FEE85AF91AE1758F40E949A
:100FF000BD0CAE2FE22F0E94430DEA934A93AD85BC
:10100000F8DDEFCFE885AA85BB85F0E0EA0FFB1F8E
:10101000EA87FB87BBCE0E949A0D619608950E94D5
:10102000CA0C24F0E0E0F0E00C94860BA881B981B2
:10103000A038E0E0BE0724F0EFE7F0E00C94860B68
:10104000E881F9810C94860B0E94CA0C24F0E0E040
:10105000F0E00C94860BA881B981A034E0E0BE07D3
:1010600024F0EFE3F0E00C94860BE881F9810C9416
:10107000860BBA93AA9323970E94D10C8F01002E5E
:10108000012A19F4E0E0F0E05FC00E94D80C0F8262
:101090000E94D80C0E820E94D80C0886EB85A88589
:1010A000EA1718F4E0E0F0E04FC0F8010F5F1F4FBF
:1010B0005491A885BB27EE27A50FBE1FEB85F0E056
:1010C000EA17FB0718F0E0E0F0E03EC0EE81E6959D
:1010D000E695E6954E2FEE81E77009F04F5FEF81C0
:1010E000E030A1F0A985BA85EC93A885EB85EA1BD1
:1010F000F0E0DF01EF81F0E00E94590DDF01E42F05
:10110000F0E00E94590DE00FF11F1EC09801E52F7D
:10111000F0E00E0F1F1FA885AF5FA887A150EB85D9
:10112000AE1760F4F9012F5F3F4FA491B0E0E42FB8
:10113000F0E00E94590D0E0F1F1FEDCFF901E49151
:10114000A985BA85EC93F8010E949A0D2C96089512
:10115000E0E0E093A606A091A706BB270E94DD0C65
:10116000F0E0AE0FBF1FE091AB06F0E0AE0FBF1F87
:101170006BDFE093A7060895AA9321970E94D10CF4
:10118000309709F455C0AF81AA3009F44FC0EF8100
:10119000EA93DE0117966DDFAF01309709F44AC07C
:1011A000E091AA06AE81EA0F3E2FA091A606BB27CA
:1011B000F0E0EA0FFB1F8F010138E0E01E0718F096
:1011C000032F1127C5DFE091A606EA93E091A70659
:1011D000EA93E885EA930E94DD0CEA93E1E0EA9362
:1011E0005A934A93A7E040DDE091A606AE81EA0F4C
:1011F000EA93E091A706EA93E091AA06EA930E9497
:10120000DD0C0E94E40CE091A606EA93A091A706EB
:101210000E94DD0CEA0FEA933A93E091AB060E943C
:10122000E40CE0E8F0E0E017F10711F491DF02C010
:101230000093A6060E949A0D28960895BA93AA9341
:101240001A93EC81EA93AC810ED0A981BA81ED9119
:10125000A983BA831E2FE03019F0A12F8DDFF5CFBF
:1012600018810C944C0BAA93A981BB27D8DEE0937C
:10127000A606A881BB27E8DEE093A7060C94860BA0
:101280005F9BFECFECB10895AA935D9BFECFE881F2
:10129000ECB921960895BA93AA930E94930D0E81FA
:1012A0001F8128853985002E012AD9F0E9DF5E2FBC
:1012B000583051F4AE81BF810A171B0720F421502A
:1012C00030400F5F1F4FF2CF5A3059F03F932F93AA
:1012D0002F5F3F4FE52FAF91BF91EC93015010402E
:1012E000E2CFD901E0E0EC93E885F9850E949A0D00
:1012F0002A960895BA93AA93AA81C6DFA881B981D4
:101300000E94EE0C0C94CD0BBA93AA931A930A93F5
:10131000AA81BB8112960E94610D309729F1AA81A2
:10132000BB8114960E94610D8F01309761F00230ED
:10133000E0E01E0780F0F80131978F01AA81BB81A0
:101340001496ED93FC93AA81BB8112960E94EE0C39
:101350003197AC81A083AA81BB810E94610DFF23DC
:1013600012F00E94EE0C06C0AA81BB81EFEFFFEFE6
:10137000ED93FC93198108818FC1BA93AA932697A4
:101380000E94930D10E0AC85BD85E0E0F0E0ED93A8
:10139000FC93EA89FB893196EA8BFB8B3197E491C8
:1013A0002E2FE03009F415C1E12FE03039F4253259
:1013B00011F411E002C00E94F40C0AC1E130A9F45A
:1013C000253219F40E94F40C02C112E040E000E062
:1013D0002D3211F401E0FCC02B3211F44BE2F8C0C5
:1013E000203211F440E2F4C002C0E23039F450E09F
:1013F00013E0203311F40068EBC003C0E33009F0C0
:10140000E7C0203310F02A3308F007C0AAE05A9F43
:10141000502DE22FE0535E0FDBC0E22FE33649F49C
:101420000E94FB0CE889F989A481AA930E94010D0E
:10143000CEC0E33741F40E94FB0C0E94070D0E94CE
:101440004E0B1E2F0AC0E03761F40E94FB0C0E9475
:10145000070D0E945A0B1E2F086002600F7730E0C4
:1014600034C0E43611F0E93611F4046002C0E53707
:1014700031F4EAE7F2E0EE83FF8315E00CC0E835D3
:1014800011F4086003C0E83709F0A1C0E4E8F2E015
:10149000EE83FF8314E002FF14C00E94FB0C0E9445
:1014A000110DAB85AA233AF4EA85FB850E94370D1E
:1014B000EA87FB874DE2403011F01F5F01C00B7FD0
:1014C00004C00E94FB0C0E94110D00FD11C01517F5
:1014D00078F407FF08C002FF04C00B7F242F1150CF
:1014E00001C020E301C020E20E94F40C5150EFCF74
:1014F000312F01FF17C03030A1F003FF06C0EE818D
:10150000FF812591EE83FF8305C0AE81BF812D91C0
:10151000AE83BF830E94F40C503009F0515031501B
:10152000EACF4BC020E3EE81FF810E94650DE88782
:10153000F987EE81FF813296EE83FF83E885F98596
:10154000AA85BB85AE17BF0750F02F5FA885B98568
:10155000EA85FB85EA1BFB0BEA87FB87EFCF2A3383
:1015600028F003FF02C0295F01C0295D04FD1AC0F5
:10157000213320F4A885B985119709F409C05317C0
:1015800010F000FF01C013C020E207FF0BC020E3F2
:10159000006102FF07C00B7F4A930E94010D50308B
:1015A00009F051500E94F40C503009F05150315064
:1015B000A885B985129708F0B5CF00FF08C0503054
:1015C00031F05150E0E2EA930E94010DF8CF10E0B3
:1015D000E0CEAC85BD850E94610D0E949A0D649697
:1015E0000895FF92F82E26970E94950D0E94190DDE
:1015F000309719F4EFEFFFEF1DC0DE0116960E9441
:10160000330D8D010E94190DEE83FF83E0E0E88722
:10161000E987DE011A960E94200DE4E8F9E0FA93CA
:10162000EA93DE011A96A9DE9F01AE81BF81E0E058
:10163000EC93F9010E949C0D2A96FF900895FF9269
:10164000F82E26971A930A93DE0114960E94330D02
:101650008D01E0E0EC83ED83EE83EF83DE011896ED
:101660000E94200DEAE7F9E0FA93EA93DE0118966A
:1016700084DE198108812896FF900895BA93AA9371
:10168000B981A881109631F0FC81EB816A81619368
:101690001197E9F7EB81FC8125960895BA93AA93F7
:1016A000A991B991EE27FF276D91662311F031962C
:1016B000FBCF0895BA93AA93AA27BB27E991F99182
:1016C0000590002011F01196FBCFFD010895BA930B
:1016D000AA93AA81BB81CD01E881F9817191772319
:1016E00011F4FC0109C06D916717C1F30196DC018B
:1016F000662391F7EE27FF276FC0AA93E881F0E0F9
:10170000E059FD4FA491E9810E943B0D2296089576
:10171000AA931A93E981E73011F0EA3019F4109195
:10172000A40609C0E93019F41091A50604C0E830F8
:10173000A1F41091B406E091A506E03049F0103014
:1017400019F0EFEF188129C0EA81E095188125C0D2
:10175000103019F4E0E0188120C0EA8118811DC022
:10176000BA93AA93EA81E13021F4E881F981E49106
:1017700014C0E23029F4A881B9810E946E0D0DC019
:10178000E33041F4A881B981E091BD06F091BE0635
:10179000099503C0A881B981EC9123960895AA9375
:1017A000EB81E03029F4E881A981BA81EC9314C07F
:1017B000E23031F4E881A981BA810E947A0D0CC02F
:1017C000E33051F4E981FA81FA93EA93AA81E09136
:1017D000BF06F091C0060995249608950E943B0D1E
:1017E000E095E121089513B2E12FF0E0DE011E96AD
:1017F000AE0FBF1FEC91A1E0B0E00E944B0DA12DF8
:10180000B0E0EA23FB23309708950E94D305E0E07F
:10181000EA93EA9308950E94F702A4EFB1E00C94D2
:10182000290D0E94290DE0E0EA93EAE0EA93089589
:101830000E941E09A8EEB3E00E94290DE1E0089580
:101840000E94F702ACEDB5E00C94290D0E94690DE1
:1018500084E00E94F10A28960895FA93EA93E98DAC
:10186000FA8D0E94540DF2CF0E94D305EAE0EA936C
:101870000895E093A806F093A90608950E941E0912
:10188000A8EEB3E00C94290DE0E0EA93EAE0EA93D5
:101890000895E1ECF6E0FA93EA930895E0E0EA9324
:1018A000A4E6B0E00C943E0B0E94D305E5E0EA9379
:1018B000E9E1EA930895E0936200E09162000895FF
:1018C000E0E0EABBE0916200E860F5CFE77FE093FB
:1018D0006200EFEFEABBE881EBBB0E94AE040C9420
:1018E000B604E695E695E695AE2F0C940C05E093CC
:1018F0006100E091610008950E9430050C941B0581
:10190000EA0FFB1FEE83FF830895EC85EA93EF81D6
:10191000F8853196EF83F8873197FA93EA93A0E040
:101920000C94CF0BEC85EA93EF81F8853196EF8329
:10193000F8873197089566277727DF01CB010C944C
:10194000B00B5A93AA850C94880B0A930395E889E7
:10195000EA935A9308950A930395A8890E9447052C
:10196000E42308955E2FEC85EA93AF81B88588273C
:1019700099270E94B00B1E2E08950A930395E889BB
:10198000EA93EE85EA93E985FA853196E987FA8745
:101990003197D1CFBA93AA93A881B9810E948F0DB4
:1019A00008950E94930DE091A806F091A90608956C
:1019B000F8010F5F1F4F04900895E091A806F09181
:1019C000A9063196E4910895EA93E0E0EA93E0E015
:1019D000F0E0FA93EA93A9E00C943406ED91FD91BE
:1019E0003196FE93EE9308952A93AD85BE85EF85DB
:1019F000F88909950895E889F9893497E88BF98B76
:101A00000895AD85BE85EF85F88909950895A88963
:101A1000B98914960E94610DEE83FF83AE81BF8168
:101A20000895A889B98914960E94610DEA87FB87F9
:101A30000895DE011C960E94330D0E94610D0895E9
:101A40000E94330D0E94610DFA93EA931A930A9350
:101A50000895109639F0A89580ED97E00197F1F779
:101A60001197C9F708950024AF0DB01D0895F195A1
:101A7000E195F0400895EE230E2EEA2F19F0EE0FB7
:101A80000A94E9F70895EE230E2EEA2F19F0E69551
:101A90000A94E9F70895EE230E2EFD0121F0EE0FD2
:101AA000FF1F0A94E1F708956F2F660F660B762FDC
:101AB0000895FA9FF02DEB9FF00DEA9FE02DF10DB8
:101AC0000895ED91FC91119708950590F491E02D02
:101AD00008957A936A93FA93EA930895E199FECF71
:101AE000FF93FFB7F894AEBBBFBBE09AEDB3FFBF67
:101AF000FF910895E19B02C0A895FCCF9FB7F89491
:101B0000AEBBBFBBE09A8DB3E81719F0EDBBE29A0C
:101B1000E19A9FBF089500240E160F060895002431
:101B20000A160B0608955A934A933A932A931A93E6
:101B30000A9308955D814C813B812A811981088136
:101B40000895AC0FBD1F05900D928A95E1F7089599
:00000001FF
