:0C0000000C941A110C9400000C940000E9
:10000C000C9400000C9400000C9400000C94000064
:10001C000C9400000C9400000C9400000C94000054
:10002C000C9400000C9400000C9400000C94000044
:10003C000C9400000C949A110C9400000C9449112F
:10004C000C9400000C9400000C9400000C94000024
:10005C000C9400000C9400000C9400000C94000014
:10006C000C9400000C9400000C9400000C94000004
:10007C000C9400000C9400000C9400000C940000F4
:10008C0005072060000000000000005F0000000772
:10009C00000700147F147F14242A7F2A12231308CC
:1000AC00646236495522500005030000001C2241B1
:1000BC00000041221C00082A1C2A0808083E0808D7
:1000CC0000503000000808080808003030000020FC
:1000DC00100804023E5149453E00427F40004261F7
:1000EC005149462141454B311814127F1027454583
:1000FC0045393C4A4949300171090503364949499A
:10010C0036064949291E00363600000056360000D6
:10011C00000814224114141414144122140800026F
:10012C0001510906324979413E7E1111117E7F49F8
:10013C004949363E414141227F4141221C7F494978
:10014C0049417F090901013E414151327F080808AC
:10015C007F00417F41002040413F017F0814224134
:10016C007F404040407F0204027F7F0408107F3EA6
:10017C004141413E7F090909063E4151215E7F09FB
:10018C00192946464949493101017F01013F404047
:10019C00403F1F2040201F7F2018207F631408142D
:1001AC00630304780403615149454300007F4141D6
:1001BC00020408102041417F0000040201020440A7
:1001CC0040404040000102040020545454787F48C1
:1001DC004444383844444420384444487F385454C8
:1001EC005418087E090102081454543C7F08040476
:1001FC007800447D40002040443D00007F1028449E
:10020C0000417F40007C041804787C080404783892
:10021C00444444387C14141408081414187C7C08C6
:10022C000404084854545420043F4440203C4040AB
:10023C00207C1C2040201C3C4030403C4428102892
:10024C00440C5050503C4464544C4400083641001B
:10025C0000007F0000004136080002010204027F0A
:10026C004141417F00000000000000000000000040
:10027C000000000000000000000080800000000072
:10028C000000000000000000000000008080000062
:10029C000000000000000000000000000000000052
:1002AC000000000000000000000000000000000042
:1002BC000000000000000000000000000000000032
:1002CC000000000000000000000000808000000022
:1002DC000000000000000000000000000000000012
:1002EC00000000000000E0E00000060E1ABAE3C1B6
:1002FC00000080C0E0B0F0F00000FFFF0000000044
:10030C00E0E0000000F0F00000000000FFFF000043
:10031C0020E0E00000000000C0C008181800F0F059
:10032C000000E0F03060E08000080CECEC8C000089
:10033C0000E0E00080E0E010F0F00000000000E0E1
:10034C00F818F0E0000020E0E00000FFFF00008063
:10035C00C0E0B070F080000000E0E00C8EEEEC1815
:10036C00F0F0000000000001010101010101010198
:10037C0001010100010101010000000101090D0D45
:10038C000D0D0D2D3D3D0900000000000101080878
:10039C000C0F070000000000070F0C080C0C0707DF
:1003AC0000000909090F0701010101010101010107
:1003BC000101010101010101010000000000000127
:1003CC000101010108080C0F0700000001010101E7
:1003DC000001010101010101010101010101010102
:1003EC000100000000000000000000000000000000
:1003FC0000000000000000000000000000000000F1
:10040C0000000000000000000000000000000000E0
:10041C0000000000000000000000000000000000D0
:10042C0000000000000000000000000000000000C0
:10043C0000000000000000000000000000000000B0
:10044C0000000000000000000000000000000000A0
:10045C000000000000000000000000000000000090
:10046C000000000000000000000000000000000080
:10047C000000000000000000000000000000000070
:10048C000000000000000000000000000000000060
:10049C0080800000C0C00018F8E0000000E0E080A0
:1004AC00000008ECEC800000060E3AF3E1010000BD
:1004BC000000000000000000000000000000000030
:1004CC000000000000000000000000000000000020
:1004DC000000000000000000000000000000000010
:1004EC000000000000000000000000000000000000
:1004FC0000000000000000000000000000000000F0
:10050C0000000000000000000000000000000000DF
:10051C000101000001010101010101050D0D0D0991
:10052C0001010101010101010101010100000000B3
:10053C0000000000000000000000000000000000AF
:10054C00000000000000000000000000000000009F
:10055C00000000000000000000000000000000008F
:10056C00000000000000000000000000000000007F
:10057C00000000000000000000000000000000006F
:10058C00000000000000000000000000000000005F
:10059C00000000000000000000000000000000004F
:1005AC00000000000000000000000000000000003F
:1005BC00000000000000000000000000000000002F
:1005CC00000000000000000000000000000000001F
:1005DC00000000000000000000000000000000000F
:1005EC0000000000000000000000000000000000FF
:1005FC0000000000000000000000000000000000EF
:10060C0000000000000000000000000000000000DE
:10061C0000000000000000000000000000000000CE
:10062C0000000000000000000000000000000000BE
:10063C0000000000000000000000000000000000AE
:10064C00000000000000000000000000000000009E
:10065C00000000000000000000000000000000008E
:10066C00000000000000000000000000000000007E
:10067C00000000000000000000000000000000006E
:10068C00000000000000000000000000000000005E
:10069C00000000000000000000000000000000004E
:1006AC00000000000000000000000000000000003E
:1006BC00000000000000000000000000000000002E
:1006CC00000000000000000000000000000000001E
:1006DC00000000000000000000000000000000000E
:1006EC0000000000000000000000000000000000FE
:1006FC00000000000000C0C000000000000000006E
:10070C00000080800000FCFC000000000080808065
:10071C0000000010B0A00000000000004040C0C06D
:10072C000000000000000000FCFC000000808000C5
:10073C00000000000000FCFC0000000000000000B5
:10074C000000004040C0C0000000000000C0C0001D
:10075C00000080C0C0C0C00000000000000000000D
:10076C000000000000000000000000000000000C71
:10077C000C00000E0E08080F0F084868686F6F68B1
:10078C0068686F4F0000070F08080C060F0D0B0F61
:10079C000C0808080F0F00000000000E0E08080FD0
:1007AC00074040617F3F00000F0F00004F4F697FF3
:1007BC003F00000000000F0F4040617F3F00000031
:1007CC0000000E0E08080F0700000E0E08080F0F91
:1007DC0008080B0F0C0C04040000000000000000C3
:1007EC0000000000000000000000000080800000FD
:1007FC0000000000000000000000000000000000ED
:10080C0000000000000000000000000000000000DC
:10081C0000000000000000000000000000000000CC
:10082C0000000000000000000000000000000000BC
:10083C0000000000000000000000000000000000AC
:10084C00000000000000000000000000000000009C
:10085C00000000000000000000000000000000008C
:10086C00000000000000000000000000010100007A
:10087C00000000000000000000000000000000006C
:10088C00000000000000000000000000000000005C
:10089C00000000000000000000000000000000004C
:1008AC00000000000000000000000000000000003C
:100B8C000000000000000000000000808000000059
:100B9C000000000000000000000000000000000049
:100BAC000000000000008080000000000000000039
:100BBC000000000000000000000000000000000029
:100BCC000000000000008080000000000000000019
:100BDC000000808000000000000000808000000009
:100BEC0000000000000000000000000080800000F9
:100BFC008080000080800000C0C00018F8E0000079
:100C0C0000E0E080000002F6F40000FFFF0000802E
:100C1C00C0E0B070F080000000F0F00000000000B8
:100C2C0020E0E0000080FF7F203236F4E00000047A
:100C3C000CECEC040008ECEC80000080C0E0B0F0A0
:100C4C00F00000000000FFFF000060F39BFAF000D2
:100C5C000080FF7F203030F0E0000003FFFC00003C
:100C6C000000000000000000000000000101000076
:100C7C000101000001010000010101010101010558
:100C8C000D0D0D090101010101000000010101011F
:100C9C00000101010101010D0D090100000008080E
:100CAC000C0F070101010101010101010101010109
:100CBC000101010101010101010101010001010119
:100CCC00010000000000000101010101010101010E
:100CDC0001010101010101010101010101000000FB
:100CEC0000000000000000000000000000000000F8
:100CFC0000000000000000000000000000000000E8
:100D0C0000000000000000000000000000000000D7
:100D1C0000000000000000000000000000000000C7
:100F4C000000000000000000E0E0000000000000D5
:100F5C000000000000000000008080000000000085
:100F6C000000000000000000000000000038784283
:100F7C0043434343607878404040787840607878C9
:100F8C00447C3C000008F8F80000707242467E3841
:100F9C000000000000F0F002060600FCFC000078E7
:100FAC007C4CD8F8604042437B7B6340404078786F
:100FBC0040607878447C3C0000000000787E467CE1
:100FCC0078000008F8F800003F7F40406030786CF3
:100FDC005C7C60404040787843637B7B467C3C0083
:100FEC0000000000000000000000000000000000F5
:100FFC0000000000000000000000000000000000E5
:10100C0000000002020303010000000000000000C9
:10101C0000000000000103030203030101000002B1
:10102C0002020301000000000000000000000000AC
:10103C0000000000000000000000000000000000A4
:10104C000002020303010000000000000000000089
:10105C000000000000000000000000000000000084
:10106C000000000000000000000000000000000074
:10107C000000000000000000000000000000000064
:10108C00000000000000000000000000E0E0000094
:10109C000000000000000000000000000000000044
:1010AC0000000000000080808000000000008080B4
:1010BC000000000000000000000080808080C04024
:1010CC0000000000000000000000E0E00000000054
:1010DC000000000000000000000000000000000004
:1010EC0000000000000000000000000000000000F4
:1010FC006060000038784243434343607878404056
:10110C0040787840607878447C3C00007F7F000019
:10111C00000000787E467C780000707040467E7837
:10112C00404040787843637B7B4278784040407DF8
:10113C007D0000000000387840404143466E7870D6
:10114C0040406030786C7C7C00003F7F40404040E9
:10115C0078784040407C7C000000000000000000DB
:10116C000000000000000000000000000000000073
:10117C000000000000000000000000000000000063
:10118C000000000000000000000000000000000053
:10119C000000000000000000000000000000000043
:1011AC000000000000000000000000000000000033
:1011BC000000000000000000000000000000000023
:1011CC00000000000000000000000000000203030B
:1011DC000303030B0F0F02000000000000000000CF
:1011EC0000000000000000000000000000000000F3
:1011FC0000000000000000000000000000000000E3
:10120C0000000000000000000000000000000000D2
:10121C0000000000000000000000000000000000C2
:10122C0000000000000000000000000000000000B2
:10123C0000000000000000000000000000000000A2
:10124C000000000000000000000000000000000092
:10125C000000000000000000000000000000000082
:10126C000000000000000000000000000000000072
:10127C000000000000000000000000000000000062
:10128C000000000000000000000000000000000052
:10129C000000000000000000000000000000000042
:1012AC000000000000000000000000000000000032
:1012BC000000000000000000000000000000000022
:1012CC000000000000000000000000000000000012
:1012DC000000000000000000000000000000000002
:1012EC0000000000000000000000000000000000F2
:1012FC0000000000000000000000000000000000E2
:10130C0000000000000000000000000000000000D1
:10131C0000000000000000000000000000000000C1
:10132C0000000000000000000000000000000000B1
:10133C0000000000000000000000000000000000A1
:10134C000000000000000000000000000000000091
:10135C000000000000000000000000000000000081
:10136C0000000000000000000000C0C01018181899
:10137C001800C0C0000000C0C00000C0C020E0E0E9
:10138C00000040C0C0000080901030F0C000000091
:10139C000000808010303000E0E00000C0E060C051
:1013AC00C000001018D8D818000000C0C00000C041
:1013BC00C020E0E00000000000C0F030E0C0000001
:1013CC0040C0C00000FFFF00000080C060E0E000F3
:1013DC00000000C0C0181CDCD830E0E000000000A9
:1013EC0000000000000000000000010302020202E5
:1013FC0002030303020202030302030303020301B9
:10140C001010181F0F00000303020203010000005C
:10141C0000000F1F181018180F0F00001313121EC6
:10142C000F0302020203030302020203030203037B
:10143C000302030100000000000303020303101069
:10144C00181F0F0000010302020301030302030330
:10145C000202020303020303030203010000000063
:10146C000000000000000000000000000000000070
:10147C000000000000000000000000000000000060
:10148C000000000000000000000000000000000050
:10149C000000000000000000000000000000000040
:1014AC000000000000000000000000000000000030
:1014BC000000000000000000000000000000000020
:1014CC000000000000000000000000000000000010
:1014DC000000000000000000000000000000000000
:1014EC0000000000000000000000000000000000F0
:1014FC0000000000000000C0C0101818181800C030
:10150C00C0000000C0C00000C0C020E0E00000FF30
:10151C00FF0000000000C0F030E0C0000080800040
:10152C0030F0C0000000C0C0181CDCDC10C0C000D3
:10153C000004ECE8000000000080901030F0C000C7
:10154C000040C0C00000FFFF0000C0E060C0C00051
:10155C00000000000000000000000000000000007F
:10156C00000000000000000000000000000000006F
:10157C000000000303000001030202020202030345
:10158C00030202020303020303030203010000032C
:10159C000300000000000303020303000003030226
:1015AC000203030202020303020303030203030206
:1015BC0002020303000000000003030202030110F7
:1015CC0010181F0F00000303000013131A1F0F0045
:1015DC0000000000000000000000000000000000FF
:1015EC0000000000000000000000000000000000EF
:1015FC0000000000000000000000000000000000DF
:10160C0000000000000000000000000000000000CE
:10161C0000000000000000000000000000000000BE
:10162C0000000000000000000000000000000000AE
:10163C00000000000000000000000000000000009E
:10164C00000000000000000000000000000000008E
:10165C00000000000000000000000000000000007E
:10166C00000000000000000000000000000000006E
:10167C00000000000000000000000000000000005E
:10168C00000000000000000000000000000000004E
:10169C00000000000000000000000000000000003E
:1016AC00000000000000000000000000000000002E
:1016BC00000000000000000000000000000000001E
:1016CC00000000000000000000000000000000000E
:1016DC0000000000000000000000000000000000FE
:1016EC0000000000000000000000000000000000EE
:1016FC0000000000808020303030300080800000FE
:10170C000080800000808040C0C00000FEFE000011
:10171C0080C0C08080000000C0CC4C4840C080809D
:10172C000000808080000000202060E0800000002D
:10173C00000000202060E0800000FEFE00000000A1
:10174C000060E080000040C0C04040C0C0000818ED
:10175C00D8D81000000000000000000000000000BD
:10176C00000000000000000000000000000000006D
:10177C000000000003070404040404060707040423
:10178C000407070406070704070300000707000007
:10179C002727243D1F060404050506060301000047
:1017AC002020303F1F00000707040407030000003F
:1017BC0000000707040407030000070700000707E1
:1017CC0004040707040404050706070504040404BD
:1017DC0007070000000000000000000000000000EF
:1017EC0000000000000000000000000000000000ED
:1017FC0000000000000000000000000000000000DD
:10180C0000000000000000000000000000000000CC
:10181C0000000000000000000000000000000000BC
:10182C0000000000000000000000000000000000AC
:10183C00000000000000000000000000000000009C
:10184C00000000000000000000000000000000008C
:10185C00000000000000000000000000000000007C
:10186C00000000000000000000000000000000006C
:10187C0000000000000000000000B0B0A00000FE5E
:10188C00FE0000C0C0404040C080800000000080CE
:10189C00C0C0C0000000000000000060E08000003C
:1018AC00C0C0404040C080800000000000B0B0A02C
:1018BC000000FEFE000000000000000000000080A0
:1018CC00802038B8B8308080000000008080000094
:1018DC0000C0C0000000000000000000000000007C
:1018EC0000000000000000000000000000000000EC
:1018FC0000000000000000002020303F1F0000030B
:10190C0007040405053636230706040404060307FA
:10191C00060707000000000007070404070704047B
:10192C0005050606030100000000002020303F1FC3
:10193C000000070700000000003E3E606060203F92
:10194C003F040407070407070424343437370434EE
:10195C003427070000000000000000000000000019
:10196C00000000000000000000000000000000006B
:10197C00000000000000000000000000000000005B
:10198C00000000000000000000000000000000004B
:10199C00000000000000000000000000000000003B
:1019AC00000000000000000000000000000000002B
:1019BC00000000000000000000000000000000001B
:1019CC00000000000000000000000000000000000B
:1019DC0000000000000000000000000000000000FB
:1019EC0000000000000000000000000000000000EB
:1019FC0000000000000000000000000000000000DB
:101A0C0000000000000000000000000000000000CA
:101A1C0000000000000000000000000000000000BA
:101A2C0000000000000000000000000000000000AA
:101A3C00000000000000000000000000000000009A
:101A4C00000000000000000000000000000000008A
:101A5C00000000000000000000000000000000007A
:101A6C00000000000000000000000000000000006A
:101A7C00000000000000000000000000000000005A
:101A8C00000000000000000000000000000000F852
:101A9C00F8F838383838383838383838383838383A
:101AAC0038383838383838383838383838383838AA
:101ABC0038383838383838F8F8F8000000000000AA
:101ACC00000000000000000000000000000000000A
:101ADC0000000000000000000000000000000000FA
:101AEC0000000000000000000000000000000000EA
:101AFC0000000000000000000000000000000000DA
:101B0C00000000000000000000000000000000FFCA
:101B1C00FFFF0000000000000000000000000000BB
:101B2C0000000000000000000000000000000000A9
:101B3C0000000000000000FFFFFF0000000000009C
:101B4C000000000000000000000000000000000089
:101B5C000000000000000000000000000000000079
:101B6C000000000000000000000000000000000069
:101B7C000000000000000000000000000000000059
:101B8C00000000000000000000000000000000FF4A
:101B9C00FFFF00000000000000000000000000003B
:101BAC000000000000000000000000000000000029
:101BBC0000000000000000FFFFFF0000000000001C
:101BCC000000000000000000000000000000000009
:101BDC0000000000000000000000000000000000F9
:101BEC0000000000000000000000000000000000E9
:101BFC0000000000000000000000000000000000D9
:101C0C000000000000000000000000000000000FB9
:101C1C000F0F0E0E0E0E0E0E0E0E0E0E0E0E0E0ED6
:101C2C000E0E0E0E0E0E0E0E0E0E0E0E0E0E0E0EC8
:101C3C000E0E0E0E0E0E0E0F0F0F00000000000009
:101C4C000000000000000000000000000000000088
:101C5C000000000000000000000000000000000078
:101C6C00000000006D63696E6574000000010307DD
:101C7C000F1F3F7FFF001027E80364000A000100DC
:101C8C000010000110000100000000000000415491
:101C9C002B48545450494E4954004F4B0041542B3F
:101CAC00485454505445524D0041542B48545450B0
:101CBC00504152413D22434944222C310025733F6F
:101CCC0070686F6E655F6E756D6265723D25730031
:101CDC0041542B48545450504152413D2255524C82
:101CEC00222C222573220041542B4854545041433A
:101CFC0054494F4E3D31002B4854545041435449A4
:101D0C004F4E3A004E6F20416374696F6E205265DE
:101D1C007370002B48545450414354494F4E3A2051
:101D2C0025642C25642C25640041542B48545450B4
:101D3C005245414400687474703A2F2F3139332E58
:101D4C00352E34342E3139312F686F6D652F706F0D
:101D5C0073742F00756E6B6E6F776E00534D53203E
:101D6C0066726F6D3A0054696D656F7574212054FD
:101D7C00727920616761696E2E002B434D543A00D5
:101D8C004D6F64756C6520496E69742E2E2E005350
:101D9C004D5320496E6974204661696C656421005D
:101DAC004750525320496E6974204661696C6564D2
:101DBC00210025730D0A00003132333435363738A3
:101DCC00392A302307050604000102004D4F544FF9
:101DDC0052202564204F4E210000526573746172AD
:101DEC0074696E672053494D3830302E2E2E0041C9
:101DFC00542B53415042523D322C310041542B4311
:101E0C00474154543D300041542B43474154543DB9
:101E1C00310041542B4352455345540041542B43FC
:101E2C0046554E3D300041542B4346554E3D3100F6
:101E3C0041544530004154004F4B0053494D38300C
:101E4C0030206E6F7420726573706F6E64696E678C
:101E5C00210041542B4350494E3F004350494E0002
:101E6C0041542B435245473F0043524547002B43B7
:101E7C005245473A0057616974696E6720666F7204
:101E8C00206E6574776F726B2E2E2E004E657477F4
:101E9C006F726B204F4B210041542B435351002B3D
:101EAC004353513A004E6F207369676E616C206129
:101EBC00667465722025642072657472696573217D
:101ECC000A0053657474696E6720534D53204D6F2F
:101EDC0064652E2E2E0041542B4353434C4B3D3006
:101EEC000041542B434D47463D310041542B434E4A
:101EFC004D493D322C322C302C302C300041542B9F
:101F0C00434D4744413D2244454C20414C4C22001A
:101F1C00534D532052656164792E00436F6E6E658C
:101F2C006374696E6720746F20475052532E2E2EA7
:101F3C000041542B53415042523D332C312C2243FF
:101F4C006F6E74797065222C2247505253220041D7
:101F5C00542B53415042523D332C312C2241504E84
:101F6C00222C222573220041542B53415042523DC6
:101F7C00312C31004665746368696E672049502EB8
:101F8C002E2E00534150425200436865636B696EBC
:101F9C006720496E7465726E65742E2E2E00415446
:101FAC002B48545450494E49540041542B485454D6
:101FBC0050504152413D22434944222C310041545E
:101FCC002B48545450504152413D2255524C222CD6
:101FDC0022687474703A2F2F7777772E676F6F673C
:101FEC006C652E636F6D220041542B485454504144
:101FFC004354494F4E3D300048545450414354498A
:10200C004F4E3A00496E7465726E6574204F4B00EA
:10201C00496E7465726E6574204661696C65640006
:10202C004E6F20726573706F6E7365210041542B77
:10203C00485454505445524D000001002D4E414E11
:10204C0000494E46000001000200941C04000400EC
:10205C00961C0C0000059A1C03000C05A61C0C0019
:10206C000F05A91C03001B05A61C14001E05B51C9E
:10207C0003003205A61C0C003505A91C0300410504
:10208C00A61C03004405A61C0C004705A91C030054
:10209C005305A61C10005605F31C0D006605031D08
:1020AC000F007305101D0C008205A91C03008E0582
:1020BC00A61C0D009105031D0C009E05A91C030018
:1020CC00AA05A61C0C00AD05351D0300B905A61C00
:1020DC000C00BC05A91C0300C805A61C1F00CB05E1
:1020EC00411D0800EA05601D0A00F205681D140078
:1020FC00FC05721D06001006861D0F0016068C1DB1
:10210C00110025069B1D110036069B1D120047066B
:10211C00AC1D15005906E61D0D006E06FB1D0B00CF
:10212C007B06081E0B008606131E0A0091061E1E57
:10213C000A009B06281E0A00A506321E0500AF06E3
:10214C003C1E0300B406411E0300B706441E1700D4
:10215C00BA06471E0900D1065E1E0500DA06671E88
:10216C000900DF066C1E0500E806751E0700ED066B
:10217C007A1E1700F406811E0C000B07981E070030
:10218C001707A41E04001E07A71E06002207AB1E7D
:10219C0014002807CE1E0A003C07321E0B0046070F
:1021AC00E21E0A005107ED1E12005B07F71E13001A
:1021BC006D07091F0B0080071C1F16008B07271FBC
:1021CC001E00A1073D1F0D00BF07731F0300CC07A6
:1021DC00441E0F00CF07801F0D00DE07FB1D0600FD
:1021EC00EB078F1F1500F107951F0C000608AA1F9F
:1021FC0014001208B61F2A002608CA1F1000500827
:10220C00F41F0C00600804200C006C081020100057
:10221C0078081C200D0088082C200C00950839200B
:10222C0001002B0C46200000F894EE27ECBBF1E0EB
:10223C00F5BFE5BFE0936C008DE0A2E0BB27ED930A
:10224C008A95E9F780E090E1A0E0B1E0ED93019789
:10225C00E9F7E2E5F0E285919591009761F0A5919F
:10226C00B59105901590BF01F00105900D92019765
:10227C00E1F7FB01F0CFEFEFEDBFE0E1EEBFC0E027
:10228C00D5E00C943714AA93EA93FA93EFB7EA9338
:10229C001A930A931BB10CB1E12FEC71E9F4E091A4
:1022AC00BF08EF5FE093BF08E150F0E0EF56F64F48
:1022BC000083A091BF08A43619F4E0E0E093BF08B6
:1022CC00A091BE08AF5FA093BE08A43629F4E0E04D
:1022DC00E093BE08689420F809911991E991EFBF39
:1022EC00F991E991A99118951A93E091BE08E03003
:1022FC00E1F3E091C008EF5FE093C008E150F0E03B
:10230C00EF56F64F1081A091C008A43619F4E0E006
:10231C00E093C008F894E091BE08E150E093BE0849
:10232C007894E12F199108956A937A93EA93FA932A
:10233C00EFB7EA930E947422EF5DFF4F6F4F7F4F10
:10234C00E093C108F093C2086093C3087093C4086B
:10235C00E991EFBFF991E991799169911895AA9357
:10236C0021970E947D22AF81B0E0E8E0F0E00E946E
:10237C00B724EE8330E0EE813E1750F520E0E8857F
:10238C002E1720F5F8010F5F1F4FA985BA85EA0FAC
:10239C00FB1F449150E05830B8F4E52F0E94822284
:1023AC00A42F0E94872271F0E22FAC85EA0FEA93EA
:1023BC00E32FEE0FEE0FEE0FAC85EA0FE50FAE2F0D
:1023CC000E94741C5F5FE7CF2F5FD9CF3F5FD3CFE5
:1023DC000E9410252D9608952497F8940E9474223B
:1023EC000E94D72478940E94D22424960895BA93FC
:1023FC00AA932297D350E0E0E883E9830E94092551
:10240C0020E030E040E050E00E948C22E0E7FAE06F
:10241C000E9492220E949B22E89420F8A0E0B5E052
:10242C000E94A322E0EDF7E0FA93EA93ACE0B5E06A
:10243C000E943116E03061F4AFE0B5E00E94A322B7
:10244C000E94AF22ABE1B5E00E943116E0E0E8C09B
:10245C00AEE1B5E00E94A3220E94AF22A2E3B5E058
:10246C000E943116E03061F4A5E3B5E00E94A3228E
:10247C000E94AF22A1E4B5E00E943116E0E0D0C08A
:10248C00FE013896FA93EA93E9ECFCE1FA93EA93AD
:10249C00FE01E25FFC4F0190F081E02D0E94B4221E
:1024AC00FE01E05FFC4F0190F081E02D0E94B42210
:1024BC0088E00E94041F2C96FE01E85FFD4FFA9302
:1024CC00EA93ECEDFCE1FA93EA93FE013C960E9450
:1024DC00B4220E94B922DE01A85FBD4F0E94A32244
:1024EC00E0EDF7E0FA93EA93A4E4B5E00E9431162C
:1024FC00E03061F4A7E4B5E00E94A3220E94AF2271
:10250C00A3E5B5E00E943116E0E08AC0E0E00E944D
:10251C009B22A6E5B5E00E94A322E8E8F3E1FA933A
:10252C00EA93A6E6B5E00E943116E03091F40E94E1
:10253C008C22A3E7B5E00E94BE22A2E8B5E00E947F
:10254C00A3220E94AF22AEE8B5E00E943116E0E073
:10255C0067C0FE01E85FFE4FFA93EA93A1E9B5E08C
:10256C000E9439218F0100240016010621F11A93D3
:10257C000A93EFE1FDE1FA93EA93EDB7FEB73197D9
:10258C000E94DC243F932F93EDB7FEB731970E9446
:10259C00DC245F934F93FE0172960E94B4228CE070
:1025AC000E94BA2060964F915F912F913F91E3303A
:1025BC00A0E0FA0761F0AEE9B5E00E94A3220E9408
:1025CC00AF22AAEAB5E00E943116E0E029C0ADEADC
:1025DC00B5E020D2E0E00E949B22FE01E85FFE4FB6
:1025EC00FA93EA93E0E0F1E0FA93EA93E8EBFBE08C
:1025FC00FA93EA93A9EBB5E00E943116ACEBB5E087
:10260C000E94A3220E94AF22A8ECB5E00E943116D2
:10261C00E8ECF0E0E417F50711F4E1E001C0E0E0CC
:10262C000E9410252C96DD5F0895A3970E94092522
:10263C000BEC15E020E030E040E050E0E9ECF8E095
:10264C000E94C422E0E0F0E00E94C422EEA1FFA1AF
:10265C00309739F0FE013696FA93EA93A8A5B9A5FE
:10266C0006C0FE013696FA93EA93AAEEB5E00E94F4
:10267C00FC200E948C22A2EFB5E00E94631D0E94F8
:10268C00CD22DE0118960E94631DE0E0EA93E4E19E
:10269C00EA93ADE2B9E00E94631DA0EDB7E00E94A1
:1026AC005B24ADE2B9E0D19749F0ADE2B9E0D29745
:1026BC0029F0ADE2B9E0D39709F065C01A930A93FB
:1026CC00DE01189694DEE03009F456C00E948C228C
:1026DC00E0E7F6E00E949222EA93E0E2EA93E0E778
:1026EC00FAE10E94D222E0E4EA93EAE2EA93ADE254
:1026FC00B9E00E94631DE0E0E8A740E050E0483CF0
:10270C00E0E05E0764F40E947D16E8A7E03039F43F
:10271C00AAE0B0E00E945B244F5F5F4FF0CFE8A5CA
:10272C00E03069F40E94EA19EAE0EA93E9E1EA93FD
:10273C00ACEFB5E00E94631DA8ECB0E01AC0EDE26E
:10274C00F9E0A8A5B0E0EA17FB0759F40E94EA19D2
:10275C00E0912D09F0E0F0979F01D9010E94C71676
:10276C000AC00E948C22E0E7F2E10E94D222ACE285
:10277C00B1E00E945B2406C00E948C22E0E7F6E1E7
:10278C000E94D92206C00E948C22E0E7FEE00E9443
:10279C00D922E89421F80E941025A99608951A933D
:1027AC00A091BE08A13010F021FE01C058C09CDDE4
:1027BC001E2FE091F509E03071F51A30D9F4E09153
:1027CC00F609F0E0E753F74FA0E0A083E9ECF8E05E
:1027DC00FA93EA93A0E1B6E00E943921309731F0E8
:1027EC00E1E0E093F509E0E0E093F709E0E0E09345
:1027FC00F60910C01D3071F0A091F609A33650F403
:10280C00E091F609EF5FE093F609E150F0E0E75351
:10281C00F74F108323C01A3089F4E091F709F0E0E8
:10282C00E35DF64FA0E0A083689421F8E0E0E0932C
:10283C00F509E093F609E093F70910C01D3071F02B
:10284C00A091F709A33650F4E091F709EF5FE093FC
:10285C00F709E150F0E0E35DF64F1083A1CF0C9443
:10286C00E2182697E0E0EABBEBBBE7BBE0EFE8BB86
:10287C00E7E0E4BBE0EFE5BBE0E0E1BBE2E0E2BBBC
:10288C00ECE3E2B9E0E0E3B9E0936100E0936200CD
:10289C00E0936400E0936500E0BFE7E0E3BFE0E0B5
:1028AC00E2BFE1BFEFBDEEBDEDBDECBDE7BDE6BDEA
:1028BC00EBBDEABDE9BDE8BDE0937900E09378009B
:1028CC00E5BDE4BDE3BDE0938B00E0938A00E093AB
:1028DC008900E0938800E0938100E0938000E0930E
:1028EC008700E0938600E0938500E0938400E093FA
:1028FC008300E0938200E1E0E7BFE0E0E0937D003D
:10290C00E0936A00EABFE9BFEBB9E8E9EAB9E6E0AF
:10291C00E0939500E0E0E0939000E3E3E9B9E0E0B8
:10292C00E0939A00E0E8E8B9E0E0E0BDE6B9EDB983
:10293C00E0937400E0E8E4BFE4BFECE8F0E0E88387
:10294C00F983E0E0EA83EB83EC83ED83DE010E9404
:10295C006919ECE8F0E00E94E42278940E948C2241
:10296C00A6E1B6E00E94BE220E941A170E945417DC
:10297C000E94CF17E03039F40E94CD22A5E2B6E0D8
:10298C000E94631DFFCF0E94F217E03039F40E94C1
:10299C00CD22A6E3B6E00E94631DFFCF0E9419185A
:1029AC00E03039F40E94CD22A7E4B6E00E94631D0A
:1029BC00FFCF0E9465180E948C22E0E7F2E0FA93A8
:1029CC00EA93E0E8EA93A0E4CADCE9DE21FC2DDE20
:1029DC0003DDDF01CB01E091C508F091C6086091E1
:1029EC00C7087091C8080E946924A135E3ECBE07A2
:1029FC00E0E08E07E0E09E0758F00E946518ECDCE2
:102A0C00E093C508F093C6086093C7087093C80894
:102A1C00DCCFFFCFBA93AA93EEEBFDE1FA93EA93E6
:102A2C00EA81FB810E94B42284E00E94321F269628
:102A3C000C946719E0E00E949B22E89420F808951A
:102A4C00BA93AA932497E0E0E883E983EA83EB83C3
:102A5C000E947D2220E030E0AA85BB850E940921DE
:102A6C00AF01EA89FB89FA93EA93E0E0EA93AB8938
:102A7C00BC890E94DF20EC85FD856E857F85AE814B
:102A8C00BF81888599850E94042530F4E889F989ED
:102A9C0031970E171F070CF059C0A091BE08A1303A
:102AAC0030F0E889F98931970E171F070CF02EC00A
:102ABC0021970E947A11E883F8010F5F1F4FAB89B1
:102ACC00BC89EA0FFB1FA881A083F801AB89BC89E4
:102ADC00AE0FBF1FE0E0EC93022E032A19F404178B
:102AEC0015070CF411C0EB89FC89FA93EA93AD85B8
:102AFC00BE850E943921309739F021E030E0E0E0CA
:102B0C00EF83E887E987EA872196C7CF022E032A4D
:102B1C0061F0AE81BF8188859985A536E0E0BE075E
:102B2C00E0E08E07E0E09E0708F401C00FC00E94B1
:102B3C00E922EE81FF8168857985EF5FFF4F6F4F4A
:102B4C007F4FEE83FF836887798795CFD801E0E0CC
:102B5C00F0E00E9496240E94102564960895BA9382
:102B6C00AA930E947D2220E030E0EE85FF85FA9347
:102B7C00EA93AE85BF850E943921AF01042E052A48
:102B8C0009F463C0AC85BD850E9409214E0F5F1FFF
:102B9C00DA01AC91A03221F0DA01AC91A93019F430
:102BAC004F5F5F4FF5CFDA01EC91E03029F0EA8509
:102BBC00FB85E017F1070CF448C0EA85FB85E017AC
:102BCC00F10779F5DA01EC91E03089F0AC91AC3297
:102BDC0071F0DA01AC91AD3051F0DA01AC91AA3060
:102BEC0031F0EE81FF8131972E173F070CF00FC0AB
:102BFC00F9012F5F3F4FA885B985EA0FFB1F0F0125
:102C0C00DA014F5F5F4FEC91D001EC93DBCFF90110
:102C1C00A885B985AE0FBF1FE0E0EC93E1E0F0E0D2
:102C2C0016C0DA01EC91E03019F0AC91AC3209F439
:102C3C0003C04F5F5F4FF5CFDA01AC91AC3211F4AA
:102C4C004F5F5F4F0F5F1F4FAECFE0E0F0E00E9491
:102C5C00102560960895BA93AA930E940B2500E064
:102C6C0010E020E030E00E94ED22E0E0EA93AB853A
:102C7C00BC850E94DF20EE81FF812E173F0748F5AF
:102C8C00A091BE08A13030F0E885F98531970E1778
:102C9C001F070CF00FC0F8010F5F1F4FAA85BB85F3
:102CAC00EA0FFB1FFF93EF930E947A11AF91BF9134
:102CBC00EC93E6CF0E94ED22AE81BF810E943921B8
:102CCC00309711F0E1E00FC00E94E9222F5F3F4FD7
:102CDC00D2CF0E94ED22AE81BF810E943921A0E0AB
:102CEC00B0E00E9490240E9412252C9608956397C0
:102CFC0083E1A0E0B0E0E4ECFDE10E9417251A931B
:102D0C000A9300E00330C0F5E5B3E760E5BB15B20C
:102D1C00E02FF0E0DE015296AE0FBF1FEC91A1E068
:102D2C000E94F222E5BB10E0143020F50E94F7223D
:102D3C00A12D0E948722E1F4AAE0B0E00E945B245E
:102D4C000E94F722A12D0E94872291F40E94F72263
:102D5C00A12D0E948722D1F3A3E01A9FF001DE017E
:102D6C001296AE0FBF1FEE27A00FBE1FEC9105C031
:102D7C001F5FDACF0F5FC6CFE0E01981088165963F
:102D8C000895BA93AA9364970E940B2528EE33E01A
:102D9C00E88DF98DE130A0E0FA0711F412E00DC0D6
:102DAC00E230A0E0FA0711F413E007C0E330A0E032
:102DBC00FA0711F414E001C033C0FE013496FA9303
:102DCC00EA93E8EDFDE1FA93EA93EC8DFD8D0E9418
:102DDC008B240E94DE240E94B9220E94EA19EAE0A8
:102DEC00EA93E4E1EA93DE0116960E94631D13B0A8
:102DFC00E12FA1E00E947224E129E3B9819904C07A
:102E0C000024021603060CF005C00E94E922215092
:102E1C003040F4CF13B0E12FA1E00E94F222E3B9CD
:102E2C000E9412256A9608950E948C22A9E5B6E0AC
:102E3C000E940023AEE6B6E00E940423ABE7B6E0A6
:102E4C000E940423A6E8B6E00E940423A1E9B6E0A0
:102E5C000E940A23ABE9B6E00E940A23A5EAB6E079
:102E6C000E940A230E942015AFEAB6E00E940423B8
:102E7C000E942015A4EBB6E00E9410230E941B2395
:102E8C00A7EBB6E00E942615E03039F40E94CD2263
:102E9C00AAEBB6E00E94631D089508950E940B25CD
:102EAC000E94EA190E942015A1EDB6E00E941023A1
:102EBC000E942223AAEDB6E00E942615E03021F0F4
:102ECC000E9429230E942F237FD20E942015AFED50
:102EDC00B6E00E9410230E941B23A8EEB6E00E94CD
:102EEC002615E030D9F00E943523EDEEF6E0FA938A
:102EFC00EA93E1E0F0E00E943A2381F00E94CD22B7
:102F0C00A8EFB9E00E942F23A8EFB9E00E94A921F5
:102F1C008F01E1E0F0E0E017F10749F0E0E0EA931F
:102F2C00EFE0EA93A4EFB6E00E94631DCDCFE0E0A2
:102F3C00EA93E4E1EA93ABE0B7E00E94BE22E1E061
:102F4C0065C20E942015A7E1B7E00E9410230E94E1
:102F5C002223AEE1B7E00E942615E030C9F00E94B2
:102F6C008C22A6E2BAE00E94631D0E943523E2E2A5
:102F7C00F7E0FA93EA93E0E0F0E00E943A2341F0A4
:102F8C00A8EFB9E00E94A92135970CF48CC095C02C
:102F9C008AC01A930A9300E010E00330E0E01E07A9
:102FAC0054F4CFDFE03011F0E1E013C03DDF76DF09
:102FBC000F5F1F4FF2CFE1EBFEE1FA93EA93E3E0F0
:102FCC00F0E060E070E00E94DE2484E00E94321F9A
:102FDC0026960991199108950E948C22A8E2B7E0D7
:102FEC000E94631DACE3B7E00E940A23A6E4B7E09D
:102FFC000E944623A1E5B7E00E944623ABE5B7E06B
:10300C000E944623ADE6B7E00E941015ACE2B1E099
:10301C000E945B240E94CD22A0E8B7E00E94631DB1
:10302C00ACE2B1E048C00E948C22ABE8B7E00E9451
:10303C00631DA1EAB7E00E944C23E8E0FAE0FA93A2
:10304C00EA93EBE5FFE1FA93EA93E0E7FCE10E94F7
:10305C00B4220E94B922A8E0BAE00E944C230E943C
:10306C002015AFEBB7E00E9410230E945223ACEC6A
:10307C00B7E00E942615E03021F00E9429230E941F
:10308C00BE220E948C22AFECB7E00E940023AEED72
:10309C00B7E00E9410230E942223ABEEB7E00E94FF
:1030AC002615E03011F4E0E008950E9429230E94D7
:1030BC00631DA4EFB1E00E945B24E1E008950E943F
:1030CC008C22A1EFB7E00E940023A6E0B8E00E949A
:1030DC0046230E942015A2E1B8E00E9446230E94DC
:1030EC002015A6E2B8E00E9446230E942015A0E518
:1030FC00B8E00E9410150E9459230E943523E0E08D
:10310C00F2E0FA93EA930E945223A0E6B8E00E9400
:10311C002615E03039F12497E0E0EA83EB830E9436
:10312C003523ACE20E94EF20E883F983309739F025
:10313C00A881B98111960E94A921EA83FB83AA81F7
:10314C00BB81A83CE0E0BE0729F40E945F23ACE6FB
:10315C00B8E004C00E945F23A8E7B8E00E94631D9A
:10316C00249606C00E945F23A8E8B8E00E94631D65
:10317C000E945923A5E9B8E00E9446230895000057
:10318C00E0916200E061E093620000000895E0913C
:10319C006200EF7E0E946423EF7D0E946423EF7B2C
:1031AC00E093620008951A93EADF19B3E09162008C
:1031BC00EF7EE0936200E12F19910895AA931A9380
:1031CC000E946923EB7FE0936200E981EF5F1E2F81
:1031DC0010FF04C0E0916200E06203C0E091620065
:1031EC00EF7DE093620011FF04C0E0916200E064A7
:1031FC0003C0E0916200EF7BE0936200D4DFE078E3
:10320C00E9F718815EC0AA93A981D8DFE09162002A
:10321C000E946F2356C0E091270CEA93E091260C94
:10322C00EF73E064AE2FEFDFE091270CEA93E091AF
:10323C00280CE86BAE2FE7DF0895AA93E981E093A1
:10324C00260CE295EF70E695E695E093270CE88165
:10325C00E093280CE0DF35C0A091260CAF5FA09363
:10326C00260CA03818F0E0E0E093260CE091260C38
:10327C00EF7331F4E091260CEA93A091280CDDDF7A
:10328C000895AA93A091270C99DFE0916200E46065
:10329C000E9464230E946F230C948A1DA091270C1A
:1032AC008DDF0E946923E460E09362007CDF089567
:1032BC00AA93E981EA93E9810E947A23EFDFABDFDD
:1032CC00EDDF22960895BA93AA931A93E0916100C8
:1032DC00E0610E948023E8600E948023E4600E94E9
:1032EC008023E068E0936100E0916200E068E09385
:1032FC006200E0916100E0620E948023E064E09350
:10330C00610045DFE0916200EF77E0936200A4E694
:10331C00B0E00E945B24E0916200E068E093620000
:10332C0010E0123040F41A93AFE36DDF1A9313954B
:10333C00A0EC69DFF6CFE1E0E093A108E0E0E093D8
:10334C00A208E981FA813097A9F0A981BA810E947B
:10335C00CA240E94E422A981BA8112960E94CA242E
:10336C00E093BA08F093BB08A981BA8114960E9425
:10337C00CA240AC0E0E0F0E00E94E422E0E0F0E0C1
:10338C00E093BA08F093BB08E093BC08F093BD0837
:10339C00E1E0E093A708E093A808E093A908EFEF19
:1033AC00E093AA08E1E0E093B108E2EBF8E0FA93CD
:1033BC00EA93EFEFEA93A8E0B0E00E94DF2004D09C
:1033CC00E1E01881239608950E940B2500E030E07F
:1033DC00E091A208E03009F00FEF383078F4E0E02B
:1033EC00EA93A32F3F5F29DF10E0A12F1F5FA038C6
:1033FC0020F4A02F0E948523F8CFEFCFE0E0EA93D2
:10340C00A0E01BDFE0E0EA93A0E06CD30E94122561
:10341C0024960895AA931A930A93AC81A03818F4B1
:10342C00AB81A03408F016C0EC81EA93AC8140DF8C
:10343C001E2FF1DEEB81E770A1E00E9472240E2FAB
:10344C00EA81E03011F0102B03C0E02FE0951E2331
:10345C00A12F17DF1981088125960895AA931A9335
:10346C00ED81EA93AD8124DF1E2FD5DEE981E730B3
:10347C0011F0E83039F4EB81EA93AA810E94EB2138
:10348C00EB8308C0E33021F4EB81E095EB8302C0C1
:10349C00E03021F4EA81E0951E2302C0E23029F4E9
:1034AC00EA81AB81EA231E2B0EC0E13029F4EA81BC
:1034BC00AB81EA231E2707C0E43029F4EA81E095AA
:1034CC00AB81EA2B1E23A12F0E94852318812696FF
:1034DC000895AA9323970E940925A889A03848F437
:1034EC00AF85A03430F4AE85A03019F0AD85A03096
:1034FC0009F4C6C1EE85E887A889BB27EE85F0E004
:10350C00AE0FBF1FA138E0E0BE0720F0A889E0E8AD
:10351C00EA1BEE872D85AF85BB27ED85F0E0AE0F5E
:10352C00BF1FA134E0E0BE0720F0AF85E0E4EA1B4A
:10353C00ED87A985A63009F05BC0EC85E13009F474
:10354C009FC1E33039F4E091BC08F091BD0830978D
:10355C0009F496C10885ED85E695E695E6953E2F2E
:10356C00E22FE77019F4AD852A17E9F0A02FBB27DD
:10357C00E32FF0E00E949C24AA85BB850E9489233E
:10358C00269526952695532F5F935F5FE22FAF917B
:10359C00EA1748F0102FE12F1150E03019F00E947B
:1035AC008E23F9CFF1CFAE850A1711F1EE85AA85DE
:1035BC00BB85F0E00E948923ED85E77009F03F5F41
:1035CC0020E02F932F5FE32FAF91AE1788F41E8569
:1035DC001F931F5FE02FAF91AE1718F40E948E233C
:1035EC00F7CFEE85AE81BF81F0E00E948923E9CF51
:1035FC00EF85E7703E2FED85E03009F441C1EA8597
:10360C00FB85EE83FF8310E00889303009F065C03C
:10361C00AD85A83008F45CC0E985E03011F0E330EA
:10362C0009F402C0E73009F402C0E83009F402C022
:10363C00E63009F402C0E93009F402C0EA3021F4A2
:10364C000A93E8890E947A231F931F5FEE85AF913E
:10365C00AE17B8F5A985A63061F420DEDCDD0E943A
:10366C009B23FA93EA931ADEAE2F0E943222F4DDEA
:10367C0027C0E985E93011F450E00EC0EA3011F4AE
:10368C005FEF0AC00E949B230E94A4235E2FE98552
:10369C00E73011F0E83021F40E94AA235E2F06C017
:1036AC00E33011F4509502C0E03021F4A52F0E94B4
:1036BC00852306C00E94AE23EFEFEA93AD85CEDEE4
:1036CC00C3CFEF85E85FEF87ED85E850ED87CFC07E
:1036DC005D8520E0E0E0ED877AC0E32FAD85AE0F8D
:1036EC00A93020F42D85E0E0ED8703C0E8E0E31B72
:1036FC002E2F3A93A22F0E94E0214E2FE985E6301F
:10370C00F1F41F931F5FEE85AF91AE17B8F40E94D2
:10371C00B423AE2FE32F0E947A240E94BB23E32F05
:10372C00A42F0E947A24E095E1215E2B0E949B231A
:10373C00FA93EA93A52F0E943222E3CF2CC0E930F2
:10374C0011F450E003C0EA30A9F45FEF0E94AA2301
:10375C00AE2FE32F0E9472245E2F1F931F5FEE8506
:10376C00AF91AE1730F40E94AE234A93A0E076DE00
:10377C00F4CF11C01F931F5FEE85AF91AE1758F4B5
:10378C000E94C623AE2FE32F0E947224EA934A9321
:10379C00AD8564DEEFCFED85E03009F471C0AD8509
:1037AC00A83028F4ED85E21B5E2FE0E003C0532F18
:1037BC00ED85E850ED8710E0EF85E85FEF87E8E0F6
:1037CC00E31B2E2F0889EA85FB85EE83FF83E52F0B
:1037DC00F0E0E858F34E4491E985E630E1F41F93AC
:1037EC001F5FEE85AF91AE17A8F40E94B423AE2FE5
:1037FC00E22F0E9472240E94BB23E22FA42F0E946E
:10380C00F2225E2B0E949B23FA93EA93A52F0E942F
:10381C003222E5CF2CC0E93011F450E003C0EA307D
:10382C00A9F45FEF0E94AA23AE2FE22F0E947A2404
:10383C005E2F1F931F5FEE85AF91AE1730F40E9481
:10384C00AE234A93A0E00ADEF4CF11C01F931F5F92
:10385C00EE85AF91AE1758F40E94C623AE2FE22F1F
:10386C000E947A24EA934A93AD85F8DDEFCFE88580
:10387C00AA85BB85F0E0EA0FFB1FEA87FB87BBCE6E
:10388C000E941025619608950E94D32324F0E0E055
:10389C00F0E00C94E921A881B981A038E0E0BE07E2
:1038AC0024F0EFE7F0E00C94E921E881F9810C9425
:1038BC00E9210E94D32324F0E0E0F0E00C94E9210C
:1038CC00A881B981A034E0E0BE0724F0EFE3F0E07A
:1038DC000C94E921E881F9810C94E921AA93E981FE
:1038EC00EA93E981EA93A091A10894DD0C94E92173
:1038FC00BA93AA9323970E94DA238F01002E012AF0
:10390C0019F4E0E0F0E05FC00E94E1230F820E9416
:10391C00E1230E820E94E1230886EB85A885EA1735
:10392C0018F4E0E0F0E04FC0F8010F5F1F4F549126
:10393C00A885BB27EE27A50FBE1FEB85F0E0EA1785
:10394C00FB0718F0E0E0F0E03EC0EE81E695E6956E
:10395C00E6954E2FEE81E77009F04F5FEF81E03076
:10396C00A1F0A985BA85EC93A885EB85EA1BF0E05C
:10397C00DF01EF81F0E00E949C24DF01E42FF0E0F6
:10398C000E949C24E00FF11F1EC09801E52FF0E06F
:10399C000E0F1F1FA885AF5FA887A150EB85AE1730
:1039AC0060F4F9012F5F3F4FA491B0E0E42FF0E0F9
:1039BC000E949C240E0F1F1FEDCFF901E491A985E5
:1039CC00BA85EC93F8010E9410252C960895E0E03E
:1039DC00E093A308A091A408BB270E94E623F0E083
:1039EC00AE0FBF1FE091A808F0E0AE0FBF1F61DF64
:1039FC00E093A4080895AA9321970E94DA233097A4
:103A0C0009F455C0AF81AA3009F44FC0EF81EA9395
:103A1C00DE0117966DDFAF01309709F44AC0E091D3
:103A2C00A708AE81EA0F3E2FA091A308BB27F0E0B8
:103A3C00EA0FFB1F8F010138E0E01E0718F0032F7F
:103A4C001127C5DFE091A308EA93E091A408EA935B
:103A5C00E885EA930E94E623EA93E1E0EA935A931D
:103A6C004A93A7E036DDE091A308AE81EA0FEA9312
:103A7C00E091A408EA93E091A708EA930E94E62358
:103A8C000E94ED23E091A308EA93A091A4080E9460
:103A9C00E623EA0FEA933A93E091A8080E94ED23FB
:103AAC00E0E8F0E0E017F10711F491DF02C00093B9
:103ABC00A3080E94102528960895BA93AA931A93E6
:103ACC00EC81EA93AC810ED0A981BA81ED91A983E6
:103ADC00BA831E2FE03019F0A12F8DDFF5CF18819E
:103AEC000C94ED20AA93A981BB27CEDEE093A3080A
:103AFC00A881BB27DEDEE093A4080C94E921AA93ED
:103B0C005D9BFECFE881ECB921960895BA93AA93F8
:103B1C00AA81F5DFA881B9810E94F7230C94302289
:103B2C00BA93AA931A930A93AA81BB8112960E9404
:103B3C00CA24309729F1AA81BB8114960E94CA2409
:103B4C008F01309761F00230E0E01E0780F0F80141
:103B5C0031978F01AA81BB811496ED93FC93AA81B6
:103B6C00BB8112960E94F7233197AC81A083AA8166
:103B7C00BB810E94CA24FF2312F00E94F72306C0C7
:103B8C00AA81BB81EFEFFFEFED93FC9319810881C4
:103B9C000C94ED20BA93AA9326970E94092510E065
:103BAC00AC85BD85E0E0F0E0ED93FC93EA89FB8900
:103BBC003196EA8BFB8B3197E4912E2FE03009F490
:103BCC0015C1E12FE03039F4253211F411E002C0B7
:103BDC000E94FD230AC1E130A9F4253219F40E9498
:103BEC00FD2302C112E040E000E02D3211F401E0AF
:103BFC00FCC02B3211F44BE2F8C0203211F440E23D
:103C0C00F4C002C0E23039F450E013E0203311F478
:103C1C000068EBC003C0E33009F0E7C0203310F0BC
:103C2C002A3308F007C0AAE05A9F502DE22FE05328
:103C3C005E0FDBC0E22FE33649F40E940424E889CE
:103C4C00F989A481AA930E940A24CEC0E33741F4D7
:103C5C000E9404240E9410240E9409211E2F0AC0D5
:103C6C00E03761F40E9404240E9410240E94152164
:103C7C001E2F086002600F7730E034C0E43611F07C
:103C8C00E93611F4046002C0E53731F4E2E8FCE1F6
:103C9C00EE83FF8315E00CC0E83511F4086003C017
:103CAC00E83709F0A1C0ECE8FCE1EE83FF8314E0F7
:103CBC0002FF14C00E9404240E941A24AB85AA237C
:103CCC003AF4EA85FB850E946E24EA87FB874DE275
:103CDC00403011F01F5F01C00B7F04C00E94042410
:103CEC000E941A2400FD11C0151778F407FF08C0B4
:103CFC0002FF04C00B7F242F115001C020E301C030
:103D0C0020E20E94FD235150EFCF312F01FF17C04D
:103D1C003030A1F003FF06C0EE81FF812591EE83C8
:103D2C00FF8305C0AE81BF812D91AE83BF830E94FE
:103D3C00FD23503009F051503150EACF4BC020E3F5
:103D4C00EE81FF810E94CE24E887F987EE81FF8106
:103D5C003296EE83FF83E885F985AA85BB85AE177D
:103D6C00BF0750F02F5FA885B985EA85FB85EA1B54
:103D7C00FB0BEA87FB87EFCF2A3328F003FF02C047
:103D8C00295F01C0295D04FD1AC0213320F4A885E8
:103D9C00B985119709F409C0531710F000FF01C041
:103DAC0013C020E207FF0BC020E3006102FF07C035
:103DBC000B7F4A930E940A24503009F051500E9404
:103DCC00FD23503009F051503150A885B985129718
:103DDC0008F0B5CF00FF08C0503031F05150E0E290
:103DEC00EA930E940A24F8CF10E0E0CEAC85BD85A2
:103DFC000E94CA240E94102564960895FF92F82E02
:103E0C0026970E940B250E942224309719F4EFEF7D
:103E1C00FFEF1DC0DE0116960E9465248D010E94E5
:103E2C002224EE83FF83E0E0E887E987DE011A961F
:103E3C000E942924E6E9FDE1FA93EA93DE011A9641
:103E4C00A9DE9F01AE81BF81E0E0EC93F9010E94F5
:103E5C0012252A96FF900895FF92F82E26971A9312
:103E6C000A93DE0114960E9465248D01E0E0EC8338
:103E7C00ED83EE83EF83DE0118960E942924ECE893
:103E8C00FDE1FA93EA93DE01189684DE198108812C
:103E9C002896FF900895BA93AA931A93A981BA8190
:103EAC00E0E0EC93AB81BC81EC911E2FE03019F07B
:103EBC00E0E0EC9316C0A981BA8111960E94CA2445
:103ECC00309771F0E981FA81A181B281EC911E2FBA
:103EDC00E03029F0A981BA8111960E94F72301C024
:103EEC0010E0E12F188173C1FF92BA93AA93249723
:103EFC000E940925E0E0F0E0E887F9874E2FE88979
:103F0C00F9893196E88BF98B3197E4913E2FE030AB
:103F1C0009F423C10E943224C1F0EDB7FEB7FA9325
:103F2C00EA934F930E9437244F913E2FE03019F0C3
:103F3C000E94322409F407C00E943D241CF4EFEFC8
:103F4C00FFEF0DC1EACF432F07C1353209F0ECC0AA
:103F5C0050E0E889F9893591E88BF98B303310F012
:103F6C003A3308F007C0AAE05A9F502DE32FE053D4
:103F7C005E0FEFCF303009F4F0C0EDB7FEB7FA9317
:103F8C00EA934F930E9437244F912E2FAE2F0E940D
:103F9C005A22E03039F00E943D241CF4EFEFFFEF81
:103FAC00DEC0EBCF203009F4CFC0422F503009F4E3
:103FBC005FEFE32FE33699F40E944224EDB7FEB78E
:103FCC00FA93EA934F930E9437244F91D801EC93C4
:103FDC000E943D241CF4EFEFFFEFC1C09FC0E337FC
:103FEC0041F50E944224E52F5150E030F1F0EDB73D
:103FFC00FEB7FA93EA934F930E9437244F913E2FCA
:10400C00E03019F00E94322439F00E943D241CF457
:10401C00EFEFFFEFA4C009C01F930F930F5F1F4F6B
:10402C00E32FAF91BF91EC93DECFD801E0E0EC939E
:10403C0075C06894F1F8E894F2F8E32FE43611F0C7
:10404C00E93619F4E894F1F802C0E53711F42AE0E6
:10405C0008C0E83711F420E104C0E53209F464C06B
:10406C007CC0E0E0EE83EF836894F0F8E52F5150CC
:10407C00E03009F444C0EDB7FEB7FA93EA934F93DE
:10408C000E9437244F913E2FE13238F40E943D2498
:10409C001CF4EFEFFFEF63C017C0F1FC08C068948D
:1040AC00F1F83D3211F4F2F8E1CF3B32F9F2203164
:1040BC0031F4A32F0E946522E03031F009C0A32F08
:1040CC000E945122E03021F4F0FC47C0432F17C06E
:1040DC00313610F0375505C0313410F0375301C06C
:1040EC003053E22FAE81BF81F0E00E949C24DF01AF
:1040FC00E32FF0E00E948923E894F0F8B7CF0E94F8
:10410C004224F2FE06C0EE81FF810E946E24EE83F3
:10411C00FF83EE81FF81D801ED93FC93E885F9854F
:10412C003196E887F98718C0EDB7FEB7FA93EA9392
:10413C004F930E9437244F91E31771F00E943D2456
:10414C001CF4EFEFFFEF0BC0E885F985309719F4FD
:10415C00EFEFFFEF04C001C0D2CEE885F9850E94D5
:10416C0010256296FF900895FF92F82E23971A93CC
:10417C000A930E944D24309719F4EFEFFFEF14C00F
:10418C00DE0111960E9465248D010E944D24EB8363
:10419C00FC83DE0115960E942924E1E5FFE1FA93E8
:1041AC00EA93DE011896A0DE198108812596FF900E
:1041BC000895BA93AA93B981A881109631F0FC8125
:1041CC00EB816A8161931197E9F7EB81FC8125966C
:1041DC000895AA93A991E991F991B081AB1729F0AF
:1041EC003196BB23D1F7EE27FF270895BA93AA93F4
:1041FC00E991F991A991B991CD0161916D936623E2
:10420C00E1F7FC010895BA93AA93A991B991EE270D
:10421C00FF276D91662311F03196FBCF0895BA9369
:10422C00AA93AA27BB27E991F9910590002011F0D8
:10423C001196FBCFFD010895BA93AA93BB81AA8175
:10424C006C91662361F0F981E881C895002029F012
:10425C0031966015D1F7FD0104C01196F1CFEE2710
:10426C00FF270C944F22BA93AA93AA81BB81CD014C
:10427C00E881F9817191772311F4FC0109C06D91EA
:10428C006717C1F30196DC01662391F7EE27FF2730
:10429C000C944F22BA93AA93BB81AA8188279927A1
:1042AC006D91662349F0F981E8810590002021F099
:1042BC006015D9F70196F4CFFC010C944F22BA93F8
:1042CC00AA931A930A93EC81FD81309779F4E091CB
:1042DC00290CF0912A0C309719F4E0E0F0E02FC093
:1042EC00E091290CF0912A0CEC83FD830E9454245C
:1042FC000E945021AC81BD81EA0FFB1FEC83FD8332
:10430C00AC81BD81EC91E03041F4E0E0E093290C0C
:10431C00E0932A0CE0E0F0E012C00E9454240E94CA
:10432C0022218F01309729F0D8010F5F1F4FE0E059
:10433C00EC930093290C10932A0CEC81FD811981CC
:10434C00088126960895BA93AA93B981A881EC9115
:10435C008A2FAE2F0E945A22A82FEE2311F011960D
:10436C00F6CFE894EC91ED3211F4689402C0EB3284
:10437C0009F4119666277727EC918A2FAE2F0E94AD
:10438C005122A82FEE2379F0FB01660F771F660FE1
:10439C00771F6E0F7F1F660F771FED91FF27E0537E
:1043AC006E0F7F1FE9CFFB011EF4E095F09531965F
:1043BC0022960895AA93E881F0E0E858F34EA49170
:1043CC00E9810E94722422960895AA931A93E98196
:1043DC00E73011F0EA3019F41091A10809C0E93066
:1043EC0019F41091A20804C0E830A1F41091B1089E
:1043FC00E091A208E03049F0103019F0EFEF18818D
:10440C0029C0EA81E095188125C0103019F4E0E04C
:10441C00188120C0EA8118811DC0BA93AA93EA8141
:10442C00E13021F4E881F981E49114C0E23029F4FF
:10443C00A881B9810E94E3240DC0E33041F4A88126
:10444C00B981E091BA08F091BB08099503C0A88125
:10445C00B981EC9123960895AA93EB81E03029F46D
:10446C00E881A981BA81EC9314C0E23031F4E8817F
:10447C00A981BA810E94EF240CC0E33051F4E98188
:10448C00FA81FA93EA93AA81E091BC08F091BD08F5
:10449C00099524960895AA93E1E0F991F03310F070
:1044AC00FA3308F0EE270895AA93E1E0F991F0327F
:1044BC0029F0F93010F0FE3008F0EE270895AA9399
:1044CC00E1E0F991F05340F0FA3038F0FF75F75015
:1044DC00FA3010F0F03108F0EE270895E091C108A1
:1044EC00F091C2086091C3087091C40808950E94AD
:1044FC00092500E010E00895A1E0B0E00E948224BC
:10450C000895B0E0EA23FB23309708950E94EA193E
:10451C00E0E0EA93EA930895FA93EA93E0E8EA93E9
:10452C00A0E40E94B511E0E00895E093C008E09388
:10453C00BF08E0E0E093BE0808950E941015FE014C
:10454C00E85FFE4FFA93EA93E0E0F1E0FA93EA9326
:10455C000895E8EEF3E0FA93EA9308956627772737
:10456C000E94DE24089584E00E94041F289608957A
:10457C000E94631DA4EFB1E00C945B24FA93EA93C0
:10458C00A1EFBCE10E946521EEA3FFA30895E0E03A
:10459C00EA93EAE0EA930895FA93EA93E0E8EA935F
:1045AC00A0E20C94B511FA93EA93E0E8EA93A0E444
:1045BC000E94B511ACE2B1E00C945B24E093A50829
:1045CC00F093A6080895A1E0B0E00C945B24EA8572
:1045DC00FB85FA93EA9308950E947224E095E121F9
:1045EC00089513B2E12FF0E0DE011E96AE0FBF1F4F
:1045FC00EC9182CF0E94631D0C9420150E94101523
:10460C00A4E6B0E00C945B240E941015A4EFB1E07A
:10461C000C945B240E941015E6E2FAE0FA93EA93FC
:10462C00E0E0F2E0FA93EA930895E0EDF7E060E061
:10463C0070E00E94DE240895E8E8F3E160E070E0A9
:10464C000E94DE240895E0E0EA93EA93A6E2BAE041
:10465C0008950E94631DA8EEB3E00C945B24E6E27F
:10466C00FAE0FA93EA930895FA93EA93E8EFF9E003
:10467C00FA93EA93A0E1B0E00E94B5153097089543
:10468C000E941015A8ECB0E00C945B240E9410154D
:10469C00A6E9B0E00C945B24E0E1F7E260E070E0A6
:1046AC000E94DE240895A8EEB3E00E945B240C94D3
:1046BC002015E0E0EA93E0E1EA930895E0936200CC
:1046CC00E09162000895E0E0EABBE0916200E860EE
:1046DC00F5CFE77FE0936200EFEFEABBE881EBBB3D
:1046EC000E94C5180C94CD18E695E695E695AE2F6C
:1046FC000C942319E0936100E091610008950E94ED
:10470C0047190C943219EA0FFB1FEE83FF830895AF
:10471C00EC85EA93EF81F8853196EF83F887319732
:10472C00FA93EA93A0E00C943222EC85EA93EF81A1
:10473C00F8853196EF83F8873197089566277727A8
:10474C00DF01CB010C9413225A93AA850C94EB2114
:10475C000A930395E889EA935A9308950A9303956B
:10476C00A8890E945E19E42308955E2FEC85EA93D4
:10477C00AF81B885882799270E9413221E2E089591
:10478C000A930395E889EA93EE85EA93E985FA851D
:10479C003196E987FA873197D1CFBA93AA93A8813A
:1047AC00B9810E94002508950E940925E091A50871
:1047BC00F091A6080895F8010F5F1F4F049008951B
:1047CC00E091A508F091A6083196E4910895EA933A
:1047DC00E0E0EA93E0E0F0E0FA93EA93A9E00C94CD
:1047EC006F1AED91FD913196FE93EE9308952A93F5
:1047FC00AD85BE85EF85F88909950895E889F98915
:10480C003497E88BF98B0895AD85BE85EF85F889D3
:10481C0009950895A889B98914960E94CA24EE8333
:10482C00FF83AE81BF810895A889B98914960E942F
:10483C00CA24EA87FB870895DE011C960E94652432
:10484C000E94CA2408950E9465240E94CA24FA93E7
:10485C00EA931A930A930895A32F0E945A22E030E8
:10486C000895AC85BD85EE85FF8509950895AA85CB
:10487C00BB85AC91A0300895EE85FF853497EE870B
:10488C00FF87AE85BF8514960D911C910895DE01AE
:10489C0017960E9465240E94CA240895EC81FD811C
:1048AC00FA93EA93AC81BD810895109639F0A895DE
:1048BC0080ED97E00197F1F71197C9F7089500245F
:1048CC00AF0DB01D0895AE1BBF0B860B970B089553
:1048DC00F195E195F0400895EE230E2EEA2F19F094
:1048EC00EE0F0A94E9F70895EE230E2EEA2F19F035
:1048FC00E6950A94E9F70895EE230E2EFD0121F0BA
:10490C00EE0FFF1F0A94E1F708956F2F660F660BE9
:10491C00762F0895EA17FB07E1E009F4EE270895D6
:10492C00EA17FB07E1E00CF0EE270895FA9FF02D53
:10493C00EB9FF00DEA9FE02DF10D0895002411245A
:10494C0090E1AA0FBB1F001C111C0E1A1F0A18F4B1
:10495C000E0E1F1E01C0A1609A9599F7FD01D001A2
:10496C00089504D0EBDF0EF4B3DF0895E894F7FF5D
:10497C0002C0AEDF6894B7FF06C0A095B095119643
:10498C0000F8039400FA0895ED91FC9111970895A5
:10499C000590F491E02D0895E881F9816A817B817D
:1049AC000895E883F9836A837B83089560E070E05F
:1049BC007A936A93FA93EA930895E199FECFFF9361
:1049CC00FFB7F894AEBBBFBBE09AEDB3FFBFFF914E
:1049DC000895E19B02C0A895FCCF9FB7F894AEBB9D
:1049EC00BFBBE09A8DB3E81719F0EDBBE29AE19AE0
:1049FC009FBF089500240A160B060895AE17BF0733
:104A0C008607970708955A934A933A932A931A93D1
:104A1C000A9308955D814C813B812A81198108811B
:104A2C000895AC0FBD1F05900D928A95E1F708957E
:00000001FF
