:0A0000000C94F5110C9400000C9410
:10000A0000000C9400000C9400000C9400000C9466
:10001A0000000C9400000C9400000C9400000C9456
:10002A0000000C9400000C9400000C9400000C9446
:10003A0000000C9400000C9400000C9400000C9436
:10004A0000000C9400000C9400000C9400000C9426
:10005A0000000C9400000C9400000C9400000C9416
:10006A0000000C9400000C9400000C9400000C9406
:10007A0000000C9400000C9400000C9400000C94F6
:10008A00000005072060000000000000005F00007B
:10009A000007000700147F147F14242A7F2A1223E2
:1000AA001308646236495522500005030000001CFB
:1000BA002241000041221C00082A1C2A0808083E86
:1000CA00080800503000000808080808003030000E
:1000DA000020100804023E5149453E00427F40007C
:1000EA0042615149462141454B311814127F10276C
:1000FA00454545393C4A49493001710905033649A4
:10010A00494936064949291E003636000000563646
:10011A000000000814224114141414144122140873
:10012A00000201510906324979413E7E1111117EC0
:10013A007F494949363E414141227F4141221C7F44
:10014A00494949417F090901013E414151327F082C
:10015A0008087F00417F41002040413F017F081489
:10016A0022417F404040407F0204027F7F04081002
:10017A007F3E4141413E7F090909063E4151215EC8
:10018A007F09192946464949493101017F01013F41
:10019A004040403F1F2040201F7F2018207F6314CB
:1001AA000814630304780403615149454300007F3E
:1001BA004141020408102041417F0000040201026B
:1001CA000440404040400001020400205454547846
:1001DA007F484444383844444420384444487F38AB
:1001EA0054545418087E090102081454543C7F08D8
:1001FA0004047800447D40002040443D00007F1004
:10020A00284400417F40007C041804787C080404D8
:10021A007838444444387C14141408081414187C9C
:10022A007C080404084854545420043F4440203CA9
:10023A004040207C1C2040201C3C4030403C44284C
:10024A001028440C5050503C4464544C4400083626
:10025A00410000007F00000041360800020102044C
:10026A00027F4141417F00000000000000000000C1
:10027A000000000000000000000000008080000074
:10028A000000000000000000000000000000808064
:10029A000000000000000000000000000000000054
:1002AA000000000000000000000000000000000044
:1002BA000000000000000000000000000000000034
:1002CA000000000000000000000000000080800024
:1002DA000000000000000000000000000000000014
:1002EA000000000000000000E0E00000060E1ABA5C
:1002FA00E3C1000080C0E0B0F0F00000FFFF0000A2
:10030A000000E0E0000000F0F00000000000FFFF45
:10031A00000020E0E00000000000C0C0081818003B
:10032A00F0F00000E0F03060E08000080CECEC8CAB
:10033A00000000E0E00080E0E010F0F000000000C3
:10034A0000E0F818F0E0000020E0E00000FFFF0005
:10035A000080C0E0B070F080000000E0E00C8EEE9B
:10036A00EC18F0F000000000000101010101010198
:10037A00010101010100010101010000000101095F
:10038A000D0D0D0D0D2D3D3D090000000000010170
:10039A0008080C0F070000000000070F0C080C0CDF
:1003AA00070700000909090F0701010101010101FD
:1003BA000101010101010101010101000000000028
:1003CA0000010101010108080C0F070000000101EA
:1003DA000101000101010101010101010101010104
:1003EA000101010000000000000000000000000000
:1003FA0000000000000000000000000000000000F3
:10040A0000000000000000000000000000000000E2
:10041A0000000000000000000000000000000000D2
:10042A0000000000000000000000000000000000C2
:10043A0000000000000000000000000000000000B2
:10044A0000000000000000000000000000000000A2
:10045A000000000000000000000000000000000092
:10046A000000000000000000000000000000000082
:10047A000000000000000000000000000000000072
:10048A000000000000000000000000000000000062
:10049A00000080800000C0C00018F8E0000000E002
:1004AA00E080000008ECEC800000060E3AF3E1015F
:1004BA000000000000000000000000000000000032
:1004CA000000000000000000000000000000000022
:1004DA000000000000000000000000000000000012
:1004EA000000000000000000000000000000000002
:1004FA0000000000000000000000000000000000F2
:10050A0000000000000000000000000000000000E1
:10051A0000000101000001010101010101050D0DA9
:10052A000D0901010101010101010101010100009F
:10053A0000000000000000000000000000000000B1
:10054A0000000000000000000000000000000000A1
:10055A000000000000000000000000000000000091
:10056A000000000000000000000000000000000081
:10087A0000000000000000C0C0000000000000806E
:10088A008000000000000000FCFC0000004040C0A6
:10089A00C00000000000000000008080000000008E
:1008AA0000FCFC0000000000000000000000000046
:1008BA00000004FCFC000000808000000000000032
:1008CA00000000008080808000000080808080809E
:1008DA00800000000000000080808000000000000E
:1008EA0000000000000000000000000000000000FE
:1008FA000C0C00000E0E08080F0F08286868684FD5
:10090A000F4040637F1C00000F0F00000E0E080806
:10091A000F074040617F3F0868684F0F00000000E2
:10092A00000F0F4040617F3F00000000003E7E60E4
:10093A004060603F1F00004F4F497B3F0C0808088A
:10094A000F0F0E0B0908090F0F08080B0B0C0C06EA
:10095A000F0D0908080C060F0D0F0F00000000000C
:10096A00000000000000000000000000000000007D
:10097A00000000000000000000000000000000006D
:10098A00000000000000000000000000000000005D
:10099A00000000000000000000000000000000004D
:1009AA00000000000000000000000000000000003D
:1009BA00000000000000000000000000000000002D
:1009CA00000000000000000000000000000000001D
:1009DA00000000000000000000000000000000000D
:1009EA0000000000000000000000000000000000FD
:1009FA0000000000000000000000000000000000ED
:100A0A0000000000000000000000000000000000DC
:100A1A0000000000000000000000000000000000CC
:100A2A0000000000000000000000000000000000BC
:100A3A0000000000000000000000000000000000AC
:100A4A00000000000000000000000000000000009C
:100A5A00000000000000000000000000000000008C
:100A6A00000000000000000000000000000000007C
:100A7A00000000000000000000000000000000006C
:100A8A00000000000000000000000000000000005C
:100A9A00000000000000000000000000000000004C
:100AAA00000000000000000000000000000000003C
:100ABA00000000000000000000000000000000002C
:100ACA00000000000000000000000000000000001C
:100ADA00000000000000000000000000000000000C
:100AEA0000000000000000000000000000000000FC
:100AFA000000000000000000C0C00000000000006C
:100B0A000000000080800000FCFC00000000008063
:100B1A00808000000010B0A00000000000004040EB
:100B2A00C0C00000000000000000FCFC00000080C3
:100B3A008000000000000000FCFC00000000000033
:100B4A0000000000004040C0C0000000000000C0DB
:100B5A00C000000080C0C0C0C0000000000000004B
:100B6A00000000000000000000000000000000007B
:100B7A00000C0C00000E0E08080F0F084868686F7A
:100B8A006F6868686F4F0000070F08080C060F0DA2
:100B9A000B0F0C0808080F0F00000000000E0E08CB
:100BAA00080F074040617F3F00000F0F00004F4FC2
:100BBA00697F3F00000000000F0F4040617F3F0047
:100BCA00000000000E0E08080F0700000E0E0808AD
:100BDA000F0F08080B0F0C0C0404000000000000A3
:100BEA0000000000000000000000000000008080FB
:100BFA0000000000000000000000000000000000EB
:100C0A0000000000000000000000000000000000DA
:100C1A0000000000000000000000000000000000CA
:100C2A0000000000000000000000000000000000BA
:100C3A0000000000000000000000000000000000AA
:100C4A00000000000000000000000000000000009A
:100C5A00000000000000000000000000000000008A
:100C6A000000000000000000000000000000010178
:100C7A00000000000000000000000000000000006A
:100C8A00000000000000000000000000000000005A
:100C9A00000000000000000000000000000000004A
:100CAA00000000000000000000000000000000003A
:100F8A000000000000000000000000000080800057
:100F9A000000000000000000000000000000000047
:100FAA000000000000000000808000000000000037
:100FBA000000000000000000000000000000000027
:100FCA000000000000000000808000000000000017
:100FDA000000000080800000000000000080800007
:100FEA0000000000000000000000000000008080F7
:100FFA0000008080000080800000C0C00018F8E077
:10100A00000000E0E080000002F6F40000FFFF00AC
:10101A000080C0E0B070F080000000F0F000000036
:10102A00000020E0E0000080FF7F203236F4E0007C
:10103A0000040CECEC040008ECEC80000080C0E03A
:10104A00B0F0F00000000000FFFF000060F39BFA20
:10105A00F0000080FF7F203030F0E0000003FFFC4A
:10106A000000000000000000000000000000010174
:10107A00000001010000010100000101010101015C
:10108A0001050D0D0D090101010101000000010119
:10109A000101000101010101010D0D09010000001A
:1010AA0008080C0F070101010101010101010101F9
:1010BA000101010101010101010101010101000117
:1010CA00010101000000000000010101010101010C
:1010DA0001010101010101010101010101010100F7
:1010EA0000000000000000000000000000000000F6
:1010FA0000000000000000000000000000000000E6
:10110A0000000000000000000000000000000000D5
:10111A0000000000000000000000000000000000C5
:10134A0000000000000000000000E0E000000000D3
:10135A000000000000000000000000808000000083
:10136A00000000000000000000000000000000383B
:10137A0078424343434360787840404078784060FD
:10138A007878447C3C000008F8F800007072424605
:10139A007E380000000000F0F002060600FCFC00A7
:1013AA0000787C4CD8F8604042437B7B63404040E5
:1013BA00787840607878447C3C0000000000787EB1
:1013CA00467C78000008F8F800003F7F4040603013
:1013DA00786C5C7C60404040787843637B7B467CD9
:1013EA003C000000000000000000000000000000B7
:1013FA0000000000000000000000000000000000E3
:10140A0000000000000202030301000000000000C7
:10141A0000000000000000010303020303010100B1
:10142A0000020202030100000000000000000000A8
:10143A0000000000000000000000000000000000A2
:10144A000000000202030301000000000000000087
:10145A000000000000000000000000000000000082
:10146A000000000000000000000000000000000072
:10147A000000000000000000000000000000000062
:10148A000000000000000000000000000000E0E092
:10149A000000000000000000000000000000000042
:1014AA0000000000000000008080800000000000B2
:1014BA008080000000000000000000008080808022
:1014CA00C04000000000000000000000E0E0000052
:1014DA000000000000000000000000000000000002
:1014EA0000000000000000000000000000000000F2
:1014FA0000006060000038784243434343607878D4
:10150A00404040787840607878447C3C00007F7F97
:10151A000000000000787E467C780000707040462B
:10152A007E78404040787843637B7B4278784040BD
:10153A00407D7D0000000000387840404143466EFF
:10154A00787040406030786C7C7C00003F7F40407F
:10155A00404078784040407C7C0000000000000059
:10156A000000000000000000000000000000000071
:10157A000000000000000000000000000000000061
:10158A000000000000000000000000000000000051
:10159A000000000000000000000000000000000041
:1015AA000000000000000000000000000000000031
:1015BA000000000000000000000000000000000021
:1015CA00000000000000000000000000000000020F
:1015DA0003030303030B0F0F0200000000000000C7
:1015EA0000000000000000000000000000000000F1
:1015FA0000000000000000000000000000000000E1
:10160A0000000000000000000000000000000000D0
:10161A0000000000000000000000000000000000C0
:10162A0000000000000000000000000000000000B0
:10163A0000000000000000000000000000000000A0
:10164A000000000000000000000000000000000090
:10165A000000000000000000000000000000000080
:10166A000000000000000000000000000000000070
:10167A000000000000000000000000000000000060
:10168A000000000000000000000000000000000050
:10169A000000000000000000000000000000000040
:1016AA000000000000000000000000000000000030
:1016BA000000000000000000000000000000000020
:1016CA000000000000000000000000000000000010
:1016DA000000000000000000000000000000000000
:1016EA0000000000000000000000000000000000F0
:1016FA0000000000000000000000000000000000E0
:10170A0000000000000000000000000000000000CF
:10171A0000000000000000000000000000000000BF
:10172A0000000000000000000000000000000000AF
:10173A00000000000000000000000000000000009F
:10174A00000000000000000000000000000000008F
:10175A00000000000000000000000000000000007F
:10176A00000000000000000000000000C0C01018C7
:10177A0018181800C0C0000000C0C00000C0C02077
:10178A00E0E0000040C0C0000080901030F0C000CF
:10179A0000000000808010303000E0E00000C0E06F
:1017AA0060C0C000001018D8D818000000C0C000DF
:1017BA0000C0C020E0E00000000000C0F030E0C03F
:1017CA00000040C0C00000FFFF00000080C060E0D1
:1017DA00E000000000C0C0181CDCD830E0E00000C7
:1017EA0000000000000000000000000001030202E7
:1017FA0002020203030302020203030203030302B7
:10180A0003011010181F0F00000303020203010056
:10181A00000000000F1F181018180F0F00001313F4
:10182A00121E0F030202020303030202020303024F
:10183A000303030203010000000000030302030381
:10184A001010181F0F000001030202030103030214
:10185A00030302020203030203030302030100005B
:10186A00000000000000000000000000000000006E
:10187A00000000000000000000000000000000005E
:10188A00000000000000000000000000000000004E
:10189A00000000000000000000000000000000003E
:1018AA00000000000000000000000000000000002E
:1018BA00000000000000000000000000000000001E
:1018CA00000000000000000000000000000000000E
:1018DA0000000000000000000000000000000000FE
:1018EA0000000000000000000000000000000000EE
:1018FA00000000000000000000C0C01018181818EE
:10190A0000C0C0000000C0C00000C0C020E0E0006D
:10191A0000FFFF0000000000C0F030E0C0000080BF
:10192A00800030F0C0000000C0C0181CDCDC10C011
:10193A00C0000004ECE8000000000080901030F0C5
:10194A00C0000040C0C00000FFFF0000C0E060C04F
:10195A00C0000000000000000000000000000000BD
:10196A00000000000000000000000000000000006D
:10197A000000000000030300000103020202020249
:10198A000303030202020303020303030203010027
:10199A000003030000000000030302030300000326
:1019AA000302020303020202030302030303020304
:1019BA000302020203030000000000030302020301
:1019CA00011010181F0F00000303000013131A1F41
:1019DA000F000000000000000000000000000000EE
:1019EA0000000000000000000000000000000000ED
:1019FA0000000000000000000000000000000000DD
:101A0A0000000000000000000000000000000000CC
:101A1A0000000000000000000000000000000000BC
:101A2A0000000000000000000000000000000000AC
:101A3A00000000000000000000000000000000009C
:101A4A00000000000000000000000000000000008C
:101A5A00000000000000000000000000000000007C
:101A6A00000000000000000000000000000000006C
:101A7A00000000000000000000000000000000005C
:101A8A00000000000000000000000000000000004C
:101A9A00000000000000000000000000000000003C
:101AAA00000000000000000000000000000000002C
:101ABA00000000000000000000000000000000001C
:101ACA00000000000000000000000000000000000C
:101ADA0000000000000000000000000000000000FC
:101AEA0000000000000000000000000000000000EC
:101AFA0000000000000080802030303030008080FC
:101B0A0000000080800000808040C0C00000FEFE0F
:101B1A00000080C0C08080000000C0CC4C4840C09B
:101B2A0080800000808080000000202060E080002B
:101B3A000000000000202060E0800000FEFE00009F
:101B4A0000000060E080000040C0C04040C0C0000B
:101B5A000818D8D81000000000000000000000009B
:101B6A00000000000000000000000000000000006B
:101B7A000000000000000307040404040406070729
:101B8A0004040407070406070704070300000707FD
:101B9A0000002727243D1F06040405050606030145
:101BAA0000002020303F1F0000070704040703003D
:101BBA0000000000070704040703000007070000ED
:101BCA0007070404070704040405070607050404B5
:101BDA0004040707000000000000000000000000E5
:101BEA0000000000000000000000000000000000EB
:101BFA0000000000000000000000000000000000DB
:101C0A0000000000000000000000000000000000CA
:101C1A0000000000000000000000000000000000BA
:101C2A0000000000000000000000000000000000AA
:101C3A00000000000000000000000000000000009A
:101C4A00000000000000000000000000000000008A
:101C5A00000000000000000000000000000000007A
:101C6A00000000000000000000000000000000006A
:101C7A00000000000000000000000000B0B0A0005A
:101C8A0000FEFE0000C0C0404040C080800000004E
:101C9A000080C0C0C0000000000000000060E080BA
:101CAA000000C0C0404040C080800000000000B07A
:101CBA00B0A00000FEFE00000000000000000000CE
:101CCA000080802038B8B830808000000000808012
:101CDA00000000C0C000000000000000000000007A
:101CEA0000000000000000000000000000000000EA
:101CFA00000000000000000000002020303F1F000C
:101D0A0000030704040505363623070604040406FF
:101D1A000307060707000000000007070404070777
:101D2A000404050506060301000000000020203017
:101D3A003F1F0000070700000000003E3E60606091
:101D4A00203F3F04040707040707042434343737C5
:101D5A0004343427070000000000000000000000DF
:101D6A000000000000000000000000000000000069
:101D7A000000000000000000000000000000000059
:101D8A000000000000000000000000000000000049
:101D9A000000000000000000000000000000000039
:101DAA000000000000000000000000000000000029
:101DBA000000000000000000000000000000000019
:101DCA000000000000000000000000000000000009
:101DDA0000000000000000000000000000000000F9
:101DEA0000000000000000000000000000000000E9
:101DFA0000000000000000000000000000000000D9
:101E0A0000000000000000000000000000000000C8
:101E1A0000000000000000000000000000000000B8
:101E2A0000000000000000000000000000000000A8
:101E3A000000000000000000000000000000000098
:101E4A000000000000000000000000000000000088
:101E5A000000000000000000000000000000000078
:101E6A000000000000000000000000000000000068
:101E7A000000000000000000000000000000000058
:101E8A000000000000000000000000000000000048
:101E9A0000F8F8F8383838383838383838383838B0
:101EAA0038383838383838383838383838383838A8
:101EBA00383838383838383838F8F8F80000000038
:101ECA000000000000000000000000000000000008
:101EDA0000000000000000000000000000000000F8
:101EEA0000000000000000000000000000000000E8
:101EFA0000000000000000000000000000000000D8
:101F0A0000000000000000000000000000000000C7
:101F1A0000FFFFFF000000000000000000000000BA
:101F2A0000000000000000000000000000000000A7
:101F3A00000000000000000000FFFFFF000000009A
:101F4A000000000000000000000000000000000087
:101F5A000000000000000000000000000000000077
:101F6A000000000000000000000000000000000067
:101F7A000000000000000000000000000000000057
:101F8A000000000000000000000000000000000047
:101F9A0000FFFFFF0000000000000000000000003A
:101FAA000000000000000000000000000000000027
:101FBA00000000000000000000FFFFFF000000001A
:101FCA000000000000000000000000000000000007
:101FDA0000000000000000000000000000000000F7
:101FEA0000000000000000000000000000000000E7
:101FFA0000000000000000000000000000000000D7
:10200A0000000000000000000000000000000000C6
:10201A00000F0F0F0E0E0E0E0E0E0E0E0E0E0E0EE1
:10202A000E0E0E0E0E0E0E0E0E0E0E0E0E0E0E0EC6
:10203A000E0E0E0E0E0E0E0E0E0F0F0F00000000EB
:10204A000000000000000000000000000000000086
:10205A000000000000000000000000000000000076
:10206A00000000000000000103070F1F3F7FFF0070
:10207A001027E80364000A000100001000011000A4
:10208A0001003132333435363738392A30230705DF
:10209A0006040001020025730D0A0041542B534126
:1020AA005042523D322C31002B53415042523A0099
:1020BA002B53415042523A20312C312C0053657433
:1020CA0074696E6720534D53204D6F64652E2E2E12
:1020DA000041542B434D47463D310041542B434E5A
:1020EA004D493D322C322C302C302C300041542BAF
:1020FA00434D4744413D2244454C20414C4C22002B
:10210A0041542B4346554E3D310041542B435343D2
:10211A004C4B3D3000534D532052656164792E007B
:10212A00436F6E6E656374696E6720746F204750E3
:10213A0052532E2E2E0041542B53415042523D33BE
:10214A002C312C22436F6E74797065222C224750F1
:10215A005253220041542B53415042523D332C31A9
:10216A002C2241504E222C22257322006D63696E67
:10217A0065740041542B53415042523D312C310079
:10218A004665746368696E672049502E2E2E005288
:10219A006573703A0041542B48545450494E49547F
:1021AA00004F4B0041542B48545450504152413D2A
:1021BA0022434944222C310025733F70686F6E65B3
:1021CA005F6E756D6265723D25730041542B4854EC
:1021DA005450504152413D2255524C222C222573D3
:1021EA00220041542B48545450414354494F4E3DC8
:1021FA0031002B48545450414354494F4E3A004EF3
:10220A006F20416374696F6E2052657370002B48AA
:10221A00545450414354494F4E3A2025642C256466
:10222A002C25640041542B485454505245414400D3
:10223A0041542B485454505445524D004D4F544F1D
:10224A0052202564204F4E2100687474703A2F2F53
:10225A003139332E352E34342E3139312F686F6DA2
:10226A00652F706F73742F004D6F64756C6520490C
:10227A006E69742E2E2E004154453000415400538D
:10228A004D5320496E6974204661696C656421006A
:10229A004750525320496E6974204661696C6564DF
:1022AA0021002B434D543A004661696C65642074E1
:1022BA006F2072656164206D73670054696D656F84
:1022CA007574212054727920616761696E2E00004D
:1022DA0001002D4E414E00494E4600000D000005FA
:1022EA00A52008000D05B2200D001505BA2014001E
:1022FA002205C7200A003605DB2012004005E5202A
:10230A0013005205F7200A0065050A210B006F0524
:10231A0014210B007A051F21160085052A211E00AB
:10232A009B0540210D00B9057D210F00C6058A21B4
:10233A000D00D505A5200800E205B2200600EA0531
:10234A0099210D00F005BA201E00FD0540210D005F
:10235A001B067D210C0028069F2103003406AB21B1
:10236A0014003706AE2103004B06AB2103004E06CC
:10237A00AB2110005106EC210D006106FC210F0073
:10238A006E0609220D007D06FC210C008A062E220B
:10239A0003009606AB210C0099063A220300A50613
:1023AA00AB211F00A80653220F00C70672220500A0
:1023BA00D60681220300DB0686221100DE06892268
:1023CA001200EF069A2206000107AC221300070743
:1023DA00B22214001A07C5220100D407DA2200002B
:1023EA00F894EE27ECBBF1E0F5BFE5BFE0936C0093
:1023FA008DE0A2E0BB27ED938A95E9F780E090E1B2
:10240A00A0E0B1E0ED930197E9F7E6EEF2E28591FB
:10241A009591009761F0A591B59105901590BF012E
:10242A00F00105900D920197E1F7FB01F0CFEFEF74
:10243A00EDBFE0E1EEBFC0E0D5E00C94C214AA9370
:10244A0021970E94D02100E010E0AF81B0E0E8E0DF
:10245A00F0E00E948D21EE8330E0EE813E1750F5C8
:10246A0020E0E8852E1720F5F8010F5F1F4FA98598
:10247A00BA85EA0FFB1F449150E05830B8F4E52FB3
:10248A000E94AB1FA42F0E94B01F71F0E22FAC85EF
:10249A00EA0FEA93E32FEE0FEE0FEE0FAC85EA0F89
:1024AA00E50FAE2F0E94B3195F5FE7CF2F5FD9CF39
:1024BA003F5FD3CF0E94D7212D960895BA93AA934E
:1024CA00E0EAF0E2FA93EA93EA81FB810E94B51FFF
:1024DA000E94AE1C26960C94A616BA93AA930E9442
:1024EA00D02100E010E020E030E0EC85FD850E947C
:1024FA00BB1FAD85BE850E945B1EE885F9852E1738
:10250A003F07D8F45F9B12C00E94CE1A5E2FEA855D
:10251A00FB8531970E171F0744F4F8010F5F1F4F11
:10252A00AC85BD85EA0FFB1F508306C0A1E0B0E071
:10253A000E9442212F5F3F4FE0CFEC85FD85FA9341
:10254A00EA93A885B9850E94A81E309711F0E1E0A8
:10255A0001C0E0E00E94D7212E9608950E94C01F74
:10256A00A2E2B5E00E94AC1AA6E3B5E00E94C61F3B
:10257A00A0E4B5E00E94C61FA2E5B5E00E94CC1F08
:10258A00A5E6B5E00E94C61FAFE6B5E00E94C61FE9
:10259A000E94D21FAAE7B5E00E94D71FE1E0089582
:1025AA00EF97EF9768970E94C01FA5E8B5E00E94D1
:1025BA00AC1AABE9B5E00E94DD1F0E94E31F0E943E
:1025CA00EF1F0E94DD1FA9EBB5E00E94DD1F0E94EC
:1025DA00C01FA6ECB5E00E94AC1AA5EDB5E06EDF0F
:1025EA000E94F61FE4E6F0E0FA93EA93E8ECF0E0E2
:1025FA00FA93EA93A2EEB5E070DFE03059F10E9457
:10260A00D21FAAEEB5E00E94FA1FDE0112960E94BE
:10261A00D71F0E94F61FA0EFB5E00E94A81E3097B0
:10262A00C9F02297FE0132960E940120E0E0F0E014
:10263A000E940120E881F981309759F0EFEAF7E02A
:10264A00FA93EA93AA81BB810E946B1EE1E022966B
:10265A0014C0229611C0EF97EF976897ADEFB5E0D7
:10266A000E94CC1F0E94E31F0E94EF1F0E94CC1FF2
:10267A00ABE1B6E00E94CC1FE0E0EF96EF966896D9
:10268A000895BA93AA932297D350E0E0E883E983A6
:10269A000E94D02120E030E040E050E00E94C01FBC
:1026AA00E0E7FEE00E940A20D6DFA8E2B6E00E9438
:1026BA001120A4E3B6E011DFE03011F4E0E0AEC08F
:1026CA00A7E3B6E00E941120ABE4B6E006DFE030F3
:1026DA0011F4E0E0A3C0FE013896FA93EA93E2EC23
:1026EA00F1E2FA93EA93FE01E25FFC4F0190F08176
:1026FA00E02D0E942120FE01E05FFC4F0190F08155
:10270A00E02D0E94212088E00E94801C2C96FE0168
:10271A00E85FFD4FFA93EA93E5EDF1E2FA93EA9363
:10272A00FE013C960E94B51F0E94801C2896DE017D
:10273A00A85FBD4F0E941120AEE4B6E0CEDEE030C5
:10274A0011F4E0E06BC0A1E5B6E0B8DEFE01E85F97
:10275A00FE4FFA93EA93E0E0F1E0FA93EA93E4EFAA
:10276A00F1E0FA93EA93A1E6B6E0B7DEE03061F46D
:10277A000E94C01FAEE6B6E00E94AC1AA4E6B0E022
:10278A000E944221E0E04AC0FE01E85FFE4FFA9350
:10279A00EA93ADE7B6E00E94A81E8F010024001656
:1027AA00010621F11A930A93E8E1F2E2FA93EA9315
:1027BA00EDB7FEB731970E94A8213F932F93EDB74B
:1027CA00FEB731970E94A8215F934F93FE0172963C
:1027DA000E9421208CE00E94361E60964F915F91E4
:1027EA002F913F91E330A0E0FA0711F0E0E016C024
:1027FA00AAE8B6E00E941120A6E9B6E06EDEA9E9D1
:10280A00B6E00E941120A5EAB6E067DEE8ECF0E047
:10281A00E417F50711F4E1E001C0E0E00E94D721D6
:10282A002C96DD5F0895639783E1A0E0B0E0ECE8C1
:10283A00F0E20E94DE211A930A9300E00330C0F509
:10284A00E5B3E760E5BB15B2E02FF0E0DE01529692
:10285A00AE0FBF1FEC91A1E00E942620E5BB10E05D
:10286A00143020F50E942B20A12D0E94B01FE1F404
:10287A00AAE0B0E00E9442210E942B20A12D0E94D2
:10288A00B01F91F40E942B20A12D0E94B01FD1F3FA
:10289A00A3E01A9FF001DE011296AE0FBF1FEE27CA
:1028AA00A00FBE1FEC9105C01F5FDACF0F5FC6CF26
:1028BA00E0E01981088165960895BA93AA9364970E
:1028CA000E94D22128E833E1E88DF98DE130A0E0B9
:1028DA00FA0711F412E00DC0E230A0E0FA0711F491
:1028EA0013E007C0E330A0E0FA0711F414E001C0D6
:1028FA0040C0FE013496FA93EA93E6E4F2E2FA93D0
:10290A00EA93EC8DFD8D0E946D210E94AA2184E03C
:10291A000E94801C28960E942917EAE0EA93E4E1C3
:10292A00EA93DE0116960E94AC1A13B0E12FA1E0D9
:10293A000E945421E129E3B9819B04C000240216B4
:10294A0003060CF007C0A1E0B0E00E94422121502A
:10295A003040F2CF13B0E12FA1E00E942620E3B964
:10296A00E0E0EA93EA93E0E7F6E00E940A200E9498
:10297A0034200E94D9216A960895269708EA16E01B
:10298A00E0E0EABBEBBBE7BBE0EFE8BBE7E0E4BBB8
:10299A00E0EFE5BBE0E0E1BBE2E0E2BBECE3E2B999
:1029AA00E0E0E3B9E0936100E0936200EBB9E8E1AB
:1029BA00EAB9E6E0E0939500E0E0E0939000E3E313
:1029CA00E9B9E0E8E4BFE4BFECE8F0E0E883F983C2
:1029DA00E0E0EA83EB83EC83ED83DE01B4D1ECE83B
:1029EA00F0E00E9438200E94C01FA7ECB6E00E94C7
:1029FA00AC1AA8EBBBE00E944221A6EDB6E00E9409
:102A0A00DD1FABEDB6E00E94DD1FA8DDE03039F432
:102A1A000E94D21FAEEDB6E00E94AC1AFFCFC0DD15
:102A2A00E03039F40E94D21FAFEEB6E00E94AC1A31
:102A3A00FFCF0E94C01FE0E7F2E00E940A20AA9797
:102A4A00E0E0EAA3EBA3ECA3EDA3EEA3EFA3EBE490
:102A5A00F7E00E94BB1FA4E6B0E00E945B1EFE01E5
:102A6A000E94BB1FA0E2B0E00E945B1E0E943D20B4
:102A7A00A4E6B0E00E94D91A309709F4BDC00E94BA
:102A8A003D20A1E0B7E00E94A81E309709F4B4C027
:102A9A000E94F61FA0E2B0E00E94D91A309761F4B2
:102AAA000E94C01FA7E0B7E00E94AC1AA8EEB3E0EC
:102ABA000E944221AA96C3CF0E943D200E94422032
:102ACA00E8A1F9A1309721F00E9449200E944220F2
:102ADA00E8A1F9A1309709F489C0EFEBF7E0FA937E
:102AEA00EA93AAA1BBA10E946B1E1A930A93AFEBA9
:102AFA00B7E0C7DDE03009F471C0E881E9A7A9A50C
:102B0A00A13329F0A23319F0A33309F05EC00E9461
:102B1A00C01FE0E7FEE10E944E20E9A5EEA3E1E432
:102B2A00EA93EAE0EA93DE0198960E94FA1FE0E748
:102B3A00FAE00E940A20E0E0E8A7EAA3EBA3AAA130
:102B4A00BBA1A83CE0E0BE0774F46DDEE8A7E03064
:102B5A0051F4AAE0B0E00E944221EAA1FBA1319619
:102B6A00EAA3FBA3ECCFE8A5E03061F46DD1EAE07B
:102B7A00EA93E9E1EA93AAE1B7E00E94AC1AA8EC69
:102B8A00B0E020C0E8A5EEA3E1E4EA93E2E3EA9329
:102B9A00DE0198960E94D71FE9A5A8A5EA1751F465
:102BAA0053D1E9A5F0E0F097ECA3FDA3ACA1BDA138
:102BBA0084DE0AC00E94C01FE0E7F6E10E944E20B0
:102BCA00ACE2B1E00E94422108C00E94C01FE0E7C7
:102BDA00F2E10E940A200E94342008C00E94C01F0D
:102BEA00E0E7FAE10E940A200E9434200E94C01FF6
:102BFA00E0E7F2E00E940A20AA9621CFFFCF000068
:102C0A00E0916200E061E093620000000895E091C3
:102C1A006200EF7E0E945520EF7D0E945520EF7BD7
:102C2A00E093620008951A93EADF19B3E091620013
:102C3A00EF7EE0936200E12F19910895AA931A9307
:102C4A000E945A20EB7FE0936200E981EF5F1E2F1A
:102C5A0010FF04C0E0916200E06203C0E0916200EC
:102C6A00EF7DE093620011FF04C0E0916200E0642E
:102C7A0003C0E0916200EF7BE0936200D4DFE0786A
:102C8A00E9F718815EC0AA93A981D8DFE0916200B2
:102C9A000E94602056C0E091D007EA93E091CF07E6
:102CAA00EF73E064AE2FEFDFE091D007EA93E09193
:102CBA00D107E86BAE2FE7DF0895AA93E981E09385
:102CCA00CF07E295EF70E695E695E093D007E881A5
:102CDA00E093D107E0DF35C0A091CF07AF5FA093A3
:102CEA00CF07A03818F0E0E0E093CF07E091CF07D4
:102CFA00EF7331F4E091CF07EA93A091D107DDDFBA
:102D0A000895AA93A091D00799DFE0916200E46048
:102D1A000E9455200E9460200C94D71AA091D007D7
:102D2A008DDF0E945A20E460E09362007CDF089500
:102D3A00AA93E981EA93E9810E946B20EFDFABDF76
:102D4A00EDDF22960895BA93AA931A93E09161004F
:102D5A00E0610E947120E8600E947120E4600E9494
:102D6A007120E068E0936100E0916200E068E0931E
:102D7A006200E0916100E0620E947120E064E093E9
:102D8A00610045DFE0916200EF77E0936200A4E61C
:102D9A00B0E00E944221E0916200E068E0936200A4
:102DAA0010E0123040F41A93AFE36DDF1A931395D3
:102DBA00A0EC69DFF6CFE1E0E0932E07E0E0E093D4
:102DCA002F07E981FA813097A9F0A981BA810E9477
:102DDA00A0210E943820A981BA8112960E94A021BE
:102DEA00E0934707F0934807A981BA8114960E9495
:102DFA00A0210AC0E0E0F0E00E943820E0E0F0E024
:102E0A00E0934707F0934807E0934907F0934A078E
:102E1A00E1E0E0933407E0933507E0933607EFEFFC
:102E2A00E0933707E1E0E0933E07EFE3F7E0FA9338
:102E3A00EA93EFEFEA93A8E0B0E00E945B1E04D0A9
:102E4A00E1E01881239608950E94D22100E030E043
:102E5A00E0912F07E03009F00FEF383078F4E0E026
:102E6A00EA93A32F3F5F29DF10E0A12F1F5FA0384D
:102E7A0020F4A02F0E947620F8CFEFCFE0E0EA936B
:102E8A00A0E01BDFE0E0EA93A0E076D30E94D9211C
:102E9A0024960895AA931A930A93AC81A03818F439
:102EAA00AB81A03408F016C0EC81EA93AC8140DF14
:102EBA001E2FF1DEEB81E770A1E00E9454210E2F54
:102ECA00EA81E03011F0102B03C0E02FE0951E23B9
:102EDA00A12F17DF1981088125960895AA931A93BD
:102EEA00ED81EA93AD8124DF1E2FD5DEE981E7303B
:102EFA0011F0E83039F4EB81EA93AA810E94221F8B
:102F0A00EB8308C0E33021F4EB81E095EB8302C048
:102F1A00E03021F4EA81E0951E2302C0E23029F470
:102F2A00EA81AB81EA231E2B0EC0E13029F4EA8143
:102F3A00AB81EA231E2707C0E43029F4EA81E09531
:102F4A00AB81EA2B1E23A12F0E9476201881269698
:102F5A000895AA9323970E94D021A889A03848F4FB
:102F6A00AF85A03430F4AE85A03019F0AD85A0301D
:102F7A0009F4C6C1EE85E887A889BB27EE85F0E08B
:102F8A00AE0FBF1FA138E0E0BE0720F0A889E0E835
:102F9A00EA1BEE872D85AF85BB27ED85F0E0AE0FE6
:102FAA00BF1FA134E0E0BE0720F0AF85E0E4EA1BD2
:102FBA00ED87A985A63009F05BC0EC85E13009F4FC
:102FCA009FC1E33039F4E0914907F0914A073097FD
:102FDA0009F496C10885ED85E695E695E6953E2FB6
:102FEA00E22FE77019F4AD852A17E9F0A02FBB2765
:102FFA00E32FF0E00E947221AA85BB850E947A2005
:10300A00269526952695532F5F935F5FE22FAF9102
:10301A00EA1748F0102FE12F1150E03019F00E9402
:10302A007F20F9CFF1CFAE850A1711F1EE85AA8577
:10303A00BB85F0E00E947A20ED85E77009F03F5FDA
:10304A0020E02F932F5FE32FAF91AE1788F41E85F0
:10305A001F931F5FE02FAF91AE1718F40E947F20D5
:10306A00F7CFEE85AE81BF81F0E00E947A20E9CFEA
:10307A00EF85E7703E2FED85E03009F441C1EA851E
:10308A00FB85EE83FF8310E00889303009F065C0C4
:10309A00AD85A83008F45CC0E985E03011F0E33072
:1030AA0009F402C0E73009F402C0E83009F402C0AA
:1030BA00E63009F402C0E93009F402C0EA3021F42A
:1030CA000A93E8890E946B201F931F5FEE85AF91D8
:1030DA00AE17B8F5A985A63061F420DEDCDD0E94C2
:1030EA008C20FA93EA931ADEAE2F0E94691FF4DD50
:1030FA0027C0E985E93011F450E00EC0EA3011F436
:10310A005FEF0AC00E948C200E9495205E2FE985FD
:10311A00E73011F0E83021F40E949B205E2F06C0B0
:10312A00E33011F4509502C0E03021F4A52F0E943B
:10313A00762006C00E949F20EFEFEA93AD85CEDE8F
:10314A00C3CFEF85E85FEF87ED85E850ED87CFC005
:10315A005D8520E0E0E0ED877AC0E32FAD85AE0F14
:10316A00A93020F42D85E0E0ED8703C0E8E0E31BF9
:10317A002E2F3A93A22F0E94171F4E2FE985E63071
:10318A00F1F41F931F5FEE85AF91AE17B8F40E945A
:10319A00A520AE2FE32F0E945C210E94AC20E32FD2
:1031AA00A42F0E945C21E095E1215E2B0E948C20D5
:1031BA00FA93EA93A52F0E94691FE3CF2CC0E93046
:1031CA0011F450E003C0EA30A9F45FEF0E949B209B
:1031DA00AE2FE32F0E9454215E2F1F931F5FEE85AF
:1031EA00AF91AE1730F40E949F204A93A0E076DE9A
:1031FA00F4CF11C01F931F5FEE85AF91AE1758F43D
:10320A000E94B720AE2FE32F0E945421EA934A93DB
:10321A00AD8564DEEFCFED85E03009F471C0AD8590
:10322A00A83028F4ED85E21B5E2FE0E003C0532F9F
:10323A00ED85E850ED8710E0EF85E85FEF87E8E07D
:10324A00E31B2E2F0889EA85FB85EE83FF83E52F92
:10325A00F0E0E059FF4D4491E985E630E1F41F932F
:10326A001F5FEE85AF91AE17A8F40E94A520AE2F7E
:10327A00E22F0E9454210E94AC20E22FA42F0E9428
:10328A0026205E2B0E948C20FA93EA93A52F0E9497
:10329A00691FE5CF2CC0E93011F450E003C0EA30D1
:1032AA00A9F45FEF0E949B20AE2FE22F0E945C21BF
:1032BA005E2F1F931F5FEE85AF91AE1730F40E9409
:1032CA009F204A93A0E00ADEF4CF11C01F931F5F2C
:1032DA00EE85AF91AE1758F40E94B720AE2FE22FB9
:1032EA000E945C21EA934A93AD85F8DDEFCFE88529
:1032FA00AA85BB85F0E0EA0FFB1FEA87FB87BBCEF6
:10330A000E94D721619608950E94C42024F0E0E02B
:10331A00F0E00C94201FA881B981A038E0E0BE0734
:10332A0024F0EFE7F0E00C94201FE881F9810C9477
:10333A00201F0E94C42024F0E0E0F0E00C94201F3B
:10334A00A881B981A034E0E0BE0724F0EFE3F0E001
:10335A000C94201FE881F9810C94201FAA93E9811B
:10336A00EA93E981EA93A0912E0794DD0C94201F39
:10337A00BA93AA9323970E94CB208F01002E012A89
:10338A0019F4E0E0F0E05FC00E94D2200F820E94B0
:10339A00D2200E820E94D2200886EB85A885EA17E1
:1033AA0018F4E0E0F0E04FC0F8010F5F1F4F5491AE
:1033BA00A885BB27EE27A50FBE1FEB85F0E0EA170D
:1033CA00FB0718F0E0E0F0E03EC0EE81E695E695F6
:1033DA00E6954E2FEE81E77009F04F5FEF81E030FE
:1033EA00A1F0A985BA85EC93A885EB85EA1BF0E0E4
:1033FA00DF01EF81F0E00E947221DF01E42FF0E0AB
:10340A000E947221E00FF11F1EC09801E52FF0E023
:10341A000E0F1F1FA885AF5FA887A150EB85AE17B7
:10342A0060F4F9012F5F3F4FA491B0E0E42FF0E080
:10343A000E9472210E0F1F1FEDCFF901E491A98599
:10344A00BA85EC93F8010E94D7212C960895E0E002
:10345A00E0933007A0913107BB270E94D720F0E004
:10346A00AE0FBF1FE0913507F0E0AE0FBF1F61DF5F
:10347A00E09331070895AA9321970E94CB203097B1
:10348A0009F45FC0AF81AA3009F459C0EF81EA9309
:10349A00DE0117966DDFAF01309709F454C0E09151
:1034AA003407AE81EA0F3E2FA0913007BB27F0E028
:1034BA00EA0FFB1F8F010138E0E01E0718F0032F07
:1034CA001127C5DFE0913007EA93E0913107EA93CB
:1034DA00E885EA930E94D720EA93E1E0EA935A93B7
:1034EA004A93A7E036DDE0913007AE81EA0FEA930E
:1034FA00E0913107EA93E0913407EA930E94D720DA
:10350A00EA93E0E0EA930E944920A9E022DDE091F3
:10351A003007EA93A09131070E94D720EA0FEA9375
:10352A003A93E0913507EA93E0E0EA930E94492052
:10353A00A9E00FDDE0E8F0E0E017F10711F487DF1A
:10354A0002C0009330070E94D72128960895BA93A3
:10355A00AA931A93EC81EA93AC810ED0A981BA811D
:10356A00ED91A983BA831E2FE03019F0A12F83DFD2
:10357A00F5CF18810C94691EAA93A981BB27C4DED2
:10358A00E0933007A881BB27D4DEE09331070C947F
:10359A00201F5F9BFECFECB10895AA935D9BFECFDF
:1035AA00E881ECB921960895BA93AA930E94D02192
:1035BA000E811F8128853985002E012AD9F0E9DF7D
:1035CA005E2F583051F4AE81BF810A171B0720F4D1
:1035DA00215030400F5F1F4FF2CF5A3059F03F93BE
:1035EA002F932F5F3F4FE52FAF91BF91EC9301507F
:1035FA001040E2CFD901E0E0EC93E885F9850E941A
:10360A00D7212A960895BA93AA93AA81C6DFA881D8
:10361A00B9810E94DE200C94671FBA93AA931A9369
:10362A000A93AA81BB8112960E94A021309729F1A0
:10363A00AA81BB8114960E94A0218F01309761F064
:10364A000230E0E01E0780F0F80131978F01AA816D
:10365A00BB811496ED93FC93AA81BB8112960E94BA
:10366A00DE203197AC81A083AA81BB810E94A02170
:10367A00FF2312F00E94DE2006C0AA81BB81EFEF71
:10368A00FFEFED93FC93198108810C94691EBA939C
:10369A00AA9326970E94D02110E0AC85BD85E0E070
:1036AA00F0E0ED93FC93EA89FB893196EA8BFB8B78
:1036BA003197E4912E2FE03009F415C1E12FE03063
:1036CA0039F4253211F411E002C00E94E4200AC143
:1036DA00E130A9F4253219F40E94E42002C112E073
:1036EA0040E000E02D3211F401E0FCC02B3211F46D
:1036FA004BE2F8C0203211F440E2F4C002C0E230DA
:10370A0039F450E013E0203311F40068EBC003C031
:10371A00E33009F0E7C0203310F02A3308F007C07D
:10372A00AAE05A9F502DE22FE0535E0FDBC0E22F32
:10373A00E33649F40E94EB20E889F989A481AA9327
:10374A000E94F120CEC0E33741F40E94EB200E9490
:10375A00F7200E94781E1E2F0AC0E03761F40E94EB
:10376A00EB200E94F7200E94841E1E2F0860026030
:10377A000F7730E034C0E43611F0E93611F4046012
:10378A0002C0E53731F4EAE7F0E2EE83FF8315E0A1
:10379A000CC0E83511F4086003C0E83709F0A1C08D
:1037AA00E4E8F0E2EE83FF8314E002FF14C00E9413
:1037BA00EB200E940121AB85AA233AF4EA85FB8516
:1037CA000E945021EA87FB874DE2403011F01F5FCB
:1037DA0001C00B7F04C00E94EB200E94012100FD62
:1037EA0011C0151778F407FF08C002FF04C00B7F49
:1037FA00242F115001C020E301C020E20E94E420DE
:10380A005150EFCF312F01FF17C03030A1F003FF25
:10381A0006C0EE81FF812591EE83FF8305C0AE814C
:10382A00BF812D91AE83BF830E94E420503009F0FE
:10383A0051503150EACF4BC020E3EE81FF810E9404
:10384A00A421E887F987EE81FF813296EE83FF8310
:10385A00E885F985AA85BB85AE17BF0750F02F5FAB
:10386A00A885B985EA85FB85EA1BFB0BEA87FB87F6
:10387A00EFCF2A3328F003FF02C0295F01C0295D78
:10388A0004FD1AC0213320F4A885B985119709F4DB
:10389A0009C0531710F000FF01C013C020E207FF50
:1038AA000BC020E3006102FF07C00B7F4A930E940E
:1038BA00F120503009F051500E94E420503009F0B4
:1038CA0051503150A885B985129708F0B5CF00FF3D
:1038DA0008C0503031F05150E0E2EA930E94F120E2
:1038EA00F8CF10E0E0CEAC85BD850E94A0210E94F1
:1038FA00D72164960895FF92F82E26970E94D22126
:10390A000E940921309719F4EFEFFFEF1DC0DE0185
:10391A0016960E944C218D010E940921EE83FF8395
:10392A00E0E0E887E987DE011A960E941021E2E1C9
:10393A00FBE1FA93EA93DE011A96A9DE9F01AE81B2
:10394A00BF81E0E0EC93F9010E94D9212A96FF9009
:10395A000895FF92F82E26971A930A93DE01149679
:10396A000E944C218D01E0E0EC83ED83EE83EF832E
:10397A00DE0118960E941021E8E0FBE1FA93EA932F
:10398A00DE01189684DE198108812896FF90089531
:10399A00BA93AA931A93A981BA81E0E0EC93AB8116
:1039AA00BC81EC911E2FE03019F0E0E0EC9316C0D8
:1039BA00A981BA8111960E94A021309771F0E981FC
:1039CA00FA81A181B281EC911E2FE03029F0A98100
:1039DA00BA8111960E94DE2001C010E0E12F188101
:1039EA0073C1FF92BA93AA9324970E94D021E0E070
:1039FA00F0E0E887F9874E2FE889F9893196E88B54
:103A0A00F98B3197E4913E2FE03009F423C10E94EB
:103A1A001921C1F0EDB7FEB7FA93EA934F930E94CA
:103A2A001E214F913E2FE03019F00E94192109F40E
:103A3A0007C00E9424211CF4EFEFFFEF0DC1EACF6B
:103A4A00432F07C1353209F0ECC050E0E889F98903
:103A5A003591E88BF98B303310F03A3308F007C010
:103A6A00AAE05A9F502DE32FE0535E0FEFCF30307C
:103A7A0009F4F0C0EDB7FEB7FA93EA934F930E94A8
:103A8A001E214F912E2FAE2F0E94911FE03039F048
:103A9A000E9424211CF4EFEFFFEFDEC0EBCF2030B1
:103AAA0009F4CFC0422F503009F45FEFE32FE33619
:103ABA0099F40E942921EDB7FEB7FA93EA934F933E
:103ACA000E941E214F91D801EC930E9424211CF4DC
:103ADA00EFEFFFEFC1C09FC0E33741F50E942921F4
:103AEA00E52F5150E030F1F0EDB7FEB7FA93EA93C3
:103AFA004F930E941E214F913E2FE03019F00E94F1
:103B0A00192139F00E9424211CF4EFEFFFEFA4C021
:103B1A0009C01F930F930F5F1F4FE32FAF91BF9100
:103B2A00EC93DECFD801E0E0EC9375C06894F1F82D
:103B3A00E894F2F8E32FE43611F0E93619F4E89440
:103B4A00F1F802C0E53711F42AE008C0E83711F4A9
:103B5A0020E104C0E53209F464C07CC0E0E0EE83F1
:103B6A00EF836894F0F8E52F5150E03009F444C02F
:103B7A00EDB7FEB7FA93EA934F930E941E214F9135
:103B8A003E2FE13238F40E9424211CF4EFEFFFEFBC
:103B9A0063C017C0F1FC08C06894F1F83D3211F413
:103BAA00F2F8E1CF3B32F9F2203131F4A32F0E942F
:103BBA009C1FE03031F009C0A32F0E94881FE0301B
:103BCA0021F4F0FC47C0432F17C0313610F03755A7
:103BDA0005C0313410F0375301C03053E22FAE81A3
:103BEA00BF81F0E00E947221DF01E32FF0E00E9422
:103BFA007A20E894F0F8B7CF0E942921F2FE06C095
:103C0A00EE81FF810E945021EE83FF83EE81FF81C6
:103C1A00D801ED93FC93E885F9853196E887F98711
:103C2A0018C0EDB7FEB7FA93EA934F930E941E218C
:103C3A004F91E31771F00E9424211CF4EFEFFFEF7C
:103C4A000BC0E885F985309719F4EFEFFFEF04C050
:103C5A0001C0D2CEE885F9850E94D7216296FF90ED
:103C6A000895FF92F82E23971A930A930E943421FB
:103C7A00309719F4EFEFFFEF14C0DE0111960E949E
:103C8A004C218D010E943421EB83FC83DE011596C1
:103C9A000E941021EDECFCE1FA93EA93DE011896FA
:103CAA00A0DE198108812596FF900895BA93AA93F8
:103CBA00B981A881109631F0FC81EB816A81619308
:103CCA001197E9F7EB81FC8125960895BA93AA9397
:103CDA00E991F991A991B991CD0161916D93662309
:103CEA00E1F7FC010895BA93AA93A991B991EE2735
:103CFA00FF276D91662311F03196FBCF0895BA9391
:103D0A00AA93AA27BB27E991F9910590002011F0FF
:103D1A001196FBCFFD010895BA93AA93BB81AA819C
:103D2A006C91662361F0F981E881C895002029F039
:103D3A0031966015D1F7FD0104C01196F1CFEE2737
:103D4A00FF270C94861FBA93AA93AA81BB81CD013F
:103D5A00E881F9817191772311F4FC0109C06D9111
:103D6A006717C1F30196DC01662391F7EE27FF2757
:103D7A000C94861FBA93AA93BB81AA818827992794
:103D8A006D91662349F0F981E8810590002021F0C0
:103D9A006015D9F70196F4CFFC01B3C0BA93AA9380
:103DAA001A930A93EC81FD81309779F4E091D20756
:103DBA00F091D307309719F4E0E0F0E02FC0E091DA
:103DCA00D207F091D307EC83FD830E943B210E9426
:103DDA00BF1EAC81BD81EA0FFB1FEC83FD83AC8162
:103DEA00BD81EC91E03041F4E0E0E093D207E0934A
:103DFA00D307E0E0F0E012C00E943B210E94911E2E
:103E0A008F01309729F0D8010F5F1F4FE0E0EC9344
:103E1A000093D2071093D307EC81FD8119810881A1
:103E2A0026960895AA93E881F0E0E059FF4DA491FF
:103E3A00E9810E94542122960895AA931A93E9814E
:103E4A00E73011F0EA3019F410912E0709C0E93071
:103E5A0019F410912F0704C0E830A1F410913E071D
:103E6A00E0912F07E03049F0103019F0EFEF188198
:103E7A0029C0EA81E095188125C0103019F4E0E0E4
:103E8A00188120C0EA8118811DC0BA93AA93EA81D9
:103E9A00E13021F4E881F981E49114C0E23029F497
:103EAA00A881B9810E94AF210DC0E33041F4A881F5
:103EBA00B981E0914707F0914807099503C0A881A5
:103ECA00B981EC9123960895AA93EB81E03029F405
:103EDA00E881A981BA81EC9314C0E23031F4E88117
:103EEA00A981BA810E94BB210CC0E33051F4E98157
:103EFA00FA81FA93EA93AA81E0914907F0914A0775
:103F0A00099524960895AA93E1E0F991F03310F007
:103F1A00FA3308F0EE270895AA93E1E0F991F03216
:103F2A0029F0F93010F0FE3008F0EE270895AA9330
:103F3A00E1E0F991F05340F0FA3038F0FF75F750AC
:103F4A00FA3010F0F03108F0EE270895A1E0B0E061
:103F5A000E9464210895B0E0EA23FB233097089574
:103F6A00662777270E94AA2184E00895FA93EA93A4
:103F7A00E0E0EA9308950E942917E0E0EA93EA93C1
:103F8A0008950E946312A4E6B0E00C9442210E94B4
:103F9A006312A8ECB0E00C944221E0E0EA93EAE074
:103FAA00EA9308950E94AC1AA8ECB0E00C9442215E
:103FBA000E946312ACE2B1E00C944221FE01EC597A
:103FCA00FF4FFA93EA93EEE5F1E2FA93EA93E6E712
:103FDA00F1E2C6CF0E94801C2896DE01AC59BF4F81
:103FEA000895FE01FA93EA9308950E94AC1AE0E05C
:103FFA00EA93E4E1EA930895FA93EA93A8E0B1E236
:10400A000E94D31EE883F9830895FA93EA93E0E8BD
:10401A00EA93A0E40C9424120E946312FE01E85F62
:10402A00FE4FFA93EA93E0E0F1E0FA93EA93E6E9C5
:10403A00F0E0FA93EA930895662777270E94AA2167
:10404A0008950E945421E095E121089513B2E12FC9
:10405A00F0E0DE011E96AE0FBF1FEC9177CFACE207
:10406A00B1E00C944221E0933207F09333070895AC
:10407A00EBE4F7E0FA93EA930895A8E0B1E20E942C
:10408A00D31EE8A3F9A30895E0E0F0E0FA93EA93D7
:10409A000895FA93EA93E0E8EA93A0E20C942412D2
:1040AA00E0936200E09162000895E0E0EABBE091EB
:1040BA006200E860F5CFE77FE0936200EFEFEABBCA
:1040CA00E881EBBB0E9404160C940C16E695E69563
:1040DA00E695AE2F0C946216E0936100E0916100C0
:1040EA0008950E9486160C947116EA0FFB1FEE8340
:1040FA00FF830895EC85EA93EF81F8853196EF8383
:10410A00F8873197FA93EA93A0E00C94691FEC853B
:10411A00EA93EF81F8853196EF83F887319708950E
:10412A0066277727DF01CB010C944A1F5A93AA8589
:10413A000C94221F0A930395E889EA935A930895E7
:10414A000A930395A8890E949D16E42308955E2F79
:10415A00EC85EA93AF81B885882799270E944A1F80
:10416A001E2E08950A930395E889EA93EE85EA9349
:10417A00E985FA853196E987FA873197D1CFBA93DB
:10418A00AA93A881B9810E94CC2108950E94D021C6
:10419A00E0913207F09133070895F8010F5F1F4F3E
:1041AA0004900895E0913207F09133073196E49133
:1041BA000895ED91FD913196FE93EE9308952A9319
:1041CA00AD85BE85EF85F88909950895E889F9894D
:1041DA003497E88BF98B0895AD85BE85EF85F8890C
:1041EA0009950895A889B98914960E94A021EE8399
:1041FA00FF83AE81BF810895A889B98914960E9468
:10420A00A021EA87FB870895DE011C960E944C21B3
:10421A000E94A02108950E944C210E94A021FA9395
:10422A00EA931A930A930895A32F0E94911FE030EC
:10423A000895AC85BD85EE85FF8509950895AA8503
:10424A00BB85AC91A0300895EE85FF853497EE8743
:10425A00FF87AE85BF8514960D911C910895DE01E6
:10426A0017960E944C210E94A0210895EC81FD819D
:10427A00FA93EA93AC81BD810895109639F0A89516
:10428A0080ED97E00197F1F71197C9F70895002497
:10429A00AF0DB01D0895F195E195F0400895EE2314
:1042AA000E2EEA2F19F0EE0F0A94E9F70895EE237D
:1042BA000E2EEA2F19F0E6950A94E9F70895EE23EF
:1042CA000E2EFD0121F0EE0FFF1F0A94E1F708956B
:1042DA006F2F660F660B762F0895FA9FF02DEB9FCE
:1042EA00F00DEA9FE02DF10D08950024112490E1CC
:1042FA00AA0FBB1F001C111C0E1A1F0A18F40E0E5F
:10430A001F1E01C0A1609A9599F7FD01D001089579
:10431A0004D0EBDF0EF4BFDF0895E894F7FF02C084
:10432A00BADF6894B7FF06C0A095B095119600F859
:10433A00039400FA0895ED91FC9111970895059060
:10434A00F491E02D089560E070E07A936A93FA930D
:10435A00EA930895E199FECFFF93FFB7F894AEBBB5
:10436A00BFBBE09AEDB3FFBFFF910895E19B02C086
:10437A00A895FCCF9FB7F894AEBBBFBBE09A8DB3AC
:10438A00E81719F0EDBBE29AE19A9FBF089500245D
:10439A000A160B0608955A934A933A932A931A9344
:1043AA000A9308955D814C813B812A811981088194
:1043BA000895AC0FBD1F05900D928A95E1F70895F7
:00000001FF
