:040000000C949103C8
:100004000C9400000C9400000C9400000C9400006C
:100014000C9400000C9400000C9400000C9400005C
:100024000C9400000C9400000C9400000C9400004C
:100034000C9400000C9400000C9400000C9400003C
:100044000C9400000C9400000C9400000C9400002C
:100054000C9400000C9400000C9400000C9400001C
:100064000C9400000C9400000C9400000C9400000C
:100074000C9400000C9400000C9400000C940000FC
:100084000C9400000C9400000507206000000000A0
:100094000000005F00000007000700147F147F14B5
:1000A400242A7F2A122313086462364955225000F9
:1000B40005030000001C2241000041221C00082A04
:1000C4001C2A0808083E08080050300000080808E8
:1000D4000808003030000020100804023E51494551
:1000E4003E00427F400042615149462141454B3127
:1000F4001814127F1027454545393C4A49493001B7
:10010400710905033649494936064949291E00360D
:10011400360000005636000000081422411414145E
:10012400141441221408000201510906324979418C
:100134003E7E1111117E7F494949363E414141229B
:100144007F4141221C7F494949417F090901013E00
:10015400414151327F0808087F00417F410020401F
:10016400413F017F081422417F404040407F020408
:10017400027F7F0408107F3E4141413E7F09090907
:10018400063E4151215E7F091929464649494931B4
:1001940001017F01013F4040403F1F2040201F7F5D
:1001A4002018207F63140814630304780403615146
:1001B40049454300007F4141020408102041417F2A
:1001C40000000402010204404040404000010204D7
:1001D4000020545454787F484444383844444420DC
:1001E400384444487F3854545418087E090102089E
:1001F4001454543C7F0804047800447D400020409B
:10020400443D00007F10284400417F40007C0418D6
:1002140004787C0804047838444444387C14141466
:1002240008081414187C7C08040408485454542006
:10023400043F4440203C4040207C1C2040201C3C87
:100244004030403C44281028440C5050503C4464F6
:10025400544C44000836410000007F000000413641
:10026400080002010204027F4141417F00010307AB
:100274000F1F3F7FFF001027E80364000A000100FE
:1002840000100001100001003132333435363738A4
:10029400392A3023070506040001020025730D0ADC
:1002A40000417574686F72697A696E672028504FCF
:1002B4005354292E2E2E0041542B48545450494E49
:1002C4004954004F4B004854545020496E697420DF
:1002D4004661696C65640041542B48545450504144
:1002E40052413D22434944222C310041542B48546D
:1002F4005450504152413D2255524C222C222573D8
:100304002200687474703A2F2F3139322E31363806
:100314002E3134332E31352F706F73742F004154C6
:100324002B48545450504152413D22434F4E544562
:100334004E54222C226170706C69636174696F6E13
:100344002F6A736F6E22007B2270686F6E655F6E1A
:10035400756D626572223A222573227D0041542B09
:1003640048545450444154413D25642C313030307C
:100374003000444F574E4C4F41440041542B485495
:100384005450414354494F4E3D31002B485454502E
:10039400414354494F4E3A002C00537461747573B1
:1003A400204F4B20283230302900417574686F7219
:1003B400697A6564210041542B4854545054455281
:1003C4004D00417574686F72697A6174696F6E204B
:1003D4004661696C6564210053657474696E6720B5
:1003E400534D53204D6F64652E2E2E0041542B43E4
:1003F4004D47463D310041542B434E4D493D322C2F
:10040400322C302C302C300041542B434D47444186
:100414003D2244454C20414C4C2200534D53205224
:10042400656164792E00436F6E6E656374696E67EF
:1004340020746F20475052532E2E2E0041542B53BC
:10044400415042523D332C312C22436F6E747970EB
:1004540065222C2247505253220041542B534150C1
:1004640042523D332C312C2241504E222C222573F2
:1004740022006D63696E65740041542B53415042F0
:10048400523D312C31004665746368696E672049BA
:10049400502E2E2E0041542B53415042523D322CAB
:1004A40031002B53415042523A00526573703A0066
:1004B4002B53415042523A20312C312C004D4F5491
:1004C4004F52202564204F4E21004D4F544F52204F
:1004D4002564204F464621004D6F64756C652049A4
:1004E4006E69742E2E2E0041544530004154005341
:1004F4004D5320496E6974204661696C656421001E
:100504004750525320496E6974204661696C656492
:10051400210053797374656D2052656164792E00EE
:1005240057616974696E6720666F7220534D532E4C
:100534002E2E002B434D543A00534D5320436F64E9
:10054400653A00456E74657220636F6465206F6E52
:10055400206B65797061643A0054696D656F7574D8
:10056400212054727920616761696E2E00596F757C
:1005740020707265737365643A00436F6465206923
:100584007320434F525245435421004572726F7297
:1005940020696E20656E7472792100496E76616CF3
:1005A400696420534D5320436F64652100596F756E
:1005B40020617265206E6F7420617574686F726952
:1005C4007A656421000001002D4E414E00494E46DB
:1005D400000016000005A5020C001605BB0203006E
:1005E4002205C70211002505CA0214003605DB02E4
:1005F40003004A05C70203004D05C7022900500540
:10060400220303007905C70209007C057603030071
:100614008505C702100088057F030D0098058F0328
:100624000200A5059C031000A7059E030C00B70556
:10063400AE030C00C305BA030300CF05C7021600BE
:10064400D205C6030C00E805BA030300F405C7028B
:100654001400F705DC030A000B06F003120015066C
:10066400FA03130027060C040B003A061F041600B5
:1006740045062A041E005B0640040D0079067D042D
:100684000F0086068A040D00950699040800A20648
:10069400A6040600AA06AE040D00B006B4040F00BA
:1006A400BD06DC040500CC06EB040300D106F0040F
:1006B4001100D406F3041200E50604050E00F70643
:1006C40016051300050724050600180737050A0058
:1006D4001E073D0516002807470514003E075D0563
:1006E4000E00520716051300600724050D0073075A
:1006F4007105110080077E05100091078F05120017
:10070400A1079F051800B307B1050E00CB07160516
:100714001300D90724050100F609CA050000F8945E
:10072400EE27ECBBF1E0F5BFE5BFE0936C008DE094
:10073400A2E0BB27ED938A95E9F780E090E1A0E081
:10074400B1E0ED930197E9F7E6EDF5E08591959138
:10075400009761F0A591B59105901590BF01F00146
:1007640005900D920197E1F7FB01F0CFEFEFEDBF9C
:10077400E0E1EEBFC0E0D5E00C942106BA93AA9361
:10078400E0EAF2E0FA93EA93EA81FB810E948A0F9D
:100794000E94F20D26960C942308BA93AA930E9401
:1007A400651100E010E020E030E0EC85FD850E945A
:1007B400900FAD85BE850E94110EE885F9852E1730
:1007C4003F07D8F45F9B12C00E94130C5E2FEA858A
:1007D400FB8531970E171F0744F4F8010F5F1F4F75
:1007E400AC85BD85EA0FFB1F508306C0A1E0B0E0D5
:1007F4000E94FB102F5F3F4FE0CFEC85FD85FA93FD
:10080400EA93A885B9850E945E0E309711F0E1E065
:1008140001C0E0E00E946C112E960895BA93AA9349
:10082400EF97A597D1500E94651120E030E040E099
:1008340050E00E94950FE0E0EA93A0E0B5E00E944A
:100844009A0FEAE0EA93DE01A459BE4F0D90BC91E1
:10085400A02D0E94F10BA6E1B5E00E949F0FE0EDF0
:10086400F7E0FA93EA93A2E2B5E097DFE03049F4C7
:10087400E0E0EA93E4E1EA93A5E2B5E00E94AA0F7E
:10088400ADC0A6E3B5E00E949F0F0E94B00FAAE49A
:10089400B5E083DFFE01E659FF4FFA93EA93EFEEEA
:1008A400F2E0FA93EA93E6E0F3E00E948A0F0E94F2
:1008B400B50F0E94B00FADE4B5E06FDFA0E5B5E081
:1008C4000E949F0F0E94B00FA9E7B5E066DFFE010A
:1008D4003696FA93EA93EBE4F3E0FA93EA93FE0193
:1008E400E259FE4F0190F081E02D0E948A0F0E9490
:1008F400C40D2896DE0116960E942E0EAF01FE014D
:10090400E659FF4FFA93EA93E1E6F3E0FA93EA93A8
:10091400FA010E94BC0F0E94B50F0E94C20FACE7FF
:10092400B5E03BDFE03061F0DE0116960E949F0FD8
:100934000E94C20FA5E8B5E030DFE030F1F101C05C
:100944003CC0A8E8B5E00E949F0FE8E9FAE3FA93F7
:10095400EA93A8E9B5E021DFE03079F1E1EFF8E0CE
:10096400FA93EA93A5EAB5E00E945E0E8F01002E89
:10097400012A29F0D80111960E94CE0E9F01E8ECBD
:10098400F0E0E217F307C9F4E0E0EA93E4E1EA9364
:10099400A7EAB5E00E949A0FEEE1EA93A7EBB5E06F
:1009A4000E94C70FA3ECB5E00E949F0F0E94B00FF6
:1009B400AFECB5E0F2DEE1E012C00E94950FE9E190
:1009C400EA93A2EDB5E00E94AA0FA8EEB5E00E945A
:1009D4009F0F0E94B00FA4EFB5E0DFDEE0E00E94BD
:1009E4006C11EF96AD96DF5F08950E94950FE0E0DD
:1009F400EA93A7EFB5E00E94F10BABE0B6E00E94EA
:100A0400CD0FA5E1B6E00E94CD0FA7E2B6E0B6DEB9
:100A1400A0EDB7E00E94FB100E94D30FAAE3B6E05A
:100A24000E94D80FE1E00895EF97EF9768970E942E
:100A3400950FE0E0EA93A5E4B6E00E94F10BABE584
:100A4400B6E00E94DE0FFE01EC59FF4FFA93EA93E1
:100A5400EEE5F4E0FA93EA93E6E7F4E00E948A0F05
:100A64000E94C40D2896DE01AC59BF4F0E94DE0FD0
:100A7400A9E7B6E083DEA8EBBBE00E94FB100E946E
:100A8400950FE0E0EA93A6E8B6E00E94F10BA5E931
:100A9400B6E074DEFE01FA93EA93E4E6F0E0FA933A
:100AA400EA930E94C20FA2EAB6E077DEE03071F169
:100AB4000E94D30FAAEAB6E00E949A0FE4E1EA93F7
:100AC400DE0112960E94F10BA8EBBBE00E94FB1022
:100AD400FE01FA93EA93A0EBB6E00E945E0E309713
:100AE400A9F02297FE0132960E94E40FE0E0F0E0C4
:100AF4000E94E40FE881F981309739F0E1EDF8E0E4
:100B04000E94ED0FE1E0229602C02296E0E0EF960B
:100B1400EF9668960895639783E1A0E0B0E0ECE86F
:100B2400F2E00E9473111A930A9300E0033078F5FF
:100B3400E5B3E760E5BB15B2E02FF0E0DE015296C5
:100B4400AE0FBF1FEC91A1E00E94F30FE5BB10E0D4
:100B54001430D8F40E94F80FB1F4AAE0B0E00E9477
:100B6400FB100E94F80F79F40E94F80FE9F3A3E058
:100B74001A9FF001DE011296AE0FBF1FEE27A00FE1
:100B8400BE1FEC9105C01F5FE3CF0F5FCFCFE0E046
:100B94001981088165960895BA93AA9364971A9364
:100BA400ED89FE89E130A0E0FA0711F412E00DC0EE
:100BB400E230A0E0FA0711F413E007C0E330A0E04C
:100BC400FA0711F414E001C037C0FE013196FA931C
:100BD400EA93E1ECF4E00E940A100E94C40D289606
:100BE4000E940F10E4E1EA93DE0113960E94F10BD8
:100BF40013B0E12FA1E00E940D11E129E3B9A0E1B6
:100C0400B7E20E94FB1013B0E12FA1E00E94F30FA2
:100C1400E3B9FE013196FA93EA93EEECF4E00E9414
:100C24000A100E94C40D2896EAE0EA93E8E2EA93E7
:100C3400DE0113960E94AA0F1881679608952697DD
:100C4400E0E0EABBEBBBE7BBE0EFE8BBE7E0E4BB1B
:100C5400E0EFE5BBECE3E2B9E0E0E3B9E093610087
:100C6400E0936200EBB9E8E1EAB9E6E0E0939500CD
:100C7400E0E0E0939000E3E3E9B9E0E8E4BFE4BF37
:100C8400ECE8F0E0E883F983E0E0EA83EB83EC83CB
:100C9400ED83DE01D8D1ECE8F0E00E9414100E944C
:100CA400950FE0E0EA93ADEBB6E00E94D80FACEC10
:100CB400B6E00E94CD0FA1EDB6E00E94CD0F95DE07
:100CC400E03039F40E94D30FA4EDB6E00E94F10B9A
:100CD400FFCFAADEE03039F40E94D30FA5EEB6E0D0
:100CE4000E94F10BFFCF0E94950FE0E0EA93A7EF7B
:100CF400B6E00E949A0FEAE0EA93A5E0B7E00E940A
:100D0400F10B2697E0E0E883E983EA83EB83E9E0EB
:100D1400F8E00E94900FA4E6B0E00E94110EE9E012
:100D2400F8E00E941910309709F4E6C0E9E0F8E011
:100D3400FA93EA93A8E1B7E00E945E0E309709F4B3
:100D4400DBC02297E9E0F8E00E94E40FE881F98132
:100D5400309709F4C2C0E0E0F0E00E94E40FE881BB
:100D6400F981309709F4B9C0E1EEF8E00E94ED0F83
:100D7400A1EEB8E053DDE03009F4A3C0EDE6F8E0FD
:100D84000E94900FA4E6B0E00E94110EEDE6F8E098
:100D94000E941910ADE6B8E00E942E0E0E945D116B
:100DA40008F08EC0E0916D08EF83AF81A13329F084
:100DB400A23319F0A33309F07DC02297E0E0E88361
:100DC400E9830E94950FE5E0EA93AEE1B7E00E9463
:100DD400F10BE985EE83E6E4EA93E5E0EA93DE01CC
:100DE40018960E949A0FE9E1EA93A8E2B7E00E94FC
:100DF400F10BE0E0E883E983A881B981A83CE0E055
:100E0400BE0774F488DEE887E03051F4AAE0B0E06D
:100E14000E94FB10E881F9813196E883F983ECCFD5
:100E2400E885E030C1F40E940F10E9E1EA93AEE3F3
:100E3400B7E00E94D80F0E94950FE0E0EA93A2E584
:100E4400B7E00E949A0FEAE0EA93A0E6B7E00E94B6
:100E5400F10B2A9656CFE0E0EA93EDE2EA93A3E79A
:100E6400B7E00E94F10BE885EE83EAE5EA93EDE250
:100E7400EA93DE0118960E94D80FE985A885EA173F
:100E840089F40E940F10E9E1EA93A0E8B7E00E9418
:100E9400C70FE985F0E0F097EC83FD83AC81BD8159
:100EA4007BDE06C00E941F10A1E9B7E00E94AA0FD2
:100EB400229606C00E941F10A1EAB7E00E94AA0F62
:100EC4000CC00E94950FE9E1EA93A3EBB7E00E94FE
:100ED400F10BA4ECB9E00E94FB100E94950FE0E036
:100EE400EA93ABECB7E00E949A0FEAE0EA93A9ED2B
:100EF400B7E00E94F10B2296269603CFFFCF0000A5
:100F0400E0916200E061E093620000000895E091E6
:100F14006200EF7E0E942610EF7D0E942610EF7B78
:100F2400E093620008951A93EADF19B3E091620036
:100F3400EF7EE0936200E12F19910895AA931A932A
:100F44000E942B10EB7FE0936200E981EF5F1E2F7C
:100F540010FF04C0E0916200E06203C0E09162000F
:100F6400EF7DE093620011FF04C0E0916200E06451
:100F740003C0E0916200EF7BE0936200D4DFE0788D
:100F8400E9F718815EC0AA93A981D8DFE0916200D5
:100F94000E94311056C0E091F209EA93E091F10900
:100FA400EF73E064AE2FEFDFE091F209EA93E09192
:100FB400F309E86BAE2FE7DF0895AA93E981E09384
:100FC400F109E295EF70E695E695E093F209E88180
:100FD400E093F309E0DF35C0A091F109AF5FA0937E
:100FE400F109A03818F0E0E0E093F109E091F1098B
:100FF400EF7331F4E091F109EA93A091F309DDDF95
:101004000895AA93A091F20999DFE0916200E46047
:101014000E9426100E9431100C941C0CA091F2091D
:101024008DDF0E942B10E460E09362007CDF089562
:10103400AA93E981EA93E9810E943C10EFDFABDFD8
:10104400EDDF22960895BA93AA931A93E091610072
:10105400E0610E944210E8600E944210E4600E9435
:101064004210E068E0936100E0916200E068E09380
:101074006200E0916100E0620E944210E064E0934B
:10108400610045DFE0916200EF77E0936200A4E63F
:10109400B0E00E94FB10E0916200E068E09362001F
:1010A40010E0123040F41A93AFE36DDF1A931395F6
:1010B400A0EC69DFF6CFE1E0E093EC07E0E0E09339
:1010C400ED07E981FA813097A9F0A981BA810E94DC
:1010D40033110E941410A981BA8112960E9433110F
:1010E400E0930508F0930608A981BA8114960E943A
:1010F40033110AC0E0E0F0E00E941410E0E0F0E0F8
:10110400E0930508F0930608E0930708F0930808B5
:10111400E1E0E093F207E093F307E093F407EFEFE5
:10112400E093F507E1E0E093FC07EDEFF7E0FA93D5
:10113400EA93EFEFEA93A8E0B0E00E94110E04D026
:10114400E1E01881239608950E94671100E030E0E1
:10115400E091ED07E03009F00FEF383078F4E0E08B
:10116400EA93A32F3F5F29DF10E0A12F1F5FA03870
:1011740020F4A02F0E944710F8CFEFCFE0E0EA93CD
:10118400A0E01BDFE0E0EA93A0E03ED30E946E11F2
:1011940024960895AA931A93ED81EA93AD8148DFCA
:1011A4001E2FF9DEE981E73011F0E83039F4EB81E4
:1011B400EA93AA810E94100FEB8308C0E33021F464
:1011C400EB81E095EB8302C0E03021F4EA81E09505
:1011D4001E2302C0E23029F4EA81AB81EA231E2BEC
:1011E4000EC0E13029F4EA81AB81EA231E2707C04F
:1011F400E43029F4EA81E095AB81EA2B1E23A12F88
:101204000E94471018810C94CC0EAA9323970E9435
:101214006511A889A03848F4AF85A03430F4AE85B0
:10122400A03019F0AD85A03009F4C6C1EE85E88779
:10123400A889BB27EE85F0E0AE0FBF1FA138E0E020
:10124400BE0720F0A889E0E8EA1BEE872D85AF856C
:10125400BB27ED85F0E0AE0FBF1FA134E0E0BE0771
:1012640020F0AF85E0E4EA1BED87A985A63009F0FC
:101274005BC0EC85E13009F49FC1E33039F4E091BF
:101284000708F0910808309709F496C10885ED85A0
:10129400E695E695E6953E2FE22FE77019F4AD85C5
:1012A4002A17E9F0A02FBB27E32FF0E00E942B11AF
:1012B400AA85BB850E944B10269526952695532F0B
:1012C4005F935F5FE22FAF91EA1748F0102FE12F91
:1012D4001150E03019F00E945010F9CFF1CFAE85D3
:1012E4000A1711F1EE85AA85BB85F0E00E944B1028
:1012F400ED85E77009F03F5F20E02F932F5FE32F28
:10130400AF91AE1788F41E851F931F5FE02FAF9136
:10131400AE1718F40E945010F7CFEE85AE81BF814E
:10132400F0E00E944B10E9CFEF85E7703E2FED858A
:10133400E03009F441C1EA85FB85EE83FF8310E0C8
:101344000889303009F065C0AD85A83008F45CC068
:10135400E985E03011F0E33009F402C0E73009F424
:1013640002C0E83009F402C0E63009F402C0E930F2
:1013740009F402C0EA3021F40A93E8890E943C107F
:101384001F931F5FEE85AF91AE17B8F5A985A63000
:1013940061F444DE00DE0E945D10FA93EA933EDEBF
:1013A400AE2F0E94570F18DE27C0E985E93011F4EB
:1013B40050E00EC0EA3011F45FEF0AC00E945D10E5
:1013C4000E9466105E2FE985E73011F0E83021F4C1
:1013D4000E946C105E2F06C0E33011F4509502C0D9
:1013E400E03021F4A52F0E94471006C00E9470101F
:1013F400EFEFEA93AD85CEDEC3CFEF85E85FEF87ED
:10140400ED85E850ED87CFC05D8520E0E0E0ED8715
:101414007AC0E32FAD85AE0FA93020F42D85E0E02E
:10142400ED8703C0E8E0E31B2E2F3A93A22F0E941E
:10143400050F4E2FE985E630F1F41F931F5FEE850B
:10144400AF91AE17B8F40E947610AE2FE32F0E942E
:1014540015110E947D10E32FA42F0E941511E09511
:10146400E1215E2B0E945D10FA93EA93A52F0E945E
:10147400570FE3CF2CC0E93011F450E003C0EA3039
:10148400A9F45FEF0E946C10AE2FE32F0E940D11A0
:101494005E2F1F931F5FEE85AF91AE1730F40E944D
:1014A40070104A93A0E076DEF4CF11C01F931F5F43
:1014B400EE85AF91AE1758F40E948810AE2FE32F3B
:1014C4000E940D11EA934A93AD8564DEEFCFED855A
:1014D400E03009F471C0AD85A83028F4ED85E21B35
:1014E4005E2FE0E003C0532FED85E850ED8710E058
:1014F400EF85E85FEF87E8E0E31B2E2F0889EA8594
:10150400FB85EE83FF83E52FF0E0E059FD4F449126
:10151400E985E630E1F41F931F5FEE85AF91AE17C6
:10152400A8F40E947610AE2FE22F0E940D110E94A3
:101534007D10E22FA42F0E94F30F5E2B0E945D10FA
:10154400FA93EA93A52F0E94570FE5CF2CC0E930F8
:1015540011F450E003C0EA30A9F45FEF0E946C106C
:10156400AE2FE22F0E9415115E2F1F931F5FEE8591
:10157400AF91AE1730F40E9470104A93A0E00ADED7
:10158400F4CF11C01F931F5FEE85AF91AE1758F4CF
:101594000E948810AE2FE22F0E941511EA934A93FD
:1015A400AD85F8DDEFCFE885AA85BB85F0E0EA0FCD
:1015B400FB1FEA87FB87BBCE0E946C1161960895DE
:1015C4000E94951024F0E0E0F0E00C940E0FA88146
:1015D400B981A038E0E0BE0724F0EFE7F0E00C9416
:1015E4000E0FE881F9810C940E0F0E94951024F0DF
:1015F400E0E0F0E00C940E0FA881B981A034E0E0A3
:10160400BE0724F0EFE3F0E00C940E0FE881F981BB
:101614000C940E0FBA93AA9323970E949C108F01E7
:10162400002E012A19F4E0E0F0E05FC00E94A3104C
:101634000F820E94A3100E820E94A3100886EB85DD
:10164400A885EA1718F4E0E0F0E04FC0F8010F5F56
:101654001F4F5491A885BB27EE27A50FBE1FEB850E
:10166400F0E0EA17FB0718F0E0E0F0E03EC0EE819E
:10167400E695E695E6954E2FEE81E77009F04F5F0B
:10168400EF81E030A1F0A985BA85EC93A885EB85BC
:10169400EA1BF0E0DF01EF81F0E00E942B11DF0193
:1016A400E42FF0E00E942B11E00FF11F1EC09801FF
:1016B400E52FF0E00E0F1F1FA885AF5FA887A1508C
:1016C400EB85AE1760F4F9012F5F3F4FA491B0E0B2
:1016D400E42FF0E00E942B110E0F1F1FEDCFF90134
:1016E400E491A985BA85EC93F8010E946C112C96BB
:1016F4000895E0E0E093EE07A091EF07BB270E9476
:10170400A810F0E0AE0FBF1FE091F307F0E0AE0FBA
:10171400BF1F6BDFE093EF070895AA9321970E9400
:101724009C10309709F455C0AF81AA3009F44FC01A
:10173400EF81EA93DE0117966DDFAF01309709F46C
:101744004AC0E091F207AE81EA0F3E2FA091EE0766
:10175400BB27F0E0EA0FFB1F8F010138E0E01E0712
:1017640018F0032F1127C5DFE091EE07EA93E0910B
:10177400EF07EA93E885EA930E94A810EA93E1E070
:10178400EA935A934A93A7E040DDE091EE07AE81D5
:10179400EA0FEA93E091EF07EA93E091F207EA9304
:1017A4000E94A8100E94AF10E091EE07EA93A09166
:1017B400EF070E94A810EA0FEA933A93E091F30727
:1017C4000E94AF10E0E8F0E0E017F10711F491DFB8
:1017D40002C00093EE070E946C1128960895BA93F4
:1017E400AA931A93EC81EA93AC810ED0A981BA81B1
:1017F400ED91A983BA831E2FE03019F0A12F8DDF5C
:10180400F5CF18810C941F0EAA93A981BB27D8DEAB
:10181400E093EE07A881BB27E8DEE093EF070C9482
:101824000E0F5F9BFECFECB10895AA935D9BFECF94
:10183400E881ECB921960895BA93AA930E946511A0
:101844000E811F8128853985002E012AD9F0E9DF10
:101854005E2F583051F4AE81BF810A171B0720F464
:10186400215030400F5F1F4FF2CF5A3059F03F9351
:101874002F932F5F3F4FE52FAF91BF91EC93015012
:101884001040E2CFD901E0E0EC93E885F9850E94AD
:101894006C112A960895BA93AA93AA81C6DFA881E7
:1018A400B9810E94B9100C94550FBA93AA931A9354
:1018B4000A93AA81BB8112960E943311309729F1B1
:1018C400AA81BB8114960E9433118F01309761F075
:1018D4000230E0E01E0780F0F80131978F01AA8101
:1018E400BB811496ED93FC93AA81BB8112960E944E
:1018F400B9103197AC81A083AA81BB810E943311B6
:10190400FF2312F00E94B91006C0AA81BB81EFEF39
:10191400FFEFED93FC93198108818FC1BA93AA93C9
:1019240026970E94651110E0AC85BD85E0E0F0E0EB
:10193400ED93FC93EA89FB893196EA8BFB8B319713
:10194400E4912E2FE03009F415C1E12FE03039F491
:10195400253211F411E002C00E94BF100AC1E13027
:10196400A9F4253219F40E94BF1002C112E040E02C
:1019740000E02D3211F401E0FCC02B3211F44BE2F3
:10198400F8C0203211F440E2F4C002C0E23039F46D
:1019940050E013E0203311F40068EBC003C0E330DF
:1019A40009F0E7C0203310F02A3308F007C0AAE09A
:1019B4005A9F502DE22FE0535E0FDBC0E22FE33637
:1019C40049F40E94C610E889F989A481AA930E9467
:1019D400CC10CEC0E33741F40E94C6100E94D2104E
:1019E4000E942E0E1E2F0AC0E03761F40E94C6101A
:1019F4000E94D2100E943A0E1E2F086002600F77D8
:101A040030E034C0E43611F0E93611F4046002C069
:101A1400E53731F4EAE7F2E0EE83FF8315E00CC02A
:101A2400E83511F4086003C0E83709F0A1C0E4E820
:101A3400F2E0EE83FF8314E002FF14C00E94C6109C
:101A44000E94DC10AB85AA233AF4EA85FB850E9448
:101A54000911EA87FB874DE2403011F01F5F01C096
:101A64000B7F04C00E94C6100E94DC1000FD11C050
:101A7400151778F407FF08C002FF04C00B7F242F5A
:101A8400115001C020E301C020E20E94BF10515058
:101A9400EFCF312F01FF17C03030A1F003FF06C094
:101AA400EE81FF812591EE83FF8305C0AE81BF8166
:101AB4002D91AE83BF830E94BF10503009F0515066
:101AC4003150EACF4BC020E3EE81FF810E943711F1
:101AD400E887F987EE81FF813296EE83FF83E885FC
:101AE400F985AA85BB85AE17BF0750F02F5FA8857F
:101AF400B985EA85FB85EA1BFB0BEA87FB87EFCFF9
:101B04002A3328F003FF02C0295F01C0295D04FDC8
:101B14001AC0213320F4A885B985119709F409C0A6
:101B2400531710F000FF01C013C020E207FF0BC0E1
:101B340020E3006102FF07C00B7F4A930E94CC1090
:101B4400503009F051500E94BF10503009F05150EC
:101B54003150A885B985129708F0B5CF00FF08C0A9
:101B6400503031F05150E0E2EA930E94CC10F8CFAB
:101B740010E0E0CEAC85BD850E9433110E946C114B
:101B840064960895FF92F82E26970E9467110E948A
:101B9400E410309719F4EFEFFFEF1DC0DE01169645
:101BA4000E9405118D010E94E410EE83FF83E0E0A2
:101BB400E887E987DE011A960E94EB10E7E5FCE06E
:101BC400FA93EA93DE011A96A9DE9F01AE81BF81E2
:101BD400E0E0EC93F9010E946E112A96FF900895BB
:101BE400FF92F82E26971A930A93DE0114960E9408
:101BF40005118D01E0E0EC83ED83EE83EF83DE01DC
:101C040018960E94EB10EDE4FCE0FA93EA93DE01EF
:101C1400189684DE198108812896FF900895BA9356
:101C2400AA93B981A881109631F0FC81EB816A8175
:101C340061931197E9F7EB81FC8125960895BA9396
:101C4400AA93E991F991A991B991CD0161916D930B
:101C54006623E1F7FC010895BA93AA93A991B99177
:101C6400EE27FF276D91662311F03196FBCF08957F
:101C7400BA93AA93AA27BB27E991F991059000206A
:101C840011F01196FBCFFD010895BA93AA93BB817D
:101C9400AA816C91662361F0F981E881C8950020DE
:101CA40029F031966015D1F7FD0104C01196F1CFEA
:101CB400EE27FF270C94740FBA93AA93AA81BB81D1
:101CC400CD01E881F9817191772311F4FC0109C0F8
:101CD4006D916717C1F30196DC01662391F7EE2736
:101CE400FF270C94740FBA93AA93BB81AA81882707
:101CF40099276D91662349F0F981E88105900020C8
:101D040021F06015D9F70196F4CFFC010C94740FFF
:101D1400BA93AA931A930A93EC81FD81309779F4CC
:101D2400E091F409F091F509309719F4E0E0F0E05E
:101D34002FC0E091F409F091F509EC83FD830E9432
:101D4400F4100E94750EAC81BD81EA0FFB1FEC8379
:101D5400FD83AC81BD81EC91E03041F4E0E0E0939F
:101D6400F409E093F509E0E0F0E012C00E94F410F9
:101D74000E94470E8F01309729F0D8010F5F1F4F43
:101D8400E0E0EC930093F4091093F509EC81FD81F4
:101D94001981088126960895BA93AA93B981A881D6
:101DA400EC918A2FAE2F0E947F0FA82FEE2311F003
:101DB4001196F6CFE894EC91ED3211F4689402C0D8
:101DC400EB3209F4119666277727EC918A2FAE2F10
:101DD4000E94760FA82FEE2379F0FB01660F771F80
:101DE400660F771F6E0F7F1F660F771FED91FF271A
:101DF400E0536E0F7F1FE9CFFB011EF4E095F095D1
:101E0400319622960895AA93E881F0E0E059FD4FB7
:101E1400A491E9810E940D1122960895AA931A9320
:101E2400E981E73011F0EA3019F41091EC0709C0A8
:101E3400E93019F41091ED0704C0E830A1F41091D1
:101E4400FC07E091ED07E03049F0103019F0EFEFB6
:101E5400188129C0EA81E095188125C0103019F451
:101E6400E0E0188120C0EA8118811DC0BA93AA93CA
:101E7400EA81E13021F4E881F981E49114C0E2308F
:101E840029F4A881B9810E9440110DC0E33041F4C6
:101E9400A881B981E0910508F0910608099503C06D
:101EA400A881B981EC9123960895AA93EB81E0303F
:101EB40029F4E881A981BA81EC9314C0E23031F4A9
:101EC400E881A981BA810E944C110CC0E33051F41D
:101ED400E981FA81FA93EA93AA81E0910708F091E3
:101EE4000808099524960895AA93E1E0F991F0333E
:101EF40010F0FA3308F0EE270895AA93E1E0F9917F
:101F0400F03229F0F93010F0FE3008F0EE27089591
:101F1400662777270E943B1184E00895FA93EA9399
:101F2400E0E0EA9308950E94A608E0E0EA930895A9
:101F34000E94F10BE0E0EA9308950E94C003E1EFF0
:101F4400F8E0FA93EA93E0E0F1E0FA93EA93089573
:101F54000E94F10BA0EDB7E00C94FB10E8EEF3E067
:101F6400FA93EA9308950E94C40D2896DE01A659B7
:101F7400BF4FE3CF0E9426110E943B1184E00895D5
:101F8400E8E8F3E1FA93EA9308950E94F10BACEDCB
:101F9400B5E00C94FB100E94C003A4EFB1E00C94D4
:101FA400FB10E0E0EA93EAE0EA9308950E94F10B63
:101FB400A8EEB3E00C94FB100E94C003ACEDB5E0B6
:101FC4000C94FB10FA93EA93A4E0B3E00E948A0E07
:101FD400E883F9830895FA93EA93AA81BB810C9468
:101FE400210E0E940D11E095E121089513B2E12F15
:101FF400F0E0DE011E96AE0FBF1FEC91A1E0B0E051
:102004000E941D11A12DB0E0EA23FB23309708950F
:10201400FA93EA93E98DFA8DADCF0E94A608EAE01F
:10202400EA930895E093F007F093F1070895FA9383
:10203400EA93A4E6B0E00C941E0C0E94A608E5E026
:10204400EA93E9E1EA930895E0936200E091620083
:102054000895E0E0EABBE0916200E860F5CFE77F35
:10206400E0936200EFEFEABBE881EBBB0E948107DB
:102074000C948907E695E695E695AE2F0C94DF0758
:10208400E0936100E091610008950E9403080C94BC
:10209400EE07EA0FFB1FEE83FF830895EC85EA93B6
:1020A400EF81F8853196EF83F8873197FA93EA93B5
:1020B400A0E00C94570FEC85EA93EF81F8853196F4
:1020C400EF83F8873197089566277727DF01CB01DF
:1020D4000C94380F5A93AA850C94100F0A93039505
:1020E400E889EA935A9308950A930395A8890E946C
:1020F4001A08E42308955E2FEC85EA93AF81B8852E
:10210400882799270E94380F1E2E08950A93039555
:10211400E889EA93EE85EA93E985FA853196E987B9
:10212400FA873197D1CFBA93AA93A881B9810E9433
:10213400611108950E946511E091F007F091F10793
:102144000895F8010F5F1F4F04900895E091F00780
:10215400F091F1073196E4910895EA93E0E0EA936F
:10216400E0E0F0E0FA93EA93A9E00C940709ED911A
:10217400FD913196FE93EE9308952A93AD85BE8525
:10218400EF85F88909950895E889F9893497E88BEA
:10219400F98B0895AD85BE85EF85F8890995089575
:1021A400A889B98914960E943311EE83FF83AE8106
:1021B400BF810895A889B98914960E943311EA87CA
:1021C400FB870895DE011C960E9405110E943311BD
:1021D40008950E9405110E943311FA93EA931A9309
:1021E4000A930895EC81FD81FA93EA93AC81BD8151
:1021F4000895109639F0A89580ED97E00197F1F7CE
:102204001197C9F708950024AF0DB01D0895F195F5
:10221400E195F0400895EE230E2EEA2F19F0EE0F0B
:102224000A94E9F70895EE230E2EEA2F19F0E695A5
:102234000A94E9F70895EE230E2EFD0121F0EE0F26
:10224400FF1F0A94E1F708956F2F660F660B762F30
:102254000895FA9FF02DEB9FF00DEA9FE02DF10D0C
:102264000895ED91FC91119708950590F491E02D56
:1022740008957A936A93FA93EA930895E199FECFC5
:10228400FF93FFB7F894AEBBBFBBE09AEDB3FFBFBB
:10229400FF910895E19B02C0A895FCCF9FB7F894E5
:1022A400AEBBBFBBE09A8DB3E81719F0EDBBE29A61
:1022B400E19A9FBF089500240E160F060895002486
:1022C4000A160B0608955A934A933A932A931A933B
:1022D4000A9308955D814C813B812A81198108818B
:1022E4000895AC0FBD1F05900D928A95E1F70895EE
:00000001FF
