:100000000C948B100C9400000C9400000C940000D5
:100010000C9400000C9400000C9400000C94000060
:100020000C9400000C9400000C9400000C94000050
:100030000C9400000C9400000C9400000C94000040
:100040000C94F0100C9400000C94BA100C94000066
:100050000C9400000C9400000C9400000C94000020
:100060000C9400000C9400000C9400000C94000010
:100070000C9400000C9400000C9400000C94000000
:100080000C9400000C9400000C9400000507206004
:10009000000000000000005F0000000700070014DF
:1000A0007F147F14242A7F2A12231308646236499E
:1000B0005522500005030000001C2241000041228F
:1000C0001C00082A1C2A0808083E080800503000B6
:1000D000000808080808003030000020100804025A
:1000E0003E5149453E00427F400042615149462110
:1000F00041454B311814127F1027454545393C4A7C
:1001000049493001710905033649494936064949CB
:10011000291E003636000000563600000008142262
:100120004114141414144122140800020151090648
:10013000324979413E7E1111117E7F494949363E4F
:10014000414141227F4141221C7F494949417F0968
:100150000901013E414151327F0808087F00417F7B
:1001600041002040413F017F081422417F40404030
:10017000407F0204027F7F0408107F3E4141413EE0
:100180007F090909063E4151215E7F09192946462A
:100190004949493101017F01013F4040403F1F2053
:1001A00040201F7F2018207F631408146303047805
:1001B0000403615149454300007F41410204081096
:1001C0002041417F000004020102044040404040C1
:1001D000000102040020545454787F4844443838C5
:1001E00044444420384444487F3854545418087ECA
:1001F000090102081454543C7F0804047800447D2B
:1002000040002040443D00007F10284400417F40D2
:10021000007C041804787C0804047838444444388A
:100220007C14141408081414187C7C08040408486E
:1002300054545420043F4440203C4040207C1C2027
:1002400040201C3C4030403C44281028440C505076
:10025000503C4464544C44000836410000007F0088
:1002600000004136080002010204027F4141417F43
:10027000000000000000000000000000000000007E
:10028000000000000000808000000000000000006E
:10029000000000000000000080800000000000005E
:1002A000000000000000000000000000000000004E
:1002B000000000000000000000000000000000003E
:1002C000000000000000000000000000000000002E
:1002D000000000000000008080000000000000001E
:1002E000000000000000000000000000000000000E
:1002F0000000E0E00000060E1ABAE3C1000080C072
:10030000E0B0F0F00000FFFF00000000E0E00000BF
:1003100000F0F00000000000FFFF000020E0E0001F
:1003200000000000C0C008181800F0F00000E0F065
:100330003060E08000080CECEC8C000000E0E00095
:1003400080E0E010F0F00000000000E0F818F0E0BD
:10035000000020E0E00000FFFF000080C0E0B0707F
:10036000F080000000E0E00C8EEEEC18F0F00000F1
:100370000000000101010101010101010101010071
:10038000010101010000000101090D0D0D0D0D2DF0
:100390003D3D090000000000010108080C0F0700A6
:1003A00000000000070F0C080C0C070700000909EB
:1003B000090F070101010101010101010101010111
:1003C0000101010101000000000000010101010123
:1003D00008080C0F070000000101010100010101E4
:1003E0000101010101010101010101010100000000
:1003F00000000000000000000000000000000000FD
:1004000000000000000000000000000000000000EC
:1004100000000000000000000000000000000000DC
:1004200000000000000000000000000000000000CC
:1004300000000000000000000000000000000000BC
:1004400000000000000000000000000000000000AC
:10045000000000000000000000000000000000009C
:10046000000000000000000000000000000000008C
:10047000000000000000000000000000000000007C
:10048000000000000000000000000000000000006C
:10049000000000000000000000000000808000005C
:1004A000C0C00018F8E0000000E0E080000008ECA8
:1004B000EC800000060E3AF3E101000000000000AD
:1004C000000000000000000000000000000000002C
:1004D000000000000000000000000000000000001C
:1004E000000000000000000000000000000000000C
:1004F00000000000000000000000000000000000FC
:1005000000000000000000000000000000000000EB
:1005100000000000000000000000000001010000D9
:1005200001010101010101050D0D0D09010101018B
:1005300001010101010101010000000000000000B3
:1005400000000000000000000000000000000000AB
:10055000000000000000000000000000000000009B
:10056000000000000000000000000000000000008B
:10057000000000000000000000000000000000007B
:10058000000000000000000000000000000000006B
:10059000000000000000000000000000000000005B
:1005A000000000000000000000000000000000004B
:1005B000000000000000000000000000000000003B
:1005C000000000000000000000000000000000002B
:1005D000000000000000000000000000000000001B
:1005E000000000000000000000000000000000000B
:1005F00000000000000000000000000000000000FB
:1006000000000000000000000000000000000000EA
:1006100000000000000000000000000000000000DA
:1006200000000000000000000000000000000000CA
:1006300000000000000000000000000000000000BA
:1006400000000000000000000000000000000000AA
:10065000000000000000000000000000000000009A
:10066000000000000000000000000000000000008A
:10067000000000000000000000000000000000007A
:10068000000000000000000000000000000000006A
:10069000000000000000000000000000000000005A
:1006A000000000000000000000000000000000004A
:1006B000000000000000000000000000000000003A
:1006C000000000000000000000000000000000002A
:1006D000000000000000000000000000000000001A
:1006E000000000000000000000000000000000000A
:1006F00000000000000000000000000000000000FA
:100700000000C0C000000000000000000000808069
:100710000000FCFC00000000008080800000001051
:10072000B0A00000000000004040C0C00000000079
:1007300000000000FCFC00000080800000000000C1
:100740000000FCFC00000000000000000000004071
:1007500040C0C0000000000000C0C000000080C019
:10076000C0C0C00000000000000000000000000049
:1007700000000000000000000000000C0C00000E53
:100780000E08080F0F084868686F6F6868686F4F39
:100790000000070F08080C060F0D0B0F0C080808C7
:1007A0000F0F00000000000E0E08080F0740406108
:1007B0007F3F00000F0F00004F4F697F3F00000098
:1007C00000000F0F4040617F3F00000000000E0E50
:1007D00008080F0700000E0E08080F0F08080B0F7F
:1007E0000C0C0404000000000000000000000000E9
:1007F00000000000000000008080000000000000F9
:1008000000000000000000000000000000000000E8
:1008100000000000000000000000000000000000D8
:1008200000000000000000000000000000000000C8
:1008300000000000000000000000000000000000B8
:1008400000000000000000000000000000000000A8
:100850000000000000000000000000000000000098
:100860000000000000000000000000000000000088
:100870000000000000000000010100000000000076
:100880000000000000000000000000000000000068
:100890000000000000000000000000000000000058
:1008A0000000000000000000000000000000000048
:1008B0000000000000000000000000000000000038
:100B90000000000000000080800000000000000055
:100BA0000000000000000000000000000000000045
:100BB0000000808000000000000000000000000035
:100BC0000000000000000000000000000000000025
:100BD0000000808000000000000000000000808015
:100BE0000000000000000080800000000000000005
:100BF00000000000000000008080000080800000F5
:100C000080800000C0C00018F8E0000000E0E08034
:100C1000000002F6F40000FFFF000080C0E0B070AA
:100C2000F080000000F0F0000000000020E0E00094
:100C30000080FF7F203236F4E00000040CECEC046E
:100C40000008ECEC80000080C0E0B0F0F000000094
:100C50000000FFFF000060F39BFAF0000080FF7FC0
:100C6000203030F0E0000003FFFC00000000000036
:100C70000000000000000000010100000101000070
:100C80000101000001010101010101050D0D0D0926
:100C90000101010101000000010101010001010148
:100CA0000101010D0D090100000008080C0F0701EA
:100CB0000101010101010101010101010101010124
:100CC0000101010101010101000101010100000018
:100CD0000000000101010101010101010101010107
:100CE00001010101010101010100000000000000FB
:100CF00000000000000000000000000000000000F4
:100D000000000000000000000000000000000000E3
:100D100000000000000000000000000000000000D3
:100D200000000000000000000000000000000000C3
:100F500000000000E0E000000000000000000000D1
:100F60000000000000808000000000000000000081
:100F70000000000000000000003878424343434373
:100F8000607878404040787840607878447C3C00D5
:100F90000008F8F80000707242467E380000000039
:100FA00000F0F002060600FCFC0000787C4CD8F84B
:100FB000604042437B7B6340404078784060787873
:100FC000447C3C0000000000787E467C78000008ED
:100FD000F8F800003F7F40406030786C5C7C6040F7
:100FE0004040787843637B7B467C3C0000000000F7
:100FF00000000000000000000000000000000000F1
:1010000000000000000000000000000000000002DE
:1010100002030301000000000000000000000000C7
:1010200000010303020303010100000202020301A5
:1010300000000000000000000000000000000000B0
:101040000000000000000000000000000002020399
:10105000030100000000000000000000000000008C
:101060000000000000000000000000000000000080
:101070000000000000000000000000000000000070
:101080000000000000000000000000000000000060
:101090000000000000000000E0E000000000000090
:1010A0000000000000000000000000000000000040
:1010B00000008080800000000000808000000000B0
:1010C00000000000000080808080C0400000000020
:1010D000000000000000E0E0000000000000000050
:1010E0000000000000000000000000000000000000
:1010F0000000000000000000000000006060000030
:1011000038784243434343607878404040787840A1
:10111000607878447C3C00007F7F0000000000780D
:101120007E467C780000707040467E784040407873
:101130007843637B7B4278784040407D7D000000AF
:101140000000387840404143466E7870404060303F
:10115000786C7C7C00003F7F404040407878404085
:10116000407C7C0000000000000000000000000047
:10117000000000000000000000000000000000006F
:10118000000000000000000000000000000000005F
:10119000000000000000000000000000000000004F
:1011A000000000000000000000000000000000003F
:1011B000000000000000000000000000000000002F
:1011C000000000000000000000000000000000001F
:1011D0000000000000000000000203030303030BF3
:1011E0000F0F0200000000000000000000000000DF
:1011F00000000000000000000000000000000000EF
:1012000000000000000000000000000000000000DE
:1012100000000000000000000000000000000000CE
:1012200000000000000000000000000000000000BE
:1012300000000000000000000000000000000000AE
:10124000000000000000000000000000000000009E
:10125000000000000000000000000000000000008E
:10126000000000000000000000000000000000007E
:10127000000000000000000000000000000000006E
:10128000000000000000000000000000000000005E
:10129000000000000000000000000000000000004E
:1012A000000000000000000000000000000000003E
:1012B000000000000000000000000000000000002E
:1012C000000000000000000000000000000000001E
:1012D000000000000000000000000000000000000E
:1012E00000000000000000000000000000000000FE
:1012F00000000000000000000000000000000000EE
:1013000000000000000000000000000000000000DD
:1013100000000000000000000000000000000000CD
:1013200000000000000000000000000000000000BD
:1013300000000000000000000000000000000000AD
:10134000000000000000000000000000000000009D
:10135000000000000000000000000000000000008D
:10136000000000000000000000000000000000007D
:10137000000000000000C0C0101818181800C0C0FD
:10138000000000C0C00000C0C020E0E0000040C07D
:10139000C0000080901030F0C0000000000080808D
:1013A00010303000E0E00000C0E060C0C00000107D
:1013B00018D8D818000000C0C00000C0C020E0E06D
:1013C0000000000000C0F030E0C0000040C0C000DD
:1013D00000FFFF00000080C060E0E000000000C0EF
:1013E000C0181CDCD830E0E0000000000000000065
:1013F00000000000000001030202020202030303D6
:101400000202020303020303030203011010181F68
:101410000F000003030202030100000000000F1F81
:10142000181018180F0F00001313121E0F030202DA
:101430000203030302020203030203030302030184
:10144000000000000003030203031010181F0F0028
:101450000001030202030103030203030202020369
:101460000302030303020301000000000000000068
:10147000000000000000000000000000000000006C
:10148000000000000000000000000000000000005C
:10149000000000000000000000000000000000004C
:1014A000000000000000000000000000000000003C
:1014B000000000000000000000000000000000002C
:1014C000000000000000000000000000000000001C
:1014D000000000000000000000000000000000000C
:1014E00000000000000000000000000000000000FC
:1014F00000000000000000000000000000000000EC
:10150000000000C0C0101818181800C0C00000006B
:10151000C0C00000C0C020E0E00000FFFF000000ED
:101520000000C0F030E0C0000080800030F0C0005B
:101530000000C0C0181CDCDC10C0C0000004ECE8D7
:10154000000000000080901030F0C0000040C0C0DB
:101550000000FFFF0000C0E060C0C000000000000D
:10156000000000000000000000000000000000007B
:101570000000000000000000000000000000000368
:10158000030000010302020202020303030202023B
:10159000030302030303020301000003030000002E
:1015A000000003030203030000030302020303021B
:1015B0000202030302030303020303020202030302
:1015C00000000000000303020203011010181F0FA7
:1015D00000000303000013131A1F0F000000000097
:1015E00000000000000000000000000000000000FB
:1015F00000000000000000000000000000000000EB
:1016000000000000000000000000000000000000DA
:1016100000000000000000000000000000000000CA
:1016200000000000000000000000000000000000BA
:1016300000000000000000000000000000000000AA
:10164000000000000000000000000000000000009A
:10165000000000000000000000000000000000008A
:10166000000000000000000000000000000000007A
:10167000000000000000000000000000000000006A
:10168000000000000000000000000000000000005A
:10169000000000000000000000000000000000004A
:1016A000000000000000000000000000000000003A
:1016B000000000000000000000000000000000002A
:1016C000000000000000000000000000000000001A
:1016D000000000000000000000000000000000000A
:1016E00000000000000000000000000000000000FA
:1016F00000000000000000000000000000000000EA
:1017000080802030303030008080000000808000F9
:1017100000808040C0C00000FEFE000080C0C0808D
:1017200080000000C0CC4C4840C080800000808019
:1017300080000000202060E0800000000000002009
:101740002060E0800000FEFE000000000060E080FD
:10175000000040C0C04040C0C0000818D8D81000E9
:101760000000000000000000000000000000000079
:101770000000000000000000000000000000000069
:101780000307040404040406070704040407070409
:101790000607070407030000070700002727243D6A
:1017A0001F06040405050606030100002020303F43
:1017B0001F000007070404070300000000000707DC
:1017C00004040703000007070000070704040707D5
:1017D00004040405070607050404040407070000C1
:1017E00000000000000000000000000000000000F9
:1017F00000000000000000000000000000000000E9
:1018000000000000000000000000000000000000D8
:1018100000000000000000000000000000000000C8
:1018200000000000000000000000000000000000B8
:1018300000000000000000000000000000000000A8
:101840000000000000000000000000000000000098
:101850000000000000000000000000000000000088
:101860000000000000000000000000000000000078
:101870000000000000000000000000000000000068
:10188000000000000000B0B0A00000FEFE0000C09C
:10189000C0404040C080800000000080C0C0C00048
:1018A0000000000000000060E0800000C0C0404078
:1018B00040C080800000000000B0B0A00000FEFE2C
:1018C000000000000000000000000080802038B808
:1018D000B8308080000000008080000000C0C000A0
:1018E00000000000000000000000000000000000F8
:1018F00000000000000000000000000000000000E8
:10190000000000002020303F1F00000307040405F2
:1019100005363623070604040406030706070700F6
:101920000000000007070404070704040505060675
:10193000030100000000002020303F1F00000707C7
:1019400000000000003E3E606060203F3F0404074E
:1019500007040707042434343737043434270700D6
:101960000000000000000000000000000000000077
:101970000000000000000000000000000000000067
:101980000000000000000000000000000000000057
:101990000000000000000000000000000000000047
:1019A0000000000000000000000000000000000037
:1019B0000000000000000000000000000000000027
:1019C0000000000000000000000000000000000017
:1019D0000000000000000000000000000000000007
:1019E00000000000000000000000000000000000F7
:1019F00000000000000000000000000000000000E7
:101A000000000000000000000000000000000000D6
:101A100000000000000000000000000000000000C6
:101A200000000000000000000000000000000000B6
:101A300000000000000000000000000000000000A6
:101A40000000000000000000000000000000000096
:101A50000000000000000000000000000000000086
:101A60000000000000000000000000000000000076
:101A70000000000000000000000000000000000066
:101A80000000000000000000000000000000000056
:101A90000000000000000000000000F8F8F83838EE
:101AA00038383838383838383838383838383838B6
:101AB00038383838383838383838383838383838A6
:101AC000383838F8F8F80000000000000000000086
:101AD0000000000000000000000000000000000006
:101AE00000000000000000000000000000000000F6
:101AF00000000000000000000000000000000000E6
:101B000000000000000000000000000000000000D5
:101B10000000000000000000000000FFFFFF0000C8
:101B200000000000000000000000000000000000B5
:101B300000000000000000000000000000000000A5
:101B4000000000FFFFFF0000000000000000000098
:101B50000000000000000000000000000000000085
:101B60000000000000000000000000000000000075
:101B70000000000000000000000000000000000065
:101B80000000000000000000000000000000000055
:101B90000000000000000000000000FFFFFF000048
:101BA0000000000000000000000000000000000035
:101BB0000000000000000000000000000000000025
:101BC000000000FFFFFF0000000000000000000018
:101BD0000000000000000000000000000000000005
:101BE00000000000000000000000000000000000F5
:101BF00000000000000000000000000000000000E5
:101C000000000000000000000000000000000000D4
:101C100000000000000000000000000F0F0F0E0E7B
:101C20000E0E0E0E0E0E0E0E0E0E0E0E0E0E0E0ED4
:101C30000E0E0E0E0E0E0E0E0E0E0E0E0E0E0E0EC4
:101C40000E0E0E0F0F0F000000000000000000003D
:101C50000000000000000000000000000000000084
:101C60000000000000000000000000000000000074
:101C7000000103070F1F3F7FFF001027E8036400E8
:101C80000A00010000100001100001000000000027
:101C90000000000000003132333435363738392A3D
:101CA0003023070506040001020025730D0A0041D8
:101CB000542B48545450494E4954004F4B00415402
:101CC0002B485454505445524D0041542B485454C1
:101CD00050504152413D22434944222C310025734A
:101CE0003F70686F6E655F6E756D6265723D2573DE
:101CF0000041542B48545450504152413D225552BA
:101D00004C222C222573220041542B48545450411C
:101D10004354494F4E3D31002B4854545041435495
:101D2000494F4E3A004E6F20416374696F6E2052E6
:101D3000657370002B48545450414354494F4E3AF8
:101D40002025642C25642C25640041542B485454D0
:101D50005052454144004D4F544F52202564204F6E
:101D60004E210053657474696E6720534D53204DA6
:101D70006F64652E2E2E0041542B434D47463D3156
:101D80000041542B434E4D493D322C322C302C30E7
:101D90002C300041542B434D4744413D2244454C97
:101DA00020414C4C220041542B4346554E3D3100BE
:101DB00041542B4353434C4B3D3000534D53205221
:101DC000656164792E00687474703A2F2F3139334D
:101DD0002E352E34342E3139312F686F6D652F70CA
:101DE0006F73742F00756E6B6E6F776E00534D536B
:101DF0002066726F6D3A0054696D656F75742120AD
:101E000054727920616761696E2E002B434D543AFC
:101E100000436F6E6E656374696E6720746F204750
:101E20005052532E2E2E0041542B53415042523DBE
:101E3000332C312C22436F6E74797065222C22472B
:101E4000505253220041542B53415042523D332CA7
:101E5000312C2241504E222C22257322006D6369C1
:101E60006E65740041542B53415042523D312C3128
:101E7000004665746368696E672049502E2E2E00F7
:101E800041542B53415042523D322C31002B53418F
:101E90005042523A00526573703A002B53415042FF
:101EA000523A20312C312C002B2B2B0052657374AD
:101EB000617274696E672053494D3830302E2E2E72
:101EC0000041542B4346554E3D312C3100415400C6
:101ED00053494D38303020526561647921004154B6
:101EE0002B4353510D002B4353513A002B43535175
:101EF0003A20256400415445300D004353513D259F
:101F00007520202020202020202020005369676E8B
:101F1000616C204F4B202020202020200057616939
:101F200074696E672E2E2E202020202020004D6FF9
:101F300064756C6520496E69742E2E2E0053494DD0
:101F40003830302072657374617274204641494C98
:101F500021004353513D2575004154453000534DF8
:101F60005320496E6974204661696C65642100479D
:101F700050525320496E6974204661696C65642132
:101F8000000001002D4E414E00494E460000010068
:101F900002008C1C080004008E1C0C000005AF1C05
:101FA00003000C05BB1C0C000F05BE1C03001B0529
:101FB000BB1C14001E05CA1C03003205BB1C0C0010
:101FC0003505BE1C03004105BB1C03004405BB1CBA
:101FD0000C004705BE1C03005305BB1C1000560532
:101FE000081D0D006605181D0F007305251D0C004A
:101FF0008205BE1C03008E05BB1C0D009105181D3B
:102000000C009E05BE1C0300AA05BB1C0C00AD0500
:102010004A1D0300B905BB1C0C00BC05BE1C030017
:10202000C805BB1C1400CB05631D0A00DF05771D26
:102030001200E905811D1300FB05931D0A000E0621
:10204000A61D0B001806B01D0B002306BB1D1F00AC
:102050002E06C61D08004D06E51D0A005506ED1D9D
:1020600014005F06F71D060073060B1E16007906A6
:10207000111E1E008F06271E0D00AD06641E0F00E8
:10208000BA06711E0D00C906801E0800D6068D1EF8
:102090000600DE06951E0D00E4069B1E0400F106F8
:1020A000A81E1500F506AC1E0C000A07C11E030091
:1020B0001607CD1E03001907BB1C0E001C07D01EFF
:1020C00008002A07DE1E03003207BB1C0600350786
:1020D000E61E06003B07F51E03004107BB1C11006E
:1020E00044070C1F110055071D1F0F0066072E1F08
:1020F000150075073D1F05008A07591F03008F074C
:10210000CD1E110092075E1F1200A3076F1F010072
:102110001609821F0000F894EE27ECBBF1E0F5BF32
:10212000E5BFE0936C008DE0A2E0BB27ED938A95BC
:10213000E9F780E090E1A0E0B1E0ED930197E9F7E5
:10214000EEE8FFE185919591009761F0A591B59139
:1021500005901590BF01F00105900D920197E1F7F0
:10216000FB01F0CFEFEFEDBFE0E1EEBFC0E0D5E067
:102170000C94BF15EA93FA93EFB7EA931A930A9374
:102180001BB10CB1E12FEC7189F4E92D9394F0E0CF
:10219000E655F74F0083E4E6E91509F49924B39472
:1021A000E4E6EB1519F4BB24689421F80991199120
:1021B000E991EFBFF991E99118951A93BB20F1F3DA
:1021C000E82D8394F0E0E655F74F1081E4E6E8153A
:1021D00009F48824F894BA947894E12F1991089519
:1021E0001895AA9321970E94332200E010E0AF8156
:1021F000B0E0E8E0F0E00E94F021EE8330E0EE8114
:102200003E1750F520E0E8852E1720F5F8010F5F06
:102210001F4FA985BA85EA0FFB1F449150E0583043
:10222000B8F4E52F0E940220A42F0E94072071F02D
:10223000E22FAC85EA0FEA93E32FEE0FEE0FEE0FDD
:10224000AC85EA0FE50FAE2F0E94471A5F5FE7CF1C
:102250002F5FD9CF3F5FD3CF0E943A222D960895AA
:10226000BA93AA93EAEAFCE1FA93EA93EA81FB8142
:102270000E940C2084E00E94051D26962296089557
:102280001A935F9B02C01CB1FCCF0C94B716BA9393
:10229000AA930E94352200E010E020E030E00E9486
:1022A0001120E0E0EA93AB85BC850E94B21EEE816E
:1022B000FF812E173F0748F5E0E0EB1530F4E88585
:1022C000F98531970E171F070CF00EC0F8010F5F4C
:1022D0001F4FAA85BB85EA0FFB1FFF93EF936DDFAE
:1022E000AF91BF91EC93E8CF0E941120AE81BF81E6
:1022F0000E94FF1E309711F0E1E011C0A1E0B0E0B4
:102300000E949F212F5F3F4FD2CF0E941120AE81AC
:10231000BF810E94FF1EA0E0B0E00E94CF210E947A
:102320003C222C960895BA93AA932297D350E0E0CA
:10233000E883E9830E94332220E030E040E050E06F
:102340000E941620E0E7FAE00E941C208E2E9E2EAE
:10235000BB24E89421F8A0E0B5E00E942520E0ED40
:10236000F7E0FA93EA93ACE0B5E091DFE03059F49E
:10237000AFE0B5E00E9425200E943120ABE1B5E03E
:1023800086DFE0E0DDC0AEE1B5E00E9425200E94DE
:102390003120A2E3B5E07BDFE03059F4A5E3B5E0FE
:1023A0000E9425200E943120A1E4B5E070DFE0E02A
:1023B000C7C0FE013896FA93EA93EEEDFCE1FA937A
:1023C000EA93FE01E25FFC4F0190F081E02D0E9454
:1023D0000C20FE01E05FFC4F0190F081E02D0E9497
:1023E0000C2088E00E94D71C2C96FE01E85FFD4F70
:1023F000FA93EA93E1EFFCE1FA93EA93FE013C964B
:102400000E940C200E943620DE01A85FBD4F0E9472
:102410002520E0EDF7E0FA93EA93A4E4B5E037DF96
:10242000E03059F4A7E4B5E00E9425200E94312055
:10243000A3E5B5E02CDFE0E083C0E0E08E2E9E2E29
:10244000BB24A6E5B5E00E942520E8E8F3E1FA9375
:10245000EA93A6E6B5E01BDFE03089F40E9416207F
:10246000A3E7B5E00E943B20A2E8B5E00E9425204A
:102470000E943120AEE8B5E00ADFE0E061C0FE0175
:10248000E85FFE4FFA93EA93A1E9B5E00E94FF1ED0
:102490008F0100240016010621F11A930A93E4E348
:1024A000FDE1FA93EA93EDB7FEB731970E940B2254
:1024B0003F932F93EDB7FEB731970E940B225F93A6
:1024C0004F93FE0172960E940C208CE00E948D1E9C
:1024D00060964F915F912F913F91E330A0E0FA0712
:1024E00059F0AEE9B5E00E9425200E943120AAEA09
:1024F000B5E0CDDEE0E024C0ADEAB5E0B1DEE0E07D
:102500008E2E9E2EBB24FE01E85FFE4F0E944120CE
:10251000E8EBFBE0FA93EA93A9EBB5E0B8DEACEBAD
:10252000B5E00E9425200E943120A8ECB5E0AFDE86
:10253000E8ECF0E0E417F50711F4E1E001C0E0E0B9
:102540000E943A222C96DD5F0895639783E1A0E014
:10255000B0E0E6E9FCE10E9441221A930A9300E010
:102560000330D0F5E5B3E760E5BB15B2E02FF0E04E
:10257000DE015296AE0FBF1FEC91A1E00E944820F1
:10258000E5BB10E0143030F50E944D20A12D0E94D3
:102590000720F1F4AAE0B0E00E949F210E944D20A4
:1025A000A12D0E940720A1F40E944D20A12D0E9480
:1025B0000720D1F3A3E01A9FF001DE011296AE0FBF
:1025C000BF1FEE27A00FBE1FEC9119810881D5C255
:1025D0001F5FD8CF0F5FC4CFE0E019810881CDC263
:1025E000BA93AA9364970E94352228EE33E0E88DCF
:1025F000F98DE130A0E0FA0711F412E00DC0E230ED
:10260000A0E0FA0711F413E007C0E330A0E0FA07F6
:1026100011F414E001C033C0FE013496FA93EA933A
:10262000E6E5FDE1FA93EA93EC8DFD8D0E94CA2167
:102630000E9456200E94BD17EAE0EA93E4E1EA9383
:10264000DE0116960E94361B13B0E12FA1E00E9416
:10265000B121E129E3B9819904C0002402160306DF
:102660000CF007C0A1E0B0E00E949F212150304053
:10267000F2CF13B0E12FA1E00E944820E3B90E94FD
:102680003C226A9608950E941620ABECB5E00E94A9
:10269000361BAFEDB5E00E945920A9EEB5E00E94CF
:1026A0005920ABEFB5E0DCDD0E945F20AEE0B6E084
:1026B0000E945920A8E1B6E00E9459200E946320A0
:1026C000A3E2B6E00E94361B0E945F20E1E008957D
:1026D000A3970E9433220EE216E020E030E040E0B3
:1026E00050E0E2EEF7E00E946820E0E0F0E00E94B7
:1026F0006820EEA1FFA1309739F0FE013696FA93DB
:10270000EA93A8A5B9A506C0FE013696FA93EA9306
:10271000ADE4B6E00E94C21E0E941620A5E5B6E018
:102720000E94361B0E946320DE0118960E947120D1
:10273000A6E4B8E00E94361B0E945F20A6E4B8E041
:10274000D19749F0A6E4B8E0D29729F0A6E4B8E022
:10275000D39709F063C01A930A93DE011896E3DD5C
:10276000E03009F454C00E941620E0E7F6E00E9431
:102770001C20EA93E0E2EA93E0E7FAE10E94782085
:10278000E0E4EA93EAE2EA93A6E4B8E00E94361BAA
:10279000E0E0E8A740E050E0483CE0E05E075CF4A1
:1027A000D4DEE8A7E03039F4AAE0B0E00E949F212F
:1027B0004F5F5F4FF1CFE8A5E03069F40E94BD178D
:1027C000EAE0EA93E9E1EA93AFE5B6E00E94361B5E
:1027D000A8ECB0E019C0E6E4F8E0A8A5B0E0EA177C
:1027E000FB0751F40E94BD17E0914608F0E0F09716
:1027F0009F01D901F5DE0AC00E941620E0E7F2E150
:102800000E947820ACE2B1E00E949F2106C00E94A5
:102810001620E0E7F6E10E947F2006C00E94162005
:10282000E0E7FEE00E947F20E89420F80E943A2230
:10283000A99608951A93E0E0EB1510F420FE01C06C
:1028400058C0BBDC1E2FE0910E09E03071F51A3044
:10285000D9F4E0910F09F0E0EE51F84FA0E0A08329
:10286000E2EEF7E0FA93EA93A3E7B6E00E94FF1ED8
:10287000309731F0E1E0E0930E09E0E0E0931009D9
:10288000E0E0E0930F0910C01D3071F0A0910F0936
:10289000A33650F4E0910F09EF5FE0930F09E15088
:1028A000F0E0EE51F84F108323C01A3089F4E09124
:1028B0001009F0E0EA5BF74FA0E0A083689420F8ED
:1028C000E0E0E0930E09E0930F09E093100910C0D7
:1028D0001D3071F0A0911009A33650F4E091100959
:1028E000EF5FE0931009E150F0E0EA5BF74F1083EF
:1028F000A2CF0C94B716EF97EF9768970E94162017
:10290000A9E7B6E00E94361BAFE8B6E00E948A2035
:10291000FE01EC59FF4FFA93EA93E5E4FEE1FA93E6
:10292000EA93EDE5FEE10E940C200E943620DE01D4
:10293000AC59BF4F0E948A20ADEAB6E00E948A20BF
:102940000E941620AAEBB6E00E94361BA9ECB6E066
:102950000E949020E4E6F0E0FA93EA93E8ECF0E0DD
:10296000FA93EA93A6EDB6E092DCE03081F10E94A2
:102970006320AEEDB6E00E947120DE0112960E9447
:10298000361BA8ECB0E00E949F21FE01FA93EA9367
:10299000A4EEB6E00E94FF1E3097C9F02297FE0118
:1029A00032960E949620E0E0F0E00E949620E881B6
:1029B000F981309759F0E2EDF7E0FA93EA93AA81B2
:1029C000BB810E94C21EE1E0229602C02296E0E096
:1029D000EF96EF9668960895EF97EF972297A8EEF7
:1029E000B3E00E949F214CDCA1EFB6E00E94592089
:1029F0000E941620A5EFB6E00E94361B41DCAAE03B
:102A0000B7E02EDC0E949F20A6E1B7E00E94902054
:102A1000E0E8F0E0FA93EA930E943120A9E1B7E000
:102A200036DCE03041F00E941620ACE1B7E00E94B5
:102A3000361BE1E001C0E6CFEF96EF9622960895AF
:102A4000D1501A930A9303E610E01ADCAAE2B7E029
:102A500007DCFE0132960E944120ECEDF5E0FA938E
:102A6000EA93A2E3B7E013DCE03039F12297FE01EC
:102A70003496FA93EA93A5E3B7E00E94FF1EE88339
:102A8000F9833097C9F0FA93EA93ECEEFEE1FA93FA
:102A9000EA93EDB7FEB731970E940B221F930F9375
:102AA00084E00E948D1E28960F911F91E130A0E0D6
:102AB000FA0711F003E610E02296112322F000320B
:102AC000E0E01E070CF002C0E02F01C0E3E6198130
:102AD00008812296DF5F0895AA936497AC89A0329B
:102AE00010F0EFE1EC8BA097CBDBABE3B7E00E94FB
:102AF0009020E0E2F0E0FA93EA93E0E9F1E0FA9363
:102B0000EA93A1E4B7E0C3DBA096219799DFE883BD
:102B1000FE013196FA93EA93EBEFFEE1FA93EA9322
:102B2000EC81FF27662777270E945620E0E0EA9392
:102B3000EA93DE0113960E94361BA881A33619F092
:102B4000ED89EA1708F00BC0E0E0EA93E8E0EA93C9
:102B5000A4E4B7E00E94361BE1E021960EC0E0E05D
:102B6000EA93E8E0EA93A5E5B7E00E94361BACEBF8
:102B7000B2E00E949F212196C8CF6596089566977E
:102B8000E0E0EABBEBBBE7BBE0EFE8BBE7E0E4BBC0
:102B9000E0EFE5BBE0E0E1BBE2E0E2BBECE3E2B9A1
:102BA000E0E0E3B9E0936100E0936200E093640049
:102BB000E0936500E0BFE7E0E3BFE0E0E2BFE1BF34
:102BC000EFBDEEBDEDBDECBDE7BDE6BDEBBDEABDC5
:102BD000E9BDE8BDE0937900E0937800E5BDE4BD90
:102BE000E3BDE0938B00E0938A00E0938900E093DB
:102BF0008800E0938100E0938000E0938700E093F9
:102C00008600E0938500E0938400E0938300E093E6
:102C10008200E1E0E7BFE0E0E0937D00E0936A003E
:102C2000EABFE9BFEBB9E8E9EAB9E6E0E09395006D
:102C3000E0E0E0939000E3E3E9B9E0E0E0939A009C
:102C4000E0E8E8B9E0E0E0BDE6B9EDB9E093740092
:102C5000E0E8E4BFE4BFECE8F0E0E88BF98BE0E00B
:102C6000EA8BEB8BEC8BED8BDE01509607D1ECE819
:102C7000F0E00E94A32078940E941620A6E6B7E018
:102C80000E943B20A9DEE03039F40E946320A5E7D2
:102C9000B7E00E94361BFFCFA4EFB1E00E949F2156
:102CA000CFDE1E2F6AD1FE01FA93EA93E2E5FFE13F
:102CB000FA93EA93E12FFF27662777270E94562091
:102CC000E0E0EA93EA93DE0112960E94361BA8EE3A
:102CD000B3E00E949F21A5E0FFDEAAE8B7E0C0DADA
:102CE0000E949F20AFE8B7E0BBDA0E949F20CBDCB8
:102CF000E03039F40E946320A2E9B7E00E94361B5D
:102D0000FFCFF9DDE03039F40E946320A3EAB7E099
:102D10000E94361BFFCF0E941620E0E7F2E0FA93F4
:102D2000EA93E0E8EA93A0E45CDA84DD20FCD0DCFE
:102D3000FCCFFFCF0000E0916200E061E093620011
:102D400000000895E0916200EF7E0E94A820EF7DD0
:102D50000E94A820EF7BE093620008951A93EADFB7
:102D600019B3E0916200EF7EE0936200E12F1991C8
:102D70000895AA931A930E94AD20EB7FE09362001E
:102D8000E981EF5F1E2F10FF04C0E0916200E06256
:102D900003C0E0916200EF7DE093620011FF04C088
:102DA000E0916200E06403C0E0916200EF7BE09399
:102DB0006200D4DFE078E9F718815EC0AA93A981A8
:102DC000D8DFE09162000E94B32056C0E091120962
:102DD000EA93E0911109EF73E064AE2FEFDFE09129
:102DE0001209EA93E0911309E86BAE2FE7DF08952B
:102DF000AA93E981E0931109E295EF70E695E695D3
:102E0000E0931209E881E0931309E0DF35C0A09157
:102E10001109AF5FA0931109A03818F0E0E0E0932A
:102E20001109E0911109EF7331F4E0911109EA936E
:102E3000A0911309DDDF0895AA93A091120999DFEB
:102E4000E0916200E4600E94A8200E94B3200C94EC
:102E50005D1BA09112098DDF0E94AD20E460E0931C
:102E600062007CDF0895AA93E981EA93E9810E94D8
:102E7000BE20EFDFABDFEDDF22960895BA93AA9371
:102E80001A93E0916100E0610E94C420E8600E9412
:102E9000C420E4600E94C420E068E0936100E091F7
:102EA0006200E068E0936200E0916100E0620E94ED
:102EB000C420E064E093610045DFE0916200EF77B9
:102EC000E09362000E949F20E0916200E068E0933E
:102ED000620010E0123040F41A93AFE36FDF1A93F0
:102EE0001395A0EC6BDFF6CFE1E0E093B507E0E0EF
:102EF000E093B607E981FA813097A9F0A981BA81F8
:102F00000E9403220E94A320A981BA8112960E94E6
:102F10000322E093CE07F093CF07A981BA811496DC
:102F20000E9403220AC0E0E0F0E00E94A320E0E05B
:102F3000F0E0E093CE07F093CF07E093D007F09353
:102F4000D107E1E0E093BB07E093BC07E093BD0746
:102F5000EFEFE093BE07E1E0E093C507E6ECF7E0B2
:102F6000FA93EA93EFEFEA93A8E0B0E00E94B21E72
:102F700004D0E1E01881239608950E94352200E0F4
:102F800030E0E091B607E03009F00FEF383078F428
:102F9000E0E0EA93A32F3F5F2BDF10E0A12F1F5F3C
:102FA000A03820F4A02F0E94C920F8CFEFCFE0E096
:102FB000EA93A0E01DDFE0E0EA93A0E06CD30E947A
:102FC0003C2224960895AA931A930A93AC81A038C0
:102FD00018F4AB81A03408F016C0EC81EA93AC8100
:102FE00042DF1E2FF3DEEB81E770A1E00E94B121EA
:102FF0000E2FEA81E03011F0102B03C0E02FE09596
:103000001E23A12F19DF1981088125960895AA93FF
:103010001A93ED81EA93AD8126DF1E2FD7DEE98179
:10302000E73011F0E83039F4EB81EA93AA810E948D
:10303000791FEB8308C0E33021F4EB81E095EB834B
:1030400002C0E03021F4EA81E0951E2302C0E230A4
:1030500029F4EA81AB81EA231E2B0EC0E13029F46A
:10306000EA81AB81EA231E2707C0E43029F4EA8114
:10307000E095AB81EA2B1E23A12F0E94C920188165
:1030800026960895AA9323970E943322A889A038F0
:1030900048F4AF85A03430F4AE85A03019F0AD858A
:1030A000A03009F4C6C1EE85E887A889BB27EE8564
:1030B000F0E0AE0FBF1FA138E0E0BE0720F0A88906
:1030C000E0E8EA1BEE872D85AF85BB27ED85F0E0B4
:1030D000AE0FBF1FA134E0E0BE0720F0AF85E0E4F3
:1030E000EA1BED87A985A63009F05BC0EC85E130CD
:1030F00009F49FC1E33039F4E091D007F091D10792
:10310000309709F496C10885ED85E695E695E69534
:103110003E2FE22FE77019F4AD852A17E9F0A02FB2
:10312000BB27E32FF0E00E94D521AA85BB850E9432
:10313000CD20269526952695532F5F935F5FE22F2E
:10314000AF91EA1748F0102FE12F1150E03019F03D
:103150000E94D220F9CFF1CFAE850A1711F1EE858A
:10316000AA85BB85F0E00E94CD20ED85E77009F0CF
:103170003F5F20E02F932F5FE32FAF91AE1788F4CE
:103180001E851F931F5FE02FAF91AE1718F40E94AA
:10319000D220F7CFEE85AE81BF81F0E00E94CD2036
:1031A000E9CFEF85E7703E2FED85E03009F441C1AE
:1031B000EA85FB85EE83FF8310E00889303009F053
:1031C00065C0AD85A83008F45CC0E985E03011F039
:1031D000E33009F402C0E73009F402C0E83009F432
:1031E00002C0E63009F402C0E93009F402C0EA3056
:1031F00021F40A93E8890E94BE201F931F5FEE8589
:10320000AF91AE17B8F5A985A63061F422DEDEDDF8
:103210000E94DF20FA93EA931CDEAE2F0E94C01FAB
:10322000F6DD27C0E985E93011F450E00EC0EA3040
:1032300011F45FEF0AC00E94DF200E94E8205E2F99
:10324000E985E73011F0E83021F40E94EE205E2F8E
:1032500006C0E33011F4509502C0E03021F4A52FF0
:103260000E94C92006C00E94F220EFEFEA93AD85CC
:10327000CEDEC3CFEF85E85FEF87ED85E850ED87C1
:10328000CFC05D8520E0E0E0ED877AC0E32FAD851B
:10329000AE0FA93020F42D85E0E0ED8703C0E8E013
:1032A000E31B2E2F3A93A22F0E946E1F4E2FE9850B
:1032B000E630F1F41F931F5FEE85AF91AE17B8F4BF
:1032C0000E94F820AE2FE32F0E94B9210E94FF2018
:1032D000E32FA42F0E94B921E095E1215E2B0E94EB
:1032E000DF20FA93EA93A52F0E94C01FE3CF2CC0E2
:1032F000E93011F450E003C0EA30A9F45FEF0E9416
:10330000EE20AE2FE32F0E94B1215E2F1F931F5F8F
:10331000EE85AF91AE1730F40E94F2204A93A0E000
:1033200076DEF4CF11C01F931F5FEE85AF91AE170D
:1033300058F40E940A21AE2FE32F0E94B121EA9394
:103340004A93AD8564DEEFCFED85E03009F471C0BE
:10335000AD85A83028F4ED85E21B5E2FE0E003C0C8
:10336000532FED85E850ED8710E0EF85E85FEF879C
:10337000E8E0E31B2E2F0889EA85FB85EE83FF83B7
:10338000E52FF0E0E059F34E4491E985E630E1F4B1
:103390001F931F5FEE85AF91AE17A8F40E94F8202F
:1033A000AE2FE22F0E94B1210E94FF20E22FA42F16
:1033B0000E9448205E2B0E94DF20FA93EA93A52FFB
:1033C0000E94C01FE5CF2CC0E93011F450E003C0CB
:1033D000EA30A9F45FEF0E94EE20AE2FE22F0E94A8
:1033E000B9215E2F1F931F5FEE85AF91AE1730F4AA
:1033F0000E94F2204A93A0E00ADEF4CF11C01F938E
:103400001F5FEE85AF91AE1758F40E940A21AE2FD0
:10341000E22F0E94B921EA934A93AD85F8DDEFCF00
:10342000E885AA85BB85F0E0EA0FFB1FEA87FB87EA
:10343000BBCE0E943A22619608950E94172124F083
:10344000E0E0F0E00C94771FA881B981A038E0E0BB
:10345000BE0724F0EFE7F0E00C94771FE881F981D4
:103460000C94771F0E94172124F0E0E0F0E00C9408
:10347000771FA881B981A034E0E0BE0724F0EFE314
:10348000F0E00C94771FE881F9810C94771FAA93E0
:10349000E981EA93E981EA93A091B50794DD0C9460
:1034A000771FBA93AA9323970E941E218F01002EA3
:1034B000012A19F4E0E0F0E05FC00E9425210F82AC
:1034C0000E9425210E820E9425210886EB85A88571
:1034D000EA1718F4E0E0F0E04FC0F8010F5F1F4F6B
:1034E0005491A885BB27EE27A50FBE1FEB85F0E002
:1034F000EA17FB0718F0E0E0F0E03EC0EE81E69549
:10350000E695E6954E2FEE81E77009F04F5FEF816B
:10351000E030A1F0A985BA85EC93A885EB85EA1B7C
:10352000F0E0DF01EF81F0E00E94D521DF01E42F20
:10353000F0E00E94D521E00FF11F1EC09801E52F99
:10354000F0E00E0F1F1FA885AF5FA887A150EB8585
:10355000AE1760F4F9012F5F3F4FA491B0E0E42F64
:10356000F0E00E94D5210E0F1F1FEDCFF901E4916D
:10357000A985BA85EC93F8010E943A222C96089509
:10358000E0E0E093B707A091B807BB270E942A218B
:10359000F0E0AE0FBF1FE091BC07F0E0AE0FBF1F21
:1035A00061DFE093B8070895AA9321970E941E2136
:1035B000309709F455C0AF81AA3009F44FC0EF81AC
:1035C000EA93DE0117966DDFAF01309709F44AC028
:1035D000E091BB07AE81EA0F3E2FA091B707BB2752
:1035E000F0E0EA0FFB1F8F010138E0E01E0718F042
:1035F000032F1127C5DFE091B707EA93E091B807E1
:10360000EA93E885EA930E942A21EA93E1E0EA93AB
:103610005A934A93A7E036DDE091B707AE81EA0FEF
:10362000EA93E091B807EA93E091BB07EA930E941E
:103630002A210E943121E091B707EA93A091B807AF
:103640000E942A21EA0FEA933A93E091BC070E9474
:103650003121E0E8F0E0E017F10711F491DF02C05A
:103660000093B7070E943A2228960895BA93AA9326
:103670001A93EC81EA93AC810ED0A981BA81ED91C5
:10368000A983BA831E2FE03019F0A12F8DDFF5CF6B
:1036900018810C94C01EAA93A981BB27CEDEE093AB
:1036A000B707A881BB27DEDEE093B8070C94771F2D
:1036B000AA935D9BFECFE881ECB921960895BA9359
:1036C000AA93AA81F5DFA881B9810E943B210C94BD
:1036D000BE1FBA93AA931A930A93AA81BB8112962A
:1036E0000E940322309729F1AA81BB8114960E947F
:1036F00003228F01309761F00230E0E01E0780F076
:10370000F80131978F01AA81BB811496ED93FC9348
:10371000AA81BB8112960E943B213197AC81A08384
:10372000AA81BB810E940322FF2312F00E943B2149
:1037300006C0AA81BB81EFEFFFEFED93FC931981E7
:1037400008810C94C01EBA93AA9326970E94332234
:1037500010E0AC85BD85E0E0F0E0ED93FC93EA89F4
:10376000FB893196EA8BFB8B3197E4912E2FE03069
:1037700009F415C1E12FE03039F4253211F411E0DC
:1037800002C00E9441210AC1E130A9F4253219F496
:103790000E94412102C112E040E000E02D3211F40C
:1037A00001E0FCC02B3211F44BE2F8C0203211F4DE
:1037B00040E2F4C002C0E23039F450E013E02033BC
:1037C00011F40068EBC003C0E33009F0E7C0203318
:1037D00010F02A3308F007C0AAE05A9F502DE22FBC
:1037E000E0535E0FDBC0E22FE33649F40E9448212C
:1037F000E889F989A481AA930E944E21CEC0E337BB
:1038000041F40E9448210E9454210E94CF1E1E2F85
:103810000AC0E03761F40E9448210E9454210E94AE
:10382000DB1E1E2F086002600F7730E034C0E436E4
:1038300011F0E93611F4046002C0E53731F4EAE72B
:10384000FCE1EE83FF8315E00CC0E83511F408605D
:1038500003C0E83709F0A1C0E4E8FCE1EE83FF8390
:1038600014E002FF14C00E9448210E945E21AB8533
:10387000AA233AF4EA85FB850E94AD21EA87FB87FB
:103880004DE2403011F01F5F01C00B7F04C00E9469
:1038900048210E945E2100FD11C0151778F407FF32
:1038A00008C002FF04C00B7F242F115001C020E389
:1038B00001C020E20E9441215150EFCF312F01FF82
:1038C00017C03030A1F003FF06C0EE81FF812591C3
:1038D000EE83FF8305C0AE81BF812D91AE83BF8390
:1038E0000E944121503009F051503150EACF4BC075
:1038F00020E3EE81FF810E940722E887F987EE81AD
:10390000FF813296EE83FF83E885F985AA85BB8522
:10391000AE17BF0750F02F5FA885B985EA85FB85F4
:10392000EA1BFB0BEA87FB87EFCF2A3328F003FF64
:1039300002C0295F01C0295D04FD1AC0213320F4B3
:10394000A885B985119709F409C0531710F000FF35
:1039500001C013C020E207FF0BC020E3006102FF9B
:1039600007C00B7F4A930E944E21503009F05150FE
:103970000E944121503009F051503150A885B9853D
:10398000129708F0B5CF00FF08C0503031F0515009
:10399000E0E2EA930E944E21F8CF10E0E0CEAC8541
:1039A000BD850E9403220E943A2264960895FF92E8
:1039B000F82E26970E9435220E946621309719F42E
:1039C000EFEFFFEF1DC0DE0116960E94A9218D01C9
:1039D0000E946621EE83FF83E0E0E887E987DE014D
:1039E0001A960E946D21E9E6FBE1FA93EA93DE0163
:1039F0001A96A9DE9F01AE81BF81E0E0EC93F90148
:103A00000E943C222A96FF900895FF92F82E269756
:103A10001A930A93DE0114960E94A9218D01E0E019
:103A2000EC83ED83EE83EF83DE0118960E946D2117
:103A3000EFE5FBE1FA93EA93DE01189684DE198143
:103A400008812896FF900895BA93AA931A93A981A2
:103A5000BA81E0E0EC93AB81BC81EC911E2FE030A9
:103A600019F0E0E0EC9316C0A981BA8111960E948A
:103A70000322309771F0E981FA81A181B281EC9142
:103A80001E2FE03029F0A981BA8111960E943B21B6
:103A900001C010E0E12F188173C1FF92BA93AA937D
:103AA00024970E943322E0E0F0E0E887F9874E2F68
:103AB000E889F9893196E88BF98B3197E4913E2FAB
:103AC000E03009F423C10E947621C1F0EDB7FEB7C2
:103AD000FA93EA934F930E947B214F913E2FE0305F
:103AE00019F00E94762109F407C00E9481211CF47C
:103AF000EFEFFFEF0DC1EACF432F07C1353209F0D9
:103B0000ECC050E0E889F9893591E88BF98B3033C6
:103B100010F03A3308F007C0AAE05A9F502DE32F67
:103B2000E0535E0FEFCF303009F4F0C0EDB7FEB7D1
:103B3000FA93EA934F930E947B214F912E2FAE2F41
:103B40000E94E81FE03039F00E9481211CF4EFEF61
:103B5000FFEFDEC0EBCF203009F4CFC0422F503052
:103B600009F45FEFE32FE33699F40E948621EDB765
:103B7000FEB7FA93EA934F930E947B214F91D801AD
:103B8000EC930E9481211CF4EFEFFFEFC1C09FC0B6
:103B9000E33741F50E948621E52F5150E030F1F0E6
:103BA000EDB7FEB7FA93EA934F930E947B214F91B2
:103BB0003E2FE03019F00E94762139F00E948121D9
:103BC0001CF4EFEFFFEFA4C009C01F930F930F5F2A
:103BD0001F4FE32FAF91BF91EC93DECFD801E0E010
:103BE000EC9375C06894F1F8E894F2F8E32FE436AA
:103BF00011F0E93619F4E894F1F802C0E53711F450
:103C00002AE008C0E83711F420E104C0E53209F4E5
:103C100064C07CC0E0E0EE83EF836894F0F8E52FA9
:103C20005150E03009F444C0EDB7FEB7FA93EA937F
:103C30004F930E947B214F913E2FE13238F40E9436
:103C400081211CF4EFEFFFEF63C017C0F1FC08C047
:103C50006894F1F83D3211F4F2F8E1CF3B32F9F219
:103C6000203131F4A32F0E94F31FE03031F009C05E
:103C7000A32F0E94DF1FE03021F4F0FC47C0432F48
:103C800017C0313610F0375505C0313410F03753B6
:103C900001C03053E22FAE81BF81F0E00E94D521F8
:103CA000DF01E32FF0E00E94CD20E894F0F8B7CFD9
:103CB0000E948621F2FE06C0EE81FF810E94AD21A6
:103CC000EE83FF83EE81FF81D801ED93FC93E885BD
:103CD000F9853196E887F98718C0EDB7FEB7FA93F2
:103CE000EA934F930E947B214F91E31771F00E945A
:103CF00081211CF4EFEFFFEF0BC0E885F9853097C9
:103D000019F4EFEFFFEF04C001C0D2CEE885F985CA
:103D10000E943A226296FF900895FF92F82E239710
:103D20001A930A930E949121309719F4EFEFFFEF55
:103D300014C0DE0111960E94A9218D010E949121DB
:103D4000EB83FC83DE0115960E946D21E4E2FDE128
:103D5000FA93EA93DE011896A0DE19810881259670
:103D6000FF900895BA93AA93B981A881109631F073
:103D7000FC81EB816A8161931197E9F7EB81FC810A
:103D800025960895BA93AA93E991F991A991B991C9
:103D9000CD0161916D936623E1F7FC010895BA931B
:103DA000AA93A991B991EE27FF276D91662311F08F
:103DB0003196FBCF0895BA93AA93AA27BB27E9911E
:103DC000F9910590002011F01196FBCFFD010895A7
:103DD000BA93AA93BB81AA816C91662361F0F981A1
:103DE000E881C895002029F031966015D1F7FD01D2
:103DF00004C01196F1CFEE27FF270C94DD1FBA9374
:103E0000AA93AA81BB81CD01E881F98171917723C1
:103E100011F4FC0109C06D916717C1F30196DC0133
:103E2000662391F7EE27FF270C94DD1FBA93AA9320
:103E3000BB81AA81882799276D91662349F0F98172
:103E4000E8810590002021F06015D9F70196F4CFA4
:103E5000FC01B3C0BA93AA931A930A93EC81FD8133
:103E6000309779F4E0911409F0911509309719F41D
:103E7000E0E0F0E02FC0E0911409F0911509EC8327
:103E8000FD830E9498210E94161FAC81BD81EA0F1C
:103E9000FB1FEC83FD83AC81BD81EC91E03041F4EC
:103EA000E0E0E0931409E0931509E0E0F0E012C0CF
:103EB0000E9498210E94E81E8F01309729F0D801B6
:103EC0000F5F1F4FE0E0EC93009314091093150966
:103ED000EC81FD811981088126960895AA93E881D5
:103EE000F0E0E059F34EA491E9810E94B1212296BD
:103EF0000895AA931A93E981E73011F0EA3019F492
:103F00001091B50709C0E93019F41091B60704C043
:103F1000E830A1F41091C507E091B607E03049F010
:103F2000103019F0EFEF188129C0EA81E09518816F
:103F300025C0103019F4E0E0188120C0EA81188112
:103F40001DC0BA93AA93EA81E13021F4E881F98196
:103F5000E49114C0E23029F4A881B9810E941222B0
:103F60000DC0E33041F4A881B981E091CE07F09112
:103F7000CF07099503C0A881B981EC9123960895D4
:103F8000AA93EB81E03029F4E881A981BA81EC930E
:103F900014C0E23031F4E881A981BA810E941E2266
:103FA0000CC0E33051F4E981FA81FA93EA93AA81D3
:103FB000E091D007F091D107099524960895AA932E
:103FC000E1E0F991F03310F0FA3308F0EE270895AC
:103FD000AA93E1E0F991F03229F0F93010F0FE30C7
:103FE00008F0EE270895AA93E1E0F991F05340F02C
:103FF000FA3038F0FF75F750FA3010F0F03108F071
:10400000EE270895A1E0B0E00E94C1210895B0E03C
:10401000EA23FB2330970895662777270E940D2215
:104020000895EA85FB85FA93EA9308950E94BD17E7
:10403000E0E0EA93EA930895FA93EA93E0E8EA93DA
:10404000A0E40E94F110E0E008950E943011FE010A
:10405000E85FFE4FFA93EA93E0E0F1E0FA93EA9327
:104060000895E8EEF3E0FA93EA93089584E00E945D
:10407000D71C289608950E94361BA4EFB1E00C943B
:104080009F21FA93EA93E0E0F1E0FA93EA9308952E
:104090000E94B121E095E121089513B2E12FF0E0F3
:1040A000DE011E96AE0FBF1FEC91ACCF0E940D2219
:1040B000DDCF0E943011A8EEB3E00C949F21A0ED5B
:1040C000B7E00C949F21E0E0EA93EAE0EA930895D8
:1040D000FA93EA93A6E0BDE10E942A1FEEA3FFA394
:1040E00008950E94361BE0E0EA93E4E1EA93089524
:1040F000FA93EA93E0E8EA93A0E20C94F110FA93C1
:10410000EA93E0E8EA93A0E40E94F110ACE2B1E0A7
:104110000C949F210E943011A6E9B0E00C949F21DD
:104120000E943011FE01FA93EA930895FA93EA93FC
:10413000A6E0BDE10E942A1FE883F9830895A4E662
:10414000B0E00C949F21E093B907F093BA0708956B
:10415000E0936200E09162000895E0E0EABBE09144
:104160006200E860F5CFE77FE0936200EFEFEABB23
:10417000E881EBBB0E949A160C94A216E695E69590
:10418000E695AE2F0C94F816E0936100E091610083
:1041900008950E941C170C940717EA0FFB1FEE836B
:1041A000FF830895EC85EA93EF81F8853196EF83DC
:1041B000F8873197FA93EA93A0E00C94C01FEC853E
:1041C000EA93EF81F8853196EF83F8873197089568
:1041D00066277727DF01CB010C94A11F5A93AA858C
:1041E0000C94791F0A930395E889EA935A930895EA
:1041F0000A930395A8890E943317E42308955E2F3C
:10420000EC85EA93AF81B885882799270E94A11F82
:104210001E2E08950A930395E889EA93EE85EA93A2
:10422000E985FA853196E987FA873197D1CFBA9334
:10423000AA93A881B9810E942F2208950E94332257
:10424000E091B907F091BA070895F8010F5F1F4F89
:1042500004900895E091B907F091BA073196E4917E
:104260000895EA93E0E0EA93E0E0F0E0FA93EA935D
:10427000A9E00C944218ED91FD913196FE93EE93D6
:1042800008952A93AD85BE85EF85F889099508952F
:10429000E889F9893497E88BF98B0895AD85BE8557
:1042A000EF85F88909950895A889B98914960E941F
:1042B0000322EE83FF83AE81BF810895A889B98967
:1042C00014960E940322EA87FB870895DE011C965C
:1042D0000E94A9210E94032208950E94A9210E9400
:1042E0000322FA93EA931A930A930895A32F0E9444
:1042F000E81FE0300895AC85BD85EE85FF85099502
:104300000895AA85BB85AC91A0300895EE85FF8500
:104310003497EE87FF87AE85BF8514960D911C916B
:104320000895DE0117960E94A9210E940322089594
:10433000EC81FD81FA93EA93AC81BD8108951096DA
:1043400039F0A89580ED97E00197F1F71197C9F73B
:1043500008950024AF0DB01D0895F195E195F0404A
:104360000895EE230E2EEA2F19F0EE0F0A94E9F7C6
:104370000895EE230E2EEA2F19F0E6950A94E9F738
:104380000895EE230E2EFD0121F0EE0FFF1F0A947B
:10439000E1F708956F2F660F660B762F0895EA17E1
:1043A000FB07E1E009F4EE270895FA9FF02DEB9F5B
:1043B000F00DEA9FE02DF10D08950024112490E105
:1043C000AA0FBB1F001C111C0E1A1F0A18F40E0E98
:1043D0001F1E01C0A1609A9599F7FD01D0010895B3
:1043E00004D0EBDF0EF4B9DF0895E894F7FF02C0C4
:1043F000B4DF6894B7FF06C0A095B095119600F899
:10440000039400FA0895ED91FC9111970895059099
:10441000F491E02D089560E070E07A936A93FA9346
:10442000EA930895E199FECFFF93FFB7F894AEBBEE
:10443000BFBBE09AEDB3FFBFFF910895E19B02C0BF
:10444000A895FCCF9FB7F894AEBBBFBBE09A8DB3E5
:10445000E81719F0EDBBE29AE19A9FBF0895002496
:104460000A160B0608955A934A933A932A931A937D
:104470000A9308955D814C813B812A8119810881CD
:104480000895AC0FBD1F05900D928A95E1F7089530
:00000001FF
