:060000000C943B120C946D
:1000060000000C9400000C9400000C9400000C946A
:1000160000000C9400000C9400000C9400000C945A
:1000260000000C9400000C9400000C9400000C944A
:1000360000000C9400000C9400000C9400000C943A
:1000460000000C9400000C9400000C9400000C942A
:1000560000000C9400000C9400000C9400000C941A
:1000660000000C9400000C9400000C9400000C940A
:1000760000000C9400000C9400000C9400000C94FA
:1000860000000C940000050720600000000000003E
:10009600005F00000007000700147F147F14242A65
:1000A6007F2A12231308646236495522500005033D
:1000B6000000001C2241000041221C00082A1C2AC4
:1000C6000808083E0808005030000008080808081C
:1000D600003030000020100804023E5149453E0021
:1000E600427F400042615149462141454B31181437
:1000F600127F1027454545393C4A49493001710967
:1001060005033649494936064949291E003636004F
:10011600000056360000000814224114141414146A
:1001260041221408000201510906324979413E7EF6
:100136001111117E7F494949363E414141227F4195
:1001460041221C7F494949417F090901013E41413C
:1001560051327F0808087F00417F41002040413F1F
:10016600017F081422417F404040407F0204027F05
:100176007F0408107F3E4141413E7F090909063E42
:100186004151215E7F0919294646494949310101F4
:100196007F01013F4040403F1F2040201F7F201825
:1001A600207F6314081463030478040361514945EE
:1001B6004300007F4141020408102041417F0000B6
:1001C60004020102044040404040000102040020B5
:1001D600545454787F48444438384444442038447E
:1001E60044487F3854545418087E090102081454B0
:1001F600543C7F0804047800447D40002040443D80
:1002060000007F10284400417F40007C04180478D9
:100216007C0804047838444444387C1414140808D0
:100226001414187C7C080404084854545420043FD1
:100236004440203C4040207C1C2040201C3C403058
:10024600403C44281028440C5050503C4464544CC4
:1002560044000836410000007F00000041360800D7
:1002660002010204027F4141417F000000000000BC
:100276000000000000000000000000000000000078
:100286008080000000000000000000000000000068
:100296000000808000000000000000000000000058
:1002A6000000000000000000000000000000000048
:1002B6000000000000000000000000000000000038
:1002C6000000000000000000000000000000000028
:1002D6000080800000000000000000000000000018
:1002E600000000000000000000000000E0E0000048
:1002F600060E1ABAE3C1000080C0E0B0F0F00000BC
:10030600FFFF00000000E0E0000000F0F000000049
:100316000000FFFF000020E0E00000000000C0C079
:1003260008181800F0F00000E0F03060E0800008E7
:100336000CECEC8C000000E0E00080E0E010F0F057
:100346000000000000E0F818F0E0000020E0E00007
:1003560000FFFF000080C0E0B070F080000000E009
:10036600E00C8EEEEC18F0F0000000000001010138
:10037600010101010101010101000101010100006A
:10038600000101090D0D0D0D0D2D3D3D090000006B
:100396000000010108080C0F070000000000070F0D
:1003A6000C080C0C070700000909090F07010101D9
:1003B6000101010101010101010101010101010028
:1003C6000000000000010101010108080C0F0700F0
:1003D600000001010101000101010101010101010A
:1003E6000101010101010100000000000000000000
:1003F60000000000000000000000000000000000F7
:1004060000000000000000000000000000000000E6
:1004160000000000000000000000000000000000D6
:1004260000000000000000000000000000000000C6
:1004360000000000000000000000000000000000B6
:1004460000000000000000000000000000000000A6
:100456000000000000000000000000000000000096
:100466000000000000000000000000000000000086
:100476000000000000000000000000000000000076
:100486000000000000000000000000000000000066
:1004960000000000000080800000C0C00018F8E0E6
:1004A600000000E0E080000008ECEC800000060E92
:1004B6003AF3E10100000000000000000000000027
:1004C6000000000000000000000000000000000026
:1004D6000000000000000000000000000000000016
:1004E6000000000000000000000000000000000006
:1004F60000000000000000000000000000000000F6
:1005060000000000000000000000000000000000E5
:1005160000000000000001010000010101010101CD
:1005260001050D0D0D090101010101010101010185
:1005360001010000000000000000000000000000B3
:1005460000000000000000000000000000000000A5
:100556000000000000000000000000000000000095
:100566000000000000000000000000000000000085
:100576000000000000000000000000000000000075
:100876000000000000000000000000C0C0000000F2
:10088600000000808000000000000000FCFC00006A
:10089600004040C0C0000000000000000000808052
:1008A6000000000000FCFC0000000000000000004A
:1008B60000000000000004FCFC0000008080000036
:1008C60000000000000000008080808000000080A2
:1008D6008080808080000000000000008080800012
:1008E6000000000000000000000000000000000002
:1008F600000000000C0C00000E0E08080F0F082860
:100906006868684F0F4040637F1C00000F0F0000AF
:100916000E0E08080F074040617F3F0868684F0FBA
:1009260000000000000F0F4040617F3F0000000004
:10093600003E7E604060603F1F00004F4F497B3F96
:100946000C0808080F0F0E0B0908090F0F08080BF3
:100956000B0C0C060F0D0908080C060F0D0F0F00E7
:100966000000000000000000000000000000000081
:100976000000000000000000000000000000000071
:100986000000000000000000000000000000000061
:100996000000000000000000000000000000000051
:1009A6000000000000000000000000000000000041
:1009B6000000000000000000000000000000000031
:1009C6000000000000000000000000000000000021
:1009D6000000000000000000000000000000000011
:1009E6000000000000000000000000000000000001
:1009F60000000000000000000000000000000000F1
:100A060000000000000000000000000000000000E0
:100A160000000000000000000000000000000000D0
:100A260000000000000000000000000000000000C0
:100A360000000000000000000000000000000000B0
:100A460000000000000000000000000000000000A0
:100A56000000000000000000000000000000000090
:100A66000000000000000000000000000000000080
:100A76000000000000000000000000000000000070
:100A86000000000000000000000000000000000060
:100A96000000000000000000000000000000000050
:100AA6000000000000000000000000000000000040
:100AB6000000000000000000000000000000000030
:100AC6000000000000000000000000000000000020
:100AD6000000000000000000000000000000000010
:100AE6000000000000000000000000000000000000
:100AF600000000000000000000000000C0C0000070
:100B0600000000000000000080800000FCFC0000E7
:100B160000000080808000000010B0A000000000EF
:100B260000004040C0C00000000000000000FCFCC7
:100B3600000000808000000000000000FCFC0000B7
:100B46000000000000000000004040C0C00000009F
:100B5600000000C0C000000080C0C0C0C00000008F
:100B6600000000000000000000000000000000007F
:100B760000000000000C0C00000E0E08080F0F0805
:100B86004868686F6F6868686F4F0000070F08084D
:100B96000C060F0D0B0F0C0808080F0F00000000C5
:100BA600000E0E08080F074040617F3F00000F0F40
:100BB60000004F4F697F3F00000000000F0F4040CC
:100BC600617F3F00000000000E0E08080F070000BE
:100BD6000E0E08080F0F08080B0F0C0C040400007B
:100BE60000000000000000000000000000000000FF
:100BF60000008080000000000000000000000000EF
:100C060000000000000000000000000000000000DE
:100C160000000000000000000000000000000000CE
:100C260000000000000000000000000000000000BE
:100C360000000000000000000000000000000000AE
:100C4600000000000000000000000000000000009E
:100C5600000000000000000000000000000000008E
:100C6600000000000000000000000000000000007E
:100C7600000001010000000000000000000000006C
:100C8600000000000000000000000000000000005E
:100C9600000000000000000000000000000000004E
:100CA600000000000000000000000000000000003E
:100CB600000000000000000000000000000000002E
:100F9600008080000000000000000000000000004B
:100FA600000000000000000000000000808000003B
:100FB600000000000000000000000000000000002B
:100FC600000000000000000000000000808000001B
:100FD600000000000000000080800000000000000B
:100FE60000808000000000000000000000000000FB
:100FF6000000808000008080000080800000C0C06B
:101006000018F8E0000000E0E080000002F6F400BE
:1010160000FFFF000080C0E0B070F080000000F02C
:10102600F0000000000020E0E0000080FF7F20329A
:1010360036F4E00000040CECEC040008ECEC800054
:101046000080C0E0B0F0F00000000000FFFF0000EC
:1010560060F39BFAF0000080FF7F203030F0E00064
:101066000003FFFC0000000000000000000000007C
:101076000000010100000101000001010000010162
:101086000101010101050D0D0D090101010101001B
:10109600000001010101000101010101010D0D091D
:1010A6000100000008080C0F070101010101010100
:1010B600010101010101010101010101010101011A
:1010C6000101000101010100000000000001010111
:1010D60001010101010101010101010101010101FA
:1010E60001010100000000000000000000000000F7
:1010F60000000000000000000000000000000000EA
:1011060000000000000000000000000000000000D9
:1011160000000000000000000000000000000000C9
:1011260000000000000000000000000000000000B9
:101346000000000000000000000000000000E0E0D7
:101356000000000000000000000000000000008007
:1013660080000000000000000000000000000000F7
:101376000000003878424343434360787840404059
:10138600787840607878447C3C000008F8F80000E3
:10139600707242467E380000000000F0F002060639
:1013A60000FCFC0000787C4CD8F8604042437B7B14
:1013B60063404040787840607878447C3C00000088
:1013C6000000787E467C78000008F8F800003F7F31
:1013D60040406030786C5C7C604040407878436385
:1013E6007B7B467C3C000000000000000000000003
:1013F60000000000000000000000000000000000E7
:1014060000000000000000000002020303010000CB
:1014160000000000000000000000000103030203BA
:1014260003010100000202020301000000000000A7
:1014360000000000000000000000000000000000A6
:10144600000000000000000202030301000000008B
:101456000000000000000000000000000000000086
:101466000000000000000000000000000000000076
:101476000000000000000000000000000000000066
:101486000000000000000000000000000000000056
:101496000000E0E000000000000000000000000086
:1014A60000000000000000000000000080808000B6
:1014B6000000000080800000000000000000000026
:1014C60080808080C0400000000000000000000016
:1014D600E0E0000000000000000000000000000046
:1014E60000000000000000000000000000000000F6
:1014F600000000000000606000003878424343436B
:1015060043607878404040787840607878447C3C06
:1015160000007F7F0000000000787E467C78000097
:10152600707040467E78404040787843637B7B42CB
:1015360078784040407D7D000000000038784040CB
:101546004143466E787040406030786C7C7C000089
:101556003F7F4040404078784040407C7C0000001F
:101566000000000000000000000000000000000075
:101576000000000000000000000000000000000065
:101586000000000000000000000000000000000055
:101596000000000000000000000000000000000045
:1015A6000000000000000000000000000000000035
:1015B6000000000000000000000000000000000025
:1015C6000000000000000000000000000000000015
:1015D6000000000203030303030B0F0F02000000C9
:1015E60000000000000000000000000000000000F5
:1015F60000000000000000000000000000000000E5
:1016060000000000000000000000000000000000D4
:1016160000000000000000000000000000000000C4
:1016260000000000000000000000000000000000B4
:1016360000000000000000000000000000000000A4
:101646000000000000000000000000000000000094
:101656000000000000000000000000000000000084
:101666000000000000000000000000000000000074
:101676000000000000000000000000000000000064
:101686000000000000000000000000000000000054
:101696000000000000000000000000000000000044
:1016A6000000000000000000000000000000000034
:1016B6000000000000000000000000000000000024
:1016C6000000000000000000000000000000000014
:1016D6000000000000000000000000000000000004
:1016E60000000000000000000000000000000000F4
:1016F60000000000000000000000000000000000E4
:1017060000000000000000000000000000000000D3
:1017160000000000000000000000000000000000C3
:1017260000000000000000000000000000000000B3
:1017360000000000000000000000000000000000A3
:101746000000000000000000000000000000000093
:101756000000000000000000000000000000000083
:101766000000000000000000000000000000000073
:10177600C0C0101818181800C0C0000000C0C00073
:1017860000C0C020E0E0000040C0C0000080901013
:1017960030F0C00000000000808010303000E0E033
:1017A6000000C0E060C0C000001018D8D8180000C3
:1017B60000C0C00000C0C020E0E00000000000C083
:1017C600F030E0C0000040C0C00000FFFF00000095
:1017D60080C060E0E000000000C0C0181CDCD8300B
:1017E600E0E0000000000000000000000000000033
:1017F60001030202020202030303020202030302BE
:101806000303030203011010181F0F000003030255
:1018160002030100000000000F1F181018180F0F18
:1018260000001313121E0F03020202030303020237
:101836000203030203030302030100000000000386
:10184600030203031010181F0F0000010302020316
:10185600010303020303020202030302030303025A
:10186600030100000000000000000000000000006E
:101876000000000000000000000000000000000062
:101886000000000000000000000000000000000052
:101896000000000000000000000000000000000042
:1018A6000000000000000000000000000000000032
:1018B6000000000000000000000000000000000022
:1018C6000000000000000000000000000000000012
:1018D6000000000000000000000000000000000002
:1018E60000000000000000000000000000000000F2
:1018F60000000000000000000000000000C0C01052
:101906001818181800C0C0000000C0C00000C0C0F1
:1019160020E0E00000FFFF0000000000C0F030E023
:10192600C0000080800030F0C0000000C0C0181C5D
:10193600DCDC10C0C0000004ECE800000000008001
:10194600901030F0C0000040C0C00000FFFF000053
:10195600C0E060C0C0000000000000000000000001
:101966000000000000000000000000000000000071
:101976000000000000000000000303000001030255
:101986000202020203030302020203030203030329
:10199600020301000003030000000000030302032A
:1019A600030000030302020303020202030302030D
:1019B6000303020303020202030300000000000304
:1019C60003020203011010181F0F0000030300009A
:1019D60013131A1F0F000000000000000000000093
:1019E60000000000000000000000000000000000F1
:1019F60000000000000000000000000000000000E1
:101A060000000000000000000000000000000000D0
:101A160000000000000000000000000000000000C0
:101A260000000000000000000000000000000000B0
:101A360000000000000000000000000000000000A0
:101A46000000000000000000000000000000000090
:101A56000000000000000000000000000000000080
:101A66000000000000000000000000000000000070
:101A76000000000000000000000000000000000060
:101A86000000000000000000000000000000000050
:101A96000000000000000000000000000000000040
:101AA6000000000000000000000000000000000030
:101AB6000000000000000000000000000000000020
:101AC6000000000000000000000000000000000010
:101AD6000000000000000000000000000000000000
:101AE60000000000000000000000000000000000F0
:101AF6000000000000000000000080802030303030
:101B06003000808000000080800000808040C0C0DF
:101B16000000FEFE000080C0C08080000000C0CC37
:101B26004C4840C08080000080808000000020205B
:101B360060E080000000000000202060E0800000DF
:101B4600FEFE000000000060E080000040C0C040D3
:101B560040C0C0000818D8D81000000000000000DF
:101B6600000000000000000000000000000000006F
:101B76000000000000000000000003070404040445
:101B860004060707040404070704060707040703F7
:101B96000000070700002727243D1F06040405054B
:101BA6000606030100002020303F1F00000707043F
:101BB60004070300000000000707040407030000F1
:101BC60007070000070704040707040404050706BF
:101BD60007050404040407070000000000000000D5
:101BE60000000000000000000000000000000000EF
:101BF60000000000000000000000000000000000DF
:101C060000000000000000000000000000000000CE
:101C160000000000000000000000000000000000BE
:101C260000000000000000000000000000000000AE
:101C3600000000000000000000000000000000009E
:101C4600000000000000000000000000000000008E
:101C5600000000000000000000000000000000007E
:101C6600000000000000000000000000000000006E
:101C7600000000000000000000000000000000005E
:101C8600B0B0A00000FEFE0000C0C0404040C080D2
:101C9600800000000080C0C0C000000000000000FE
:101CA6000060E0800000C0C0404040C0808000006E
:101CB600000000B0B0A00000FEFE00000000000022
:101CC600000000000080802038B8B8308080000016
:101CD60000008080000000C0C0000000000000007E
:101CE60000000000000000000000000000000000EE
:101CF600000000000000000000000000000020209E
:101D0600303F1F0000030704040505363623070687
:101D1600040404060307060707000000000007077F
:101D26000404070704040505060603010000000075
:101D3600002020303F1F0000070700000000003E83
:101D46003E606060203F3F04040707040707042441
:101D5600343437370434342707000000000000000D
:101D6600000000000000000000000000000000006D
:101D7600000000000000000000000000000000005D
:101D8600000000000000000000000000000000004D
:101D9600000000000000000000000000000000003D
:101DA600000000000000000000000000000000002D
:101DB600000000000000000000000000000000001D
:101DC600000000000000000000000000000000000D
:101DD60000000000000000000000000000000000FD
:101DE60000000000000000000000000000000000ED
:101DF60000000000000000000000000000000000DD
:101E060000000000000000000000000000000000CC
:101E160000000000000000000000000000000000BC
:101E260000000000000000000000000000000000AC
:101E3600000000000000000000000000000000009C
:101E4600000000000000000000000000000000008C
:101E5600000000000000000000000000000000007C
:101E6600000000000000000000000000000000006C
:101E7600000000000000000000000000000000005C
:101E8600000000000000000000000000000000004C
:101E96000000000000F8F8F8383838383838383894
:101EA60038383838383838383838383838383838AC
:101EB60038383838383838383838383838F8F8F85C
:101EC600000000000000000000000000000000000C
:101ED60000000000000000000000000000000000FC
:101EE60000000000000000000000000000000000EC
:101EF60000000000000000000000000000000000DC
:101F060000000000000000000000000000000000CB
:101F16000000000000FFFFFF0000000000000000BE
:101F260000000000000000000000000000000000AB
:101F360000000000000000000000000000FFFFFF9E
:101F4600000000000000000000000000000000008B
:101F5600000000000000000000000000000000007B
:101F6600000000000000000000000000000000006B
:101F7600000000000000000000000000000000005B
:101F8600000000000000000000000000000000004B
:101F96000000000000FFFFFF00000000000000003E
:101FA600000000000000000000000000000000002B
:101FB60000000000000000000000000000FFFFFF1E
:101FC600000000000000000000000000000000000B
:101FD60000000000000000000000000000000000FB
:101FE60000000000000000000000000000000000EB
:101FF60000000000000000000000000000000000DB
:1020060000000000000000000000000000000000CA
:1020160000000000000F0F0F0E0E0E0E0E0E0E0E1D
:102026000E0E0E0E0E0E0E0E0E0E0E0E0E0E0E0ECA
:102036000E0E0E0E0E0E0E0E0E0E0E0E0E0F0F0FB7
:10204600000000000000000000000000000000008A
:10205600000000000000000000000000000000007A
:1020660000000000000000000000000103070F1F31
:102076003F7FFF001027E80364000A0001000010FC
:102086000001100001003132333435363738392A31
:102096003023070506040001020025730D0A0053CC
:1020A600657474696E6720534D53204D6F64652EB9
:1020B6002E2E0041542B434D47463D310041542BB3
:1020C600434E4D493D322C322C302C302C300041C1
:1020D600542B434D4744413D2244454C20414C4CF2
:1020E600220041542B4346554E3D310041542B436B
:1020F60053434C4B3D3000534D5320526561647938
:102106002E00436F6E6E656374696E6720746F2070
:10211600475052532E2E2E0041542B5341504252BB
:102126003D332C312C22436F6E74797065222C223C
:1021360047505253220041542B53415042523D3393
:102146002C312C2241504E222C22257322006D6305
:10215600696E65740041542B53415042523D332CF5
:10216600312C2249646C652054696D656F75742243
:102176002C2230220041542B4349504B45455041B7
:102186004C4956453D310041542B43475245473D46
:10219600310041542B53415042523D312C310046BF
:1021A60065746368696E672049502E2E2E0041546F
:1021B6002B53415042523D322C31002B5341504259
:1021C600523A00526573703A002B53415042523ACC
:1021D60020312C312C002B53415042523A20312CC5
:1021E6003100475052532041637469766174696FB8
:1021F6006E004661696C6564210041542B48545455
:1022060050494E4954004F4B0041542B48545450AA
:10221600504152413D22434944222C310025733F0F
:1022260070686F6E655F6E756D6265723D257326AB
:1022360070726F3D25730041542B485454505041E1
:1022460052413D2255524C222C22257322004154E4
:102256002B48545450414354494F4E3D31002B486E
:10226600545450414354494F4E3A004E6F204163F7
:1022760074696F6E2052657370002B485454504138
:102286004354494F4E3A2025642C25642C2564007E
:1022960041542B48545450524541440041542B4814
:1022A6005454505445524D004D4F544F52202564BE
:1022B600204F4E2100687474703A2F2F3139332E17
:1022C600352E34342E3139312F686F6D652F706F8E
:1022D60073742F004D6F64756C6520496E69742E9A
:1022E6002E2E004154453000415400534D53204991
:1022F6006E6974204661696C6564210047505253CB
:1023060020496E6974204661696C656421002B431F
:102316004D543A004661696C656420746F2072659D
:102326006164206D73670054696D656F7574212053
:1023360054727920616761696E2E000001002D4E8E
:10234600414E00494E46000014000005A5200A0033
:102356001405B92012001E05C32013003005D52030
:102366000A004305E8200B004D05F2200B00580536
:10237600FD201600630508210B007905F2201E00DA
:1023860084051E212000A2055B211200C2057B21C7
:102396000B00D4058D210D00DF0598210F00EC05FB
:1023A600A5210D00FB05B42108000806C121060081
:1023B6001006C9210D001606CF211E0023061E2178
:1023C6000D00410698210D004E06B4210D005B0656
:1023D600B4210C006806DC2110007406E821080010
:1023E6008406F8210C008C060022030098060C22B5
:1023F60014009B060F220300AF060C220300B20650
:102406000C221000B50654220D00C50664220F00EA
:10241600D20671220D00E10664220C00EE06962219
:102426000300FA060C220C00FD06A222030009078F
:102436000C221F000C07BB220F002B07DA22050017
:102446003A07E92203003F07EE2211004207F12274
:1024560012005307022306006507142313006B07B7
:102466001A2314007E072D2301003808422300009A
:10247600F894EE27ECBBF1E0F5BFE5BFE0936C0006
:102486008DE0A2E0BB27ED938A95E9F780E090E125
:10249600A0E0B1E0ED930197E9F7EEE4F3E2859170
:1024A6009591009761F0A591B59105901590BF01A2
:1024B600F00105900D920197E1F7FB01F0CFEFEFE8
:1024C600EDBFE0E1EEBFC0E0D5E00C944715AA935E
:1024D60021970E944E2200E010E0AF81B0E0E8E0D4
:1024E600F0E00E940B22EE8330E0EE813E1750F5BD
:1024F60020E0E8852E1720F5F8010F5F1F4FA9850C
:10250600BA85EA0FFB1F449150E05830B8F4E52F26
:102516000E942A20A42F0E942F2071F0E22FAC8562
:10252600EA0FEA93E32FEE0FEE0FEE0FAC85EA0FFC
:10253600E50FAE2F0E94321A5F5FE7CF2F5FD9CF2C
:102546003F5FD3CF0E9455222D960895BA93AA9342
:10255600E0EAF0E2FA93EA93EA81FB810E943420F2
:102566000E942D1D26960C942517BA93AA930E94B5
:102576004E2200E010E020E030E0EC85FD850E9470
:102586003A20AD85BE850E94DA1EE885F9852E17AC
:102596003F07D8F45F9B12C00E944D1B5E2FEA8551
:1025A600FB8531970E171F0744F4F8010F5F1F4F85
:1025B600AC85BD85EA0FFB1F508306C0A1E0B0E0E5
:1025C6000E94C0212F5F3F4FE0CFEC85FD85FA9337
:1025D600EA93A885B9850E94271F309711F0E1E09C
:1025E60001C0E0E00E9455222E9608950E943F20E9
:1025F600A0E0B5E00E942B1BA4E1B5E00E944520B7
:10260600AEE1B5E00E944520A0E3B5E00E944B2074
:10261600A3E4B5E00E944520ADE4B5E00E94452064
:102626000E945120A8E5B5E00E945620E1E00895F9
:10263600EF97EF9768970E943F20A3E6B5E00E94C8
:102646002B1BA9E7B5E00E944520A4E8B5E00E944F
:102656004B200E945C200E946820A2EAB5E00E94FE
:102666004B20A2ECB5E00E944520A4EDB5E00E9407
:102676004520AFEDB5E00E944B200E943F20ACEE16
:10268600B5E00E942B1BABEFB5E00E946F20E8EC93
:10269600F0E0FA93EA93A8E0B6E067DFE030A1F154
:1026A6000E945120A0E1B6E00E942B1BE0E0EA93D5
:1026B600E4E1EA93DE0112960E942B1BA8ECB0E03F
:1026C6000E94C021FE01FA93EA93A6E1B6E00E94B9
:1026D600271F3097C9F02297FE0132960E94792073
:1026E600E0E0F0E00E947920E881F981309759F026
:1026F600E3E1F8E0FA93EA93AA81BB810E94EA1E1D
:10270600E1E0229615C0229612C0EF97EF976897E0
:10271600A3E2B6E00E944B200E945C200E94682043
:10272600A1E4B6E00E944B20AEE4B6E00FDFE0E0A5
:10273600EF96EF9668960895EF97A597ABE5B6E006
:102746000E946F20E8EEF3E0FA93EA93A8E6B6E07B
:102756000CDFE03089F4D9DFE03071F40E943F20CD
:10276600A4E7B6E00E942B1B0E945120A4E8B6E025
:102776000E948220E0E001C0E1E0EF96A596089570
:10278600AA932297D350E0E0E883E9830E944E2281
:1027960020E030E040E050E00E943F20E0E7FEE02D
:1027A6000E948820C9DFE03011F4E0E0BEC0ACE84A
:1027B600B6E00E948F20A8E9B6E0D7DEE03011F43B
:1027C600E0E0B3C0ABE9B6E00E948F20AFEAB6E026
:1027D600CCDEE03011F4E0E0A8C0FE013896FA93B2
:1027E600EA93E3E2F2E2FA93EA93FE01E15FFC4F39
:1027F6000190F081E02D0E949F20FE01EF5EFC4FCC
:102806000190F081E02D0E949F20FE01EC5EFC4FBE
:10281600E081FF27662777270E9428228CE00E9406
:10282600FF1C6096FE01E85FFD4FFA93EA93EDE325
:10283600F2E2FA93EA93FE013C960E9434200E944B
:10284600FF1C2896DE01A85FBD4F0E948F20A2EBD9
:10285600B6E08BDEE03011F4E0E067C0A5EBB6E051
:1028660075DEFE01E85FFE4FFA93EA93E0E0F1E0E1
:10287600FA93EA93E4EFF1E0FA93EA93A5ECB6E073
:1028860074DEE03041F40E943F20A2EDB6E00E94E3
:102896005620E0E04AC0FE01E85FFE4FFA93EA9355
:1028A600A1EEB6E00E94271F8F0100240016010644
:1028B60021F11A930A93E0E8F2E2FA93EA93EDB76C
:1028C600FEB731970E9426223F932F93EDB7FEB7AE
:1028D60031970E9426225F934F93FE0172960E94C3
:1028E6009F208CE00E94B51E60964F915F912F91BC
:1028F6003F91E330A0E0FA0711F0E0E016C0AEEE3B
:10290600B6E00E948F20AAEFB6E02FDEADEFB6E06C
:102916000E948F20A9E0B7E028DEE8ECF0E0E4179B
:10292600F50711F4E1E001C0E0E00E9455222D9682
:10293600DD5F0895639783E1A0E0B0E0ECE8F0E2A4
:102946000E945C221A930A9300E00330C0F5E5B3B7
:10295600E760E5BB15B2E02FF0E0DE015296AE0F60
:10296600BF1FEC91A1E00E94A420E5BB10E014304B
:1029760020F50E94A920A12D0E942F20E1F4AAE0B3
:10298600B0E00E94C0210E94A920A12D0E942F2004
:1029960091F40E94A920A12D0E942F20D1F3A3E03B
:1029A6001A9FF001DE011296AE0FBF1FEE27A00F91
:1029B600BE1FEC9105C01F5FDACF0F5FC6CFE0E008
:1029C6001981088165960895BA93AA9364970E941F
:1029D600502228E833E1E88DF98DE130A0E0FA07CE
:1029E60011F412E00DC0E230A0E0FA0711F413E092
:1029F60007C0E330A0E0FA0711F414E001C040C0BC
:102A0600FE013496FA93EA93EEEAF2E2FA93EA9337
:102A1600EC8DFD8D0E94EB210E94282284E00E940D
:102A2600FF1C28960E94A817EAE0EA93E4E1EA93DD
:102A3600DE0116960E942B1B13B0E12FA1E00E9427
:102A4600D221E129E3B9819B04C0002402160306C2
:102A56000CF007C0A1E0B0E00E94C0212150304038
:102A6600F2CF13B0E12FA1E00E94A420E3B9E0E089
:102A7600EA93EA93E0E7F6E00E9488200E94B220FB
:102A86000E9457226A96089526970CE017E0E0E028
:102A9600EABBEBBBE7BBE0EFE8BBE7E0E4BBE0EF9C
:102AA600E5BBE0E0E1BBE2E0E2BBECE3E2B9E0E09B
:102AB600E3B9E0936100E0936200EBB9E8E1EAB9BB
:102AC600E6E0E0939500E0E0E0939000E3E3E9B907
:102AD600E0E8E4BFE4BFECE8F0E0E883F983E0E097
:102AE600EA83EB83EC83ED83DE01AED1ECE8F0E024
:102AF6000E94B6200E943F20ABE2B7E00E942B1B4B
:102B0600A8EBBBE00E94C021AAE3B7E00E944B20DD
:102B1600AFE3B7E00E944B2069DDE03039F40E9454
:102B26005120A2E4B7E00E942B1BFFCF81DDE030ED
:102B360039F40E945120A3E5B7E00E942B1BFFCF7A
:102B46000E943F20E0E7F2E00E948820AA97E0E09A
:102B5600EAA3EBA3ECA3EDA3EEA3EFA3EFEAF7E062
:102B66000E943A20A4E6B0E00E94DA1EFE010E940E
:102B76003A20A0E2B0E00E94DA1E0E94BB20A4E642
:102B8600B0E00E94581B309709F4B7C00E94BB20E2
:102B9600A5E6B7E00E94271F309709F4AEC0FE01F4
:102BA600FA93EA93A0E2B0E00E94581B309741F4F2
:102BB6000E943F20ABE6B7E00E948220AA96C6CFCD
:102BC6000E94BB200E94C020E8A1F9A1309721F005
:102BD6000E94C7200E94C020E8A1F9A1309709F4FD
:102BE60086C0E3E2F8E0FA93EA93AAA1BBA10E94A9
:102BF600EA1EE881E9A7A9A5A13329F0A23319F0B5
:102C0600A33309F06CC0E9A5EEA31A930A93E3E295
:102C1600F8E0FA93EA93AAA5B3DDE03009F456C0CA
:102C26000E943F20E0E7FAE00E948820E0E0EA9375
:102C3600E0E2EA93E0E7FEE10E94CC20E1E4EA93D9
:102C4600EDE2EA93DE0198960E942B1BE0E0E8A7EE
:102C5600EAA3EBA3AAA1BBA1A83CE0E0BE0774F4DB
:102C660069DEE8A7E03051F4AAE0B0E00E94C02196
:102C7600EAA1FBA13196EAA3FBA3ECCFE8A5E030DD
:102C860061F463D1EAE0EA93E9E1EA93AEE7B7E0FB
:102C96000E942B1BA8ECB0E016C0E9A5A8A5EA1770
:102CA60051F453D1E9A5F0E0F097ECA3FDA3ACA154
:102CB600BDA18ADE0AC00E943F20E0E7F6E10E943D
:102CC600CC20ACE2B1E00E94C02108C00E943F20A7
:102CD600E0E7FAE10E9488200E94B22008C00E9424
:102CE6003F20E0E7F2E10E9488200E94B2200E9485
:102CF6003F20E0E7F2E00E948820AA9627CFFFCF88
:102D06000000E0916200E061E09362000000089537
:102D1600E0916200EF7E0E94D320EF7D0E94D320D7
:102D2600EF7BE093620008951A93EADF19B3E0910E
:102D36006200EF7EE0936200E12F19910895AA9355
:102D46001A930E94D820EB7FE0936200E981EF5F3F
:102D56001E2F10FF04C0E0916200E06203C0E09104
:102D66006200EF7DE093620011FF04C0E091620013
:102D7600E06403C0E0916200EF7BE0936200D4DF81
:102D8600E078E9F718815EC0AA93A981D8DFE091BF
:102D960062000E94DE2056C0E0913408EA93E0917A
:102DA6003308EF73E064AE2FEFDFE0913408EA9367
:102DB600E0913508E86BAE2FE7DF0895AA93E98125
:102DC600E0933308E295EF70E695E695E0933408D4
:102DD600E881E0933508E0DF35C0A0913308AF5FA6
:102DE600A0933308A03818F0E0E0E0933308E091B0
:102DF6003308EF7331F4E0913308EA93A091350874
:102E0600DDDF0895AA93A091340899DFE09162006E
:102E1600E4600E94D3200E94DE200C94561BA091F1
:102E260034088DDF0E94D820E460E09362007CDFE6
:102E36000895AA93E981EA93E9810E94E920EFDFE8
:102E4600ABDFEDDF22960895BA93AA931A93E09129
:102E56006100E0610E94EF20E8600E94EF20E460DC
:102E66000E94EF20E068E0936100E0916200E06874
:102E7600E0936200E0916100E0620E94EF20E0646E
:102E8600E093610045DFE0916200EF77E093620036
:102E9600A4E6B0E00E94C021E0916200E068E09301
:102EA600620010E0123040F41A93AFE36DDF1A931C
:102EB6001395A0EC69DFF6CFE1E0E0939207E0E03E
:102EC600E0939307E981FA813097A9F0A981BA8145
:102ED6000E941E220E94B620A981BA8112960E94E3
:102EE6001E22E093AB07F093AC07A981BA81149632
:102EF6000E941E220AC0E0E0F0E00E94B620E0E058
:102F0600F0E0E093AB07F093AC07E093AD07F093E6
:102F1600AE07E1E0E0939807E0939907E0939A07FC
:102F2600EFEFE0939B07E1E0E093A207E3EAF7E027
:102F3600FA93EA93EFEFEA93A8E0B0E00E94DA1E74
:102F460004D0E1E01881239608950E94502200E003
:102F560030E0E0919307E03009F00FEF383078F475
:102F6600E0E0EA93A32F3F5F29DF10E0A12F1F5F68
:102F7600A03820F4A02F0E94F420F8CFEFCFE0E095
:102F8600EA93A0E01BDFE0E0EA93A0E076D30E949C
:102F9600572224960895AA931A930A93AC81A038CF
:102FA60018F4AB81A03408F016C0EC81EA93AC812A
:102FB60040DF1E2FF1DEEB81E770A1E00E94D221F7
:102FC6000E2FEA81E03011F0102B03C0E02FE095C0
:102FD6001E23A12F17DF1981088125960895AA932C
:102FE6001A93ED81EA93AD8124DF1E2FD5DEE981A8
:102FF600E73011F0E83039F4EB81EA93AA810E94B8
:10300600A11FEB8308C0E33021F4EB81E095EB834D
:1030160002C0E03021F4EA81E0951E2302C0E230CE
:1030260029F4EA81AB81EA231E2B0EC0E13029F494
:10303600EA81AB81EA231E2707C0E43029F4EA813E
:10304600E095AB81EA2B1E23A12F0E94F420188164
:1030560026960895AA9323970E944E22A889A038FF
:1030660048F4AF85A03430F4AE85A03019F0AD85B4
:10307600A03009F4C6C1EE85E887A889BB27EE858E
:10308600F0E0AE0FBF1FA138E0E0BE0720F0A88930
:10309600E0E8EA1BEE872D85AF85BB27ED85F0E0DE
:1030A600AE0FBF1FA134E0E0BE0720F0AF85E0E41D
:1030B600EA1BED87A985A63009F05BC0EC85E130F7
:1030C60009F49FC1E33039F4E091AD07F091AE0702
:1030D600309709F496C10885ED85E695E695E6955F
:1030E6003E2FE22FE77019F4AD852A17E9F0A02FDD
:1030F600BB27E32FF0E00E94F021AA85BB850E9442
:10310600F820269526952695532F5F935F5FE22F2D
:10311600AF91EA1748F0102FE12F1150E03019F067
:103126000E94FD20F9CFF1CFAE850A1711F1EE8589
:10313600AA85BB85F0E00E94F820ED85E77009F0CE
:103146003F5F20E02F932F5FE32FAF91AE1788F4F8
:103156001E851F931F5FE02FAF91AE1718F40E94D4
:10316600FD20F7CFEE85AE81BF81F0E00E94F8200A
:10317600E9CFEF85E7703E2FED85E03009F441C1D8
:10318600EA85FB85EE83FF8310E00889303009F07D
:1031960065C0AD85A83008F45CC0E985E03011F063
:1031A600E33009F402C0E73009F402C0E83009F45C
:1031B60002C0E63009F402C0E93009F402C0EA3080
:1031C60021F40A93E8890E94E9201F931F5FEE8588
:1031D600AF91AE17B8F5A985A63061F420DEDCDD27
:1031E6000E940A21FA93EA931ADEAE2F0E94E81F84
:1031F600F4DD27C0E985E93011F450E00EC0EA306D
:1032060011F45FEF0AC00E940A210E9413215E2F6B
:10321600E985E73011F0E83021F40E9419215E2F8C
:1032260006C0E33011F4509502C0E03021F4A52F1A
:103236000E94F42006C00E941D21EFEFEA93AD859F
:10324600CEDEC3CFEF85E85FEF87ED85E850ED87EB
:10325600CFC05D8520E0E0E0ED877AC0E32FAD8545
:10326600AE0FA93020F42D85E0E0ED8703C0E8E03D
:10327600E31B2E2F3A93A22F0E94961F4E2FE9850D
:10328600E630F1F41F931F5FEE85AF91AE17B8F4E9
:103296000E942321AE2FE32F0E94DA210E942A21C9
:1032A600E32FA42F0E94DA21E095E1215E2B0E94F4
:1032B6000A21FA93EA93A52F0E94E81FE3CF2CC0B8
:1032C600E93011F450E003C0EA30A9F45FEF0E9440
:1032D6001921AE2FE32F0E94D2215E2F1F931F5F6D
:1032E600EE85AF91AE1730F40E941D214A93A0E0FF
:1032F60076DEF4CF11C01F931F5FEE85AF91AE1738
:1033060058F40E943521AE2FE32F0E94D221EA9372
:103316004A93AD8564DEEFCFED85E03009F471C0E8
:10332600AD85A83028F4ED85E21B5E2FE0E003C0F2
:10333600532FED85E850ED8710E0EF85E85FEF87C6
:10334600E8E0E31B2E2F0889EA85FB85EE83FF83E1
:10335600E52FF0E0E059FF4D4491E985E630E1F4D0
:103366001F931F5FEE85AF91AE17A8F40E9423212D
:10337600AE2FE22F0E94D2210E942A21E22FA42FF3
:103386000E94A4205E2B0E940A21FA93EA93A52F9D
:103396000E94E81FE5CF2CC0E93011F450E003C0CD
:1033A600EA30A9F45FEF0E941921AE2FE22F0E94A6
:1033B600DA215E2F1F931F5FEE85AF91AE1730F4B3
:1033C6000E941D214A93A0E00ADEF4CF11C01F938C
:1033D6001F5FEE85AF91AE1758F40E943521AE2FD0
:1033E600E22F0E94DA21EA934A93AD85F8DDEFCF0A
:1033F600E885AA85BB85F0E0EA0FFB1FEA87FB8715
:10340600BBCE0E945522619608950E94422124F067
:10341600E0E0F0E00C949F1FA881B981A038E0E0BD
:10342600BE0724F0EFE7F0E00C949F1FE881F981D6
:103436000C949F1F0E94422124F0E0E0F0E00C94DF
:103446009F1FA881B981A034E0E0BE0724F0EFE316
:10345600F0E00C949F1FE881F9810C949F1FAA93BA
:10346600E981EA93E981EA93A091920794DD0C94AD
:103476009F1FBA93AA9323970E9449218F01002E7A
:10348600012A19F4E0E0F0E05FC00E9450210F82AB
:103496000E9450210E820E9450210886EB85A88545
:1034A600EA1718F4E0E0F0E04FC0F8010F5F1F4F95
:1034B6005491A885BB27EE27A50FBE1FEB85F0E02C
:1034C600EA17FB0718F0E0E0F0E03EC0EE81E69573
:1034D600E695E6954E2FEE81E77009F04F5FEF8196
:1034E600E030A1F0A985BA85EC93A885EB85EA1BA7
:1034F600F0E0DF01EF81F0E00E94F021DF01E42F30
:10350600F0E00E94F021E00FF11F1EC09801E52FA8
:10351600F0E00E0F1F1FA885AF5FA887A150EB85AF
:10352600AE1760F4F9012F5F3F4FA491B0E0E42F8E
:10353600F0E00E94F0210E0F1F1FEDCFF901E4917C
:10354600A985BA85EC93F8010E9455222C96089518
:10355600E0E0E0939407A0919507BB270E945521D0
:10356600F0E0AE0FBF1FE0919907F0E0AE0FBF1F6E
:1035760061DFE09395070895AA9321970E94492158
:10358600309709F45FC0AF81AA3009F459C0EF81C2
:10359600EA93DE0117966DDFAF01309709F454C048
:1035A600E0919807AE81EA0F3E2FA0919407BB27C2
:1035B600F0E0EA0FFB1F8F010138E0E01E0718F06C
:1035C600032F1127C5DFE0919407EA93E091950751
:1035D600EA93E885EA930E945521EA93E1E0EA93AB
:1035E6005A934A93A7E036DDE0919407AE81EA0F3D
:1035F600EA93E0919507EA93E0919807EA930E948F
:103606005521EA93E0E0EA930E94C720A9E022DD73
:10361600E0919407EA93A09195070E945521EA0F3D
:10362600EA933A93E0919907EA93E0E0EA930E94DD
:10363600C720A9E00FDDE0E8F0E0E017F10711F49C
:1036460087DF02C0009394070E94552228960895AA
:10365600BA93AA931A93EC81EA93AC810ED0A9810E
:10366600BA81ED91A983BA831E2FE03019F0A12FFC
:1036760083DFF5CF18810C94E81EAA93A981BB2796
:10368600C4DEE0939407A881BB27D4DEE0939507B8
:103696000C949F1F5F9BFECFECB10895AA935D9B90
:1036A600FECFE881ECB921960895BA93AA930E94B9
:1036B6004E220E811F8128853985002E012AD9F0D8
:1036C600E9DF5E2F583051F4AE81BF810A171B0720
:1036D60020F4215030400F5F1F4FF2CF5A3059F07F
:1036E6003F932F932F5F3F4FE52FAF91BF91EC9301
:1036F60001501040E2CFD901E0E0EC93E885F9856E
:103706000E9455222A960895BA93AA93AA81C6DFE3
:10371600A881B9810E945C210C94E61FBA93AA93F2
:103726001A930A93AA81BB8112960E941E22309791
:1037360029F1AA81BB8114960E941E228F0130971F
:1037460061F00230E0E01E0780F0F80131978F014A
:10375600AA81BB811496ED93FC93AA81BB81129634
:103766000E945C213197AC81A083AA81BB810E9413
:103776001E22FF2312F00E945C2106C0AA81BB8193
:10378600EFEFFFEFED93FC93198108810C94E81E8F
:10379600BA93AA9326970E944E2210E0AC85BD8567
:1037A600E0E0F0E0ED93FC93EA89FB893196EA8B41
:1037B600FB8B3197E4912E2FE03009F415C1E12FF0
:1037C600E03039F4253211F411E002C00E94622182
:1037D6000AC1E130A9F4253219F40E94622102C11E
:1037E60012E040E000E02D3211F401E0FCC02B3283
:1037F60011F44BE2F8C0203211F440E2F4C002C0EA
:10380600E23039F450E013E0203311F40068EBC0E5
:1038160003C0E33009F0E7C0203310F02A3308F084
:1038260007C0AAE05A9F502DE22FE0535E0FDBC07F
:10383600E22FE33649F40E946921E889F989A481D7
:10384600AA930E946F21CEC0E33741F40E946921FA
:103856000E9475210E94F71E1E2F0AC0E03761F4F0
:103866000E9469210E9475210E94031F1E2F086075
:1038760002600F7730E034C0E43611F0E93611F417
:10388600046002C0E53731F4EAE7F0E2EE83FF8335
:1038960015E00CC0E83511F4086003C0E83709F0FC
:1038A600A1C0E4E8F0E2EE83FF8314E002FF14C057
:1038B6000E9469210E947F21AB85AA233AF4EA85FA
:1038C600FB850E94CE21EA87FB874DE2403011F04E
:1038D6001F5F01C00B7F04C00E9469210E947F21E7
:1038E60000FD11C0151778F407FF08C002FF04C0D9
:1038F6000B7F242F115001C020E301C020E20E945B
:1039060062215150EFCF312F01FF17C03030A1F0A7
:1039160003FF06C0EE81FF812591EE83FF8305C07C
:10392600AE81BF812D91AE83BF830E94622150304C
:1039360009F051503150EACF4BC020E3EE81FF81B0
:103946000E942222E887F987EE81FF813296EE8374
:10395600FF83E885F985AA85BB85AE17BF0750F0BA
:103966002F5FA885B985EA85FB85EA1BFB0BEA87ED
:10397600FB87EFCF2A3328F003FF02C0295F01C07F
:10398600295D04FD1AC0213320F4A885B985119755
:1039960009F409C0531710F000FF01C013C020E25C
:1039A60007FF0BC020E3006102FF07C00B7F4A93AD
:1039B6000E946F21503009F051500E946221503010
:1039C60009F051503150A885B985129708F0B5CF46
:1039D60000FF08C0503031F05150E0E2EA930E94F7
:1039E6006F21F8CF10E0E0CEAC85BD850E941E2287
:1039F6000E94552264960895FF92F82E26970E94FB
:103A060050220E948721309719F4EFEFFFEF1DC077
:103A1600DE0116960E94CA218D010E948721EE833F
:103A2600FF83E0E0E887E987DE011A960E948E218F
:103A3600E1E9FBE1FA93EA93DE011A96A9DE9F011A
:103A4600AE81BF81E0E0EC93F9010E9457222A96ED
:103A5600FF900895FF92F82E26971A930A93DE0197
:103A660014960E94CA218D01E0E0EC83ED83EE837B
:103A7600EF83DE0118960E948E21E7E8FBE1FA93B8
:103A8600EA93DE01189684DE198108812896FF9054
:103A96000895BA93AA931A93A981BA81E0E0EC93A8
:103AA600AB81BC81EC911E2FE03019F0E0E0EC9385
:103AB60016C0A981BA8111960E941E22309771F014
:103AC600E981FA81A181B281EC911E2FE03029F0C3
:103AD600A981BA8111960E945C2101C010E0E12FF4
:103AE600188173C1FF92BA93AA9324970E944E221B
:103AF600E0E0F0E0E887F9874E2FE889F98931960A
:103B0600E88BF98B3197E4913E2FE03009F423C11D
:103B16000E949721C1F0EDB7FEB7FA93EA934F934F
:103B26000E949C214F913E2FE03019F00E94972170
:103B360009F407C00E94A2211CF4EFEFFFEF0DC1AC
:103B4600EACF432F07C1353209F0ECC050E0E889CF
:103B5600F9893591E88BF98B303310F03A3308F058
:103B660007C0AAE05A9F502DE32FE0535E0FEFCF18
:103B7600303009F4F0C0EDB7FEB7FA93EA934F93ED
:103B86000E949C214F912E2FAE2F0E941020E030D4
:103B960039F00E94A2211CF4EFEFFFEFDEC0EBCF5D
:103BA600203009F4CFC0422F503009F45FEFE32FE5
:103BB600E33699F40E94A721EDB7FEB7FA93EA938C
:103BC6004F930E949C214F91D801EC930E94A22111
:103BD6001CF4EFEFFFEFC1C09FC0E33741F50E9431
:103BE600A721E52F5150E030F1F0EDB7FEB7FA937B
:103BF600EA934F930E949C214F913E2FE03019F09B
:103C06000E94972139F00E94A2211CF4EFEFFFEFEA
:103C1600A4C009C01F930F930F5F1F4FE32FAF91EF
:103C2600BF91EC93DECFD801E0E0EC9375C06894C9
:103C3600F1F8E894F2F8E32FE43611F0E93619F4D6
:103C4600E894F1F802C0E53711F42AE008C0E83735
:103C560011F420E104C0E53209F464C07CC0E0E060
:103C6600EE83EF836894F0F8E52F5150E03009F4C5
:103C760044C0EDB7FEB7FA93EA934F930E949C2196
:103C86004F913E2FE13238F40E94A2211CF4EFEF4F
:103C9600FFEF63C017C0F1FC08C06894F1F83D322D
:103CA60011F4F2F8E1CF3B32F9F2203131F4A32FCF
:103CB6000E941B20E03031F009C0A32F0E9407208C
:103CC600E03021F4F0FC47C0432F17C0313610F026
:103CD600375505C0313410F0375301C03053E22F49
:103CE600AE81BF81F0E00E94F021DF01E32FF0E01A
:103CF6000E94F820E894F0F8B7CF0E94A721F2FEC0
:103D060006C0EE81FF810E94CE21EE83FF83EE8105
:103D1600FF81D801ED93FC93E885F9853196E88714
:103D2600F98718C0EDB7FEB7FA93EA934F930E944E
:103D36009C214F91E31771F00E94A2211CF4EFEF32
:103D4600FFEF0BC0E885F985309719F4EFEFFFEF29
:103D560004C001C0D2CEE885F9850E94552262963C
:103D6600FF900895FF92F82E23971A930A930E94C4
:103D7600B221309719F4EFEFFFEF14C0DE01119670
:103D86000E94CA218D010E94B221EB83FC83DE01D1
:103D960015960E948E21ECE4FDE1FA93EA93DE018A
:103DA6001896A0DE198108812596FF900895BA938A
:103DB600AA93B981A881109631F0FC81EB816A81C2
:103DC60061931197E9F7EB81FC8125960895BA93E3
:103DD600AA93E991F991A991B991CD0161916D9358
:103DE6006623E1F7FC010895BA93AA93A991B991C4
:103DF600EE27FF276D91662311F03196FBCF0895CC
:103E0600BA93AA93AA27BB27E991F99105900020B6
:103E160011F01196FBCFFD010895BA93AA93BB81C9
:103E2600AA816C91662361F0F981E881C89500202A
:103E360029F031966015D1F7FD0104C01196F1CF36
:103E4600EE27FF270C940520BA93AA93AA81BB817B
:103E5600CD01E881F9817191772311F4FC0109C044
:103E66006D916717C1F30196DC01662391F7EE2782
:103E7600FF270C940520BA93AA93BB81AA818827B1
:103E860099276D91662349F0F981E8810590002014
:103E960021F06015D9F70196F4CFFC01B3C0BA93AF
:103EA600AA931A930A93EC81FD81309779F4E091F5
:103EB6003608F0913708309719F4E0E0F0E02FC0AB
:103EC600E0913608F0913708EC83FD830E94B92112
:103ED6000E943E1FAC81BD81EA0FFB1FEC83FD8370
:103EE600AC81BD81EC91E03041F4E0E0E09336082E
:103EF600E0933708E0E0F0E012C00E94B9210E948A
:103F0600101F8F01309729F0D8010F5F1F4FE0E097
:103F1600EC930093360810933708EC81FD811981E4
:103F2600088126960895AA93E881F0E0E059FF4DAE
:103F3600A491E9810E94D22122960895AA931A9308
:103F4600E981E73011F0EA3019F41091920709C0BF
:103F5600E93019F41091930704C0E830A1F41091E8
:103F6600A207E0919307E03049F0103019F0EFEF27
:103F7600188129C0EA81E095188125C0103019F40E
:103F8600E0E0188120C0EA8118811DC0BA93AA9387
:103F9600EA81E13021F4E881F981E49114C0E2304C
:103FA60029F4A881B9810E942D220DC0E33041F485
:103FB600A881B981E091AB07F091AC07099503C0E0
:103FC600A881B981EC9123960895AA93EB81E030FC
:103FD60029F4E881A981BA81EC9314C0E23031F466
:103FE600E881A981BA810E9439220CC0E33051F4DC
:103FF600E981FA81FA93EA93AA81E091AD07F091FB
:10400600AE07099524960895AA93E1E0F991F03355
:1040160010F0FA3308F0EE270895AA93E1E0F9913B
:10402600F03229F0F93010F0FE3008F0EE2708954E
:10403600AA93E1E0F991F05340F0FA3038F0FF75B9
:10404600F750FA3010F0F03108F0EE270895A1E0AD
:10405600B0E00E94E2210895B0E0EA23FB23309706
:104066000895662777270E94282284E00895FA9308
:10407600EA93E0E0EA9308950E94A817E0E0EA9345
:10408600EA9308950E94A912A2E3B0E00C94C0211D
:104096000E94A912A4E6B0E00C94C021E0E0EA93E5
:1040A600EAE0EA9308950E942B1BA4E6B0E00C9484
:1040B600C021FE01EC59FF4FFA93EA93ECE3F1E2DB
:1040C600FA93EA93E4E5F1E2CCCF0E94FF1C28962E
:1040D600DE01AC59BF4FDCCF0E94A912FE01FA9354
:1040E600EA93E4E6F0E0FA93EA930895FA93EA9302
:1040F600A6EEB0E20E94521FE883F98308950E945B
:104106002B1BA8EEB3E00C94C021FA93EA93E0E8E7
:10411600EA93A0E40C946A120E94A912FE01E85FD9
:10412600FE4FFA93EA93E0E0F1E0FA93EA93E2E3D2
:10413600F0E0FA93EA930895662777270E942822EB
:1041460008950E94D221E095E121089513B2E12F4E
:10415600F0E0DE011E96AE0FBF1FEC9178CFACE209
:10416600B1E00C94C021E0939607F0939707089569
:10417600EFEAF7E0FA93EA930895A6EEB0E20E941A
:10418600521FE8A3F9A30895E0E0F0E0FA93EA935A
:104196000895FA93EA93E0E8EA93A0E20C946A128F
:1041A600E0936200E09162000895E0E0EABBE091EE
:1041B6006200E860F5CFE77FE0936200EFEFEABBCD
:1041C600E881EBBB0E9483160C948B16E695E69568
:1041D600E695AE2F0C94E116E0936100E091610044
:1041E60008950E9405170C94F016EA0FFB1FEE8344
:1041F600FF830895EC85EA93EF81F8853196EF8386
:10420600F8873197FA93EA93A0E00C94E81FEC85BF
:10421600EA93EF81F8853196EF83F8873197089511
:1042260066277727DF01CB010C94C91F5A93AA850D
:104236000C94A11F0A930395E889EA935A9308956B
:104246000A930395A8890E941C17E42308955E2FFC
:10425600EC85EA93AF81B885882799270E94C91F04
:104266001E2E08950A930395E889EA93EE85EA934C
:10427600E985FA853196E987FA873197D1CFBA93DE
:10428600AA93A881B9810E944A2208950E944E22CB
:10429600E0919607F09197070895F8010F5F1F4F79
:1042A60004900895E0919607F09197073196E4916E
:1042B6000895ED91FD913196FE93EE9308952A931C
:1042C600AD85BE85EF85F88909950895E889F98950
:1042D6003497E88BF98B0895AD85BE85EF85F8890F
:1042E60009950895A889B98914960E941E22EE831D
:1042F600FF83AE81BF810895A889B98914960E946B
:104306001E22EA87FB870895DE011C960E94CA21B9
:104316000E941E2208950E94CA210E941E22FA931C
:10432600EA931A930A930895A32F0E941020E0306F
:104336000895AC85BD85EE85FF8509950895AA8506
:10434600BB85AC91A0300895EE85FF853497EE8746
:10435600FF87AE85BF8514960D911C910895DE01E9
:1043660017960E94CA210E941E220895EC81FD81A3
:10437600FA93EA93AC81BD810895109639F0A89519
:1043860080ED97E00197F1F71197C9F7089500249A
:10439600AF0DB01D0895F195E195F0400895EE2317
:1043A6000E2EEA2F19F0EE0F0A94E9F70895EE2380
:1043B6000E2EEA2F19F0E6950A94E9F70895EE23F2
:1043C6000E2EFD0121F0EE0FFF1F0A94E1F708956E
:1043D6006F2F660F660B762F0895FA9FF02DEB9FD1
:1043E600F00DEA9FE02DF10D08950024112490E1CF
:1043F600AA0FBB1F001C111C0E1A1F0A18F40E0E62
:104406001F1E01C0A1609A9599F7FD01D00108957C
:1044160004D0EBDF0EF4BFDF0895E894F7FF02C087
:10442600BADF6894B7FF06C0A095B095119600F85C
:10443600039400FA0895ED91FC9111970895059063
:10444600F491E02D089560E070E07A936A93FA9310
:10445600EA930895E199FECFFF93FFB7F894AEBBB8
:10446600BFBBE09AEDB3FFBFFF910895E19B02C089
:10447600A895FCCF9FB7F894AEBBBFBBE09A8DB3AF
:10448600E81719F0EDBBE29AE19A9FBF0895002460
:104496000A160B0608955A934A933A932A931A9347
:1044A6000A9308955D814C813B812A811981088197
:1044B6000895AC0FBD1F05900D928A95E1F70895FA
:00000001FF
