:060000000C9461030C9456
:1000060000000C9400000C9400000C9400000C946A
:1000160000000C9400000C9400000C9400000C945A
:1000260000000C9400000C9400000C9400000C944A
:1000360000000C9400000C9400000C9400000C943A
:1000460000000C9400000C9400000C9400000C942A
:1000560000000C9400000C9400000C9400000C941A
:1000660000000C9400000C9400000C9400000C940A
:1000760000000C9400000C9400000C9400000C94FA
:1000860000000C940000050720600000000000003E
:10009600005F00000007000700147F147F14242A65
:1000A6007F2A12231308646236495522500005033D
:1000B6000000001C2241000041221C00082A1C2AC4
:1000C6000808083E0808005030000008080808081C
:1000D600003030000020100804023E5149453E0021
:1000E600427F400042615149462141454B31181437
:1000F600127F1027454545393C4A49493001710967
:1001060005033649494936064949291E003636004F
:10011600000056360000000814224114141414146A
:1001260041221408000201510906324979413E7EF6
:100136001111117E7F494949363E414141227F4195
:1001460041221C7F494949417F090901013E41413C
:1001560051327F0808087F00417F41002040413F1F
:10016600017F081422417F404040407F0204027F05
:100176007F0408107F3E4141413E7F090909063E42
:100186004151215E7F0919294646494949310101F4
:100196007F01013F4040403F1F2040201F7F201825
:1001A600207F6314081463030478040361514945EE
:1001B6004300007F4141020408102041417F0000B6
:1001C60004020102044040404040000102040020B5
:1001D600545454787F48444438384444442038447E
:1001E60044487F3854545418087E090102081454B0
:1001F600543C7F0804047800447D40002040443D80
:1002060000007F10284400417F40007C04180478D9
:100216007C0804047838444444387C1414140808D0
:100226001414187C7C080404084854545420043FD1
:100236004440203C4040207C1C2040201C3C403058
:10024600403C44281028440C5050503C4464544CC4
:1002560044000836410000007F00000041360800D7
:1002660002010204027F4141417F000103070F1F83
:100276003F7FFF001027E80364000A00010000101A
:100286000001100001003132333435363738392A4F
:100296003023070506040001020025730D0A0041FC
:1002A600542B48545450494E4954004F4B006C65EA
:1002B6007620310041542B48545450504152413D10
:1002C60022434944222C31006C6576203200257386
:1002D6003F70686F6E655F6E756D6265723D257302
:1002E6000041542B48545450504152413D225552DE
:1002F6004C222C22257322006C6576203300415453
:100306002B48545450414354494F4E3D31002B48DD
:10031600545450414354494F4E3A00526573706FDE
:100326006E73653A006C657620340041542B485450
:10033600545052454144006C657620350041542B9B
:10034600485454505445524D0053657474696E6751
:1003560020534D53204D6F64652E2E2E0041542B95
:10036600434D47463D310041542B434E4D493D32A6
:100376002C322C302C302C300041542B434D47442A
:10038600413D2244454C20414C4C2200534D5320C4
:1003960052656164792E00436F6E6E656374696E93
:1003A6006720746F20475052532E2E2E0041542B37
:1003B60053415042523D332C312C22436F6E747997
:1003C6007065222C2247505253220041542B534130
:1003D6005042523D332C312C2241504E222C2225A4
:1003E6007322006D63696E65740041542B5341504E
:1003F60042523D312C31004665746368696E672050
:1004060049502E2E2E0041542B53415042523D321C
:100416002C31002B53415042523A00526573703AC8
:10042600002B53415042523A20312C312C004D4F73
:10043600544F52202564204F4E21004D4F544F52A9
:10044600202564204F46462100687474703A2F2F89
:100456003139332E352E34342E3139312F686F6DC4
:10046600652F706F73742F002B393839313532365A
:100476003038353832004D6F64756C6520496E69C9
:10048600742E2E2E004154453000415400534D53D6
:1004960020496E6974204661696C65642100475085
:1004A600525320496E6974204661696C6564210067
:1004B60053797374656D2052656164792E005761B6
:1004C6006974696E6720666F7220534D532E2E2E07
:1004D600002B434D543A00534D5320436F64653A05
:1004E60000456E74657220636F6465206F6E206BC5
:1004F60065797061643A0054696D656F7574212081
:1005060054727920616761696E2E00596F7520708B
:100516007265737365643A00436F6465206973207E
:10052600434F525245435421004572726F722069FF
:100536006E20656E7472792100496E76616C69640D
:1005460020534D5320436F64652100596F75206118
:100556007265206E6F7420617574686F72697A6552
:100566006421000001002D4E414E00494E46000018
:100576000C000005A50203000C05B10206000F05DC
:10058600B40214001505BA0203002905B1020600DB
:100596002C05CE0203003205B10206003505FE0227
:1005A60010003B0504030D004B0514030A00580513
:1005B6002103060062052B030C00680531030300C6
:1005C6007405B1020A0077052103060081053D0383
:1005D6000C008705430303009305B102140096053A
:1005E6004F030A00AA0563031200B4056D03130046
:1005F600C6057F030B00D90592031600E4059D038B
:100606001E00FA05B3030D001806F0030F002506B9
:10061600FD030D0034060C0408004106190406000B
:10062600490621040D004F0627041F005C064F04EF
:100636000E007B066E040F0089067C0405009806F2
:100646008B0403009D0690041100A006930412007B
:10065600B106A4040E00C306B6041300D106C404F2
:100666000600E406D7040300EA06B1020A00ED0616
:10067600DD041600F706E70414000D07FD040E005E
:100686002107B60413002F07C4040D004207110505
:1006960011004F071E05100060072F051200700796
:1006A6003F051800820751050E009A07B60413008D
:1006B600A807C4040100C5086A050000F894EE27DF
:1006C600ECBBF1E0F5BFE5BFE0936C008DE0A2E086
:1006D600BB27ED938A95E9F780E090E1A0E0B1E0D1
:1006E600ED930197E9F7E6E7F5E085919591009797
:1006F60061F0A591B59105901590BF01F0010590A7
:100706000D920197E1F7FB01F0CFEFEFEDBFE0E1CE
:10071600EEBFC0E0D5E00C94B105BA93AA93E0EA27
:10072600F2E0FA93EA93EA81FB810E94E40E84E008
:100736000E94980D26960C94C907BA93AA930E9414
:10074600D61000E010E020E030E0EC85FD850E9448
:10075600E90EAD85BE850E94B70DE885F9852E1791
:100766003F07D8F45F9B12C00E94B90B5E2FEA8543
:10077600FB8531970E171F0744F4F8010F5F1F4FD3
:10078600AC85BD85EA0FFB1F508306C0A1E0B0E033
:100796000E946C102F5F3F4FE0CFEC85FD85FA93EA
:1007A600EA93A885B9850E94040E309711F0E1E01E
:1007B60001C0E0E00E94DD102E960895BA93AA9338
:1007C600D350A0E0B5E00E94EE0EACE0B5E0B5DF98
:1007D600E03011F4E0E0A0C00E94FE0EEAE0EA93E9
:1007E600DE01AE5FBC4F0D90BC91A02D0E94030FA1
:1007F600E4E1EA93AFE0B5E00E94970BA5E1B5E02E
:100806000E94EE0EA9E2B5E098DFE03011F4E0E0D8
:1008160083C00E94080FACE2B5E00E94970B0E94CD
:100826000D0FE4EDF2E0FA93EA93FE01EA5FFC4F66
:100836000190F081E02D0E94E40EFE01E85FFC4F7E
:100846000190F081E02D0E94E40E88E00E946A0D7E
:100856002C96FE01E050FE4FFA93EA93E7EEF2E0A3
:10086600FA93EA93FE0134960E94E40E0E94110F59
:10087600DE01A050BE4F0E94EE0EA2E3B5E05DDFA2
:10088600E03011F4E0E048C00E94080FA5E3B5E0AF
:100896000E94970BABE3B5E00E94160FECE2F1E085
:1008A600FA93EA93ABE4B5E048DFE03051F40E94F6
:1008B600FE0EE0E0EA93A8E5B5E00E94030F0E9471
:1008C600220F0E94080FA2E6B5E00E94970BA8E649
:1008D600B5E00E94160F0E94290FA4E7B5E02DDFB0
:1008E600E03051F00E94FE0EE0E0EA93A7E7B5E0A3
:1008F6000E94030F0E94220F0E94080FA1E8B5E094
:100906000E94970BA7E8B5E00E94160F0E94290FD8
:10091600A3E9B5E012DFE1E02496DD5F08950E94C9
:10092600FE0EE0E0EA93A6E9B5E00E94970BAAEA7C
:10093600B5E00E942E0FA4EBB5E00E942E0FA6ECA8
:10094600B5E00E94340F0E943A0FA9EDB5E00E946F
:10095600970BA8ECB0E00E946C10E1E00895EF97C9
:10096600EF9768970E94FE0EE0E0EA93A4EEB5E0EA
:100976000E94970BAAEFB5E00E94340FFE01EC59D6
:10098600FF4FFA93EA93E1EDF3E0FA93EA93E9EE87
:10099600F3E00E94E40E0E94110FDE01AC59BF4F36
:1009A6000E94340FA8E1B6E00E94340F0E94FE0EAA
:1009B600E0E0EA93A5E2B6E00E94970BA4E3B6E076
:1009C600ACDE0E940D0FE4E6F0E0FA93EA930E9493
:1009D600290FA1E4B6E0B1DEE03069F10E943A0FDA
:1009E600A9E4B6E00E94030FE4E1EA93DE01129661
:1009F6000E94970BA4EFB1E00E946C100E940D0FAD
:100A0600AFE4B6E00E94040E3097A9F02297FE01EB
:100A160032960E943F0FE0E0F0E00E943F0FE8812F
:100A2600F981309739F0E0EAF8E00E94480FE1E0FA
:100A3600229602C02296E0E0EF96EF966896089519
:100A4600639783E1A0E0B0E0ECE8F2E00E94E410F6
:100A56001A930A9300E0033078F5E5B3E760E5BB47
:100A660015B2E02FF0E0DE015296AE0FBF1FEC91FB
:100A7600A1E00E944E0FE5BB10E01430D8F40E94AE
:100A8600530FB1F4AAE0B0E00E946C100E94530F1D
:100A960079F40E94530FE9F3A3E01A9FF001DE01F7
:100AA6001296AE0FBF1FEE27A00FBE1FEC9105C01A
:100AB6001F5FE3CF0F5FCFCFE0E019810881659616
:100AC6000895BA93AA9364971A93ED89FE89E13043
:100AD600A0E0FA0711F412E00DC0E230A0E0FA0738
:100AE60011F413E007C0E330A0E0FA0711F414E0B4
:100AF60001C031C0FE013196FA93EA93E4E3F4E0D3
:100B06000E94650F0E946E0FE4E1EA93DE011396E0
:100B16000E94970B13B0E12FA1E00E947E10E129FD
:100B2600E3B9A0E1B7E20E946C1013B0E12FA1E097
:100B36000E944E0FE3B9FE013196FA93EA93E1E47F
:100B4600F4E00E94650FEAE0EA93E8E2EA93DE0148
:100B560013960E94730F18816796089526970CE5E1
:100B660016E02BE736E0E0E0EABBEBBBE7BBE0EFE5
:100B7600E8BBE7E0E4BBE0EFE5BBECE3E2B9E0E0CD
:100B8600E3B9E0936100E0936200EBB9E8E1EAB90A
:100B9600E6E0E0939500E0E0E0939000E3E3E9B956
:100BA600E0E8E4BFE4BFECE8F0E0E883F983E0E0E6
:100BB600EA83EB83EC83ED83DE01EAD1ECE8F0E037
:100BC6000E94790F0E94FE0EE0E0EA93A9E8B6E0E3
:100BD6000E94970BA8EBBBE00E946C10A8E9B6E058
:100BE6000E947E0FADE9B6E00E947E0F98DEE030EF
:100BF60039F40E943A0FA0EAB6E00E94970BFFCFA5
:100C0600AEDEE03039F40E943A0FA1EBB6E00E9466
:100C1600970BFFCF0E94FE0EE0E0EA93A3ECB6E04E
:100C26000E94030FEAE0EA93A1EDB6E00E94970B5B
:100C36002697E0E0E883E983EA83EB83E8EDF7E0D3
:100C46000E94E90EA4E6B0E00E94B70DE8EDF7E0D9
:100C56000E94840F309709F4F4C0E8EDF7E0FA93A8
:100C6600EA93A4EEB6E00E94040E309709F4E9C0B8
:100C76002297E8EDF7E00E943F0FE881F98130976F
:100C860009F4D0C0E0E0F0E00E943F0FE881F9816E
:100C9600309709F4C7C0E0EBF8E00E94480F1A93BA
:100CA6000A93A0EBB8E08ADDE03009F4AFC00E94F9
:100CB600FE0EE5E0EA93AAEEB6E00E94970BECE39F
:100CC600F8E00E94E90EA4E6B0E00E94B70DECE35E
:100CD600F8E00E94840FACE3B8E00E94D40D0E94B5
:100CE600CE1008F092C0E0913C08EF83AF81A133AB
:100CF60029F0A23319F0A33309F081C02297E0E06E
:100D0600E883E9830E94FE0EE5E0EA93ADEEB6E0E5
:100D16000E94970BE985EE83E6E4EA93E5E0EA9321
:100D2600DE0118960E94030FE9E1EA93A7EFB6E009
:100D36000E94970BE0E0E883E983A881B981A83C8B
:100D4600E0E0BE0774F47CDEE887E03051F4AAE008
:100D5600B0E00E946C10E881F9813196E883F9834E
:100D6600ECCFE885E030C1F40E946E0FE9E1EA932A
:100D7600ADE0B7E00E948A0F0E94FE0EE0E0EA9323
:100D8600A1E2B7E00E94030FEAE0EA93AFE2B7E020
:100D96000E94970B2A964CCFE0E0EA93EDE2EA93A5
:100DA600A2E4B7E00E94970BE885EE83EAE5EA93B2
:100DB600EDE2EA93DE0118960E948A0FE985A8857E
:100DC600EA17A9F40E946E0FE9E1EA93AFE4B7E0EF
:100DD6000E94970BACEDB5E00E946C10E985F0E03F
:100DE600F097EC83FD83AC81BD816BDE06C00E946B
:100DF600900FA0E6B7E00E94730F229606C00E94ED
:100E0600900FA0E7B7E00E94730F0CC00E94FE0E81
:100E1600E9E1EA93A2E8B7E00E94970BA4ECB9E0F7
:100E26000E946C100E94FE0EE0E0EA93AAE9B7E089
:100E36000E94030FEAE0EA93A8EAB7E00E94970B44
:100E460022962696F5CEFFCF0000E0916200E06183
:100E5600E093620000000895E0916200EF7E0E9438
:100E6600970FEF7D0E94970FEF7BE0936200089546
:100E76001A93EADF19B3E0916200EF7EE093620015
:100E8600E12F19910895AA931A930E949C0FEB7F64
:100E9600E0936200E981EF5F1E2F10FF04C0E0912E
:100EA6006200E06203C0E0916200EF7DE0936200C1
:100EB60011FF04C0E0916200E06403C0E0916200AB
:100EC600EF7BE0936200D4DFE078E9F718815EC03B
:100ED600AA93A981D8DFE09162000E94A20F56C0B2
:100EE600E091C108EA93E091C008EF73E064AE2F89
:100EF600EFDFE091C108EA93E091C208E86BAE2FFC
:100F0600E7DF0895AA93E981E093C008E295EF70C0
:100F1600E695E695E093C108E881E093C208E0DF34
:100F260035C0A091C008AF5FA093C008A03818F0E4
:100F3600E0E0E093C008E091C008EF7331F4E0917F
:100F4600C008EA93A091C208DDDF0895AA93A09194
:100F5600C10899DFE0916200E4600E94970F0E9449
:100F6600A20F0C94C20BA091C1088DDF0E949C0FAA
:100F7600E460E09362007CDF0895AA93E981EA9336
:100F8600E9810E94AD0FEFDFABDFEDDF229608951A
:100F9600BA93AA931A93E0916100E0610E94B30F9D
:100FA600E8600E94B30FE4600E94B30FE068E0932C
:100FB6006100E0916200E068E0936200E091610008
:100FC600E0620E94B30FE064E093610045DFE091C8
:100FD6006200EF77E0936200A4E6B0E00E946C1036
:100FE600E0916200E068E093620010E0123040F4A5
:100FF6001A93AFE36DDF1A931395A0EC69DFF6CF72
:10100600E1E0E093BB07E0E0E093BC07E981FA8109
:101016003097A9F0A981BA810E94A4100E94790F85
:10102600A981BA8112960E94A410E093D407F09386
:10103600D507A981BA8114960E94A4100AC0E0E0DF
:10104600F0E00E94790FE0E0F0E0E093D407F0933F
:10105600D507E093D607F093D707E1E0E093C10701
:10106600E093C207E093C307EFEFE093C407E1E024
:10107600E093CB07ECECF7E0FA93EA93EFEFEA9311
:10108600A8E0B0E00E94B70D04D0E1E018812396F5
:1010960008950E94D81000E030E0E091BC07E030EF
:1010A60009F00FEF383078F4E0E0EA93A32F3F5FC2
:1010B60029DF10E0A12F1F5FA03820F4A02F0E9487
:1010C600B80FF8CFEFCFE0E0EA93A0E01BDFE0E057
:1010D600EA93A0E03ED30E94DF1024960895AA93D7
:1010E6001A93ED81EA93AD8148DF1E2FF9DEE9817F
:1010F600E73011F0E83039F4EB81EA93AA810E94D7
:101106007E0EEB8308C0E33021F4EB81E095EB83A0
:1011160002C0E03021F4EA81E0951E2302C0E230ED
:1011260029F4EA81AB81EA231E2B0EC0E13029F4B3
:10113600EA81AB81EA231E2707C0E43029F4EA815D
:10114600E095AB81EA2B1E23A12F0E94B80F1881D0
:101156000C94710EAA9323970E94D610A889A038E2
:1011660048F4AF85A03430F4AE85A03019F0AD85D3
:10117600A03009F4C6C1EE85E887A889BB27EE85AD
:10118600F0E0AE0FBF1FA138E0E0BE0720F0A8894F
:10119600E0E8EA1BEE872D85AF85BB27ED85F0E0FD
:1011A600AE0FBF1FA134E0E0BE0720F0AF85E0E43C
:1011B600EA1BED87A985A63009F05BC0EC85E13016
:1011C60009F49FC1E33039F4E091D607F091D707CF
:1011D600309709F496C10885ED85E695E695E6957E
:1011E6003E2FE22FE77019F4AD852A17E9F0A02FFC
:1011F600BB27E32FF0E00E949C10AA85BB850E94C6
:10120600BC0F269526952695532F5F935F5FE22F99
:10121600AF91EA1748F0102FE12F1150E03019F086
:101226000E94C10FF9CFF1CFAE850A1711F1EE85F5
:10123600AA85BB85F0E00E94BC0FED85E77009F03A
:101246003F5F20E02F932F5FE32FAF91AE1788F417
:101256001E851F931F5FE02FAF91AE1718F40E94F3
:10126600C10FF7CFEE85AE81BF81F0E00E94BC0FC3
:10127600E9CFEF85E7703E2FED85E03009F441C1F7
:10128600EA85FB85EE83FF8310E00889303009F09C
:1012960065C0AD85A83008F45CC0E985E03011F082
:1012A600E33009F402C0E73009F402C0E83009F47B
:1012B60002C0E63009F402C0E93009F402C0EA309F
:1012C60021F40A93E8890E94AD0F1F931F5FEE85F4
:1012D600AF91AE17B8F5A985A63061F444DE00DEFD
:1012E6000E94CE0FFA93EA933EDEAE2F0E94C50E01
:1012F60018DE27C0E985E93011F450E00EC0EA3067
:1013060011F45FEF0AC00E94CE0F0E94D70F5E2F26
:10131600E985E73011F0E83021F40E94DD0F5E2FF9
:1013260006C0E33011F4509502C0E03021F4A52F39
:101336000E94B80F06C00E94E10FEFEFEA93AD8559
:10134600CEDEC3CFEF85E85FEF87ED85E850ED870A
:10135600CFC05D8520E0E0E0ED877AC0E32FAD8564
:10136600AE0FA93020F42D85E0E0ED8703C0E8E05C
:10137600E31B2E2F3A93A22F0E94730E4E2FE98560
:10138600E630F1F41F931F5FEE85AF91AE17B8F408
:101396000E94E70FAE2FE32F0E9486100E94EE0FE9
:1013A600E32FA42F0E948610E095E1215E2B0E9478
:1013B600CE0FFA93EA93A52F0E94C50EE3CF2CC059
:1013C600E93011F450E003C0EA30A9F45FEF0E945F
:1013D600DD0FAE2FE32F0E947E105E2F1F931F5F3F
:1013E600EE85AF91AE1730F40E94E10F4A93A0E06C
:1013F60076DEF4CF11C01F931F5FEE85AF91AE1757
:1014060058F40E94F90FAE2FE32F0E947E10EA9344
:101416004A93AD8564DEEFCFED85E03009F471C007
:10142600AD85A83028F4ED85E21B5E2FE0E003C011
:10143600532FED85E850ED8710E0EF85E85FEF87E5
:10144600E8E0E31B2E2F0889EA85FB85EE83FF8300
:10145600E52FF0E0E059FD4F4491E985E630E1F4EF
:101466001F931F5FEE85AF91AE17A8F40E94E70F9A
:10147600AE2FE22F0E947E100E94EE0FE22FA42FC5
:101486000E944E0F5E2B0E94CE0FFA93EA93A52F71
:101496000E94C50EE5CF2CC0E93011F450E003C020
:1014A600EA30A9F45FEF0E94DD0FAE2FE22F0E9413
:1014B60086105E2F1F931F5FEE85AF91AE1730F437
:1014C6000E94E10F4A93A0E00ADEF4CF11C01F93F9
:1014D6001F5FEE85AF91AE1758F40E94F90FAE2F3D
:1014E600E22F0E948610EA934A93AD85F8DDEFCF8E
:1014F600E885AA85BB85F0E0EA0FFB1FEA87FB8734
:10150600BBCE0E94DD10619608950E94061024F05D
:10151600E0E0F0E00C947C0EA881B981A038E0E010
:10152600BE0724F0EFE7F0E00C947C0EE881F98129
:101536000C947C0E0E94061024F0E0E0F0E00C947F
:101546007C0EA881B981A034E0E0BE0724F0EFE369
:10155600F0E00C947C0EE881F9810C947C0EBA9331
:10156600AA9323970E940D108F01002E012A19F4C9
:10157600E0E0F0E05FC00E9414100F820E94141099
:101586000E820E9414100886EB85A885EA1718F4C7
:10159600E0E0F0E04FC0F8010F5F1F4F5491A885BF
:1015A600BB27EE27A50FBE1FEB85F0E0EA17FB076A
:1015B60018F0E0E0F0E03EC0EE81E695E695E695AF
:1015C6004E2FEE81E77009F04F5FEF81E030A1F01A
:1015D600A985BA85EC93A885EB85EA1BF0E0DF01C7
:1015E600EF81F0E00E949C10DF01E42FF0E00E9402
:1015F6009C10E00FF11F1EC09801E52FF0E00E0FC2
:101606001F1FA885AF5FA887A150EB85AE1760F4B2
:10161600F9012F5F3F4FA491B0E0E42FF0E00E9464
:101626009C100E0F1F1FEDCFF901E491A985BA8515
:10163600EC93F8010E94DD102C960895E0E0E0930B
:10164600BD07A091BE07BB270E941910F0E0AE0FA0
:10165600BF1FE091C207F0E0AE0FBF1F6BDFE09344
:10166600BE070895AA9321970E940D10309709F49A
:1016760055C0AF81AA3009F44FC0EF81EA93DE016D
:1016860017966DDFAF01309709F44AC0E091C107A4
:10169600AE81EA0F3E2FA091BD07BB27F0E0EA0F0F
:1016A600FB1F8F010138E0E01E0718F0032F1127FA
:1016B600C5DFE091BD07EA93E091BE07EA93E885AE
:1016C600EA930E941910EA93E1E0EA935A934A9347
:1016D600A7E040DDE091BD07AE81EA0FEA93E09115
:1016E600BE07EA93E091C107EA930E9419100E948F
:1016F6002010E091BD07EA93A091BE070E94191041
:10170600EA0FEA933A93E091C2070E942010E0E8BC
:10171600F0E0E017F10711F491DF02C00093BD0776
:101726000E94DD1028960895BA93AA931A93EC8125
:10173600EA93AC810ED0A981BA81ED91A983BA83CF
:101746001E2FE03019F0A12F8DDFF5CF18810C94F4
:10175600C50DAA93A981BB27D8DEE093BD07A88152
:10176600BB27E8DEE093BE070C947C0E5F9BFECFA2
:10177600ECB10895AA935D9BFECFE881ECB9219662
:101786000895BA93AA930E94D6100E811F812885C8
:101796003985002E012AD9F0E9DF5E2F583051F441
:1017A600AE81BF810A171B0720F4215030400F5F1E
:1017B6001F4FF2CF5A3059F03F932F932F5F3F4F71
:1017C600E52FAF91BF91EC9301501040E2CFD901C4
:1017D600E0E0EC93E885F9850E94DD102A960895ED
:1017E600BA93AA93AA81C6DFA881B9810E942A105A
:1017F6000C94C30EBA93AA931A930A93AA81BB8137
:1018060012960E94A410309729F1AA81BB811496E2
:101816000E94A4108F01309761F00230E0E01E07AD
:1018260080F0F80131978F01AA81BB811496ED9360
:10183600FC93AA81BB8112960E942A103197AC8133
:10184600A083AA81BB810E94A410FF2312F00E94EC
:101856002A1006C0AA81BB81EFEFFFEFED93FC9340
:10186600198108818FC1BA93AA9326970E94D61030
:1018760010E0AC85BD85E0E0F0E0ED93FC93EA89ED
:10188600FB893196EA8BFB8B3197E4912E2FE03062
:1018960009F415C1E12FE03039F4253211F411E0D5
:1018A60002C00E9430100AC1E130A9F4253219F4B1
:1018B6000E94301002C112E040E000E02D3211F427
:1018C60001E0FCC02B3211F44BE2F8C0203211F4D7
:1018D60040E2F4C002C0E23039F450E013E02033B5
:1018E60011F40068EBC003C0E33009F0E7C0203311
:1018F60010F02A3308F007C0AAE05A9F502DE22FB5
:10190600E0535E0FDBC0E22FE33649F40E94371046
:10191600E889F989A481AA930E943D10CEC0E337D5
:1019260041F40E9437100E9443100E94D40D1E2FCE
:101936000AC0E03761F40E9437100E9443100E94EB
:10194600E00D1E2F086002600F7730E034C0E436E9
:1019560011F0E93611F4046002C0E53731F4EAE724
:10196600F2E0EE83FF8315E00CC0E83511F4086061
:1019760003C0E83709F0A1C0E4E8F2E0EE83FF8394
:1019860014E002FF14C00E9437100E944D10AB8570
:10199600AA233AF4EA85FB850E947A10EA87FB8738
:1019A6004DE2403011F01F5F01C00B7F04C00E9462
:1019B60037100E944D1000FD11C0151778F407FF6F
:1019C60008C002FF04C00B7F242F115001C020E382
:1019D60001C020E20E9430105150EFCF312F01FF9D
:1019E60017C03030A1F003FF06C0EE81FF812591BC
:1019F600EE83FF8305C0AE81BF812D91AE83BF8389
:101A06000E943010503009F051503150EACF4BC08F
:101A160020E3EE81FF810E94A810E887F987EE8116
:101A2600FF813296EE83FF83E885F985AA85BB851B
:101A3600AE17BF0750F02F5FA885B985EA85FB85ED
:101A4600EA1BFB0BEA87FB87EFCF2A3328F003FF5D
:101A560002C0295F01C0295D04FD1AC0213320F4AC
:101A6600A885B985119709F409C0531710F000FF2E
:101A760001C013C020E207FF0BC020E3006102FF94
:101A860007C00B7F4A930E943D10503009F0515019
:101A96000E943010503009F051503150A885B98558
:101AA600129708F0B5CF00FF08C0503031F0515002
:101AB600E0E2EA930E943D10F8CF10E0E0CEAC855C
:101AC600BD850E94A4100E94DD1064960895FF92C1
:101AD600F82E26970E94D8100E945510309719F4B8
:101AE600EFEFFFEF1DC0DE0116960E9476108D0106
:101AF6000E945510EE83FF83E0E0E887E987DE0168
:101B06001A960E945C10EDEFFBE0FA93EA93DE0171
:101B16001A96A9DE9F01AE81BF81E0E0EC93F90140
:101B26000E94DF102A96FF900895FF92F82E2697BE
:101B36001A930A93DE0114960E9476108D01E0E056
:101B4600EC83ED83EE83EF83DE0118960E945C1032
:101B5600E3EFFBE0FA93EA93DE01189684DE19813F
:101B660008812896FF900895BA93AA93B981A8810F
:101B7600109631F0FC81EB816A8161931197E9F748
:101B8600EB81FC8125960895BA93AA93E991F99180
:101B9600A991B991CD0161916D936623E1F7FC019D
:101BA6000895BA93AA93A991B991EE27FF276D914B
:101BB600662311F03196FBCF0895BA93AA93AA270C
:101BC600BB27E991F9910590002011F01196FBCF02
:101BD600FD010895BA93AA93BB81AA816C916623ED
:101BE60061F0F981E881C895002029F031966015E9
:101BF600D1F7FD0104C01196F1CFEE27FF270C9413
:101C0600E20EBA93AA93AA81BB81CD01E881F9813C
:101C16007191772311F4FC0109C06D916717C1F327
:101C26000196DC01662391F7EE27FF270C94E20E5E
:101C3600BA93AA93BB81AA81882799276D916623B7
:101C460049F0F981E8810590002021F06015D9F767
:101C56000196F4CFFC01B3C0BA93AA931A930A93E0
:101C6600EC81FD81309779F4E091C308F091C408C6
:101C7600309719F4E0E0F0E02FC0E091C308F0914E
:101C8600C408EC83FD830E9465100E941B0EAC8184
:101C9600BD81EA0FFB1FEC83FD83AC81BD81EC9116
:101CA600E03041F4E0E0E093C308E093C408E0E0EC
:101CB600F0E012C00E9465100E94ED0D8F01309772
:101CC60029F0D8010F5F1F4FE0E0EC930093C308A3
:101CD6001093C408EC81FD81198108812696089528
:101CE600AA93E881F0E0E059FD4FA491E9810E94B2
:101CF6007E1022960895AA931A93E981E73011F08F
:101D0600EA3019F41091BB0709C0E93019F41091B3
:101D1600BC0704C0E830A1F41091CB07E091BC07E2
:101D2600E03049F0103019F0EFEF188129C0EA8150
:101D3600E095188125C0103019F4E0E0188120C024
:101D4600EA8118811DC0BA93AA93EA81E13021F491
:101D5600E881F981E49114C0E23029F4A881B981BF
:101D66000E94B1100DC0E33041F4A881B981E09121
:101D7600D407F091D507099503C0A881B981EC91E4
:101D860023960895AA93EB81E03029F4E881A9818E
:101D9600BA81EC9314C0E23031F4E881A981BA81AA
:101DA6000E94BD100CC0E33051F4E981FA81FA9328
:101DB600EA93AA81E091D607F091D7070995249670
:101DC6000895662777270E94AC100895FA93EA9340
:101DD600E0E0EA9308950E949003FE01E050FF4F71
:101DE600FA93EA93E0E0F1E0FA93EA93E4E6F0E0AE
:101DF600FA93EA9308950E944C08E0E0EA93089566
:101E06000E94970BE0E0EA930895E0E0EA93E4E1AC
:101E1600EA930895FE01FA93EA93089584E00E94F6
:101E26006A0D289608950E949003FE01E050FF4F28
:101E3600FA93EA93E0E0F1E0FA93EA930895EAE090
:101E4600EA93DE01AE5FBE4F0C94970BE8ECF0E030
:101E5600FA93EA9308950E949003A4E6B0E00C94E6
:101E66006C100E949003A8ECB0E00C946C10E0E0BB
:101E7600EA93EAE0EA930895FA93EA93ACEFB2E0C4
:101E86000E942F0EE883F9830895FA93EA93AA81B4
:101E9600BB810C94C70D0E947E10E095E121089548
:101EA60013B2E12FF0E0DE011E96AE0FBF1FEC91DC
:101EB600A1E0B0E00E948E10A12DB0E0EA23FB2342
:101EC60030970895FA93EA93E98DFA8D0E94971058
:101ED6000E94AC10A3CF0E944C08EAE0EA93089552
:101EE6000E94970BA0EDB7E00C946C10E093BF072F
:101EF600F093C00708950E949003ACE2B1E00C9401
:101F06006C10FA93EA93A4E6B0E00C94C40B0E941A
:101F1600970BA8EEB3E00C946C100E944C08E5E019
:101F2600EA93E9E1EA930895E0936200E0916200A2
:101F36000895E0E0EABBE0916200E860F5CFE77F54
:101F4600E0936200EFEFEABBE881EBBB0E94270754
:101F56000C942F07E695E695E695AE2F0C9485072B
:101F6600E0936100E091610008950E94A9070C9436
:101F76009407EA0FFB1FEE83FF830895EC85EA932F
:101F8600EF81F8853196EF83F8873197FA93EA93D4
:101F9600A0E00C94C50EEC85EA93EF81F8853196A6
:101FA600EF83F8873197089566277727DF01CB01FE
:101FB6000C94A60E5A93AA850C947E0E0A9303954A
:101FC600E889EA935A9308950A930395A8890E948B
:101FD600C007E42308955E2FEC85EA93AF81B885A8
:101FE600882799270E94A60E1E2E08950A93039508
:101FF600E889EA93EE85EA93E985FA853196E987D9
:10200600FA873197D1CFBA93AA93A881B9810E9452
:10201600D21008950E94D610E091BF07F091C00734
:102026000895F8010F5F1F4F04900895E091BF07D0
:10203600F091C0073196E4910895EA93E0E0EA93BF
:10204600E0E0F0E0FA93EA93A9E00C94AD08ED9194
:10205600FD913196FE93EE9308952A93AD85BE8544
:10206600EF85F88909950895E889F9893497E88B09
:10207600F98B0895AD85BE85EF85F8890995089594
:10208600A889B98914960E94A410EE83FF83AE81B5
:10209600BF810895A889B98914960E94A410EA8779
:1020A600FB870895DE011C960E9476100E94A410FC
:1020B60008950E9476100E94A410FA93EA931A9348
:1020C6000A930895EC81FD81FA93EA93AC81BD8170
:1020D6000895109639F0A89580ED97E00197F1F7ED
:1020E6001197C9F708950024AF0DB01D0895F19515
:1020F600E195F0400895EE230E2EEA2F19F0EE0F2B
:102106000A94E9F70895EE230E2EEA2F19F0E695C4
:102116000A94E9F70895EE230E2EFD0121F0EE0F45
:10212600FF1F0A94E1F708956F2F660F660B762F4F
:102136000895FA9FF02DEB9FF00DEA9FE02DF10D2B
:102146000895ED91FC91119708950590F491E02D75
:1021560008957A936A93FA93EA930895E199FECFE4
:10216600FF93FFB7F894AEBBBFBBE09AEDB3FFBFDA
:10217600FF910895E19B02C0A895FCCF9FB7F89404
:10218600AEBBBFBBE09A8DB3E81719F0EDBBE29A80
:10219600E19A9FBF089500240E160F0608950024A5
:1021A6000A160B0608955A934A933A932A931A935A
:1021B6000A9308955D814C813B812A8119810881AA
:1021C6000895AC0FBD1F05900D928A95E1F708950D
:00000001FF
