:100000000C94B3010C9400000C9400000C940000BC
:100010000C9400000C9400000C9400000C94000060
:100020000C9400000C9400000C9400000C94000050
:100030000C9400000C9400000C9400000C94000040
:100040000C9400000C9400000C9400000C94000030
:100050000C9400000C9400000C9400000C94000020
:100060000C9400000C9400000C9400000C94000010
:100070000C9400000C9400000C9400000C94000000
:100080000C9400000C9400000C9400000507206004
:10009000000000000000005F0000000700070014DF
:1000A0007F147F14242A7F2A12231308646236499E
:1000B0005522500005030000001C2241000041228F
:1000C0001C00082A1C2A0808083E080800503000B6
:1000D000000808080808003030000020100804025A
:1000E0003E5149453E00427F400042615149462110
:1000F00041454B311814127F1027454545393C4A7C
:1001000049493001710905033649494936064949CB
:10011000291E003636000000563600000008142262
:100120004114141414144122140800020151090648
:10013000324979413E7E1111117E7F494949363E4F
:10014000414141227F4141221C7F494949417F0968
:100150000901013E414151327F0808087F00417F7B
:1001600041002040413F017F081422417F40404030
:10017000407F0204027F7F0408107F3E4141413EE0
:100180007F090909063E4151215E7F09192946462A
:100190004949493101017F01013F4040403F1F2053
:1001A00040201F7F2018207F631408146303047805
:1001B0000403615149454300007F41410204081096
:1001C0002041417F000004020102044040404040C1
:1001D000000102040020545454787F4844443838C5
:1001E00044444420384444487F3854545418087ECA
:1001F000090102081454543C7F0804047800447D2B
:1002000040002040443D00007F10284400417F40D2
:10021000007C041804787C0804047838444444388A
:100220007C14141408081414187C7C08040408486E
:1002300054545420043F4440203C4040207C1C2027
:1002400040201C3C4030403C44281028440C505076
:10025000503C4464544C44000836410000007F0088
:1002600000004136080002010204027F4141417F43
:10027000000103070F1F3F7FFF001027E803640002
:100280000A000100001000011000010025730D0A92
:10029000004D6F64756C6520496E69742E2E2E00BA
:1002A000415445300041542B434D47463D310041B8
:1002B000542B434E4D493D322C322C302C302C30B7
:1002C0000041542B434D4744413D2244454C20417D
:1002D0004C4C220053797374656D205265616479CA
:1002E0002E0057616974696E6720666F7220534DE6
:1002F000532E2E2E002B434D543A0046726F6D3A0A
:1003000000436F6E74656E743A0001002D4E414ECD
:1003100000494E4600000F000005910205000F0540
:10032000A0020A001405A50212001E05AF02130068
:100330003005C1020E004305D40213005105E2024C
:1003400006006405F50206006A05FB020900700557
:1003500001030E007905D40213008705E2020100B3
:1003600082060A030000F894EE27ECBBF1E0F5BF2B
:10037000E5BFE0936C008DE0A2E0BB27ED938A958A
:10038000E9F780E090E1A0E0B1E0ED930197E9F7B3
:10039000E6E1F3E085919591009761F0A591B59123
:1003A00005901590BF01F00105900D920197E1F7BE
:1003B000FB01F0CFEFEFEDBFE0E1EEBFC0E0D5E035
:1003C0000C94F301BA93AA93ECE8F2E0FA93EA935F
:1003D000EA81FB81662777270E948C0A84E00E94CD
:1003E000AC08269615C12697E0E0EABBEBBBE7BB5D
:1003F000E0EFE8BBE7E0E4BBE0EFE5BBECE3E2B94C
:10040000E0E0E3B9E0936100E0936200EBB9E8E17A
:10041000EAB9E6E0E0939500E0E0E0939000E3E3E2
:10042000E9B9E0E8E4BFE4BFECE8F0E0E883F98391
:10043000E0E0EA83EB83EC83ED83DE0122D1ECE89C
:10044000F0E00E9481090E948609A0E0B5E00E94C8
:100450000F07A8EEB3E00E945A0AAFE0B5E00E9491
:100460008C09A4E1B5E00E948C09AEE1B5E00E94E0
:100470008C09A0E3B5E0A6DFA0EDB7E00E945A0A20
:100480000E948609A3E4B5E00E949209EAE0EA939B
:10049000A1E5B5E00E940F070E9497090E949C0900
:1004A0000E949709A4E6B0E00E943C07309709F447
:1004B00041C00E949709A4E6B5E00E94FA0830976F
:1004C000C9F1EBE1F6E0FA93EA930E949C09EBE1B3
:1004D000F6E0FA93EA93A4E6B0E00E943C0752D11A
:1004E000E0E0EA93E5E0EA93AAE6B5E00E9492092B
:1004F000E2E1EA93A7EBB5E00E949209E3E2EA9316
:10050000A0E7B5E00E949209E0E3EA93ABE1B6E030
:100510000E940F07A0E1B7E20E945A0A0E948609D2
:10052000A9E7B5E00E949209EAE0EA93A7E8B5E0FE
:100530000E940F07B1CFFFCF0000E0916200E061A1
:10054000E093620000000895E0916200EF7E0E9457
:10055000A209EF7D0E94A209EF7BE093620008955B
:100560001A93EADF19B3E0916200EF7EE093620034
:10057000E12F19910895AA931A930E94A709EB7F7E
:10058000E0936200E981EF5F1E2F10FF04C0E0914D
:100590006200E06203C0E0916200EF7DE0936200E0
:1005A00011FF04C0E0916200E06403C0E0916200CA
:1005B000EF7BE0936200D4DFE078E9F7188128C090
:1005C000AA93A981D8DFE09162000E94AD0920C002
:1005D000E0918006EA93E0917F06EF73E064AE2F2E
:1005E000EFDFE0918006EA93E0918106E86BAE2FA1
:1005F000E7DF0895AA93E981E0937F06E295EF7023
:10060000E695E695E0938006E881E0938106E0DFD9
:1006100022960895A0917F06AF5FA0937F06A03831
:1006200018F0E0E0E0937F06E0917F06EF7331F48D
:10063000E0917F06EA93A0918106DCDF0895AA93FA
:10064000A091800698DFE0916200E4600E94A20918
:100650000E94AD090C943A07A09180068CDF0E949D
:10066000A709E460E09362007BDF0895AA93E98123
:10067000EA93E9810E94B809EFDFAADFEDDF0C946D
:100680001909BA93AA931A93E0916100E0610E945C
:10069000BE09E8600E94BE09E4600E94BE09E068ED
:1006A000E0936100E0916200E068E0936200E09115
:1006B0006100E0620E94BE09E064E093610044DFF3
:1006C000E0916200EF77E0936200A4E6B0E00E9460
:1006D0005A0AE0916200E068E093620010E0123094
:1006E00040F41A93AFE36CDF1A931395A0EC68DF24
:1006F000F6CFE1E0E0939A05E0E0E0939B05E98125
:10070000FA813097A9F0A981BA810E94840A0E94D7
:100710008109A981BA8112960E94840AE093B305E7
:10072000F093B405A981BA8114960E94840A0AC084
:10073000E0E0F0E00E948109E0E0F0E0E093B30542
:10074000F093B405E093B505F093B605E1E0E093CE
:10075000A005E093A105E093A205EFEFE093A305C8
:10076000E1E0E093AA05EBEAF5E0FA93EA93EFEF14
:10077000EA93A8E0B0E00E94D10804D0E1E018813B
:100780000C9460090E94B40A00E030E0E0919B05FF
:10079000E03009F00FEF383078F4E0E0EA93A32F6F
:1007A0003F5F28DF10E0A12F1F5FA03820F4A02FAB
:1007B0000E94C309F8CFEFCFE0E0EA93A0E01ADF90
:1007C000E0E0EA93A0E040D30E94BB0A0C947F09CA
:1007D000AA931A93ED81EA93AD8148DF1E2FF8DECC
:1007E000E981E73011F0E83039F4EB81EA93AA812E
:1007F0000E941B09EB8308C0E33021F4EB81E095F4
:10080000EB8302C0E03021F4EA81E0951E2302C0B0
:10081000E23029F4EA81AB81EA231E2B0EC0E130DD
:1008200029F4EA81AB81EA231E2707C0E43029F4CA
:10083000EA81E095AB81EA2B1E23A12F0E94C30918
:10084000188126960895AA9323970E94B20AA88930
:10085000A03848F4AF85A03430F4AE85A03019F04C
:10086000AD85A03009F4C8C1EE85E887A889BB270B
:10087000EE85F0E0AE0FBF1FA138E0E0BE0720F02C
:10088000A889E0E8EA1BEE872D85AF85BB27ED85BB
:10089000F0E0AE0FBF1FA134E0E0BE0720F0AF854F
:1008A000E0E4EA1BED87A985A63009F05BC0EC8582
:1008B000E13009F4A1C1E33039F4E091B505F091DC
:1008C000B605309709F498C10885ED85E695E6955B
:1008D000E6953E2FE22FE77019F4AD852A17E9F06F
:1008E000A02FBB27E32FF0E00E947C0AAA85BB85DE
:1008F0000E94C709269526952695532F5F935F5F23
:10090000E22FAF91EA1748F0102FE12F1150E0309D
:1009100019F00E94CC09F9CFF1CFAE850A1711F179
:10092000EE85AA85BB85F0E00E94C709ED85E770DA
:1009300009F03F5F20E02F932F5FE32FAF91AE17B9
:1009400088F41E851F931F5FE02FAF91AE1718F438
:100950000E94CC09F7CFEE85AE81BF81F0E00E9406
:10096000C709E9CFEF85E7703E2FED85E03009F448
:1009700043C1EA85FB85EE83FF8310E008893030B0
:1009800009F065C0AD85A83008F45CC0E985E030A9
:1009900011F0E33009F402C0E73009F402C0E83096
:1009A00009F402C0E63009F402C0E93009F402C0DB
:1009B000EA3021F40A93E8890E94B8091F931F5F67
:1009C000EE85AF91AE17B8F5A985A63061F444DE87
:1009D000FFDD0E94D909FA93EA933EDEAE2F0E9412
:1009E000620918DE27C0E985E93011F450E00EC035
:1009F000EA3011F45FEF0AC00E94D9090E94E209AF
:100A00005E2FE985E73011F0E83021F40E94E80913
:100A10005E2F06C0E33011F4509502C0E03021F49F
:100A2000A52F0E94C30906C00E94EC09EFEFEA93CC
:100A3000AD85CEDEC3CFEF85E85FEF87ED85E8506B
:100A4000ED87D1C05D8520E0E0E0ED877AC0E32F3F
:100A5000AD85AE0FA93020F42D85E0E0ED8703C011
:100A6000E8E0E31B2E2F3A93A22F0E9410094E2F8D
:100A7000E985E630F1F41F931F5FEE85AF91AE1765
:100A8000B8F40E94F209AE2FE32F0E94740A0E946C
:100A9000F909E32FA42F0E94740AE095E1215E2B4F
:100AA0000E94D909FA93EA93A52F0E946209E3CF25
:100AB0002CC0E93011F450E003C0EA30A9F45FEF34
:100AC0000E94E809AE2FE32F0E946C0A5E2F1F934D
:100AD0001F5FEE85AF91AE1730F40E94EC094A9388
:100AE000A0E076DEF4CF11C01F931F5FEE85AF91BB
:100AF000AE1758F40E94040AAE2FE32F0E946C0A2E
:100B0000EA934A93AD8564DEEFCFED85E03009F4DA
:100B100073C0AD85A83028F4ED85E21B5E2FE0E0C0
:100B200003C0532FED85E850ED8710E0EF85E85FB7
:100B3000EF87E8E0E31B2E2F0889EA85FB85EE832B
:100B4000FF83E52FF0E0E059FD4F4491E985E63061
:100B5000F1F41F931F5FEE85AF91AE17B8F40E94BA
:100B6000F209AE2FE22F0E946C0A0E94F909E22FCF
:100B7000A42F0E946C0AE095E1215E2B0E94D90906
:100B8000FA93EA93A52F0E946209E3CF2CC0E930C3
:100B900011F450E003C0EA30A9F45FEF0E94E809C5
:100BA000AE2FE22F0E94740A5E2F1F931F5FEE8507
:100BB000AF91AE1730F40E94EC094A93A0E008DE32
:100BC000F4CF11C01F931F5FEE85AF91AE1758F49D
:100BD0000E94040AAE2FE22F0E94740AEA934A93FD
:100BE000AD85F6DDEFCFE885AA85BB85F0E0EA0F9D
:100BF000FB1FEA87FB87B9CE0E94B90A6196089568
:100C00000E94110A24F0E0E0F0E00C941909A88198
:100C1000B981A038E0E0BE0724F0EFE7F0E00C94E3
:100C20001909E881F9810C9419090E94110A24F02C
:100C3000E0E0F0E00C941909A881B981A034E0E06B
:100C4000BE0724F0EFE3F0E00C941909E881F98184
:100C50000C941909BA93AA9323970E94180A8F013A
:100C6000002E012A19F4E0E0F0E05FC00E941F0AA4
:100C70000F820E941F0A0E820E941F0A0886EB85BF
:100C8000A885EA1718F4E0E0F0E04FC0F8010F5F24
:100C90001F4F5491A885BB27EE27A50FBE1FEB85DC
:100CA000F0E0EA17FB0718F0E0E0F0E03EC0EE816C
:100CB000E695E695E6954E2FEE81E77009F04F5FD9
:100CC000EF81E030A1F0A985BA85EC93A885EB858A
:100CD000EA1BF0E0DF01EF81F0E00E947C0ADF0117
:100CE000E42FF0E00E947C0AE00FF11F1EC0980183
:100CF000E52FF0E00E0F1F1FA885AF5FA887A1505A
:100D0000EB85AE1760F4F9012F5F3F4FA491B0E07F
:100D1000E42FF0E00E947C0A0E0F1F1FEDCFF901B7
:100D2000E491A985BA85EC93F8010E94B90A2C9642
:100D30000895E0E0E0939C05A0919D05BB270E94EB
:100D4000240AF0E0AE0FBF1FE091A105F0E0AE0F66
:100D5000BF1F6BDFE0939D050895AA9321970E9422
:100D6000180A309709F455C0AF81AA3009F44FC072
:100D7000EF81EA93DE0117966DDFAF01309709F43A
:100D80004AC0E091A005AE81EA0F3E2FA0919C05DC
:100D9000BB27F0E0EA0FFB1F8F010138E0E01E07E0
:100DA00018F0032F1127C5DFE0919C05EA93E0912D
:100DB0009D05EA93E885EA930E94240AEA93E1E01C
:100DC000EA935A934A93A7E03EDDE0919C05AE81F9
:100DD000EA0FEA93E0919D05EA93E091A005EA937A
:100DE0000E94240A0E942B0AE0919C05EA93A0919C
:100DF0009D050E94240AEA0FEA933A93E091A10527
:100E00000E942B0AE0E8F0E0E017F10711F491DF0F
:100E100002C000939C050E94B90A28960895BA93CF
:100E2000AA931A93EC81EA93AC810ED0A981BA817E
:100E3000ED91A983BA831E2FE03019F0A12F8DDF29
:100E4000F5CF18810C94DF08AA93A981BB27D8DEBF
:100E5000E0939C05A881BB27E8DEE0939D050C94F8
:100E600019095F9BFECFECB10895AA935D9BFECF5D
:100E7000E881ECB921960895BA93AA930E94B20A28
:100E80000E811F8128853985002E012AD9F0E9DFDE
:100E90005E2F583051F4AE81BF810A171B0720F432
:100EA000215030400F5F1F4FF2CF5A3059F03F931F
:100EB0002F932F5F3F4FE52FAF91BF91EC930150E0
:100EC0001040E2CFD901E0E0EC93E885F9850E947B
:100ED000B90A2A960895BA93AA93AA81C6DFA8816F
:100EE000B981ED91FD913196FE93EE930C946009DA
:100EF000BA93AA9326970E94B20A10E0AC85BD85EA
:100F0000E0E0F0E0ED93FC93EA89FB893196EA8B0F
:100F1000FB8B3197E4912E2FE03009F415C1E12FBE
:100F2000E03039F4253211F411E002C00E94350A94
:100F30000AC1E130A9F4253219F40E94350A02C130
:100F400012E040E000E02D3211F401E0FCC02B3251
:100F500011F44BE2F8C0203211F440E2F4C002C0B8
:100F6000E23039F450E013E0203311F40068EBC0B4
:100F700003C0E33009F0E7C0203310F02A3308F053
:100F800007C0AAE05A9F502DE22FE0535E0FDBC04E
:100F9000E22FE33649F40E943C0AE889F989A481EA
:100FA000AA930E94420ACEC0E33741F40E943C0A51
:100FB0000E94480A0E94E1081E2F0AC0E03761F42F
:100FC0000E943C0A0E94480A0E94ED081E2F0860F9
:100FD00002600F7730E034C0E43611F0E93611F4E6
:100FE000046002C0E53731F4EAE7F2E0EE83FF8304
:100FF00015E00CC0E83511F4086003C0E83709F0CB
:10100000A1C0E4E8F2E0EE83FF8314E002FF14C025
:101010000E943C0A0E94520AAB85AA233AF4EA8550
:10102000FB850E94680AEA87FB874DE2403011F099
:101030001F5F01C00B7F04C00E943C0A0E94520A3D
:1010400000FD11C0151778F407FF08C002FF04C0A7
:101050000B7F242F115001C020E301C020E20E9429
:10106000350A5150EFCF312F01FF17C03030A1F0BA
:1010700003FF06C0EE81FF812591EE83FF8305C04B
:10108000AE81BF812D91AE83BF830E94350A50305F
:1010900009F051503150EACF4BC020E3EE81FF817F
:1010A0000E94880AE887F987EE81FF813296EE83F5
:1010B000FF83E885F985AA85BB85AE17BF0750F089
:1010C0002F5FA885B985EA85FB85EA1BFB0BEA87BC
:1010D000FB87EFCF2A3328F003FF02C0295F01C04E
:1010E000295D04FD1AC0213320F4A885B985119724
:1010F00009F409C0531710F000FF01C013C020E22B
:1011000007FF0BC020E3006102FF07C00B7F4A937B
:101110000E94420A503009F051500E94350A503066
:1011200009F051503150A885B985129708F0B5CF14
:1011300000FF08C0503031F05150E0E2EA930E94C5
:10114000420AF8CF10E0E0CEAC85BD850E94840A4B
:101150000E94B90A64960895FF92F82E26971A9372
:101160000A93DE0114960E94640A8D01E0E0EC838C
:10117000ED83EE83EF83DE0118960E94640A0E94DD
:10118000840AFA93EA931A930A93EBE6F7E0FA9348
:10119000EA93DE011896ACDE198108812896FF904B
:1011A0000895BA93AA93B981A881109631F0FC8171
:1011B000EB816A8161931197E9F7EB81FC812596B8
:1011C0000895BA93AA93A991B991EE27FF276D913B
:1011D000662311F03196FBCF0895BA93AA93AA27FC
:1011E000BB27E991F9910590002011F01196FBCFF2
:1011F000FD010895BA93AA93AA81BB81CD01E8812C
:10120000F9817191772311F4FC0109C06D91671781
:10121000C1F30196DC01662391F7EE27FF276FC02B
:10122000AA93E881F0E0E059FD4FA491E9810E9482
:101230006C0A22960895AA931A93E981E73011F077
:10124000EA3019F410919A0509C0E93019F41091A7
:101250009B0504C0E830A1F41091AA05E0919B051C
:10126000E03049F0103019F0EFEF188129C0EA8121
:10127000E095188125C0103019F4E0E0188120C0F5
:10128000EA8118811DC0BA93AA93EA81E13021F462
:10129000E881F981E49114C0E23029F4A881B98190
:1012A0000E94910A0DC0E33041F4A881B981E09118
:1012B000B305F091B405099503C0A881B981EC91FB
:1012C00023960895AA93EB81E03029F4E881A9815F
:1012D000BA81EC9314C0E23031F4E881A981BA817B
:1012E0000E949D0A0CC0E33051F4E981FA81FA931F
:1012F000EA93AA81E091B505F091B6050995249687
:101300000895E0939E05F0939F0508950E94C203FF
:10131000E0E0EA93EA9308950E94E201A4EFB1E0CD
:101320000C945A0A0E940F07E0E0EA930895E7EB55
:10133000F5E0FA93EA930895E0E0EA93A4E6B0E0DA
:101340000C94D108E0936200E09162000895E0E01F
:10135000EABBE0916200E860F5CFE77FE0936200CE
:10136000EFEFEABBE881EBBB0E949C020C94A40265
:10137000E695E695E695AE2F0C94FA02E0936100AF
:10138000E091610008950E941F030C940A03EA0F84
:10139000FB1FEE83FF830895EC85EA93EF81F885C8
:1013A0003196EF83F8873197FA93EA93A0E00C9493
:1013B0006209EC85EA93EF81F8853196EF83F8872F
:1013C0003197089566277727DF01CB010C944309F5
:1013D0005A93AA850C941B090A930395E889EA930A
:1013E0005A9308950A930395A8890E943603E4232B
:1013F00008955E2FEC85EA93AF81B88588279927F9
:101400000E9443091E2E08950A930395E889EA93E2
:10141000EE85EA93E985FA853196E987FA8731976F
:10142000D1CFBA93AA93A881B9810E94AE0A089538
:101430000E94B20AE0919E05F0919F050895F8017F
:101440000F5F1F4F04900895E0919E05F0919F0556
:101450003196E4910895EA93E0E0EA93E0E0F0E069
:10146000FA93EA93A9E00C9423042A93AD85BE85F0
:10147000EF85F88909950895E889F9893497E88B0B
:10148000F98B0895AD85BE85EF85F8890995089596
:10149000A889B98914960E94840AEE83FF83AE81DD
:1014A000BF810895A889B98914960E94840AEA87A1
:1014B000FB870895109639F0A89580ED97E0019785
:1014C000F1F71197C9F708950024AF0DB01D0895E5
:1014D000F195E195F0400895EE230E2EEA2F19F0D4
:1014E000EE0F0A94E9F70895EE230E2EEA2F19F075
:1014F000E6950A94E9F70895FA9FF02DEB9FF00D19
:10150000EA9FE02DF10D0895ED91FC91119708955A
:101510000590F491E02D08957A936A93FA93EA93F3
:101520000895E199FECFFF93FFB7F894AEBBBFBB20
:10153000E09AEDB3FFBFFF910895E19B02C0A8952B
:10154000FCCF9FB7F894AEBBBFBBE09A8DB3E81752
:1015500019F0EDBBE29AE19A9FBF089500240A16A4
:101560000B0608955A934A933A932A931A930A932F
:1015700008955D814C813B812A81198108810895FC
:00000001FF
