:0A0000000C949E110C9400000C9467
:10000A0000000C9400000C9400000C9400000C9466
:10001A0000000C9400000C9400000C9400000C9456
:10002A0000000C9400000C9400000C9400000C9446
:10003A0000000C9400000C941E120C9400000C9406
:10004A00CD110C9400000C9400000C9400000C9448
:10005A0000000C9400000C9400000C9400000C9416
:10006A0000000C9400000C9400000C9400000C9406
:10007A0000000C9400000C9400000C9400000C94F6
:10008A00000005072060000000000000005F00007B
:10009A000007000700147F147F14242A7F2A1223E2
:1000AA001308646236495522500005030000001CFB
:1000BA002241000041221C00082A1C2A0808083E86
:1000CA00080800503000000808080808003030000E
:1000DA000020100804023E5149453E00427F40007C
:1000EA0042615149462141454B311814127F10276C
:1000FA00454545393C4A49493001710905033649A4
:10010A00494936064949291E003636000000563646
:10011A000000000814224114141414144122140873
:10012A00000201510906324979413E7E1111117EC0
:10013A007F494949363E414141227F4141221C7F44
:10014A00494949417F090901013E414151327F082C
:10015A0008087F00417F41002040413F017F081489
:10016A0022417F404040407F0204027F7F04081002
:10017A007F3E4141413E7F090909063E4151215EC8
:10018A007F09192946464949493101017F01013F41
:10019A004040403F1F2040201F7F2018207F6314CB
:1001AA000814630304780403615149454300007F3E
:1001BA004141020408102041417F0000040201026B
:1001CA000440404040400001020400205454547846
:1001DA007F484444383844444420384444487F38AB
:1001EA0054545418087E090102081454543C7F08D8
:1001FA0004047800447D40002040443D00007F1004
:10020A00284400417F40007C041804787C080404D8
:10021A007838444444387C14141408081414187C9C
:10022A007C080404084854545420043F4440203CA9
:10023A004040207C1C2040201C3C4030403C44284C
:10024A001028440C5050503C4464544C4400083626
:10025A00410000007F00000041360800020102044C
:10026A00027F4141417F00000000000000000000C1
:10027A000000000000000000000000000000000074
:10028A000000000000000000000000000000000064
:10029A000000000000000000000000000000000054
:1002AA000000000000000000000000000000000044
:1002BA000000000000000000000000000000000034
:1002CA000000000000000000000000000000000024
:1002DA000000000000000000000000000000000014
:1002EA0000000000000000000080C0800000000044
:1002FA0000000000F80000000000008080000000FC
:10030A0000000010080820008000000000000080A3
:10031A00E00000000000800000000078FC000000FF
:10032A000000000000000000000000000038F80093
:10033A000000808000000000000000000080808033
:10034A00000080C0C0C0C0808080000000008080A3
:10035A00000000000000000040E00000000070F013
:10036A0098181C0400000000070C0C0D0700808080
:10037A00C0E73E00070C0C000C0C070D0D070C0C17
:10038A000C0C0E0C0C060C0D0700000000070706EB
:10039A00050F0C0C2C6D6700000000000700808020
:1003AA00C0E73E0000000078E0C0C0C0C0603F0067
:1003BA00808FCDED3F0C0C0C070C0E0F0D0D050FA9
:1003CA000C0C0D0C040603070D0C0C0C0C070D0D80
:1003DA0007000000000E0C0C0C07070C0C0C0C0C90
:1003EA0007000000000000000000000000000000FC
:1003FA0000000000000000000000000000000000F3
:10040A0000000000000000000000000000000000E2
:10041A0000000000000000000000000000000000D2
:10042A0000000000000000000000000000000000C2
:10043A0000000000000000000000000000000000B2
:10044A0000000000000000000000000000000000A2
:10045A000000000000000000000000000000000092
:10046A000000000000000000000000000000000082
:10047A0000000000000000000000000000800000F2
:10048A00000000000000000080C080000000C0C022
:10049A006060701000000000000000000000C0C092
:1004AA00E0606030000000000000000000E0000092
:1004BA000000000000000000000000000000000032
:1004CA000000000000000000000000008080000022
:1004DA000000000000000000000000000000000012
:1004EA000000000000000000000000000000000002
:1004FA00000000000000000000383030311F1C30BE
:10050A00303030181C303030303118303030313320
:10051A001E0000000000001C303030303030313313
:10052A001E0C1830303030301C36361C001F30306C
:10053A00003030181C303030B41E8000000000003B
:10054A0000000CD83030341E00000000019DF90074
:10055A000000000000000000000000000000000091
:10056A000000000000000000000000000000000081
:10057A000000000000000000000000000000000071
:10058A00000001010101000000000000000000005D
:10059A000000000000000000000000000000000051
:1005AA000000000000000000000000000000000041
:1005BA000000010101010000010201000000000227
:1005CA00020303010000010001000202030300000C
:1005DA000000000000000000000000000000000011
:1005EA000000000000000000000000000000000001
:1005FA0000000000000000000000000000000000F1
:10060A0000000000000000000000000000000000E0
:10087A0000000000000000C0C0000000000000806E
:10088A008000000000000000FCFC0000004040C0A6
:10089A00C00000000000000000008080000000008E
:1008AA0000FCFC0000000000000000000000000046
:1008BA00000004FCFC000000808000000000000032
:1008CA00000000008080808000000080808080809E
:1008DA00800000000000000080808000000000000E
:1008EA0000000000000000000000000000000000FE
:1008FA000C0C00000E0E08080F0F08286868684FD5
:10090A000F4040637F1C00000F0F00000E0E080806
:10091A000F074040617F3F0868684F0F00000000E2
:10092A00000F0F4040617F3F00000000003E7E60E4
:10093A004060603F1F00004F4F497B3F0C0808088A
:10094A000F0F0E0B0908090F0F08080B0B0C0C06EA
:10095A000F0D0908080C060F0D0F0F00000000000C
:10096A00000000000000000000000000000000007D
:10097A00000000000000000000000000000000006D
:10098A00000000000000000000000000000000005D
:10099A00000000000000000000000000000000004D
:1009AA00000000000000000000000000000000003D
:1009BA00000000000000000000000000000000002D
:1009CA00000000000000000000000000000000001D
:1009DA00000000000000000000000000000000000D
:1009EA0000000000000000000000000000000000FD
:1009FA0000000000000000000000000000000000ED
:100A0A0000000000000000000000000000000000DC
:100A1A0000000000000000000000000000000000CC
:100A2A0000000000000000000000000000000000BC
:100A3A0000000000000000000000000000000000AC
:100A4A00000000000000000000000000000000009C
:100A5A00000000000000000000000000000000008C
:100A6A00000000000000000000000000000000007C
:100A7A00000000000000000000000000000000006C
:100A8A00000000000000000000000000000000005C
:100A9A00000000000000000000000000000000004C
:100AAA00000000000000000000000000000000003C
:100ABA00000000000000000000000000000000002C
:100ACA00000000000000000000000000000000001C
:100ADA00000000000000000000000000000000000C
:100AEA0000000000000000000000000000000000FC
:100AFA000000000000000000C0C00000000000006C
:100B0A000000000080800000FCFC00000000008063
:100B1A00808000000010B0A00000000000004040EB
:100B2A00C0C00000000000000000FCFC00000080C3
:100B3A008000000000000000FCFC00000000000033
:100B4A0000000000004040C0C0000000000000C0DB
:100B5A00C000000080C0C0C0C0000000000000004B
:100B6A00000000000000000000000000000000007B
:100B7A00000C0C00000E0E08080F0F084868686F7A
:100B8A006F6868686F4F0000070F08080C060F0DA2
:100B9A000B0F0C0808080F0F00000000000E0E08CB
:100BAA00080F074040617F3F00000F0F00004F4FC2
:100BBA00697F3F00000000000F0F4040617F3F0047
:100BCA00000000000E0E08080F0700000E0E0808AD
:100BDA000F0F08080B0F0C0C0404000000000000A3
:100BEA0000000000000000000000000000008080FB
:100BFA0000000000000000000000000000000000EB
:100C0A0000000000000000000000000000000000DA
:100C1A0000000000000000000000000000000000CA
:100C2A0000000000000000000000000000000000BA
:100C3A0000000000000000000000000000000000AA
:100C4A00000000000000000000000000000000009A
:100C5A00000000000000000000000000000000008A
:100C6A000000000000000000000000000000010178
:100C7A00000000000000000000000000000000006A
:100C8A00000000000000000000000000000000005A
:100C9A00000000000000000000000000000000004A
:100CAA00000000000000000000000000000000003A
:100F8A000000000000000000000000000080800057
:100F9A000000000000000000000000000000000047
:100FAA000000000000000000808000000000000037
:100FBA000000000000000000000000000000000027
:100FCA000000000000000000808000000000000017
:100FDA000000000080800000000000000080800007
:100FEA0000000000000000000000000000008080F7
:100FFA0000008080000080800000C0C00018F8E077
:10100A00000000E0E080000002F6F40000FFFF00AC
:10101A000080C0E0B070F080000000F0F000000036
:10102A00000020E0E0000080FF7F203236F4E0007C
:10103A0000040CECEC040008ECEC80000080C0E03A
:10104A00B0F0F00000000000FFFF000060F39BFA20
:10105A00F0000080FF7F203030F0E0000003FFFC4A
:10106A000000000000000000000000000000010174
:10107A00000001010000010100000101010101015C
:10108A0001050D0D0D090101010101000000010119
:10109A000101000101010101010D0D09010000001A
:1010AA0008080C0F070101010101010101010101F9
:1010BA000101010101010101010101010101000117
:1010CA00010101000000000000010101010101010C
:1010DA0001010101010101010101010101010100F7
:1010EA0000000000000000000000000000000000F6
:1010FA0000000000000000000000000000000000E6
:10110A0000000000000000000000000000000000D5
:10111A0000000000000000000000000000000000C5
:10134A0000000000000000000000E0E000000000D3
:10135A000000000000000000000000808000000083
:10136A00000000000000000000000000000000383B
:10137A0078424343434360787840404078784060FD
:10138A007878447C3C000008F8F800007072424605
:10139A007E380000000000F0F002060600FCFC00A7
:1013AA0000787C4CD8F8604042437B7B63404040E5
:1013BA00787840607878447C3C0000000000787EB1
:1013CA00467C78000008F8F800003F7F4040603013
:1013DA00786C5C7C60404040787843637B7B467CD9
:1013EA003C000000000000000000000000000000B7
:1013FA0000000000000000000000000000000000E3
:10140A0000000000000202030301000000000000C7
:10141A0000000000000000010303020303010100B1
:10142A0000020202030100000000000000000000A8
:10143A0000000000000000000000000000000000A2
:10144A000000000202030301000000000000000087
:10145A000000000000000000000000000000000082
:10146A000000000000000000000000000000000072
:10147A000000000000000000000000000000000062
:10148A000000000000000000000000000000E0E092
:10149A000000000000000000000000000000000042
:1014AA0000000000000000008080800000000000B2
:1014BA008080000000000000000000008080808022
:1014CA00C04000000000000000000000E0E0000052
:1014DA000000000000000000000000000000000002
:1014EA0000000000000000000000000000000000F2
:1014FA0000006060000038784243434343607878D4
:10150A00404040787840607878447C3C00007F7F97
:10151A000000000000787E467C780000707040462B
:10152A007E78404040787843637B7B4278784040BD
:10153A00407D7D0000000000387840404143466EFF
:10154A00787040406030786C7C7C00003F7F40407F
:10155A00404078784040407C7C0000000000000059
:10156A000000000000000000000000000000000071
:10157A000000000000000000000000000000000061
:10158A000000000000000000000000000000000051
:10159A000000000000000000000000000000000041
:1015AA000000000000000000000000000000000031
:1015BA000000000000000000000000000000000021
:1015CA00000000000000000000000000000000020F
:1015DA0003030303030B0F0F0200000000000000C7
:1015EA0000000000000000000000000000000000F1
:1015FA0000000000000000000000000000000000E1
:10160A0000000000000000000000000000000000D0
:10161A0000000000000000000000000000000000C0
:10162A0000000000000000000000000000000000B0
:10163A0000000000000000000000000000000000A0
:10164A000000000000000000000000000000000090
:10165A000000000000000000000000000000000080
:10166A000000000000000000000000000000000070
:10167A000000000000000000000000000000000060
:10168A000000000000000000000000000000000050
:10169A000000000000000000000000000000000040
:1016AA000000000000000000000000000000000030
:1016BA000000000000000000000000000000000020
:1016CA000000000000000000000000000000000010
:1016DA000000000000000000000000000000000000
:1016EA0000000000000000000000000000000000F0
:1016FA000000000000008080203030303000808000
:10170A0000000080800000808040C0C00000FEFE13
:10171A00000080C0C08080000000C0CC4C4840C09F
:10172A0080800000808080000000202060E080002F
:10173A000000000000202060E0800000FEFE0000A3
:10174A0000000060E080000040C0C04040C0C0000F
:10175A000818D8D81000000000000000000000009F
:10176A00000000000000000000000000000000006F
:10177A00000000000000030704040404040607072D
:10178A000404040707040607070407030000070701
:10179A0000002727243D1F06040405050606030149
:1017AA0000002020303F1F00000707040407030041
:1017BA0000000000070704040703000007070000F1
:1017CA0007070404070704040405070607050404B9
:1017DA0004040707000000000000000000000000E9
:1017EA0000000000000000000000000000000000EF
:1017FA0000000000000000000000000000000000DF
:10180A0000000000000000000000000000000000CE
:10181A0000000000000000000000000000000000BE
:10182A0000000000000000000000000000000000AE
:10183A00000000000000000000000000000000009E
:10184A00000000000000000000000000000000008E
:10185A00000000000000000000000000000000007E
:10186A00000000000000000000000000000000006E
:10187A00000000000000000000000000B0B0A0005E
:10188A0000FEFE0000C0C0404040C0808000000052
:10189A000080C0C0C0000000000000000060E080BE
:1018AA000000C0C0404040C080800000000000B07E
:1018BA00B0A00000FEFE00000000000000000000D2
:1018CA000080802038B8B830808000000000808016
:1018DA00000000C0C000000000000000000000007E
:1018EA0000000000000000000000000000000000EE
:1018FA00000000000000000000002020303F1F0010
:10190A000003070404050536362307060404040603
:10191A00030706070700000000000707040407077B
:10192A00040405050606030100000000002020301B
:10193A003F1F0000070700000000003E3E60606095
:10194A00203F3F04040707040707042434343737C9
:10195A0004343427070000000000000000000000E3
:10196A00000000000000000000000000000000006D
:10197A00000000000000000000000000000000005D
:10198A00000000000000000000000000000000004D
:10199A00000000000000000000000000000000003D
:1019AA00000000000000000000000000000000002D
:1019BA00000000000000000000000000000000001D
:1019CA00000000000000000000000000000000000D
:1019DA0000000000000000000000000000000000FD
:1019EA0000000000000000000000000000000000ED
:1019FA0000000000000000000000000000000000DD
:101A0A0000000000000000000000000000000000CC
:101A1A0000000000000000000000000000000000BC
:101A2A0000000000000000000000000000000000AC
:101A3A00000000000000000000000000000000009C
:101A4A00000000000000000000000000000000008C
:101A5A00000000000000000000000000000000007C
:101A6A00000000000000000000000000000000006C
:101A7A00000000000000000000000000000000005C
:101A8A00000000000000000000000000000000004C
:101A9A0000F8F8F8383838383838383838383838B4
:101AAA0038383838383838383838383838383838AC
:101ABA00383838383838383838F8F8F8000000003C
:101ACA00000000000000000000000000000000000C
:101ADA0000000000000000000000000000000000FC
:101AEA0000000000000000000000000000000000EC
:101AFA0000000000000000000000000000000000DC
:101B0A0000000000000000000000000000000000CB
:101B1A0000FFFFFF000000000000000000000000BE
:101B2A0000000000000000000000000000000000AB
:101B3A00000000000000000000FFFFFF000000009E
:101B4A00000000000000000000000000000000008B
:101B5A00000000000000000000000000000000007B
:101B6A00000000000000000000000000000000006B
:101B7A00000000000000000000000000000000005B
:101B8A00000000000000000000000000000000004B
:101B9A0000FFFFFF0000000000000000000000003E
:101BAA00000000000000000000000000000000002B
:101BBA00000000000000000000FFFFFF000000001E
:101BCA00000000000000000000000000000000000B
:101BDA0000000000000000000000000000000000FB
:101BEA0000000000000000000000000000000000EB
:101BFA0000000000000000000000000000000000DB
:101C0A0000000000000000000000000000000000CA
:101C1A00000F0F0F0E0E0E0E0E0E0E0E0E0E0E0EE5
:101C2A000E0E0E0E0E0E0E0E0E0E0E0E0E0E0E0ECA
:101C3A000E0E0E0E0E0E0E0E0E0F0F0F00000000EF
:101C4A00000000000000000000000000000000008A
:101C5A00000000000000000000000000000000007A
:101C6A000000000000006D63696E657400000001E9
:101C7A0003070F1F3F7FFF001027E80364000A00D5
:101C8A000100001000011000010000000100000026
:101C9A00000000004D4F544F52202564204F4E2122
:101CAA000041542B485454505445524D0041542B32
:101CBA0048545450494E49540041542B48545450A6
:101CCA00504152413D22434944222C310025733F61
:101CDA0070686F6E655F6E756D6265723D257326FD
:101CEA006465766963655F69643D25642670726F11
:101CFA00647563745F69643D25640041542B4854DC
:101D0A005450504152413D2255524C222C222573A7
:101D1A00220041542B48545450414354494F4E3D9C
:101D2A00310048545450414354494F4E002B4854B3
:101D3A005450414354494F4E3A0025733F70686FDF
:101D4A006E655F6E756D6265723D25730041542B39
:101D5A0048545450414354494F4E3D3000687474BE
:101D6A00703A2F2F3138352E382E3137332E3137FE
:101D7A003A383030302F686F6D652F706F73742F5B
:101D8A0000756E6B6E6F776E00534D532066726FDF
:101D9A006D3A003200330054696D656F7574212005
:101DAA0054727920616761696E2E007465737420BC
:101DBA003221002B434D543A004D6F64756C6520F7
:101DCA00496E69742E2E2E004750525320496E696F
:101DDA0074204661696C6564210025730D0A000050
:101DEA0023302A3938373635343332310705060479
:101DFA000001020050726573732061206B65792EB1
:101E0A002E2E004B657920507265737365643A0013
:101E1A0052657374617274696E672053494D383024
:101E2A00302E2E2E0041542B485454505445524DB6
:101E3A00004F4B004552524F520057616974696E08
:101E4A006720485454505445524D2E2E2E0041546A
:101E5A002B53415042523D302C310057616974690D
:101E6A006E672053415042523D302C312E2E2E00A7
:101E7A0041542B53415042523D322C310053415070
:101E8A00425200302E302E302E30002C302C002CB6
:101E9A00332C00436865636B696E67205341504277
:101EAA005220636C6F7365642E2E2E0041542B43AF
:101EBA00474154543D300057616974696E67204345
:101ECA00474154543D302E2E2E0041542B43465543
:101EDA004E3D312C31005265626F6F74696E672C0A
:101EEA00207761697420666F722041542E2E2E006D
:101EFA00415400415445300057616974696E672046
:101F0A00415445302E2E2E0046696E616C20415494
:101F1A0020636865636B2E2E2E005265737461729E
:101F2A007420446F6E65210041542B4350494E3F43
:101F3A00004350494E002B4350494E3A0041542B1E
:101F4A00435245473F0043524547002B43524547BA
:101F5A003A0057616974696E6720666F72206E6510
:101F6A0074776F726B2E2E2E004E6574776F726BBC
:101F7A00204F4B210041542B435351002B435351C3
:101F8A003A004E6F207369676E616C2061667465F2
:101F9A00722025642072657472696573210A005380
:101FAA00657474696E6720534D53204D6F64652EB6
:101FBA002E2E0041542B4346554E3D310041542BA1
:101FCA004353434C4B3D300041542B434D47463D10
:101FDA00310041542B434E4D493D322C322C302C8A
:101FEA00302C300041542B434D4744413D22444557
:101FFA004C20414C4C2200534D5320526561647968
:10200A002E00436F6E6E656374696E6720746F206D
:10201A00475052532E2E2E0041542B5341504252B8
:10202A003D332C312C22436F6E74797065222C2239
:10203A0047505253220041542B53415042523D3390
:10204A002C312C2241504E222C222573220041543D
:10205A002B53415042523D312C310046657463681E
:10206A00696E672049502E2E2E002B534150425242
:10207A003A004E6F2049500041542B48545450495D
:10208A004E49540041542B48545450504152413DFA
:10209A0022434944222C310041542B485454505075
:1020AA004152413D2255524C222C22687474703A96
:1020BA002F2F7777772E676F6F676C652E636F6D3B
:1020CA00220041542B48545450414354494F4E3DE9
:1020DA00300048545450414354494F4E002B485401
:1020EA005450414354494F4E000001002D4E414E79
:1020FA0000494E46000001000200941C080004003A
:10210A00961C0C000005AB1C0C000C05B71C140037
:10211A001805C31C10002C051C1D0B003C052C1DAA
:10212A000D004705371D0C005405AB1C0C0060055B
:10213A00AB1C0C006C05B71C14007805C31C1000FE
:10214A008C05571D0B009C052C1D0D00A705371D7E
:10215A000C00B405AB1C2400C005671D0800E4058B
:10216A008B1D0A00EC05931D0200F605D51C020022
:10217A00F8059D1D0200FA059F1D1400FC05A11D0E
:10218A0008001006B51D06001806BD1D0F001E0624
:10219A00C31D12002D06D21D0F003F06FE1D0D00A5
:1021AA004E060D1E15005B061A1E0C0070062F1E29
:1021BA0003007C063B1E06007F063E1E14008506B1
:1021CA00441E0D009906581E0300A6063B1E150064
:1021DA00A906651E0D00BE067A1E0600CB06871EDE
:1021EA000800D1068D1E0400D906951E0400DD06DE
:1021FA00991E1900E1069D1E0B00FA06B61E030081
:10220A0005073B1E13000807C11E0C001B07D41E3E
:10221A00030027073B1E1A002A07E01E0300440793
:10222A00FA1E030047073B1E05004A07FD1E03006E
:10223A004F073B1E10005207021F03006207FA1ED7
:10224A00030065073B1E12006807121F0E007A077B
:10225A00241F09008807321F050091073B1F07004A
:10226A009607401F09009D07471F0500A607501F34
:10227A000700AB07551F1700B2075C1F0C00C90700
:10228A00731F0700D5077F1F0400DC07821F0600A3
:10229A00E007861F1400E607A91F0A00FA07BD1FF8
:1022AA000B000408C71F0A000F08D21F12001908E2
:1022BA00DC1F13002B08EE1F0B003E08012016003E
:1022CA0049080C201E005F0822200D007D085820B6
:1022DA0003008A083B1E0F008D0865200D009C082C
:1022EA007A1E0600A908871E0800AF087420080095
:1022FA00B70874200600BF087C200C00C5082F1EF2
:10230A000C00D10882201400DD088E202A00F10872
:10231A00A22010001B09CC200B002B09DC200C008A
:10232A003609E7200C0042092F1E0100D90BF420C0
:10233A000000F894EE27ECBBF1E0F5BFE5BFE093AF
:10234A006C008DE0A2E0BB27ED938A95E9F780E067
:10235A0090E1A0E0B1E0ED930197E9F7E0E0F1E266
:10236A0085919591009761F0A591B5910590159089
:10237A00BF01F00105900D920197E1F7FB01F0CF43
:10238A00EFEFEDBFE0E1EEBFC0E0D5E00C94E5145D
:10239A00AA93EA93FA93EFB7EA931A930A931BB1B3
:1023AA000CB1E12FEC71E9F4E0916C09EF5FE09375
:1023BA006C09E150F0E0E25BF44F0083A0916C09F4
:1023CA00A43619F4E0E0E0936C09A0916B09AF5FC1
:1023DA00A0936B09A43629F4E0E0E0936B096894B2
:1023EA0020F809911991E991EFBFF991E991A99121
:1023FA0018951A93E0916B09E030E1F3E0916D09C9
:10240A00EF5FE0936D09E150F0E0E25BF44F108179
:10241A00A0916D09A43619F4E0E0E0936D09F894EF
:10242A00E0916B09E150E0936B097894E12F1991DF
:10243A0008956A937A93EA93FA93EFB7EA930E941C
:10244A00D121EF5DFF4F6F4F7F4FE0937E0AF093EC
:10245A007F0A6093800A7093810AE991EFBFF9912C
:10246A00E991799169911895AA9321970E94DA21A5
:10247A00AF81B0E0E8E0F0E00E942824EE8330E08B
:10248A00EE813E1750F520E0E8852E1720F5F80179
:10249A000F5F1F4FA985BA85EA0FFB1F449150E0D1
:1024AA005830B8F4E52F0E94DF21A42F0E94E421BE
:1024BA0071F0E22FAC85EA0FEA93E32FEE0FEE0FED
:1024CA00EE0FAC85EA0FE50FAE2F0E944E1D5F5F3F
:1024DA00E7CF2F5FD9CF3F5FD3CF0E947F242D96BE
:1024EA0008952497F8940E94D1210E944824789450
:1024FA000E94432424960895BA93AA9364970E944B
:10250A007A2428EE33E0E88DF98DE130A0E0FA076D
:10251A0011F412E00DC0E230A0E0FA0711F413E062
:10252A0007C0E330A0E0FA0711F414E001C03BC091
:10253A00FE013496FA93EA93EEE9FCE1FA93EA9300
:10254A00EC8DFD8D0E94E9210E94EE210E94C11AA4
:10255A00EAE0EA93E4E1EA93DE0116960E943D1E60
:10256A0013B0E12FA1E00E94E923E129E3B981999F
:10257A0004C00024021603060CF007C0A1E0B0E074
:10258A000E94D22321503040F2CF13B0E12FA1E0B4
:10259A000E94F321E3B90E94F8210E94FE21A0E4DF
:1025AA0063DF0E9405220E9481246A9608950E9490
:1025BA0009220E94CD15A0E0B5E00E941822ACE0E5
:1025CA00B5E00E941822A8E1B5E00E9418220E94F4
:1025DA002022EFEFF0E0FA93EA93E7EDFCE1FA93B9
:1025EA00EA93FE01E958FE4F0190F081E02D0E9426
:1025FA0025220E9425220E94E921FE01E158FE4F70
:10260A000190F081E02D0E94E92180E10E94F81FEB
:10261A0066960E943022DE01A95FBE4F0E941822F0
:10262A00ACE2B5E00E9418220E9440220E94452294
:10263A00ACE3B5E0B7D2E03031F00E944022E7E4E3
:10264A00F5E00E945022A4D2A4E5B5E00E945E22E1
:10265A0011F4E1E001C0E0E00E947F24EF96E496E5
:10266A00DF5F08950E9409220E94F821E0E7FEE058
:10267A000E946C228DD2A0E6B5E00E941822ACE638
:10268A00B5E00E941822A8E7B5E00E9418220E942D
:10269A002022E4E4FDE1FA93EA93FE01EF58FE4FAB
:1026AA000190F081E02D0E9473220E94782288E036
:1026BA000E94DD1F2C960E942022EFEFF0E0FA9391
:1026CA00EA93E4E4FDE1FA93EA930E947822FE0198
:1026DA00EB58FE4F0190F081E02D0E94732288E0B2
:1026EA000E94F81F2E960E943022DE01A95FBE4F7B
:1026FA000E941822ACE8B5E00E9418220E944022EB
:10270A000E944522ACE9B5E04DD2E03031F00E949A
:10271A004022E7EAF5E00E9450223AD2A4EBB5E063
:10272A000E945E2211F4E1E001C0E0E00E947F24F1
:10273A00EF96E096DF5F0895A5970E94782400EC53
:10274A0015E020E030E040E050E0E6E8FAE00E94E0
:10275A007F22E0E0F0E00E947F22EEA1FFA1309705
:10276A0039F0FE013696FA93EA93A8A5B9A506C0F0
:10277A00FE013696FA93EA93A4EEB5E00E94682029
:10278A000E94F821ACEEB5E00E943D1E0E9488220C
:10279A00DE0118960E943D1E0E948D22AAEEBAE022
:1027AA000E943D1EA8ECB0E00E94D2230E94922211
:1027BA00A6EFB5E00E945420E03089F00E949222F0
:1027CA00A8EFB5E00E945420E03049F00E9492221E
:1027DA00AAEFB5E00E945420E03009F07FC01A93B6
:1027EA000A93DE0118963EDFE03009F46CC00E94BD
:1027FA00F821E0E7FAE00E946C22E0E0EA93E0E2E6
:10280A00EA93E0E7FAE1FA93EA93E0E8EA93A0E2CE
:10281A002BDEE0E4EA93EAE2EA93AAEEBAE00E9447
:10282A003D1EE0E0E8A740E050E0483CE0E05E07FB
:10283A0064F40E94EF16E8A7E03039F4AAE0B0E0A9
:10284A000E94D2234F5F5F4FF0CFE8A5E03069F4D2
:10285A000E94C11AEAE0EA93E9E1EA93ACEFB5E033
:10286A000E943D1EA8ECB0E02BC0E091EA0AA8A5A0
:10287A00EA17D1F40E94C11AE091EA0AF0E0F0974F
:10288A009F01D90139DEE0E0EA93E0E2EA930E948F
:10289A00FE21A0E2E9DD1A930A930E9420223A93CC
:1028AA002A93D20184DE0EC00E94C11AE5E0EA939F
:1028BA00E9E1EA93A0E1B6E00E943D1EACE2B1E094
:1028CA000E94D2230AC00E94F821E0E7F6E10E94A2
:1028DA006C22ACE2B1E00E94D2230AC00E94F82125
:1028EA00E0E7F2E10E946C22A8ECB0E00E94D22359
:1028FA00E89421F80E947F24AB9608951A93A09138
:10290A006B09A13010F021FE01C058C072DD1E2FE4
:10291A00E091B20BE03071F51A30D9F4E091B30BC3
:10292A00F0E0EA57F54FA0E0A083E6E8FAE0FA9370
:10293A00EA93A8E1B6E00E94A520309731F0E1E0E1
:10294A00E093B20BE0E0E093B40BE0E0E093B30B6A
:10295A0010C01D3071F0A091B30BA33650F4E09172
:10296A00B30BEF5FE093B30BE150F0E0EA57F54F9A
:10297A00108323C01A3089F4E091B40BF0E0E651D9
:10298A00F54FA0E0A083689421F8E0E0E093B20B51
:10299A00E093B30BE093B40B10C01D3071F0A0911B
:1029AA00B40BA33650F4E091B40BEF5FE093B40B91
:1029BA00E150F0E0E651F54F1083A1CF0C94BB191A
:1029CA002697E0E0EABBEBBBE7BBE0EFE8BBE7E05A
:1029DA00E4BBE0EFE5BBE0E0E1BBE2E0E2BBECE355
:1029EA00E2B9E0E0E3B9E0936100E0936200E093CA
:1029FA006400E0936500E0BFE7E0E3BFE0E0E2BF28
:102A0A00E1BFEFBDEEBDEDBDECBDE7BDE6BDEBBD83
:102A1A00EABDE9BDE8BDE0937900E0937800E5BD41
:102A2A00E4BDE3BDE0938B00E0938A00E093890064
:102A3A00E0938800E0938100E0938000E0938700B0
:102A4A00E0938600E0938500E0938400E09383009E
:102A5A00E0938200E1E0E7BFE0E0E0937D00E093ED
:102A6A006A00EABFE9BFEBB9E8E9EAB9E6E0E09350
:102A7A009500E0E0E0939000E3E3E9B9E0E0E09359
:102A8A009A00E0E8E8B9E0E0E0BDE6B9EDB9E09324
:102A9A007400E0E8E4BFE4BFECE8F0E0E883F9831F
:102AAA00E0E0EA83EB83EC83ED83DE010E94421AC5
:102ABA00ECE8F0E00E94972278940E94F821AEE1B7
:102ACA00B6E00E943D1E0E9405220E9439170E940C
:102ADA002D180E949C180E94BF180E94E218E0302C
:102AEA0039F40E94F821ADE2B6E00E949C22EDCFB3
:102AFA000E94C11AE0E0EA93EA93E0E7F2E00E945A
:102B0A006C22FCDE21FE0AC0E1E0E093B50B14DE84
:102B1A00E0E0E093B50B3CD00E94C11AE091B50BFE
:102B2A00E030A9F4DEDCDF01CB01E091820AF0910A
:102B3A00830A6091840A7091850A0E94E023A13574
:102B4A00E3ECBE07E0E08E07E0E09E0708F40EC063
:102B5A000E946519C6DCE093820AF093830A6093A7
:102B6A00840A7093850A14D00E94C11AC3CFFFCF7A
:102B7A00BA93AA93E4EEFDE1FA93EA93EA81FB8120
:102B8A000E94732284E00E941F2026960C94401A09
:102B9A00E0E0E0936D09E0936C09E0936B09E89437
:102BAA0020F80895BA93AA932497E0E0E883E9838A
:102BBA00EA83EB830E94DA2120E030E0AA85BB8514
:102BCA000E947520AF01EA89FB89FA93EA93E0E053
:102BDA00EA93AB89BC890E944420EC85FD856E8509
:102BEA007F85AE81BF81888599850E94732430F4E0
:102BFA00E889F98931970E171F070CF05BC0A0917D
:102C0A006B09A13030F0E889F98931970E171F074F
:102C1A000CF02EC021970E94FE11E883F8010F5F85
:102C2A001F4FAB89BC89EA0FFB1FA881A083F8015B
:102C3A00AB89BC89AE0FBF1FE0E0EC93022E032ADA
:102C4A0019F4041715070CF411C0EB89FC89FA93DF
:102C5A00EA93AD85BE850E94A520309739F021E020
:102C6A0030E0E0E0EF83E887E987EA872196C7CF7B
:102C7A00022E032A61F0AE81BF8188859985A53627
:102C8A00E0E0BE07E0E08E07E0E09E0708F401C03E
:102C9A0011C0A1E0B0E00E94D223EE81FF816885D5
:102CAA007985EF5FFF4F6F4F7F4FEE83FF83688712
:102CBA00798793CFD801E0E0F0E00E9407240E94D0
:102CCA007F2464960895BA93AA930E94DA2120E099
:102CDA0030E0EE85FF85FA93EA93AE85BF850E94C0
:102CEA00A520AF01042E052A09F46EC0AC85BD8566
:102CFA000E9475204E0F5F1FDA01AC91A03221F0BD
:102D0A00DA01AC91A93019F44F5F5F4FF5CFDA01C0
:102D1A00EC91E03029F0EA85FB85E017F1070CF425
:102D2A0053C0EA85FB85E017F10779F5DA01EC91E2
:102D3A00E03089F0AC91AC3271F0DA01AC91AD308F
:102D4A0051F0DA01AC91AA3031F0EE81FF8131976E
:102D5A002E173F070CF00FC0F9012F5F3F4FA885D0
:102D6A00B985EA0FFB1F0F01DA014F5F5F4FEC9144
:102D7A00D001EC93DBCFF901A885B985AE0FBF1F4F
:102D8A00E0E0EC93E1E0F0E021C0DA01EC91E03020
:102D9A0019F0AC91AC3209F403C04F5F5F4FF5CF25
:102DAA00DA01AC91AC3211F44F5F5F4FDA01AC91AA
:102DBA00A03221F0DA01AC91A93019F44F5F5F4FCC
:102DCA00F5CF0F5F1F4FA3CFE0E0F0E00E947F2412
:102DDA0060960895639783E1A0E0B0E0EAEEFDE132
:102DEA000E9486241A930A9300E00330C0F5E5B3E3
:102DFA00E760E5BB15B2E02FF0E0DE015296AE0FB8
:102E0A00BF1FEC91A1E00E94F321E5BB10E0143052
:102E1A0020F50E94A222A12D0E94E421E1F4AAE059
:102E2A00B0E00E94D2230E94A222A12D0E94E42196
:102E3A0091F40E94A222A12D0E94E421D1F3A3E0E1
:102E4A001A9FF001DE011296AE0FBF1FEE27A00FE8
:102E5A00BE1FEC9105C01F5FDACF0F5FC6CFE0E05F
:102E6A0019810881659608950E94F821ABE5B6E0BC
:102E7A000E943D1E0E94CD15A0E7B6E00E94AB223B
:102E8A000E94AE220E94B322ACE7B6E00E94D71598
:102E9A00E030B9F40E9440220E94AE22E8EEF3E04C
:102EAA0060E070E00E944D24AFE7B6E00E94D715BB
:102EBA00E03039F40E948822A5E8B6E00E949C22FC
:102ECA00D9CF0E94CD15A9E9B6E00E94AB220E9493
:102EDA00AE220E94BA22A6EAB6E00E94D715E030D6
:102EEA0039F40E948822A9EAB6E00E949C22E9CF1E
:102EFA002297E0E0E883E983E881F9813097A1F538
:102F0A000E94CD15AEEBB6E00E94AB220E94AE2223
:102F1A000E94B322ABECB6E00E94D715E030E9F08C
:102F2A000E944022A1EDB6E00E94A520309781F4CC
:102F3A000E944022A9EDB6E00E94A520309741F4F4
:102F4A000E944022ADEDB6E00E94A520309729F0FC
:102F5A00E1E0F0E0E883F98307C00E948822A1EE4D
:102F6A00B6E00E949C22C8CF22960E94CD15AAEFF5
:102F7A00B6E00E94AB220E94AE220E94BA22A5E0CD
:102F8A00B7E00E94D715E03039F40E948822A8E001
:102F9A00B7E00E949C22E9CF0E94CD15ABE1B7E0D1
:102FAA000E94AB220E94AE220E94B322A7E2B7E09F
:102FBA000E94D7150E948822AAE2B7E00E943D1E0D
:102FCA000E94CD15A4E4B7E00E94AB220E94AE2273
:102FDA000E94B322A7E4B7E00E94D715E03019F4A3
:102FEA000E94C122EDCF0E94CD15AAE4B7E00E944B
:102FFA00AB220E94AE220E94B322AFE4B7E00E9445
:10300A00D715E03039F40E948822A2E5B7E00E9481
:10301A009C22E9CF0E94CD15A2E6B7E00E94AB221E
:10302A000E94AE220E94B322A5E6B7E00E94D715FD
:10303A00E03039F40E948822A8E6B7E00E949C2278
:10304A00E9CF0E948D22AAE7B7E00E943D1E0895AB
:10305A000E947A240E94C11A0E94CD15A8E8B7E0FE
:10306A000E94AB220E944522A1E9B7E00E94D7152F
:10307A00E03059F00E944022E6E9F7E00E94C522BA
:10308A0011F00E94D5220E94C12276D20E94CD154B
:10309A00ADE9B7E00E94AB220E94AE220E94B322A1
:1030AA00A6EAB7E00E94D715E03071F00E944022EC
:1030BA00EBEAF7E00E945022309731F00E94DD22BD
:1030CA00E130A0E0FA0749F0E0E0EA93EFE0EA93A2
:1030DA00A2EBB7E00E943D1ED9CF4ED20E948D22AC
:1030EA00A9ECB7E00E949C22E1E068C20E94CD15DB
:1030FA00A5EDB7E00E94AB220E944522ACEDB7E0F5
:10310A000E94D715E03091F00E944022E0EEF7E0ED
:10311A000E94C52259F030D20E94D5220E9405226F
:10312A000E94DD2235970CF4C9C0BCC0C7C01A93EF
:10313A000A9300E010E00330E0E01E0754F4D6DF03
:10314A00E03011F0E1E013C08FDE82DF0F5F1F4F26
:10315A00F2CFECE8FFE1FA93EA93E3E0F0E060E013
:10316A0070E00E944D2484E00E941F202696099157
:10317A00199108950E94F821A6EEB7E00E943D1E1B
:10318A00AAEFB7E00E94E122A4E0B8E00E94E1229F
:10319A00AFE0B8E00E94E122A9E1B8E00E94E12292
:1031AA00ABE2B8E00E94E1220E948822AEE3B8E0D6
:1031BA000E943D1EA2E3B0E073C00E94F821A9E478
:1031CA00B8E00E943D1EAFE5B8E00E94BD150E941E
:1031DA00C122E6EBFBE0FA93EA93E0E4F0E2FA9329
:1031EA00EA93E0E7FCE10E9473220E94EE21A6EB3B
:1031FA00BBE00E941822ADE7B8E00E94AB220E9411
:10320A004522AAE8B8E00E94D715E03039F0E0E09C
:10321A00EA93EA93AEE7B9E00E949C220E94F82161
:10322A00ADE8B8E00E943D1EE3E0BE1608F040C0DB
:10323A000E94CD15ACE9B8E00E94AB220E9445225B
:10324A00A9EAB8E00E94D715E03071F10E94402245
:10325A00EFEAF8E00E945022309731F10E94DD2215
:10326A00E130A0E0FA0701F50E944022E7EBF8E01E
:10327A00FA93EA93E2E0F0E0FA93EA93EEE6F9E0F1
:10328A00FA93EA93A0E1B0E00E946816309761F0E1
:10329A000E94F821AEE6B9E00E943D1EACE2B1E020
:1032AA000E94D223E1E00895B3940E94C122BCCFC8
:1032BA000E94F821AFEBB8E00E943D1EE0E00895BD
:1032CA000E94CD15A5ECB8E00E941822A1EDB8E045
:1032DA000E941822ADEDB8E00E941822A1EFB8E0D2
:1032EA000E941822ABE1B9E00E9418220E944022F3
:1032FA000E944522ABE2B9E00E94D715E03081F086
:10330A000E944022E6E3F9E00E945022309741F001
:10331A00E0E0EA93E0E1EA93AEE6B9E00E949C229B
:10332A000E94CD15A2E4B9E00E94BD150E94C122F7
:10333A0008950000E0916200E061E09362000000FD
:10334A000895E0916200EF7E0E94E722EF7D0E94DD
:10335A00E722EF7BE093620008951A93EADF19B33C
:10336A00E0916200EF7EE0936200E12F19910895E7
:10337A00AA931A930E94EC22EB7FE0936200E98100
:10338A00EF5F1E2F10FF04C0E0916200E06203C0ED
:10339A00E0916200EF7DE093620011FF04C0E091CA
:1033AA006200E06403C0E0916200EF7BE093620098
:1033BA00D4DFE078E9F718815EC0AA93A981D8DF43
:1033CA00E09162000E94F22256C0E091D50BEA9386
:1033DA00E091D40BEF73E064AE2FEFDFE091D50BF1
:1033EA00EA93E091D60BE86BAE2FE7DF0895AA9334
:1033FA00E981E093D40BE295EF70E695E695E093C8
:10340A00D50BE881E093D60BE0DF35C0A091D40B51
:10341A00AF5FA093D40BA03818F0E0E0E093D40B90
:10342A00E091D40BEF7331F4E091D40BEA93A091BD
:10343A00D60BDDDF0895AA93A091D50B99DFE09111
:10344A006200E4600E94E7220E94F2220C94641E49
:10345A00A091D50B8DDF0E94EC22E460E09362001C
:10346A007CDF0895AA93E981EA93E9810E94FD220B
:10347A00EFDFABDFEDDF22960895BA93AA931A9392
:10348A00E0916100E0610E940323E8600E94032347
:10349A00E4600E940323E068E0936100E091620027
:1034AA00E068E0936200E0916100E0620E94032319
:1034BA00E064E093610045DFE0916200EF77E0931A
:1034CA0062000E94C122E0916200E068E09362001B
:1034DA0010E0123040F41A93AFE36FDF1A9313959A
:1034EA00A0EC6BDFF6CFE1E0E0934E09E0E0E09379
:1034FA004F09E981FA813097A9F0A981BA810E941E
:10350A003B240E949722A981BA8112960E943B24E9
:10351A00E0936709F0936809A981BA8114960E9419
:10352A003B240AC0E0E0F0E00E949722E0E0F0E0ED
:10353A00E0936709F0936809E0936909F0936A09CF
:10354A00E1E0E0935409E0935509E0935609EFEF5F
:10355A00E0935709E1E0E0935E09EFE5F9E0FA93B9
:10356A00EA93EFEFEA93A8E0B0E00E94442004D087
:10357A00E1E01881239608950E947A2400E030E061
:10358A00E0914F09E03009F00FEF383078F4E0E0CD
:10359A00EA93A32F3F5F2BDF10E0A12F1F5FA03814
:1035AA0020F4A02F0E940823F8CFEFCFE0E0EA939F
:1035BA00A0E01DDFE0E0EA93A0E06FD30E9481243F
:1035CA0024960895AA931A930A93AC81A03818F402
:1035DA00AB81A03420F0198108810C945220EC812F
:1035EA00EA93AC813FDF1E2FF0DEEB81E770A1E0AA
:1035FA000E94E9230E2FEA81E03011F0102B03C05C
:10360A00E02FE0951E23A12F16DF198108810C9463
:10361A005220AA931A93ED81EA93AD8123DF1E2FDC
:10362A00D4DEE981E73011F0E83039F4EB81EA932E
:10363A00AA810E945721EB8308C0E33021F4EB8171
:10364A00E095EB8302C0E03021F4EA81E0951E2385
:10365A0002C0E23029F4EA81AB81EA231E2B0EC0B4
:10366A00E13029F4EA81AB81EA231E2707C0E4305E
:10367A0029F4EA81E095AB81EA2B1E23A12F0E944F
:10368A00082318810C941321AA9323970E94782463
:10369A00A889A03848F4AF85A03430F4AE85A030AC
:1036AA0019F0AD85A03009F4C6C1EE85E887A8896E
:1036BA00BB27EE85F0E0AE0FBF1FA138E0E0BE07E2
:1036CA0020F0A889E0E8EA1BEE872D85AF85BB27A5
:1036DA00ED85F0E0AE0FBF1FA134E0E0BE0720F099
:1036EA00AF85E0E4EA1BED87A985A63009F05BC047
:1036FA00EC85E13009F49FC1E33039F4E0916909BE
:10370A00F0916A09309709F496C10885ED85E69526
:10371A00E695E6953E2FE22FE77019F4AD852A1754
:10372A00E9F0A02FBB27E32FF0E00E940D24AA8521
:10373A00BB850E940C23269526952695532F5F93C9
:10374A005F5FE22FAF91EA1748F0102FE12F115077
:10375A00E03019F00E941123F9CFF1CFAE850A1794
:10376A0011F1EE85AA85BB85F0E00E940C23ED8558
:10377A00E77009F03F5F20E02F932F5FE32FAF91AF
:10378A00AE1788F41E851F931F5FE02FAF91AE1707
:10379A0018F40E941123F7CFEE85AE81BF81F0E0C5
:1037AA000E940C23E9CFEF85E7703E2FED85E030CC
:1037BA0009F441C1EA85FB85EE83FF8310E008899D
:1037CA00303009F065C0AD85A83008F45CC0E985E1
:1037DA00E03011F0E33009F402C0E73009F402C026
:1037EA00E83009F402C0E63009F402C0E93009F40D
:1037FA0002C0EA3021F40A93E8890E94FD221F934D
:10380A001F5FEE85AF91AE17B8F5A985A63061F4B2
:10381A001FDEDBDD0E941E23FA93EA9319DEAE2F28
:10382A000E949E21F3DD27C0E985E93011F450E0BA
:10383A000EC0EA3011F45FEF0AC00E941E230E94F4
:10384A0027235E2FE985E73011F0E83021F40E9442
:10385A002D235E2F06C0E33011F4509502C0E030EC
:10386A0021F4A52F0E94082306C00E943123EFEFFE
:10387A00EA93AD85CEDEC3CFEF85E85FEF87ED85AE
:10388A00E850ED87CFC05D8520E0E0E0ED877AC0A3
:10389A00E32FAD85AE0FA93020F42D85E0E0ED874A
:1038AA0003C0E8E0E31B2E2F3A93A22F0E944C217B
:1038BA004E2FE985E630F1F41F931F5FEE85AF9135
:1038CA00AE17B8F40E943723AE2FE32F0E94F123DC
:1038DA000E943E23E32FA42F0E94F123E095E121C9
:1038EA005E2B0E941E23FA93EA93A52F0E949E2123
:1038FA00E3CF2CC0E93011F450E003C0EA30A9F458
:10390A005FEF0E942D23AE2FE32F0E94E9235E2F43
:10391A001F931F5FEE85AF91AE1730F40E943123DB
:10392A004A93A0E076DEF4CF11C01F931F5FEE85A5
:10393A00AF91AE1758F40E944923AE2FE32F0E948D
:10394A00E923EA934A93AD8564DEEFCFED85E03053
:10395A0009F471C0AD85A83028F4ED85E21B5E2F0D
:10396A00E0E003C0532FED85E850ED8710E0EF85C6
:10397A00E85FEF87E8E0E31B2E2F0889EA85FB85DD
:10398A00EE83FF83E52FF0E0E858F34E4491E98592
:10399A00E630E1F41F931F5FEE85AF91AE17A8F4EE
:1039AA000E943723AE2FE22F0E94E9230E943E2372
:1039BA00E22FA42F0E94F3215E2B0E941E23FA936A
:1039CA00EA93A52F0E949E21E5CF2CC0E93011F47D
:1039DA0050E003C0EA30A9F45FEF0E942D23AE2F16
:1039EA00E22F0E94F1235E2F1F931F5FEE85AF9196
:1039FA00AE1730F40E9431234A93A0E00ADEF4CFD6
:103A0A0011C01F931F5FEE85AF91AE1758F40E9445
:103A1A004923AE2FE22F0E94F123EA934A93AD8500
:103A2A00F8DDEFCFE885AA85BB85F0E0EA0FFB1F3A
:103A3A00EA87FB87BBCE0E947F24619608950E9485
:103A4A00562324F0E0E0F0E00C945521A881B981D6
:103A5A00A038E0E0BE0724F0EFE7F0E00C9455212F
:103A6A00E881F9810C9455210E94562324F0E0E064
:103A7A00F0E00C945521A881B981A034E0E0BE079A
:103A8A0024F0EFE3F0E00C945521E881F9810C94DD
:103A9A005521AA93E981EA93E981EA93A0914E0913
:103AAA0091DD0C945521BA93AA9323970E945D2322
:103ABA008F01002E012A19F4E0E0F0E05FC00E94B5
:103ACA0064230F820E9464230E820E946423088664
:103ADA00EB85A885EA1718F4E0E0F0E04FC0F8019A
:103AEA000F5F1F4F5491A885BB27EE27A50FBE1F56
:103AFA00EB85F0E0EA17FB0718F0E0E0F0E03EC0E3
:103B0A00EE81E695E695E6954E2FEE81E77009F08F
:103B1A004F5FEF81E030A1F0A985BA85EC93A885C3
:103B2A00EB85EA1BF0E0DF01EF81F0E00E940D2453
:103B3A00DF01E42FF0E00E940D24E00FF11F1EC008
:103B4A009801E52FF0E00E0F1F1FA885AF5FA88729
:103B5A00A150EB85AE1760F4F9012F5F3F4FA49196
:103B6A00B0E0E42FF0E00E940D240E0F1F1FEDCFEE
:103B7A00F901E491A985BA85EC93F8010E947F24A2
:103B8A002C960895E0E0E0935009A0915109BB27D3
:103B9A000E946923F0E0AE0FBF1FE0915509F0E0E3
:103BAA00AE0FBF1F61DFE09351090895AA932197D1
:103BBA000E945D23309709F455C0AF81AA3009F4F9
:103BCA004FC0EF81EA93DE0117966DDFAF013097A0
:103BDA0009F44AC0E0915409AE81EA0F3E2FA09140
:103BEA005009BB27F0E0EA0FFB1F8F010138E0E024
:103BFA001E0718F0032F1127C5DFE0915009EA9339
:103C0A00E0915109EA93E885EA930E946923EA93CD
:103C1A00E1E0EA935A934A93A7E036DDE09150092E
:103C2A00AE81EA0FEA93E0915109EA93E0915409CF
:103C3A00EA930E9469230E947023E0915009EA9353
:103C4A00A09151090E946923EA0FEA933A93E091FD
:103C5A0055090E947023E0E8F0E0E017F10711F43B
:103C6A0091DF02C0009350090E947F24289608958C
:103C7A00BA93AA931A93EC81EA93AC810ED0A981E4
:103C8A00BA81ED91A983BA831E2FE03019F0A12FD2
:103C9A008DDFF5CF18810C945220AA93A981BB27F6
:103CAA00CEDEE0935009A881BB27DEDEE0935109FE
:103CBA000C945521AA935D9BFECFE881ECB921961D
:103CCA000895BA93AA93AA81F5DFA881B9810E94BF
:103CDA007A230C949C21BA93AA931A930A93AA81E1
:103CEA00BB8112960E943B24309729F1AA81BB819D
:103CFA0014960E943B248F01309761F00230E0E075
:103D0A001E0780F0F80131978F01AA81BB811496B2
:103D1A00ED93FC93AA81BB8112960E947A23319774
:103D2A00AC81A083AA81BB810E943B24FF2312F0AD
:103D3A000E947A2306C0AA81BB81EFEFFFEFED93C1
:103D4A00FC9319810881A9C1BA93AA9326970E9464
:103D5A00782410E0AC85BD85E0E0F0E0ED93FC93BB
:103D6A00EA89FB893196EA8BFB8B3197E4912E2FF6
:103D7A00E03009F415C1E12FE03039F4253211F4AD
:103D8A0011E002C00E9480230AC1E130A9F4253261
:103D9A0019F40E94802302C112E040E000E02D32B3
:103DAA0011F401E0FCC02B3211F44BE2F8C02032CE
:103DBA0011F440E2F4C002C0E23039F450E013E0FA
:103DCA00203311F40068EBC003C0E33009F0E7C008
:103DDA00203310F02A3308F007C0AAE05A9F502D6A
:103DEA00E22FE0535E0FDBC0E22FE33649F40E9474
:103DFA008723E889F989A481AA930E948D23CEC0DA
:103E0A00E33741F40E9487230E9493230E9475207E
:103E1A001E2F0AC0E03761F40E9487230E94932371
:103E2A000E9481201E2F086002600F7730E034C0A4
:103E3A00E43611F0E93611F4046002C0E53731F4D2
:103E4A00E2E8FCE1EE83FF8315E00CC0E83511F4EB
:103E5A00086003C0E83709F0A1C0ECE8FCE1EE8392
:103E6A00FF8314E002FF14C00E9487230E949D234F
:103E7A00AB85AA233AF4EA85FB850E94E523EA8703
:103E8A00FB874DE2403011F01F5F01C00B7F04C079
:103E9A000E9487230E949D2300FD11C0151778F404
:103EAA0007FF08C002FF04C00B7F242F115001C076
:103EBA0020E301C020E20E9480235150EFCF312F2E
:103ECA0001FF17C03030A1F003FF06C0EE81FF8169
:103EDA002591EE83FF8305C0AE81BF812D91AE830C
:103EEA00BF830E948023503009F051503150EACFED
:103EFA004BC020E3EE81FF810E943F24E887F987C7
:103F0A00EE81FF813296EE83FF83E885F985AA85E3
:103F1A00BB85AE17BF0750F02F5FA885B985EA8524
:103F2A00FB85EA1BFB0BEA87FB87EFCF2A3328F0D6
:103F3A0003FF02C0295F01C0295D04FD1AC02133B5
:103F4A0020F4A885B985119709F409C0531710F010
:103F5A0000FF01C013C020E207FF0BC020E300618D
:103F6A0002FF07C00B7F4A930E948D23503009F04D
:103F7A0051500E948023503009F051503150A88589
:103F8A00B985129708F0B5CF00FF08C0503031F05C
:103F9A005150E0E2EA930E948D23F8CF10E0E0CE80
:103FAA00AC85BD850E943B240E947F2464960895B7
:103FBA00FF92F82E26970E947A240E94A523309712
:103FCA0019F4EFEFFFEF31C0DE0116960E94DC23F1
:103FDA008D010E94A523EE83FF83E0E0E887E9874D
:103FEA000E94AC2321C0FF92F82E26970E947A24C1
:103FFA0020E030E00E94C423309719F4EFEFFFEF7E
:10400A0014C00E94A523309779F0DE0116960E940B
:10401A00DC238D010E94C423EE83FF830E94A52323
:10402A00E887F9870E94AC23F9010E9481242A9625
:10403A00FF900895FF92F82E26971A930A93DE01AD
:10404A0014960E94DC238D01E0E0EC83ED83EE837D
:10405A00EF83DE0118960E94DC230E943B24FA9328
:10406A00EA931A930A93E6E6FEE1FA93EA93DE01EB
:10407A0018966ADE198108812896FF900895BA93E6
:10408A00AA93B981A881109631F0FC81EB816A81EB
:10409A0061931197E9F7EB81FC8125960895BA930C
:1040AA00AA93E991F991A991B9916D9171916717C3
:1040BA0021F46623D1F7EE270895671BE1F3E1E0C7
:1040CA0008F4E2500895BA93AA93E991F991A99153
:1040DA00B991CD0161916D936623E1F7FC010895D1
:1040EA00BA93AA93A991B991EE27FF276D916623F6
:1040FA0011F03196FBCF0895BA93AA93AA27BB274A
:10410A00E991F9910590002011F01196FBCFFD017C
:10411A000895BA93AA93BB81AA816C91662361F030
:10412A00F981E881C895002029F031966015D1F708
:10413A00FD0104C01196F1CFEE27FF270C94BB2195
:10414A00BA93AA93AA81BB81CD01E881F9817191C1
:10415A00772311F4FC0109C06D916717C1F3019629
:10416A00DC01662391F7EE27FF270C94BB21BA9353
:10417A00AA93BB81AA81882799276D91662349F062
:10418A00F981E8810590002021F06015D9F70196A0
:10419A00F4CFFC010C94BB21BA93AA931A930A9305
:1041AA00EC81FD81309779F4E091D70BF091D80B2F
:1041BA00309719F4E0E0F0E02FC0E091D70BF091CE
:1041CA00D80BEC83FD830E94CB230E94BC20AC81D8
:1041DA00BD81EA0FFB1FEC83FD83AC81BD81EC91AD
:1041EA00E03041F4E0E0E093D70BE093D80BE0E055
:1041FA00F0E012C00E94CB230E948E208F013097DC
:10420A0029F0D8010F5F1F4FE0E0EC930093D70B22
:10421A001093D80BEC81FD811981088126960895A7
:10422A00BA93AA93B981A881EC918A2FAE2F0E94E2
:10423A00C621A82FEE2311F01196F6CFE894EC913F
:10424A00ED3211F4689402C0EB3209F41196662734
:10425A007727EC918A2FAE2F0E94BD21A82FEE233B
:10426A0079F0FB01660F771F660F771F6E0F7F1FAE
:10427A00660F771FED91FF27E0536E0F7F1FE9CF7F
:10428A00FB011EF4E095F095319622960895AA93C3
:10429A00E881F0E0E858F34EA491E9810E94E9230D
:1042AA0022960895AA931A93E981E73011F0EA3029
:1042BA0019F410914E0909C0E93019F410914F0907
:1042CA0004C0E830A1F410915E09E0914F09E03092
:1042DA0049F0103019F0EFEF188129C0EA81E09512
:1042EA00188125C0103019F4E0E0188120C0EA8155
:1042FA0018811DC0BA93AA93EA81E13021F4E881BA
:10430A00F981E49114C0E23029F4A881B9810E94AC
:10431A0052240DC0E33041F4A881B981E0916709C4
:10432A00F0916809099503C0A881B981EC91239697
:10433A000895AA93EB81E03029F4E881A981BA8132
:10434A00EC9314C0E23031F4E881A981BA810E9469
:10435A005E240CC0E33051F4E981FA81FA93EA93BE
:10436A00AA81E0916909F0916A090995249608954C
:10437A00AA93E1E0F991F03310F0FA3308F0EE274E
:10438A000895AA93E1E0F991F03229F0F93010F09A
:10439A00FE3008F0EE270895E0917E0AF0917F0A38
:1043AA006091800A7091810A08950E94782400E041
:1043BA0010E00895A1E0B0E00E94F9230895B0E06A
:1043CA00EA23FB23309708950E9402240E944D2479
:1043DA00089584E00E94DD1F289608950E94E9232B
:1043EA00E095E12108950E94C11AE0E0EA93EA9378
:1043FA000895E0E7F6E0FA93EA93E0E8EA9308958D
:10440A00A4EFB1E00C94D223BA93AA93EF97A6979C
:10441A00D150E0E0E883E9830E94782420E030E08C
:10442A0040E050E008950E94BD15A4E6B0E00E9465
:10443A00D2230C94CD15FE013896FA93EA93089587
:10444A00662777270E944D24FE01E758FE4F019008
:10445A00F081E02D0895FE01E95FFE4FFA93EA9399
:10446A00E5E0FDE1FA93EA93FE013C966627772799
:10447A000E944D24AECFEEE7F9E0FA93EA9308954D
:10448A00E0E0F1E0FA93EA93E8E8F3E160E070E053
:10449A000E944D240895FA93EA93E1E0F0E0FA933A
:1044AA00EA93EEE6F9E0FA93EA93A0E1B0E00C941D
:1044BA0068160E94BD15A4E6B0E00E94D223AEE6BB
:1044CA00B9E00E941521E83CA0E0FA070895FA93A2
:1044DA00EA93E0E8EA93A0E40C9439126627772776
:1044EA000E944D240895FE01ED58FE4F0190F0817F
:1044FA00E02DF4CFFA93EA93AAE1BDE10E94D1201C
:10450A00EEA3FFA30895E0E0EA93EAE0EA930895B0
:10451A00E0E0EA93E4E1EA930895EAEEFAE0FA9336
:10452A00EA930895E0935209F093530908950E947B
:10453A003D1EA4E6B0E00C94D22313B2E12FF0E0C2
:10454A00DE011E96AE0FBF1FEC9134CF0E94BD153F
:10455A0092CFE0E0F1E0FA93EA930895E0EDF7E014
:10456A0060E070E00E944D240895E8EBFBE060E013
:10457A0070E00E944D240895A4E6B0E00C94D22382
:10458A00FA93EA93E0E0F0E0FA93EA93EEE6F9E0D0
:10459A00FA93EA93A0E1B0E00E9468163097089572
:1045AA00E0E0EA93E0E1EA93AEE6B9E00C943D1E5E
:1045BA00AEE6B9E00C9415210E94BD15A2E3B0E065
:1045CA000C94D223E0936200E09162000895E0E047
:1045DA00EABBE0916200E860F5CFE77FE093620012
:1045EA00EFEFEABBE881EBBB0E949E190C94A61977
:1045FA00E695E695E695AE2F0C94FC19E0936100DA
:10460A00E091610008950E94201A0C940B1AEA0F97
:10461A00FB1FEE83FF830895EC85EA93EF81F8850B
:10462A003196EF83F8873197FA93EA93A0E00C94D6
:10463A009E21EC85EA93EF81F8853196EF83F8871E
:10464A003197089566277727DF01CB010C947F21E4
:10465A005A93AA850C9457210A930395E889EA93F9
:10466A005A9308950A930395A8890E94371AE42356
:10467A0008955E2FEC85EA93AF81B885882799273C
:10468A000E947F211E2E08950A930395E889EA93D2
:10469A00EE85EA93E985FA853196E987FA873197B3
:1046AA00D1CFBA93AA93A881B9810E946F240895A1
:1046BA000E947824E0915209F09153090895F80173
:1046CA000F5F1F4F04900895E0915209F09153092A
:1046DA003196E4910895EA93E0E0EA93E0E0F0E0AD
:1046EA00FA93EA93A9E00C94491BED91FD91319656
:1046FA00FE93EE9308952A93AD85BE85EF85F889DA
:10470A0009950895E889F9893497E88BF98B089512
:10471A00AD85BE85EF85F88909950895A889B98977
:10472A0014960E943B24EE83FF83AE81BF810895D5
:10473A00A889B98914960E943B24EA87FB870895C1
:10474A00DE011C960E94DC230E943B240895DE01B0
:10475A001A960E94DC230E943B24FA93EA931A9346
:10476A000A93E0E7FEE1FA93EA93DE011A960E94C1
:10477A00A91E9F01AE81BF81E0E0EC930895DE019E
:10478A001E960E94DC230E943B240895EC81FD8141
:10479A00FA93EA93AC81BD810895109639F0A895F1
:1047AA0080ED97E00197F1F71197C9F70895002472
:1047BA00AF0DB01D0895AE1BBF0B860B970B089566
:1047CA00F195E195F0400895EE230E2EEA2F19F0A7
:1047DA00EE0F0A94E9F70895EE230E2EEA2F19F048
:1047EA00E6950A94E9F70895EE230E2EFD0121F0CD
:1047FA00EE0FFF1F0A94E1F708956F2F660F660BFD
:10480A00762F0895EA17FB07E1E00CF0EE270895EA
:10481A00FA9FF02DEB9FF00DEA9FE02DF10D089520
:10482A000024112490E1AA0FBB1F001C111C0E1AB0
:10483A001F0A18F40E0E1F1E01C0A1609A9599F75F
:10484A00FD01D001089504D0EBDF0EF4B9DF08951D
:10485A00E894F7FF02C0B4DF6894B7FF06C0A095DA
:10486A00B095119600F8039400FA0895ED91FC9121
:10487A00119708950590F491E02D0895E881F98142
:10488A006A817B810895E883F9836A837B8308952B
:10489A007A936A93FA93EA930895E199FECFFF9384
:1048AA00FFB7F894AEBBBFBBE09AEDB3FFBFFF9171
:1048BA000895E19B02C0A895FCCF9FB7F894AEBBC0
:1048CA00BFBBE09A8DB3E81719F0EDBBE29AE19A03
:1048DA009FBF089500240A160B060895AE17BF0756
:1048EA008607970708955A934A933A932A931A93F5
:1048FA000A9308955D814C813B812A81198108813F
:10490A000895AC0FBD1F05900D928A95E1F70895A1
:00000001FF
